:100000000C948F000C9452200C9452200C9452208B
:100010000C9452200C9452200C9452200C94522098
:100020000C9452200C9452200C9452200C94522088
:100030000C9452200C9452200C9452200C94522078
:100040000C9452200C9452200C9452200C94522068
:100050000C9452200C9452200C9452200C94522058
:100060000C9452200C9452200C9452200C94522048
:100070000C9452200C9452200C9452200C94522038
:100080000C9452200C9452200C9452200C94522028
:100090000C9452200C9452200C9452200C94522018
:1000A0000C9452200C9452200C9452200C94522008
:1000B0000C9452200C9452200C9452200C945220F8
:1000C0000C9452200C9452200C9452200C945220E8
:1000D0000C9452200C9452200C9452200C945220D8
:1000E0000C9452200200045C80000C94A4020C9436
:1000F00066170C940C150C94480D0C94F11E0C947E
:10010000BD060C9436110C94041F0C94BE0F0C9475
:10011000DB110C945E1E0C94761E0C941A0A1124AA
:100120001FBECFEFD1E2DEBFCDBF00E00CBFE4EEDB
:10013000F0E040E019C0B791A7913791279107915E
:1001400007FD0EC097918791EF01F92FE82F0BBFA4
:1001500007900D92A217B307D9F7FE011BBE04C08A
:100160001D92A217B307E1F7E93EF40721F70E94B9
:0A017000291D0C94CC1FF894FFCF5A
:10017A002D2D2D436F6C756D6E204164647265730D
:10018A00732D2D2D2032206279746573200A003078
:10019A007825303258200A002D2D2D426C6F636B62
:1001AA002F5061676520416464726573732D2D2D2C
:1001BA002033206279746573200A00466C61736883
:1001CA00204944004572617365204D656D6F7279EF
:1001DA00004E414E44204164647265737365730036
:1001EA005772697465205465737400486572652096
:1001FA00697320776861742077617320696E7075FE
:10020A00747465643A20307825303258200A0052D6
:10021A00656164204D656D6F727900506172616D20
:10022A006574657220506167650025692D3E4461D9
:10023A0074612052656365697665643A2030782571
:10024A00303258200A00466C617368205374617416
:10025A00757300426C6F636B20436865636B6572EC
:10026A0000426C6F636B206973206D61726B656409
:10027A00206261640A00426C6F636B206170706572
:10028A0061727320636C65616E0A005265736574EE
:10029A0000312920466C617368204944200A0032E3
:1002AA0029204572617365204D656D6F7279200A48
:1002BA000033292057726974652054657374200AC3
:1002CA000034292052656164204D656D6F72792072
:1002DA000A00352920506172616D6574657220507B
:1002EA00616765200A00362920466C6173682053CD
:1002FA007461747573200A00372920426C6F636B2E
:10030A0020436865636B6572200A003829204E41D4
:10031A004E4420416464726573736573200A003920
:10032A0029205265736574200A002D3E5573657243
:10033A0020496E7075743A0A004F6E6520746F20FA
:10034A006D616E792E204D616B6520737572652023
:10035A006F6E6C79203420696E707574732E200A62
:10036A0000436F6C756D6E2041646472657373200F
:10037A002D3E20307825303258200A004F6E6520F5
:10038A00746F206D616E792E204D616B65207375D7
:10039A007265206F6E6C79203620696E7075747381
:1003AA002E200A00426C6F636B2F506167652041F3
:1003BA00646472657373202D3E203078253032587C
:1003CA00200A0057726F6E6720496E707574200A92
:1003DA004D616B65207375726520696E7075742046
:1003EA006973204845582076616C6964205B302027
:0703FA002D20465D200A00E2
:10040100577269746520456E61626C65200A0057F8
:10041100726974652044697361626C65200A0052D7
:10042100656164204465766963652049443A204DDD
:100431006963726F6E204944202830782530325824
:100441002920446576696365204944202830782550
:1004510030325829200A0044657669636520526567
:100461007365746564200A00446174612052656398
:100471006569766564200A00476574204665617484
:10048100757265733A2053746174757320283078DE
:1004910025303258290A0050726F6772616D20450C
:1004A100786563757465200A0050726F6772616DBB
:1004B100204C6F6164200A005061676520526561BC
:1004C10064200A00526561642066726F6D20436189
:1004D1006368653A200A00426C6F636B2045726164
:0504E1007365200A0014
:1004E60068076C094C836A9074A07AC0008068889B
:0604F60000846C8200810D
:1004FC002D3E41727261797320436C656172656443
:03050C00200A00C2
:10050F00494E4600696E66004E414E006E616E00A8
:10051F00494E4600696E66004E414E006E616E0098
:07052F00286E756C6C2900B9
:06053600286E696C29002B
:10053C00A3EAB0E0E4EAF2E00C94EC1D4C015901A2
:10054C00C756DF4F488359836A83C959D040212C41
:10055C00312C6E012BE8C20ED11C85E2782E2601BF
:10056C0030E8632ECE018D569F4FC456DF4F9983D2
:10057C008883CC59D0409C0140E8CF55DF4F28836D
:10058C0039834A83C15AD040C756DF4F4881C95975
:10059C00D040C656DF4FB881CA59D040C556DF4F40
:1005AC007881CB59D040E42FFB2F572F0E940D2080
:1005BC00662309F4D0C3CF57DF4F19821882C15874
:1005CC00D0408FEF9FEFCD57DF4F99838883C3586F
:1005DC00D040CB57DF4F19821882C558D040E1E08C
:1005EC00F0E0EC0FFD1FC957DF4FF983E883C758C4
:1005FC00D04020E830E0C757DF4F39832883C958F3
:10060C00D040842F9B2FA72FE12CF12CFC015A2FCB
:10061C000E940D2061111DC0E114F10411F197012C
:10062C005B2F672FC4010E94711BC756DF4F888157
:10063C009981AA81C959D0408E0D9F1DA11DF7FC2F
:10064C00AA95C756DF4F88839983AA83C959D0408E
:10065C0008C00196A11D6532F9F23FEFE31AF30AC7
:10066C00D5CFC756DF4F88819981AA81C959D0400F
:10067C00FC015A2F0E940D20653209F05AC39C01CF
:10068C004A2F2F5F3F4F4F4FC256DF4F288339837E
:10069C004A83CE59D040C756DF4F288339834A83CB
:1006AC00C959D040C756DF4F88819981AA81C95951
:1006BC00D040FC015A2F0E940D206B3241F4CF57D1
:1006CC00DF4F28813981C158D04024600BC06C3277
:1006DC00CCF06D3259F5CF57DF4F28813981C15895
:1006EC00D0402160CF57DF4F39832883C158D04089
:1006FC000196A11DC756DF4F88839983AA83C959D8
:10070C00D040D0CF603241F4CF57DF4F28813981B0
:10071C00C158D0402860E6CF633291F4CF57DF4FF9
:10072C0028813981C158D0402061DCCF603341F43D
:10073C00CF57DF4F28813981C158D0402260D2CFAA
:10074C006A3299F50196A11DC756DF4F88839983AC
:10075C00AA83C959D040D501ED91FC911197CF01D5
:10076C0002968D939C9380819181CB57DF4F998317
:10077C008883C558D04097FF3FC0CF57DF4F2881A3
:10078C003981C158D040B1E02B27CF57DF4F398387
:10079C002883C158D040919581959109CB57DF4F53
:1007AC0099838883C558D04027C0BC018A2F0E94EA
:1007BC007E1ACB57DF4F99838883C558D040C756D4
:1007CC00DF4F88819981AA81C959D040FC015A2FE9
:1007DC000E940D20062E000C770B605371096A30B5
:1007EC00710550F40196A11DC756DF4F888399837C
:1007FC00AA83C959D040E3CFCF57DF4F8881998165
:10080C00C158D04080FF07C08D7FCF57DF4F9983F1
:10081C008883C158D040C756DF4F88819981AA81FF
:10082C00C959D040FC015A2F0E940D206E3209F09C
:10083C0059C0CD57DF4F19821882C358D0409C0144
:10084C004A2F2F5F3F4F4F4FC756DF4F28833983B7
:10085C004A83C959D040F901542F0E940D206A32A5
:10086C00D1F40296A11DC756DF4F88839983AA83C2
:10087C00C959D040D501ED91FC911197CF01029649
:10088C008D939C9380819181CD57DF4F9983888381
:10089C00C358D04027C0842FB9010E947E1ACD576F
:1008AC00DF4F99838883C358D040C756DF4F888168
:1008BC009981AA81C959D040FC015A2F0E940D2060
:1008CC00062E000C770B605371096A30710550F4D9
:1008DC000196A11DC756DF4F88839983AA83C959F6
:1008EC00D040E3CFCE0187569F4F0E946118182F3E
:1008FC00C756DF4F9881C959D040C656DF4F888103
:10090C00CA59D040C556DF4F5881CB59D040E92F3A
:10091C00F82F0E940D20862F660F990B0E94E91F5D
:10092C008936910509F45BC0B4F48336910509F45A
:10093C0069C144F48532910509F4A4C1813691054D
:10094C0029F1B6C18436910509F449C08836910560
:10095C000CF42FC1ADC18037910509F4CDC04CF416
:10096C008E36910509F41BC18F36910509F47DC0B3
:10097C009FC18537910509F455C08837910509F455
:10098C0097C08337910509F093C15BC1612F70E06B
:10099C00A501C6010E948F1D892B09F4BAC1C75647
:1009AC00DF4F88819981AA81C959D0409C014A2F77
:1009BC002F5F3F4F4F4FC756DF4F288339834A83F2
:1009CC00C959D040FC015A2F0E940D20262FA60198
:1009DC00BE016F577F4FC4010E94140A97C1612F4B
:1009EC0070E0950141E050E0C6010E947710892B20
:1009FC0009F48FC1C756DF4F88819981AA81C959E3
:100A0C00D0400196A11DC756DF4F88839983AA83D6
:100A1C00C959D040A601BE016F577F4FC4010E9437
:100A2C00B80F74C1612F70E0950140E050E0C60131
:100A3C000E947710892B09F46CC1C756DF4F88814F
:100A4C009981AA81C959D0400196A11DC756DF4F83
:100A5C0088839983AA83C959D040A601BE016F57D8
:100A6C007F4FC4010E94601751C1612F70E0950146
:100A7C0040E050E0C6010E947710892B09F449C16F
:100A8C00C756DF4F88819981AA81C959D0400196F8
:100A9C00A11DC756DF4F88839983AA83C959D040BB
:100AAC00A601BE016F577F4FC4010E9406152EC1CF
:100ABC00612F70E0950140E050E0C6010E94771074
:100ACC00892B09F426C1C756DF4F88819981AA81E9
:100ADC00C959D0409C014A2F2F5F3F4F4F4FC756EB
:100AEC00DF4F288339834A83C959D040FC015A2FE0
:100AFC000E940D20262F4BC0950140E050E060EF86
:100B0C0070E0C6010E947710892B09F402C1C75608
:100B1C00DF4F88819981AA81C959D0400196A11DC6
:100B2C00C756DF4F88839983AA83C959D04086E082
:100B3C0026E335E040E0F901DE01AD56BF4F742FDE
:100B4C000E94831FD6012C9111963C9111971296FD
:100B5C004C91129713965C91139714966C91149771
:100B6C0015967C91159716968C91169717969C91C5
:100B7C00A0E00E94A91F51F400E010E0CF55DF4F18
:100B8C00288139814A81C15AD040BAC028E7A601D0
:100B9C00BE016F577F4FC4010E94420DB7C0612F39
:100BAC0070E09501A1014E0D5F1DC6010E949A14C3
:100BBC00B0C0612F70E0A501C6010E948F1D892B6A
:100BCC0009F4A7C0C756DF4F88819981AA81C959FA
:100BDC00D0409C014A2F2F5F3F4F4F4FC756DF4FDE
:100BEC00288339834A83C959D040FC015A2F0E946B
:100BFC000D20262FA601BE016F577F4FC4010E9406
:100C0C00B70684C0103809F084C0C756DF4F8881FE
:100C1C009981AA81C959D0400196A11DC756DF4FB1
:100C2C0088839983AA83C959D040D501ED91FC9151
:100C3C001197CF0102968D939C938081F60180834E
:100C4C005BC0103809F065C0C756DF4F88819981A9
:100C5C00AA81C959D0400196A11DC756DF4F888380
:100C6C009983AA83C959D040D501ED91FC91119774
:100C7C00CF0103968D939C9320813181428100E0BA
:100C8C0010E03EC0103809F044C0C756DF4F8881D1
:100C9C009981AA81C959D0400196A11DC756DF4F31
:100CAC0088839983AA83C959D040F601708224C0E5
:100CBC00D6017C92C256DF4F288139814A81CE59A8
:100CCC00D040C756DF4F288339834A83C959D04057
:100CDC00CF57DF4F19821882C158D040CB57DF4F06
:100CEC0019821882C558D0408FEF9FEFCD57DF4F38
:100CFC0099838883C358D04001E010E0462D9201BF
:100D0C00BE016F577F4FC4010E9441168E0D9F1D6F
:100D1C0011C0C756DF4F88819981AA81C959D0402B
:100D2C000196A11DC756DF4F88839983AA83C959A1
:100D3C00D040C7017101E80EF91EE214F3044CF423
:100D4C008FE490E090935704809356048FEF9FEFBD
:100D5C0003C0170119CCC101CD55DF4FE2E10C9452
:020D6C00231E44
:100D6E00A6E2B0E0EDEBF6E00C94EC1D9F8F8E8FBB
:100D7E00798F688F122FFB010190F081E02DFA8799
:100D8E00E987FB01C280D380248135813C8B2B8B7C
:100D9E008085918599A388A30680F781E02DFA833B
:100DAE00E983FA0180809180A280B38020E030E058
:100DBE00A901C501B4010E943D2087FF06C0B7FA04
:100DCE00B094B7F8B0948DE204C0F985F2FF0CC36D
:100DDE008BE2E981FA8180832B893C89215031098C
:100DEE0038872F8341E050E05A8B498B06C08B89A0
:100DFE009C8998878F831A8A198AD501C401BF7777
:100E0E000097E0E8AE07EFE7BE07D9F4212F110FE8
:100E1E00330B2154310989819A8149895A89840F6A
:100E2E00951F2A31310520F44FE055E060E003C0F4
:100E3E0043E155E060E00E94671F63E175E080E0EA
:100E4E001EC00197A048BF4730F1212F110F330B61
:100E5E002154310989819A8149895A89840F951FB4
:100E6E002A31310520F447E155E060E003C04BE143
:100E7E0055E060E00E94671F6BE175E080E00E9424
:100E8E00231FE981FA81AF0160E8E984FA840B89B6
:100E9E001C899C01A1C220E030E0A901C501B4016A
:100EAE000E943D201B821C82882309F467C0F0E853
:100EBE00FD832FE32E83212C312C20E030E040E205
:100ECE0051E46B817C818D819E810E944B20F62E98
:100EDE00072F8D879B87A50194010E94422018162B
:100EEE0054F03FEF231A330AFB820C834D854D835A
:100EFE005B855E83E2CF1C861B862B813C814D81F8
:100F0E005E81C501B4010E943D2087FF3DC084ED86
:100F1E0028168EEF380604F5EB85FC85EF2BE1F4F1
:100F2E0020E030E040E85AE5C501B4010E944B20B4
:100F3E004B015C0120E030E040E85AE56B817C819A
:100F4E008D819E810E944B206B837C838D839E833B
:100F5E0021E030E03C872B8720E030E040E251E496
:100F6E006B817C818D819E810E9447206B837C8367
:100F7E008D839E8331E0231A3108BFCF40E84D8325
:100F8E005FE35E83212C312C812F110F990B9BA3D4
:100F9E008AA30E94E91F8B8FD7FC03C0DEA2CDA2CD
:100FAE0004C0E6E0F0E0FEA3EDA3FB8DF73641F4BE
:100FBE00CD2809F01EC221E030E03EA32DA319C2B8
:100FCE008B8D8D8B04C037FE25C296E69D8BEDA1D1
:100FDE00FEA13196FEA3EDA3FD89F63699F437FEF8
:100FEE0008C01B821C8220E82D833FE33E83212C08
:100FFE00312C4B8D473631F08DA19EA1820D931D64
:10100E009EA38DA39B819B87EC81ED87FD81FE8B3B
:10101E002E812A8F750164011D8E1C8E8C8D9D8DE7
:10102E00EDA1FEA18E179F07C1F12B853D854E893F
:10103E005A8DC701B6010E9447200E9473122B01E0
:10104E003C010E941B206CA38701760117FB1095B3
:10105E0017F910952B853D854E895A8DC301B20126
:10106E000E94D5116B017C01F7FAF094F7F8F09419
:10107E0020E030E040E251E46B857D858E899A8DCB
:10108E000E9447206B877D878E8B9A8F4C8D5D8D4E
:10109E004F5F5F4F5D8F4C8FC1CF20E030E040EA55
:1010AE0050E46B857D858E899A8D0E944B202B0195
:1010BE003C019B01AC01C701B6010E943D2087FD9A
:1010CE000BC0A3019201C701B6010E943D20811100
:1010DE0006C0FCA1F0FD03C0412C512C3201A3012E
:1010EE009201C501B4010E9415204B015C012D89AE
:1010FE00253611F0310102C0612C712C23014DA156
:10110E005EA1441A550AC988DA8800E010E01C86F0
:10111E001B8689859A85807199279F8B8E8B641487
:10112E00750431F48B859C85892B09F49AC0A6C071
:10113E00DD8ECC8EE88DF98D808591850597C8164C
:10114E00D90680F72B813C814D815E81C501B401AA
:10115E000E9447200E9473126D877E878F87988B1F
:10116E000E941B20CB01EE89FF89EF2B69F4892B9E
:10117E0059F4FB8DF73641F477FE06C098012F5FC8
:10118E003F4F3D8F2C8F43C04B855C85452BB1F473
:10119E0077FE14C05FEFC51AD50AE981FA818C8DEE
:1011AE009D8DE80FF91F9EE29083EF81F8853197B0
:1011BE00F887EF8321E030E03C872B87E981FA81C5
:1011CE00EC0DFD1D1D8F0C8F8C8D9D8D892B49F087
:1011DE0030E331934C8D5D8D415051095D8F4C8FB5
:1011EE00F3CFC8018C0D9D1D2F813885201B310B2F
:1011FE006C01EFEFCE1ADE0AE981FA81E80FF91FD2
:10120E00605D6083A9014150510958874F83850164
:10121E00740117FB109517F910952B813C814D81A8
:10122E005E816D857E858F8598890E94D5114B01D3
:10123E005C01B7FAB094B7F8B09420E030E040E229
:10124E0051E46B817C818D819E810E9447206B834E
:10125E007C838D839E8351E0651A71080C8D1D8DE4
:10126E005ECFF985F4FF0AC0E981FA81EC0DFD1D10
:10127E008EE2808396012F5F3F4F690149815A812B
:10128E004C0D5D1D5C874B87FA011082FD89F5368A
:10129E0009F061C0E981FA8128A139A1E20FF31F9B
:1012AE003197108237FE06C031942194310801E047
:1012BE0010E002C000E010E0E8A1F9A131974981E9
:1012CE005A81E40FF51F22E030E08AE0E82EF12C7F
:1012DE00CF0149815A81841B950B2114310479F079
:1012EE00C101B7010E94B01E805D82931B01215087
:1012FE0031098F819885019798878F83E9CF1216D0
:10130E00130674F3FC013197E40FF51F012B11F452
:10131E002BE201C02DE220830297E981FA81E80FCA
:10132E00F91F2AA13BA1215431092A31310510F0B0
:10133E0025E601C025E420832F813885225031090E
:10134E0038872F83C816D90634F4AF0160E88B8531
:10135E009C850E94671F49815A813A0180E8882E38
:10136E00998591FF2EC090FD2CC0EF81F8851E1639
:10137E001F063CF5882DB3010E94231F29813A8157
:10138E00820F931F9C0149815A81241B350BE989D9
:10139E00FA892E173F074CF0FC012081EF81F8856A
:1013AE00E80FF91F20830197EDCF4F81588560E339
:1013BE0070E089819A818E0F9F1F0E94D71F1C8A11
:1013CE001B8A882DB3010E94231FE984FA840B899E
:1013DE001C899C01682DA3018E8D9F8D0E94A413E4
:1013EE00A696E2E10C94231E598553FF00CD80E2B0
:1013FE00F0CC2CEF22162FEF32064CF04DA15EA151
:10140E00241635060CF4DFCD55E65D8BFBCD35E6A7
:0A141E003D8BF8CD46E64D8BF5CD71
:10142800A0E2B0E0EAE1FAE00C94EC1D9D8F8C8F0D
:10143800FB01298320812D8331813E8F8281938115
:101448009B8B8A8B24813581398728878085918574
:10145800998F888F46805780FA01C080D180E280BA
:10146800F38020E030E0A901C701B6010E943D20C9
:1014780087FF06C0F7FAF094F7F8F0948DE204C0FD
:101488005D8152FFF6C28BE2F2018083288539859F
:10149800215031093F872E8741E050E05C834B8320
:1014A80006C0888599859F878E871C821B82B70115
:1014B800A6017F77E9810E2E000CFF0BF98BE88BD4
:1014C80041155105F0E86F07FFE77F07C1F4288948
:1014D8003989215431098B819C81840D951D2A31CC
:1014E800310520F44FE155E060E003C043E255E0E8
:1014F80060E00E94671F63E275E080E01CC08B819A
:101508009C81840D951D4130510560487F47E8F066
:1015180028893989215431092A31310520F447E2D3
:1015280055E060E003C04BE255E060E00E94671FB1
:101538006BE275E080E00E94231FA20160E8ED8065
:10154800FE8C088519859C018CC220E3FC01208350
:10155800EB81FC813196E40DF51D2B813C812E5FDA
:101568003F4F3C832B8348895989415451095B8FEC
:101578004A8F4A31510510F088E701C088E5808319
:1015880020E030E0A901C701B6010E943D20612C8E
:10159800712C1F8E1982882309F464C050E858A35F
:1015A8008FE38A832F8D398148A15A816F8D798184
:1015B80088A19A810E9415205B018C01A7019601E0
:1015C8000E94422018160CF442C09FEF691A790A4B
:1015D800AF8EB98208A31A83E5CF20E030E040E05F
:1015E8005FE36F8D798188A19A810E944B2020E06A
:1015F80030E0A9010E943D20811118C020E030E0B0
:1016080040E85AE56F8D798188A19A810E944B2024
:101618006F8F798388A39A8320E030E040E85AE509
:10162800C701B6010E944B206B017C0120E030E02D
:1016380040E05FE36F8D798188A19A810E944B20F9
:101648006F8F798388A39A83A1E06A1A71082F8D16
:10165800398148A15A81C701B6010E943D2087FD02
:10166800BCCF04C0E0E8E8A3FFE3FA832A893B89FA
:1016780037FD02C0C90102C088E190E0AC014F5FAC
:101688005F4F5B874A878F8C9980A8A0BA80160124
:1016980087011F821E829401A501B101C8010E9421
:1016A80047200E9473126C8B7D8B8E8B9F8B9401CD
:1016B800A5010E944B209B01AC01B101C8010E9409
:1016C80014201B018C0120E030E040E85DE3B40108
:1016D800C5010E944B204B015C018E819F810196C0
:1016E8009F838E83EA89FB89F7FF09C020E030E0F9
:1016F800A901B101C8010E943D20882341F02A8533
:101708003B854E815F81421753072CF204C08E81BE
:101718009F819B878A8720E030E040E051E4B40154
:10172800C5010E944B204B015C019B01AC01B1013A
:10173800C8010E943D2087FD12C0A5019401B10196
:10174800C8010E943D2081110DC06C897D898E8958
:101758009F890E941B2061707727672B19F4812CC1
:10176800912C5401A5019401C701B6010E941520CE
:101778006B017C01DC01CB01BF770097A048BF4714
:1017880009F4A5CE2E843F84F2E02F1A31082A8569
:101798003B85319521953109398B288B0B811C812B
:1017A800A12CB12C1F821E82812C912C488D598D21
:1017B800455051095D8B4C8BEC89FD890E171F072D
:1017C8000CF091C02F8D398148A15A81C701B6010B
:1017D8000E9447200E9473126A877B878C879D87A7
:1017E8000E941B20AB016115710539F48114910425
:1017F80021F05FEFA51AB50A4DC0EE81FF81EF2BEE
:1018080089F48114910471F0F201E00FF11F2EE2C6
:10181800208331E0231A31080F5F1F4FE1E0F0E029
:10182800FF83EE83F201E00FF11F950121153105C9
:1018380029F0A0E3A19321503109F8CFF801EA0D6E
:10184800FB1DFF87EE872A183B084A3051051CF418
:10185800605D7F4F02C0695A7F4F2A8D3B8D2A31C8
:10186800310550F4CB018062815691094A9720F4E2
:10187800CB010E94E01FBC010E851F850F5F1F4F23
:10188800EE85FF85E40DF51D608331E0231A3108EC
:10189800A12CB12C2F8D398148A15A816A857B856D
:1018A8008C859D850E944B209B01AC01C701B60128
:1018B8000E9414206B017C0120E030E040E85DE3E9
:1018C8006F8D798188A19A810E944B206F8F7983CF
:1018D80088A39A8341E0841A910888899989881590
:1018E800990509F069CF2E813F81232B51F5F2012B
:1018F800E00FF11FA114B104E9F04A895B891416BD
:101908001506C4F45D8150FD15C08EE28083F80190
:101918003196E40DF51DC50120E321930197E9F700
:101928000A0D1B1D0F5F1F4FC50180959095280E4E
:10193800391E07C08D8184FF04C08EE280830F5F4B
:101948001F4FF201E00FF11FFF83EE831082E88D35
:10195800F98DE40DF51D3197108277FE07C071945B
:1019680061947108EE24E394F12C02C0E12CF12C6F
:10197800E88DF98D3197E40DF51D21E030E08AE01E
:10198800C82ED12CCF01841995096114710469F00E
:10199800C301B6010E94B01E805D82933B012150B5
:1019A800310941E0241A3108EDCF2130310581F3A6
:1019B800FC013197E40DF51DEF2811F42BE201C06D
:1019C8002DE220830297F201E80FF91F2A8D3B8D43
:1019D8002A31310510F020E701C020E520830817DF
:1019E800190734F4AF0160E88E819F810E94671F58
:1019F800320130E8832E4D8141FF28C040FD26C0CA
:101A080052E0251A31081214130404F5882DB30185
:101A18000E94231F840D951D9C01241935094B81B3
:101A28005C81241735073CF0FC012081E20DF31D91
:101A380020830197F1CFA10160E370E08B819C8145
:101A4800840D951D0E94D71F19861886882DB3010D
:101A58000E94231FED80FE8C088519859C01682D46
:101A6800A3018C8D9D8D0E94A413A096E2E10C9495
:0C1A7800231E5D8153FF15CD80E206CDDA
:101A8400A4E1B0E0E8E4FDE00C94EC1D98878F83BA
:101A94007A8369835C8B4B8B122FDB011296ED9159
:101AA400FC91139714962D913C9115973E832D83A9
:101AB400ED90FC90119716962D903C901797F7FD9A
:101AC40003C0E894E1F802C0E1E0F0E0C7018071EE
:101AD40099279A878987E4FE1FC0AB89BC892C911A
:101AE40011963C91119712964C91129713965C9112
:101AF400139714966C91149715967C9115971696D6
:101B04008C91169717969C91A0E00E94A91F21F032
:101B14008D819E81029702C08D819E8197012870DC
:101B240033273C872B87E3FC0197AB89BC894C9016
:101B340011965C90119712966C90129713967C9064
:101B4400139714968C90149715969C901597169647
:101B5400AC9016971796BC90A981BA811896CD902F
:101B6400DC901997B1E0CB1AD108D101AC0DBD1DA1
:101B74001C929C838B839F01281B390B3E872D87E6
:101B8400C70182709927988B8F87812F012E000CB3
:101B9400990BDC01A154B109BA8BA98B32E0C316AD
:101BA400D10434F489859A85892B09F04CC073C01B
:101BB4009201A301B401C501A0E00E94A91F81F113
:101BC400B1E0CB1AD108C2018F7099278A309105F0
:101BD40014F4C09602C0895A9F4FE989FA897A970A
:101BE40048F49C012062215631092A31310510F450
:101BF4000E94E01FF101EC0DFD1D80832B813C81CF
:101C0400215031093C832B839201A301B401C50106
:101C140004E00E94D01D29013A014B015C01BECFB2
:101C24008D859E85AB81BC818A0F9B1F1816190672
:101C34003CF21A161B060CF0B5CFEF85F889EF2B92
:101C440009F0BECFAFCFAB89BC892C9111963C91E2
:101C5400119712964C91129713965C9113971496C0
:101C64006C91149715967C91159716968C911697EE
:101C740017969C91A0E00E94A91F69F0F101EC0D58
:101C8400FD1D31971083B2E0CB1AD108F101EC0DA0
:101C9400FD1D80E38083EB85FC85EF2B41F0F1E0B3
:101CA400CF1AD108F101EC0DFD1D80E28083A981DA
:101CB400BA8118962D913C911997215031092C190C
:101CC4003D09C20CD31CA60160E80D811E818F81E1
:101CD40098850E94A4139C01EF81F88580819181ED
:101CE40090FF09C0A981BA8112968D919C91139796
:101CF400821793070CF4C9016496E2E10C94231E45
:101D0400CF92DF92EF92FF920F931F93CF93DF93C3
:101D14006B01E82E25EC31E040E00E944B1D892B3D
:101D240029F40E94061C0E94381A17C12EEC31E0D7
:101D340040E08E2DB6010E944B1D892B49F4109270
:101D44004F0410924E040E94061C0E943E1E05C1C0
:101D54002BED31E040E08E2DB6010E944B1D892B06
:101D640019F40E94001BF9C02AEE31E040E08E2DE8
:101D7400B6010E944B1D892B81F510924F041092DD
:101D84004E040E94061C80E00E94A6166AE771E0D9
:101D940080E00E94BA1C80E00E940C1362EA71E0A9
:101DA40080E00E94BA1C81E00E940C1380E594E05C
:101DB4007C0120E8022F0F2EFEEFCF2EF2E0DF2E63
:101DC400F02D25EF31E040E060E070E085E090E048
:101DD4000E94B8170E94C41AC0C029E132E040E052
:101DE4008E2DB6010E944B1D892B89F410924F044D
:101DF40010924E040E94061C0E94621C6DE173E066
:101E040080E80E94BA1C8AE00E94F11FA6C025E265
:101E140032E040E08E2DB6010E944B1D892B99F5CE
:101E240081E090E090934F0480934E040E94061C3E
:101E34000E948E1CC0E0D0E021C0FE01E35EFC4F96
:101E440080811F928F93DF93CF9384E392E0A0E08D
:101E5400AF939F938F930EEF12E01F930F930E9403
:101E6400EB1EB80180E80E94BA1C21968DB79EB77C
:101E740009960FB6F8949EBF0FBE8DBFCF3FD10514
:101E8400E1F2DCF26AC020E532E040E08E2DB601DA
:101E94000E944B1D892B29F40E94061C0E94F119F3
:101EA4005CC02DE532E040E08E2DB6010E944B1D52
:101EB400892BC1F410924F0410924E040E94061C08
:101EC4000E94621C809149048F3F31F06BE672E0FE
:101ED40080E00E94BA1C41C060E872E080E00E9489
:101EE400BA1C3BC025E932E040E08E2DB6010E94C9
:101EF4004B1D892B29F40E94061C0E94351F2DC0FE
:101F04006BE972E080E00E94BA1C69EA72E080E04A
:101F14000E94BA1C6BEB72E080E00E94BA1C6BEC6E
:101F240072E080E00E94BA1C6CED72E080E00E94D6
:101F3400BA1C60EF72E080E00E94BA1C62E073E0B9
:101F440080E00E94BA1C65E173E080E00E94BA1C44
:101F540069E273E080E00E94BA1CDF91CF911F9187
:0C1F64000F91FF90EF90DF90CF90089558
:101F7000ADE0B0E0EEEBFFE00C94EC1D9A878987B2
:101F80007C836B83FA01DB011296CD90DC90139772
:101F900014968D919C9115979E838D83ED90FC9066
:101FA0001197FA82E98216960D90BC91A02DB88700
:101FB000AF8320803180428053806480758086802A
:101FC00097808101B42DF52DE62D7B868C869D862C
:101FD0009101A201B301C401A0E00E94A91F4CF429
:101FE0000E94571F8901B42FF52FE62F7B878C871E
:101FF0009D87D7FC04C0E894E1F8FA82E982910158
:10200000A201B301C401A0E0ED80FE800E94A91FDF
:102010001CF0898182FF04C081E0E81AF10805C044
:1020200083FF03C091E0E91AF108CE0101965C013B
:102030008AE0C82ED12C2B2F3F2F4E2F5B856C852D
:102040007D858B819C810E943011FC019101A20150
:10205000B301C401A0E00E94A91F1CF0898182FF86
:1020600012C031970F8118850E0F1F1F9101A20119
:10207000B301C401A0E00E94A91F14F08BE201C0CB
:102080008DE2D80108C083FF07C03197AF81B885C2
:10209000AE0FBF1F80E28C93E980FA80AB81BC81D8
:1020A00018962D913C911997215031092E1B3F0B09
:1020B0008F819885E80FF91FAF0160E80D811E81BF
:1020C00089859A850E94A4139C01A985BA858D9162
:1020D0009C9190FF07C0EB81FC81828193818217E4
:0E20E00093070CF4C9012D96E2E10C94231E27
:1020EE000F931F93CF93DF93FC01D90168387105CD
:1020FE0031F194F461387105B1F12CF46038710549
:10210E0009F478C09FC06238710509F459C064386B
:10211E00710509F46FC096C0603A710509F448C0A4
:10212E002CF46039710509F44BC08CC0603C71050C
:10213E0009F476C0603F710509F472C083C0CD9179
:10214E00DC911197CE0102968D939C93452B39F01D
:10215E009881892F880F880B908381835BC088813B
:10216E008083118268C0CD91DC911197CE010496C7
:10217E008D939C93452B99F088819981AA81BB817F
:10218E00AC01BD01770F440B542FBA0180839183AC
:10219E00A283B383448345834683478328C0088143
:1021AE0019812A813B81008311832283338345C0A9
:1021BE00CD91DC911197CE0102968D939C9323C005
:1021CE00CD91DC911197CE0108968D939C937881D9
:1021DE0069815A814B813C812D819E818F817083D3
:1021EE00618352834383348325839683878381E07F
:1021FE0090E02AC0CD91DC911197CE0102968D937D
:10220E009C93452BA1F099812881892F880F880BEB
:10221E002083918382838383848385838683E6CF21
:10222E00CD91DC911197CE0102968D939C930881EE
:10223E0019810083118312821382148215821682F1
:10224E001782D5CF80E090E0DF91CF911F910F9153
:02225E000895E1
:10226000A2E1B0E0E6E3F1E10C94EC1DFC010A8B85
:102270001B832C83732E642E552E462E7D83CC8695
:10228000D886BF82AE82868197819B878A87D50157
:102290004D915C91228133818085918501971C014C
:1022A00037FF02C021E030E0EA85FB85E80FF91F27
:1022B00010824701E1E0F0E0FA83E983C9018E1959
:1022C0009F099E878D87DA01A270BB27B88BAF87E5
:1022D000B885BB0FBB0BB98B1214130474F0A98122
:1022E000BA81AB2B09F05CC0AE81BF818D919C910E
:1022F00011978F7E8D939C9353C02A893B814C818B
:10230000572D662D752D842D9D81A0E00E94A91F5B
:10231000B1F1E1E02E1A3108FC85F987AF2EB884BF
:10232000C988DC2CEC2CFC2C0C2D1C2D2A893B8123
:102330004C81572D662D752D842D9D810E94751F12
:10234000C90129839A83EA85FB85E20DF31D805D2F
:10235000808381E0881A91082A893B814C81572D1E
:10236000662D752D842D9D810E94771F2A8B3B83BE
:102370004C83752E662E572E482E9D83ADCF8D85AE
:102380009E85880D991D181619061CF2181419043B
:102390000CF0A5CFEF85F889EF2B09F0BACF9FCFCE
:0A23A000C1016296E2E10C94231ED5
:1023AA00A5E1B0E0EBEDF1E10C94EC1D4701580119
:1023BA000E944B202B013C01A80197010E94152085
:1023CA00162FC72ED82EF92E862F9C2DAD2DBF2D58
:1023DA0089839A83AB83BC83AA81FB81EC81ED80DC
:1023EA003E802F8008850D8B5E2F5F71212F3A2F3B
:1023FA004F2F60E070E080E090E021153105410543
:10240A0000E15007610571058105910509F05EC07B
:10241A005E2F6E2D732D822D9D8904E30E94D01D9F
:10242A002D873E874F87588B698B7A8B8B8B9C8B3A
:10243A008D859E8597708F3F974009F447C0A30109
:10244A009201612F7C2D8D2D9F2D0E9414209B01BE
:10245A00AC01C501B4010E943D208823B9F1498627
:10246A005A866B867C8629853A854B855C85C501AB
:10247A00B4010E941520B62E872E982EA92E262F3B
:10248A00372F482F592F612F7C2D8D2D9F2D0E947C
:10249A003D20811118C02B2D8B2D982DA92DBA2DD9
:1024AA0089839A83AB83BC833A814B815C816E2D8D
:1024BA00732D822D9D89A1E00E94B51F122FC32E74
:1024CA00D42EF52E03C01B2D6401FA2C612F7C2D0E
:0C24DA008D2D9F2D6596E2E10C94231ED1
:1024E6004F925F926F927F928F929F92AF92BF921E
:1024F600CF92DF92EF92FF92CF93DF93CDB7DEB705
:1025060028970FB6F894DEBF0FBECDBF6B017C01D6
:10251600DC01CB0147E1B695A795979587954A9536
:10252600D1F799278F579109873191059CF597FD2A
:1025360036C088248A94982C3FE7A32EB12C04C079
:10254600B594A794979487948A95D2F7D501C40138
:102556008C219D21AE21BF21892B8A2B8B2BD1F07B
:1025660020E030E040E85BE7C701B6010E94152095
:102576006D837E838F839887F7FE04C0C80CD91CB1
:10258600EA1CFB1C80949094A094B094C820D92097
:10259600EA20FB205C2D4D2D3E2D2F2D21C020E065
:1025A60030E040E85BE7C701B6010E941520698369
:1025B6007A838B839C83F7FE0FC0D701C601880FF1
:1025C600991FAA1FBB1F892B8A2B8B2B19F350E04F
:1025D60040E030E82FEB04C050E040E030E020E07F
:1025E600652F742F832F922F28960FB6F894DEBF8F
:1025F6000FBECDBFDF91CF91FF90EF90DF90CF90D0
:10260600BF90AF909F908F907F906F905F904F900C
:02261600089525
:10261800CF92DF92EF92FF920F93082F80E00E94F3
:10262800A616011144C08091580490915904059749
:1026380044F063E473E080E00E94BA1C80E00E94EA
:10264800A6160E94041780E090E019C09C01992307
:1026580014F42F5F3F4F35952795FC01E050FE4F4E
:10266800408160E1469FA0011124FC01EF5FFD4F0E
:102678005081F901E05BFB4F452B40830296833084
:10268800910524F380E594E07C0120E8022F0F2EC9
:10269800FEEFCF2EF2E0DF2EF02D2BE633E040E008
:1026A80060E070E082E090E00E94B81743C080913B
:1026B800580490915904079744F066E873E080E065
:1026C8000E94BA1C80E00E94A6160E94041780E0AF
:1026D80090E019C09C01992314F42F5F3F4F359562
:1026E8002795FC01E050FE4F408160E1469FA00124
:1026F8001124FC01EF5FFD4F5081F901EE5AFB4FA9
:10270800452B408302968530910524F380E594E0BB
:102718007C0120E8022F0F2EFEEFCF2EF2E0DF2EF5
:10272800F02D2EEA33E040E062E070E083E090E0D4
:102738000E94B8170F91FF90EF90DF90CF90089507
:102748002F923F924F926F927F928F92AF92BF9249
:10275800CF92DF92EF92FF920F931F93CF93DF9365
:10276800CDB7DEB766970FB6F894DEBF0FBECDBF04
:102778005C013A01862E6901C701817099279C8BFB
:102788008B8BE0FC1DC020173107D4F47801EC18BE
:10279800FD08FE8AED8AA70191E1E916F10410F01F
:1027A80040E150E060E270E0CE0101969A8B898B9F
:1027B8000E94D71F89899A891C0120E8422E0BC0E4
:1027C8009601682DA301C5010E94711BC016D10690
:1027D800ECF2C60125C090E1E916F10458F020E1B9
:1027E80030E0642DA101C5010E94711B80E1E81A47
:1027F800F108F1CF2D893E892F70332789899A896D
:10280800AC0160E8C5010E94711B8B899C89892BEA
:1028180031F49601682DA301C5010E94711BC801FE
:1028280066960FB6F894DEBF0FBECDBFDF91CF918D
:102838001F910F91FF90EF90DF90CF90BF90AF90D6
:0E2848008F907F906F904F903F902F9008954B
:1028560010C00E94292058F00E94222040F029F43E
:102866005F3F29F00C94372051110C9431200C94C1
:102876004F200E946D1D68F39923B1F3552391F300
:10288600951B550BBB27AA2762177307840738F0D9
:102896009F5F5F4F220F331F441FAA1FA9F335D036
:1028A6000E2E3AF0E0E832D091505040E695001CEA
:1028B600CAF72BD0FE2F29D0660F771F881FBB1FA4
:1028C600261737074807AB07B0E809F0BB0B802D82
:1028D600BF01FF2793585F4F3AF09E3F510578F0AE
:1028E6000C9437200C9431205F3FE4F3983ED4F3E8
:1028F600869577956795B795F7959F5FC9F7880F82
:10290600911D9695879597F90895E1E0660F771FD3
:10291600881FBB1F621773078407BA0720F0621B64
:0E292600730B840BBA0BEE1F88F7E095089533
:10293400CF93DF93DC01F90164387105D9F164F4B4
:102944006138710521F16238710509F440C06038BD
:10295400710509F054C02EC060397105C1F184F4C9
:102964006838710509F04BC0C081D181CE0102964F
:1029740091838083E881F981ED93FC9340833CC08B
:10298400603A7105B9F0603C7105A1F038C0C081AE
:10299400D181CE01029691838083E881F981ED9300
:1029A400FC93052E000C660B770B408351836283E6
:1029B400738322C0C081D181CE010296918380832A
:1029C400E881F981ED93FC935183408315C0C08164
:1029D400D181CE01029691838083E881F981ED93C0
:1029E400FC9351834083852F880F880B82838383D4
:1029F400848385838683878381E090E002C080E0BE
:082A040090E0DF91CF910895ED
:102A0C00A2E0B0E0ECE0F5E10C94EC1D1C014B01F4
:102A1C00FA01DB0112962D913C91139714964D906F
:102A2C005C9015978D919C9111979A83898316963A
:102A3C006D907C90179737FD03C08D7F9A838983A7
:102A4C000081118122813381448155816681778196
:102A5C00FE0131965F0188E0C82ED12C7201C401B1
:102A6C000E943011298124FF06C00197F301E80F61
:102A7C00F91F20E32083298123FF06C00197F3016E
:102A8C00E80FF91F20E22083E980FA80D401189620
:102A9C002D913C91199721503109281B390B860D2A
:102AAC00971DAC0160E88201C1010E94A4139C0136
:102ABC00F1018081918190FF08C0D40112968D9113
:102ACC009C911397821793070CF4C9012296E2E1AB
:042ADC000C94231E15
:102AE0000FC00E94222038F00E94292020F0952358
:102AF00011F00C9437200C944F2011240C943120A9
:102B00000E946D1D70F3959FC1F3950F50E0551F06
:102B1000629FF001729FBB27F00DB11D639FAA2732
:102B2000F00DB11DAA1F649F6627B00DA11D661F81
:102B3000829F2227B00DA11D621F739FB00DA11DA2
:102B4000621F839FA00D611D221F749F3327A00D5C
:102B5000611D231F849F600D211D822F762F6A2FF8
:102B600011249F5750409AF0F1F088234AF0EE0F5D
:102B7000FF1FBB1F661F771F881F91505040A9F78A
:102B80009E3F510580F00C9437200C9431205F3F1C
:102B9000E4F3983ED4F3869577956795B795F795C6
:102BA000E7959F5FC1F7FE2B880F911D969587953E
:042BB00097F90895F4
:102BB40011C00E94222038F00E94292020F039F40C
:102BC4009F3F19F426F40C944F200EF4E095E7FB94
:102BD4000C943720E92F0E946D1D58F3BA17620731
:102BE40073078407950720F079F4A6F50C94302038
:102BF4000EF4E0950B2EBA2FA02D0B01B901900114
:102C04000C01CA01A0011124FF27591B99F0593F57
:102C140050F4503E68F11A16F040A22F232F342F9F
:102C24004427585FF3CF469537952795A795F040ED
:102C34005395C9F77EF41F16BA0B620B730B840B02
:102C4400BAF09150A1F0FF0FBB1F661F771F881FBA
:102C5400C2F70EC0BA0F621F731F841F48F4879512
:102C640077956795B795F7959E3F08F0B0CF939504
:0E2C7400880F08F09927EE0F97958795089521
:102C82002F923F924F926F927F928F92AF92BF920A
:102C9200CF92DF92EF92FF920F931F93CF93DF9326
:102CA200CDB7DEB727970FB6F894DEBF0FBECDBF04
:102CB2006C017B013901842E98018FE2282E85E078
:102CC200382E80E0482E87E0F101AE014F5F5F4F62
:102CD200DA01742D0E94831FF70102811381A480FF
:102CE200B580E080F18061147104810419F43A0125
:102CF200F0E88F2E2115310529F4882DB3010E94A9
:102D0200231F9C0117FD04C00217130708F4980142
:102D12008501682DA301C6010E94A41327960FB650
:102D2200F894DEBF0FBECDBFDF91CF911F910F91FF
:102D3200FF90EF90DF90CF90BF90AF908F907F90F9
:0A2D42006F904F903F902F9008957E
:102D4C00CF92DF92EF92CF93C82F64E373E080E0D1
:102D5C000E94BA1C10925904109258040E94F81F39
:102D6C0080931C0325C080915804909159040196BE
:102D7C00909359048093580480915A0490915B0469
:102D8C00FC01E050FE4F20838E3F910520F0109205
:102D9C005B0410925A0480915A0490915B04019642
:102DAC0090935B0480935A040E94F81F80931C0339
:102DBC0020911C032D30B9F6E0915A04F0915B047C
:102DCC00E050FE4F108210925B0410925A0480E087
:102DDC0092E06C0120E8E22E8E2DB6010E94BA1C06
:102DEC008AE00E94F11FCC2321F08E2DB6010E94A7
:0C2DFC00820ECF91EF90DF90CF900895F1
:102E0800CF92DF92EF92FF920F93CF93DF93C0E0C0
:102E1800D0E046C0FE01E050FE4F808190ED980F53
:102E28009A3028F4FE01E050FE4F908338C09FEBA3
:102E3800980F963030F4FE01E050FE4F87538083A0
:102E48002EC09FE9980F963030F4FE01E050FE4FF7
:102E58008755808324C08D3039F18A3029F1882341
:102E680019F16DEC73E080E00E94BA1C80E092E0FA
:102E78007C0120E8022F0F2EFEEFCF2EF2E0DF2E8E
:102E8800F02D25EF31E040E060E070E081E090E077
:102E98000E94B8170E94061C80E00E940C1321961D
:102EA800C630D1050CF4B6CFDF91CF910F91FF90CA
:082EB800EF90DF90CF90089528
:102EC000A2E0B0E0E6E6F7E10C94EC1D3C014B011A
:102ED000FA01DB0112962D913C91139714964D90B7
:102EE0005C9015978D919C9111979A838983169682
:102EF0002D903C90179737FD03C08D7F9A8389836F
:102F000000811181228133814481558166817781DD
:102F1000FE0131965F018AE0C82ED12C7201C401F6
:102F20000E943011E980FA80D40118962D913C91CD
:102F3000199721503109281B390B820D931DAC01C3
:102F400060E88201C3010E94A4139C01F301808107
:102F5000918190FF08C0D40112968D919C91139796
:102F6000821793070CF4C9012296E2E10C94231E08
:102F70003F924F925F926F927F928F929F92AF9209
:102F8000BF92CF92DF92EF92FF920F931F93CF9356
:102F9000DF935C014B01722E132F342E2701602E1C
:102FA000C0E0D0E026C0CE01880D991D462D9201CB
:102FB000280F391F411D97FD4A95A42FC901F9011A
:102FC0005A2F0E940D201F926F933F921F937F9262
:102FD000DF92CF920E94FE1EB60180E80E94BA1CCA
:102FE00021968DB79EB707960FB6F8949EBF0FBE79
:102FF0008DBFCA15DB05BCF2DF91CF911F910F91F8
:10300000FF90EF90DF90CF90BF90AF909F908F9008
:0C3010007F906F905F904F903F9008956C
:10301C00CF92DF92EF929A01462F009781F56901CA
:10302C00E42E52E0C50ED11CE11CF6015E2D0E946F
:10303C000D206EBD0DB407FEFDCF5EB5509355044B
:10304C006901E42E53E0C50ED11CE11CF6015E2D86
:10305C000E940D206EBD0DB407FEFDCF5EB55093E2
:10306C0055042C5F3F4F4F4FF901542F0E940D20F8
:10307C006EBD0DB407FEFDCF2EB520935504019700
:10308C00B1F41EBC0DB407FEFDCF8EB58093550474
:10309C001EBC0DB407FEFDCF8EB58093550481E0A8
:1030AC008EBD0DB407FEFDCF8EB580935504EF9009
:0630BC00DF90CF900895A3
:1030C200CF92DF92EF92DC0190E0292F30E0220FC5
:1030D200331F6901032E000CEE086E2DA6014A5122
:1030E2005B4F6F4F6A01E62EFA015E2D0E940D20A2
:1030F200862F61110EC02F5F3F4F032E000C440B31
:103102002A513B4F4F4FF901542F0E940D20862F19
:1031120025C0CD90DD90EC901297F6015E2D0E94B5
:103122000D20861316C02F5F3F4F032E000C440B59
:103132002A513B4F4F4FF901542F0E940D20962FD9
:103142005FEFC51AD50AE50ACD92DD92EC9212978D
:1031520001C09F5F9B3008F4B8CF892FEF90DF90BA
:04316200CF9008956D
:103166006F927F928F92EF92FF920F931F93CF935E
:10317600DF93CDB7DEB761970FB6F894DEBF0FBE0B
:10318600CDBFFE01319651E1DF011D925A95E9F757
:10319600A2E0B1E0BA83A9839C838B8377FF09C041
:1031A6008FE490E090935704809356048FEF9FEF3F
:1031B60019C03901842E7C01615071097F836E83A9
:1031C6009801682DA301CF010E94701E488559857C
:1031D6002E813F814217530708F49A01F701E20F47
:1031E600F31F108261960FB6F894DEBF0FBECDBFF7
:1031F600DF91CF911F910F91FF90EF908F907F906D
:043206006F90089528
:10320A006F927F928F92EF92FF920F931F93CF93B9
:10321A00DF93CDB7DEB761970FB6F894DEBF0FBE66
:10322A00CDBFFE01319651E1DF011D925A95E9F7B2
:10323A00A2E0B1E0BA83A9839C838B8377FF09C09C
:10324A008FE490E090935704809356048FEF9FEF9A
:10325A0019C03901842E7C01615071097F836E8304
:10326A009801682DA301CF010E94581E48855985EF
:10327A002E813F814217530708F49A01F701E20FA2
:10328A00F31F108261960FB6F894DEBF0FBECDBF52
:10329A00DF91CF911F910F91FF90EF908F907F90C8
:0432AA006F90089584
:1032AE0088249924F401E401B0E49F93AA279A1587
:1032BE008B049C04ED05FE05CF05D007A10798F4FD
:1032CE00AD2FDC2FCF2FFE2FE92D982C892E982F86
:1032DE00872F762F652F542F432F322F2227B8504A
:1032EE0031F7BF9127C01B2EBF91BB27220F331F73
:1032FE00441F551F661F771F881F991F881C991C16
:10330E00EE1FFF1FCC1FDD1FAA1FBB1F8A149B04BD
:10331E00EC05FD05CE05DF05A007B10748F08A18BC
:10332E009B08EC09FD09CE09DF09A00BB10B21604A
:10333E001A94E1F62EF49401AF01BE01CD01000CFA
:02334E000895E0
:103350000F931F93CF93DF93DB012D913C91119736
:1033600030FF25C017964D915C91189715962D91B9
:103370003C9116974217530778F41296ED91FC9101
:103380001397808312962D913C9113972F5F3F4F97
:1033900013963C932E93129717962D913C91189764
:1033A0002F5F3F4F18963C932E93179715C01D968D
:1033B000ED91FC911E97309719F48FEF9FEF0CC0A1
:1033C0008B01EC011995892BC1F7F8018781908554
:1033D000019690878783CE01DF91CF911F910F9146
:0233E00008954E
:1033E2000F931F93CF93DF9382B1877F82B98FE0D0
:1033F2008EBD0DB407FEFDCF8EB58093550480ECD3
:103402008EBD0DB407FEFDCF8EB5809355041EBC54
:103412000DB407FEFDCF8EB509E414E0F8018083F8
:103422001F928F9389E794E0A0E0AF939F938F93CD
:10343200CEEFD2E0DF93CF930E94EB1EBE0180E875
:103442000E94BA1CF80180812DB73EB7295F3F4F19
:103452000FB6F8943EBF0FBE2DBF80FDD8CF82B10C
:0E346200886082B9DF91CF911F910F9108957C
:10347000CF93DF9382B1877F82B98FE98EBD0DB480
:1034800007FEFDCF8EB5809355041EBC0DB407FE1C
:10349000FDCF8EB5809355041EBC0DB407FEFDCF45
:1034A0008EB5809349041EBC0DB407FEFDCF9EB5BA
:1034B000E9E4F4E0918382B1886082B980811F924F
:1034C0009F931F928F9380E294E0A0E0AF939F932D
:1034D0008F93CEEFD2E0DF93CF930E94EB1EBE011D
:1034E00080E80E94BA1C8DB79EB709960FB6F89473
:0C34F0009EBF0FBE8DBFDF91CF910895ED
:1034FC00CF939B01482FF901542F0E940D2060326D
:10350C00B9F1862F062E000C990B0997059780F1BF
:10351C006B3249F5A0E0B0E02F5F3F4F4F4F02C038
:10352C00A0E0B0E080E090E0CAE0F901542F0E94E6
:10353C000D20062E000C770B605371096A30710553
:10354C0060F4C89FF001C99FF00D11242F5F3F4F0D
:10355C004F4FCF01861B970BE8CFAB2B69F491959E
:10356C008195910909C06D32D9F6A1E0B0E0D4CFB4
:0C357C002F5F3F4F4F4FBFCFCF910895FE
:10358800CF93DF930E94881E82B1877F82B982E041
:103598008EBD0DB407FEFDCF8EB58093550440E572
:1035A80054E060E880914E0490914F040E94341CCE
:1035B800C0E0D0E00CC0FE01E050FE4F80818EBD1F
:1035C8000DB407FEFDCF8EB580935504219660E0BB
:1035D80072E080E80E94231FC817D90760F382B100
:1035E800886082B96AEA74E080E00E94BA1C0E948E
:0835F800E01CDF91CF91089562
:103600006F927F928F92CF92DF92EF92FF920F9301
:103610006AE771E080E00E94BA1C80E594E03C011A
:1036200020E8822E0F2EFEEFCF2EF2E0DF2EF02DBF
:10363000082D730129E931E040E060E070E082E0AC
:1036400090E00E94B81762EA71E080E00E94BA1C24
:1036500029E931E040E062E070E083E090E00E9420
:10366000B8170F91FF90EF90DF90CF908F907F90E1
:043670006F900895BA
:10367400CF93DF93EC01892BA9F01AC01EBC0DB4C3
:1036840007FEFDCF2EB5FC01E35EFC4F20832EB573
:103694002D3031F469E674E080E00E94BA1C08C061
:1036A400019602C080E090E08C3221E0920730F372
:1036B400219791F40BC01EBC0DB407FEFDCF2EB5AF
:1036C400FC01E35EFC4F2083019602C080E090E0A1
:0E36D4008C3221E0920778F3DF91CF910895B8
:1036E2006F927F928F92CF92DF92EF920F931F93FE
:1036F200CF93DF938C016A01E62EE9013A01862E0F
:10370200620E731E811C37FD8A94C614D704E80426
:1037120081F0F6015E2D0E940D20862FB801082E41
:10372200000C990B0E94A8198FEFC81AD80AE80A50
:10373200ECCFCE01DF91CF911F910F91EF90DF90EF
:0A374200CF908F907F906F90089554
:10374C0081B1886081B982B1886082B981B18061B0
:10375C0081B982B1806182B981B1806281B982B153
:10376C00806282B981B1806481B982B1806482B98E
:10377C0081B1806881B982B1806882B981B182607F
:10378C0081B982B1826082B981B1846081B982B120
:10379C00846082B981B1886081B982B1886082B954
:0237AC0008957E
:1037AE000E94751D88F09F5798F0B92F9927B75131
:1037BE00B0F0E1F0660F771F881F991F1AF0BA95C7
:1037CE00C9F714C0B13091F00E943020B1E00895D5
:1037DE000C943020672F782F8827B85F39F0B93FC7
:1037EE00CCF3869577956795B395D9F73EF490957A
:0E37FE008095709561957F4F8F4F9F4F089576
:10380C0080E090E005C0FC01E75BFB4F1082019665
:10381C0085309105C0F380E090E005C0FC01E35ECB
:10382C00FC4F108201968C3221E09207B8F380E0B5
:10383C0090E005C0FC01E050FE4F108201968E3FD7
:10384C009105C0F380E090E005C0FC01E250FD4F13
:0C385C00108201968E319105C0F3089592
:103868009A01462F0097C9F4F901542F0E940D20A0
:103878006EBD0DB407FEFDCF5EB5509355042F5FA6
:103888003F4F4F4FF901542F0E940D206EBD0DB4CC
:1038980007FEFDCF2EB520935504019771F41EBC89
:1038A8000DB407FEFDCF8EB5809349041EBC0DB440
:0C38B80007FEFDCF8EB580934A040895F2
:1038C4000E94AF1D82B1877F82B98BE08EBD0DB49B
:1038D40007FEFDCF8EB58093550440E554E060E8C3
:1038E40080914E0490914F040E94341C1EBC0DB470
:1038F40007FEFDCF8EB58093550480914E049091C0
:103904004F040E943A1B82B1886082B965EC74E06E
:0839140080E00E94BA1C089536
:10391C0082B1877F82B98FE18EBD0DB407FEFDCFDA
:10392C0080EB8EBD0DB407FEFDCF80E48EBD0DB4D3
:10393C0007FEFDCF82B1886082B90E94621C82B101
:10394C00877F82B98FE18EBD0DB407FEFDCF80EB72
:10395C008EBD0DB407FEFDCF1EBC0DB407FEFDCF12
:08396C0082B1886082B9089560
:10397400CF92DF92EF92CF93DF936B01E82EC0E0FA
:10398400D0E00FC0AE2DC6018C0F9D1FA11DD7FD29
:10399400AA95FC015A2F0E940D20862F0E94F11F28
:1039A40021968E2DB6010E94231FC817D90750F304
:0C39B400DF91CF91EF90DF90CF9008954D
:1039C00082B1877F82B980E18EBD0DB407FEFDCF45
:1039D0008EB58093550440E554E060E880914E0434
:1039E00090914F040E940E188AE18A95F1F700C069
:1039F00082B1886082B968E974E080E00E94BA1CF4
:0A3A00000E94F1190E949C1E089517
:103A0A00990F0008550FAA0BE0E8FEEF16161706E5
:103A1A00E807F907C0F012161306E407F50798F04D
:103A2A00621B730B840B950B39F40A2661F0232B66
:103A3A00242B252B21F408950A2609F4A140A695E2
:083A4A008FEF811D811D08951D
:103A52000E94C11F0E94D81E0E94081E0E94A61B1F
:103A62000E94111F0E9406200E94061C6CEF74E047
:103A720080E00E94BA1C81E00E94A6160E94FF1FED
:103A82002FEF81EE94E0215080409040E1F700C09A
:043A92000000EACF77
:103A9600CF92DF92EF926B01E82EF6015E2D0E9427
:103AA6000D20862FF901542F0E940D2086130BC07E
:103AB600882341F08FEFC81AD80AE80A2F5F3F4FD4
:103AC6004F4FEBCF682F90E0861B9109EF90DF9068
:043AD600CF900895F0
:103ADA0057FD9058440F551F59F05F3F71F04795B5
:103AEA00880F97FB991F61F09F3F79F0879508959A
:103AFA00121613061406551FF2CF4695F1DF08C0B9
:103B0A00161617061806991FF1CF869571056105D5
:043B1A00089408956E
:103B1E00FA0160387105CCF0623871051CF063381B
:103B2E00710599F4A081B1819D012C5F3F4F3183C6
:103B3E0020834D915D916D917C91FC014083518369
:103B4E006283738381E090E0089580E090E00895B1
:103B5E0082B1877F82B983E18EBD0DB407FEFDCFA2
:103B6E008EB58093550440E554E060E880914E0494
:103B7E0090914F040E940E1882B1886082B90E9403
:0E3B8E00F11969EB74E080E00E94BA1C089502
:103B9C0097FB10F8169400080F93083098F0085013
:103BAC00232F342F452F562F672F782F892F902DA9
:103BBC00F4CF059497958795779567955795479585
:0C3BCC00379527950A95AAF70F910895E8
:103BD8002F923F924F925F926F927F928F929F9215
:103BE800AF92BF92CF92DF92EF92FF920F931F9303
:103BF800CF93DF93CDB7DEB7CA1BDB0B0FB6F894B4
:083C0800DEBF0FBECDBF199411
:103C100087E690E09093C5008093C4008DB18260E8
:103C20008DB9E1ECF0E08081886080838DB18E7F7A
:103C30008DB980818061808381B1846081B982B1D6
:063C4000846082B90895C2
:103C46002A88398848885F846E847D848C849B8426
:103C5600AA84B984C884DF80EE80FD800C811B8134
:103C6600AA81B981CE0FD11D0FB6F894DEBF0FBE63
:063C7600CDBFED01089531
:103C7C000E94881E82B1877F82B988ED8EBD0DB4FB
:103C8C0007FEFDCF8EB58093550482B1886082B952
:103C9C0068ED74E080E00E94BA1C0E94F1190E9449
:043CAC009C1E0895BD
:103CB000A2E0B0E0EEE5FEE10C94FA1D8C013A833F
:103CC00029839E012F5F3F4F0E949E02F8012081B1
:103CD00024FF02C08FEF9FEF2296E4E00C94311E88
:103CE000A2E0B0E0E6E7FEE10C94FA1D8C013A8315
:103CF00029839E012F5F3F4F0E949E02F801208181
:103D000024FF02C08FEF9FEF2296E4E00C94311E57
:103D100082B1877F82B986E08EBD0DB407FEFDCFEC
:103D20008EB58093550482B1886082B961E074E0F9
:083D300080E00E94BA1C089516
:103D380082B1877F82B984E08EBD0DB407FEFDCFC6
:103D48008EB58093550482B1886082B960E174E0D1
:083D580080E00E94BA1C0895EE
:103D600097FB072E16F4009407D077FD09D00E9428
:103D7000C41E07FC05D03EF4909581959F4F089591
:083D8000709561957F4F0895D5
:103D8800AA1BBB1B51E107C0AA1FBB1FA617B70779
:103D980010F0A61BB70B881F991F5A95A9F7809595
:083DA8009095BC01CD010895C6
:103DB00087B1806487B988B1806488B983B3816032
:103DC00083BB84B3816084BB83B3826083BB84B3D1
:063DD000826084BB08952F
:103DD600A0E0B0E0E1EFFEE10C94FC1D9E01255F42
:103DE6003F4F488559856A858E819F810E949D1F18
:063DF600E2E00C94331E14
:103DFC00A0E0B0E0E4E0FFE10C94FC1D9E01255F27
:103E0C003F4F488559856A858E819F810E94911FFD
:063E1C00E2E00C94331EED
:103E220084B1866084B984B1877F84B984B18160AA
:103E320084B985B1816085B98CB581658CBD8CB53D
:043E42008CBD089596
:103E46009B01482FA82FCB01FC015A2F0E940D2061
:103E5600662319F00196A11DF7CF642FA901841BD3
:043E6600950B08951B
:103E6A0082B1877F82B98FEF8EBD0DB407FEFDCF79
:103E7A0082B1886082B968E574E080E00E94BA1C69
:023E8A00089599
:103E8C00092E0394000C11F4882352F0BB0F40F45C
:103E9C00BF2B11F460FF04C06F5F7F4F8F4F9F4F9C
:023EAC00089577
:103EAE00609570958095909530954095509521959B
:103EBE003F4F4F4F5F4F6F4F7F4F8F4F9F4F089525
:103ECE009A01462FDC01F901542F0E940D206D93AB
:0C3EDE002F5F3F4F4F4F6111F6CF08954A
:103EEA00689401C0E8948F929F92CF93DF930E94C7
:0C3EFA005719DF91CF919F908F90089591
:103F0600992777FD06C07BBF07900D920197E1F7D1
:0C3F1600089501900D920197E1F70895C5
:103F22000F931F9389019A01462F6FEF7FE70E943B
:083F320005191F910F9108957C
:103F3A000F931F9389019A01462F6FEF7FE70E9423
:083F4A00B3181F910F910895B7
:103F52000024A7FD00942A1730054005500560058E
:083F620070058005900508952B
:103F6A000024A7FD00942A0F301D401D501D601D1E
:083F7A00701D801D901D0895CB
:103F8200E1E0F1E0808180668083E2E0F1E080811F
:063F9200806680830895A3
:103F9800EC010E9457200E945620CE010E94582012
:063FA800CE010E9454202E
:103FAE00FC01480F591FE417F50711F06193FBCF81
:023FBE00089564
:103FC0009C01215631092A31310510F48F7599274A
:023FD000089552
:103FD2009C01215431092A31310508F48062089587
:0E3FE2009091C00095FFFCCF8093C60008951B
:0E3FF0008091C0008823E4F78091C6000895F8
:0E3FFE00E2E0F1E0908180E48927808308955D
:0E400C00E2E0F1E0908180E289278083089550
:0E401A0057FD03C05BBF679108956081089554
:0E4028005058BB27AA270E94DA150C94461F99
:0E4036000E94D71B6894B1110C94312008959C
:0E40440000240A941616170618060906089599
:0E40520000240A94121613061406050608959B
:0E406000E894BB2766277727CB0197F90895D0
:0C406E0097F99F6780E870E060E008951B
:0A407A000E94051D08F481E008957E
:0A4084000E94051D08F48FEF089557
:08408E000E942B140C94461F44
:084096000E9470150C94461FF6
:06409E009FEF80EC089585
:0440A4000C94000078
:0440A8000E94BB00B7
:0240AC00089575
:0240AE00089573
:0240B000089571
:00000001FF
