:100000000C9485000C9412130C9412130C9412137C
:100010000C9412130C9412130C9412130C941213CC
:100020000C9412130C9412130C9412130C941213BC
:100030000C9412130C9412130C9412130C941213AC
:100040000C9412130C9412130C9412130C9412139C
:100050000C9412130C9412130C9412130C9412138C
:100060000C9412130C9412130C9412130C9412137C
:100070000C9412130C9412130C9412130C9412136C
:100080000C9412130C9412130C9412130C9412135C
:100090000C9412130C9412130C9412130C9412134C
:1000A0000C9412130C9412130C9412130C9412133C
:1000B0000C9412130C9412130C9412130C9412132C
:1000C0000C9412130C9412130C9412130C9412131C
:1000D0000C9412130C9412130C9412130C9412130C
:1000E0000C9412130200043180000C94F5110C944E
:1000F000DE0B0C94CE080C94080D0C9454060C9452
:10010000460A0C9436120C943B0211241FBECFEF0A
:10011000D1E2DEBFCDBF00E00CBFE4EEF0E040E096
:1001200019C0B791A79137912791079107FD0EC08C
:1001300097918791EF01F92FE82F0BBF07900D9250
:10014000A217B307D9F7FE011BBE04C01D92A21768
:10015000B307E1F7E93EF40721F70E9422110C945E
:06016000C712F894FFCF66
:100166005573657220496E7075743A0A0057726F3E
:100176006E6720496E707574200A204D616B65208C
:100186007375726520696E707574206973204845B1
:10019600582076616C6964205B30202D20465D20F6
:1001A6000A00486572652069732077686174207754
:1001B600617320696E7075747465643A20283078AE
:1001C60025303258290A00466C617368204944007C
:1001D6004572617365204D656D6F7279005772695E
:1001E60074652054657374002D2D2D436F6C756DE9
:1001F6006E20416464726573732D2D2D2034206248
:1002060079746573200A002D2D2D426C6F636B2F58
:100216005061676520416464726573732D2D2D20CE
:1002260036206279746573200A0052656164204D38
:10023600656D6F727900506172616D6574657220CB
:10024600506167650025692D3E44617461205265E1
:100256006365697665643A202830782530325829F6
:10026600200A00526573657400466C6173682053FA
:10027600746174757300426C6F636B2043686563C9
:100286006B657200426C6F636B2031352069732099
:100296006D61726B6564206261640A00426C6F6313
:1002A6006B203135206170706561727320636C65F7
:1002B600616E0A00312920466C617368204944202A
:1002C6000A003229204572617365204D656D6F7293
:1002D60079200A00332920577269746520546573A2
:1002E60074200A0034292052656164204D656D6FC3
:1002F6007279200A00352920506172616D65746536
:10030600722050616765200A00362920466C6173A9
:100316006820537461747573200A00372920426C73
:100326006F636B20436865636B6572200A0038292A
:10033600205265736574200A002D3E557365722040
:08034600496E7075743A0A005B
:10034E00577269746520456E61626C65200A0057AC
:10035E00726974652044697361626C65200A00528B
:10036E00656164204465766963652049443A204D91
:10037E006963726F6E2049442028307825303258D8
:10038E002920446576696365204944202830782504
:10039E0030325829200A004465766963652052651B
:1003AE007365746564200A00476574204665617440
:1003BE00757265733A2053746174757320283078A2
:1003CE0025303258290A0050726F6772616D2045D0
:1003DE00786563757465200A0050726F6772616D7F
:1003EE00204C6F6164200A00506167652052656180
:1003FE0064200A00426C6F636B2045726173652046
:10040E000A004461746120526563656976656420F3
:10041E000A00526561642066726F6D2043616368E5
:05042E00653A200A0000
:1004330068076C094C836A9074A07AC0008068884E
:0604430000846C820081C0
:100449002D3E41727261797320436C6561726564F6
:03045900200A0076
:07045C00286E756C6C29008D
:06046300286E696C2900FF
:10046A00A3EAB0E0EBE3F2E00C949D114C015901D0
:10047A00C756DF4F488359836A83C959D040212C14
:10048A00312C6E012BE8C20ED11C85E2782E260192
:10049A0030E8632ECE018D569F4FC456DF4F9983A5
:1004AA008883CC59D0409C0140E8CF55DF4F288340
:1004BA0039834A83C15AD040C756DF4F4881C95948
:1004CA00D040C656DF4FB881CA59D040C556DF4F13
:1004DA007881CB59D040E42FFB2F572F0E94081365
:1004EA00662309F4D0C3CF57DF4F19821882C15847
:1004FA00D0408FEF9FEFCD57DF4F99838883C35842
:10050A00D040CB57DF4F19821882C558D040E1E05E
:10051A00F0E0EC0FFD1FC957DF4FF983E883C75896
:10052A00D04020E830E0C757DF4F39832883C958C5
:10053A00D040842F9B2FA72FE12CF12CFC015A2F9E
:10054A000E94081361111DC0E114F10411F1970111
:10055A005B2F672FC4010E942410C756DF4F888182
:10056A009981AA81C959D0408E0D9F1DA11DF7FC02
:10057A00AA95C756DF4F88839983AA83C959D04061
:10058A0008C00196A11D6532F9F23FEFE31AF30A9A
:10059A00D5CFC756DF4F88819981AA81C959D040E2
:1005AA00FC015A2F0E940813653209F05AC39C01B4
:1005BA004A2F2F5F3F4F4F4FC256DF4F2883398351
:1005CA004A83CE59D040C756DF4F288339834A839E
:1005DA00C959D040C756DF4F88819981AA81C95924
:1005EA00D040FC015A2F0E9408136B3241F4CF57B6
:1005FA00DF4F28813981C158D04024600BC06C324A
:10060A00CCF06D3259F5CF57DF4F28813981C15867
:10061A00D0402160CF57DF4F39832883C158D0405B
:10062A000196A11DC756DF4F88839983AA83C959AA
:10063A00D040D0CF603241F4CF57DF4F2881398183
:10064A00C158D0402860E6CF633291F4CF57DF4FCC
:10065A0028813981C158D0402061DCCF603341F410
:10066A00CF57DF4F28813981C158D0402260D2CF7D
:10067A006A3299F50196A11DC756DF4F888399837F
:10068A00AA83C959D040D501ED91FC911197CF01A8
:10069A0002968D939C9380819181CB57DF4F9983EA
:1006AA008883C558D04097FF3FC0CF57DF4F288176
:1006BA003981C158D040B1E02B27CF57DF4F39835A
:1006CA002883C158D040919581959109CB57DF4F26
:1006DA0099838883C558D04027C0BC018A2F0E94BD
:1006EA00730FCB57DF4F99838883C558D040C756BD
:1006FA00DF4F88819981AA81C959D040FC015A2FBC
:10070A000E940813062E000C770B605371096A3099
:10071A00710550F40196A11DC756DF4F888399834E
:10072A00AA83C959D040E3CFCF57DF4F8881998137
:10073A00C158D04080FF07C08D7FCF57DF4F9983C4
:10074A008883C158D040C756DF4F88819981AA81D2
:10075A00C959D040FC015A2F0E9408136E3209F081
:10076A0059C0CD57DF4F19821882C358D0409C0117
:10077A004A2F2F5F3F4F4F4FC756DF4F288339838A
:10078A004A83C959D040F901542F0E9408136A328A
:10079A00D1F40296A11DC756DF4F88839983AA8395
:1007AA00C959D040D501ED91FC911197CF0102961C
:1007BA008D939C9380819181CD57DF4F9983888354
:1007CA00C358D04027C0842FB9010E94730FCD5758
:1007DA00DF4F99838883C358D040C756DF4F88813B
:1007EA009981AA81C959D040FC015A2F0E94081345
:1007FA00062E000C770B605371096A30710550F4AC
:10080A000196A11DC756DF4F88839983AA83C959C8
:10081A00D040E3CFCE0187569F4F0E945A0D182F22
:10082A00C756DF4F9881C959D040C656DF4F8881D5
:10083A00CA59D040C556DF4F5881CB59D040E92F0D
:10084A00F82F0E940813862F660F990B0E94E41254
:10085A008936910509F45BC0B4F48336910509F42D
:10086A0069C144F48532910509F4A4C18136910520
:10087A0029F1B6C18436910509F449C08836910533
:10088A000CF42FC1ADC18037910509F4CDC04CF4E9
:10089A008E36910509F41BC18F36910509F47DC086
:1008AA009FC18537910509F455C08837910509F428
:1008BA0097C08337910509F093C15BC1612F70E03E
:1008CA00A501C6010E944311892B09F4BAC1C75672
:1008DA00DF4F88819981AA81C959D0409C014A2F4A
:1008EA002F5F3F4F4F4FC756DF4F288339834A83C5
:1008FA00C959D040FC015A2F0E940813262FA6017D
:10090A00BE016F577F4FC4010E940F1397C1612F19
:10091A0070E0950141E050E0C6010E948709892BE9
:10092A0009F48FC1C756DF4F88819981AA81C959B5
:10093A00D0400196A11DC756DF4F88839983AA83A9
:10094A00C959D040A601BE016F577F4FC4010E940A
:10095A00C80874C1612F70E0950140E050E0C601FB
:10096A000E948709892B09F46CC1C756DF4F888119
:10097A009981AA81C959D0400196A11DC756DF4F56
:10098A0088839983AA83C959D040A601BE016F57AB
:10099A007F4FC4010E94020D51C1612F70E0950181
:1009AA0040E050E0C6010E948709892B09F449C139
:1009BA00C756DF4F88819981AA81C959D0400196CB
:1009CA00A11DC756DF4F88839983AA83C959D0408E
:1009DA00A601BE016F577F4FC4010E94D80B2EC1DA
:1009EA00612F70E0950140E050E0C6010E9487093E
:1009FA00892B09F426C1C756DF4F88819981AA81BC
:100A0A00C959D0409C014A2F2F5F3F4F4F4FC756BD
:100A1A00DF4F288339834A83C959D040FC015A2FB2
:100A2A000E940813262F4BC0950140E050E060EF6A
:100A3A0070E0C6010E948709892B09F402C1C756D2
:100A4A00DF4F88819981AA81C959D0400196A11D99
:100A5A00C756DF4F88839983AA83C959D04086E055
:100A6A0023E634E040E0F901DE01AD56BF4F742FB2
:100A7A000E949612D6012C9111963C9111971296CA
:100A8A004C91129713965C91139714966C91149744
:100A9A0015967C91159716968C91169717969C9198
:100AAA00A0E00E94B01251F400E010E0CF55DF4FF1
:100ABA00288139814A81C15AD040BAC028E7A601A3
:100ACA00BE016F577F4FC4010E944E06B7C0612F07
:100ADA0070E09501A1014E0D5F1DC6010E946C0BCD
:100AEA00B0C0612F70E0A501C6010E944311892B95
:100AFA0009F4A7C0C756DF4F88819981AA81C959CD
:100B0A00D0409C014A2F2F5F3F4F4F4FC756DF4FB0
:100B1A00288339834A83C959D040FC015A2F0E943D
:100B2A000813262FA601BE016F577F4FC4010E94EA
:100B3A000F1384C0103809F084C0C756DF4F88816C
:100B4A009981AA81C959D0400196A11DC756DF4F84
:100B5A0088839983AA83C959D040D501ED91FC9124
:100B6A001197CF0102968D939C938081F601808321
:100B7A005BC0103809F065C0C756DF4F888199817C
:100B8A00AA81C959D0400196A11DC756DF4F888353
:100B9A009983AA83C959D040D501ED91FC91119747
:100BAA00CF0103968D939C9320813181428100E08D
:100BBA0010E03EC0103809F044C0C756DF4F8881A4
:100BCA009981AA81C959D0400196A11DC756DF4F04
:100BDA0088839983AA83C959D040F601708224C0B8
:100BEA00D6017C92C256DF4F288139814A81CE597B
:100BFA00D040C756DF4F288339834A83C959D0402A
:100C0A00CF57DF4F19821882C158D040CB57DF4FD8
:100C1A0019821882C558D0408FEF9FEFCD57DF4F0A
:100C2A0099838883C358D04001E010E0462D920191
:100C3A00BE016F577F4FC4010E94420C8E0D9F1D4B
:100C4A0011C0C756DF4F88819981AA81C959D040FE
:100C5A000196A11DC756DF4F88839983AA83C95974
:100C6A00D040C7017101E80EF91EE214F3044CF4F6
:100C7A008FE490E090932E0480932D048FEF9FEFE2
:100C8A0003C0170119CCC101CD55DF4FE2E10C9425
:020C9A00D41173
:100C9C00A4E1B0E0E4E5F6E00C949D1198878F8315
:100CAC007A8369835C8B4B8B122FDB011296ED914F
:100CBC00FC91139714962D913C9115973E832D839F
:100CCC00ED90FC90119716962D903C901797F7FD90
:100CDC0003C0E894E1F802C0E1E0F0E0C7018071E4
:100CEC0099279A878987E4FE1FC0AB89BC892C9110
:100CFC0011963C91119712964C91129713965C9108
:100D0C00139714966C91149715967C9115971696CB
:100D1C008C91169717969C91A0E00E94B01221F02E
:100D2C008D819E81029702C08D819E8197012870D2
:100D3C0033273C872B87E3FC0197AB89BC894C900C
:100D4C0011965C90119712966C90129713967C905A
:100D5C00139714968C90149715969C90159716963D
:100D6C00AC9016971796BC90A981BA811896CD9025
:100D7C00DC901997B1E0CB1AD108D101AC0DBD1D97
:100D8C001C929C838B839F01281B390B3E872D87DC
:100D9C00C70182709927988B8F87812F012E000CA9
:100DAC00990BDC01A154B109BA8BA98B32E0C316A3
:100DBC00D10434F489859A85892B09F04CC073C011
:100DCC009201A301B401C501A0E00E94B01281F10F
:100DDC00B1E0CB1AD108C2018F7099278A309105E6
:100DEC0014F4C09602C0895A9F4FE989FA897A9700
:100DFC0048F49C012062215631092A31310510F446
:100E0C000E94DB12F101EC0DFD1D80832B813C81D6
:100E1C00215031093C832B839201A301B401C501FC
:100E2C0004E00E94651129013A014B015C01BECF1F
:100E3C008D859E85AB81BC818A0F9B1F1816190668
:100E4C003CF21A161B060CF0B5CFEF85F889EF2B88
:100E5C0009F0BECFAFCFAB89BC892C9111963C91D8
:100E6C00119712964C91129713965C9113971496B6
:100E7C006C91149715967C91159716968C911697E4
:100E8C0017969C91A0E00E94B01269F0F101EC0D54
:100E9C00FD1D31971083B2E0CB1AD108F101EC0D96
:100EAC00FD1D80E38083EB85FC85EF2B41F0F1E0A9
:100EBC00CF1AD108F101EC0DFD1D80E28083A981D0
:100ECC00BA8118962D913C911997215031092C1902
:100EDC003D09C20CD31CA60160E80D811E818F81D7
:100EEC0098850E94E50A9C01EF81F88580819181AB
:100EFC0090FF09C0A981BA8112968D919C9113978C
:100F0C00821793070CF4C9016496E2E10C94D41196
:100F1C00CF92DF92EF920F931F93CF93DF936B01DE
:100F2C00E82E2DEC31E040E00E940011892B29F4D1
:100F3C000E948A100E942D0F1DC126ED31E040E069
:100F4C008E2DB6010E940011892B39F410922104C8
:100F5C00109220040E948A100DC123EE31E040E073
:100F6C008E2DB6010E940011892B09F04BC01092F6
:100F7C002104109220040E948A100E94B90F60E094
:100F8C0072E080E80E94B7108AE00E94EC126EEECC
:100F9C0071E080E00E94B7100E9481118AE00E94EB
:100FAC00EC126DE072E080E00E94B7100E9481119B
:100FBC008AE00E94EC1200E010E020C0F801EE5D27
:100FCC00FB4F80811F928F9388EA91E0A0E0AF9352
:100FDC009F938F93CEEFD2E0DF93CF930E9430128A
:100FEC00BE0180E80E94B7100F5F1F4F8DB79EB7F0
:100FFC0007960FB6F8949EBF0FBE8DBF0A30110531
:10100C00ECF2B8C020E332E040E08E2DB6010E9435
:10101C000011892B79F410922104109220040E9463
:10102C008A106DE173E080E80E94B7108AE00E949C
:10103C00EC12A0C02CE332E040E08E2DB6010E94F1
:10104C000011892B81F582E090E09093210480932C
:10105C0020040E948A10C0E0D0E021C0FE01E35EB3
:10106C00FC4F80811F928F93DF93CF938BE492E0A0
:10107C00A0E0AF939F938F930EEF12E01F930F930B
:10108C000E943012B80180E80E94B71021968DB7EB
:10109C009EB709960FB6F8949EBF0FBE8DBFCE3F7C
:1010AC00D105E0F267C029E632E040E08E2DB601B2
:1010BC000E940011892B29F40E948A100E94671249
:1010CC0059C02FE632E040E08E2DB6010E9400118F
:1010DC00892B29F40E948A100E94E60E4BC02CE743
:1010EC0032E040E08E2DB6010E940011892BD1F424
:1010FC0081E090E090932104809320040E948A1058
:10110C000E94DD1080911B048F3F31F06AE872E081
:10111C0080E00E94B7102EC062EA72E080E00E946C
:10112C00B71028C06AEB72E080E00E94B71068EC40
:10113C0072E080E00E94B7106AED72E080E00E94DD
:10114C00B7106AEE72E080E00E94B7106BEF72E0AD
:10115C0080E00E94B7106FE073E080E00E94B7104F
:10116C0061E273E080E00E94B71064E373E080E01A
:10117C000E94B710DF91CF911F910F91EF90DF90EC
:04118C00CF90089563
:10119000ADE0B0E0EEECF8E00C949D119A87898701
:1011A0007C836B83FA01DB011296CD90DC90139760
:1011B00014968D919C9115979E838D83ED90FC9054
:1011C0001197FA82E98216960D90BC91A02DB887EE
:1011D000AF83208031804280538064807580868018
:1011E00097808101B42DF52DE62D7B868C869D861A
:1011F0009101A201B301C401A0E00E94B0124CF41D
:101200000E9478128901B42FF52FE62F7B878C87F7
:101210009D87D7FC04C0E894E1F8FA82E982910145
:10122000A201B301C401A0E0ED80FE800E94B012D3
:101230001CF0898182FF04C081E0E81AF10805C032
:1012400083FF03C091E0E91AF108CE0101965C0129
:101250008AE0C82ED12C2B2F3F2F4E2F5B856C851B
:101260007D858B819C810E94400AFC019101A20135
:10127000B301C401A0E00E94B0121CF0898182FF7A
:1012800012C031970F8118850E0F1F1F9101A20107
:10129000B301C401A0E00E94B01214F08BE201C0BF
:1012A0008DE2D80108C083FF07C03197AF81B885B0
:1012B000AE0FBF1F80E28C93E980FA80AB81BC81C6
:1012C00018962D913C911997215031092E1B3F0BF7
:1012D0008F819885E80FF91FAF0160E80D811E81AD
:1012E00089859A850E94E50A9C01A985BA858D9118
:1012F0009C9190FF07C0EB81FC81828193818217D2
:0E13000093070CF4C9012D96E2E10C94D41170
:10130E000F931F93CF93DF93FC01D90168387105BA
:10131E0031F194F461387105B1F12CF46038710536
:10132E0009F478C09FC06238710509F459C0643859
:10133E00710509F46FC096C0603A710509F448C092
:10134E002CF46039710509F44BC08CC0603C7105FA
:10135E0009F476C0603F710509F472C083C0CD9167
:10136E00DC911197CE0102968D939C93452B39F00B
:10137E009881892F880F880B908381835BC0888129
:10138E008083118268C0CD91DC911197CE010496B5
:10139E008D939C93452B99F088819981AA81BB816D
:1013AE00AC01BD01770F440B542FBA01808391839A
:1013BE00A283B383448345834683478328C0088131
:1013CE0019812A813B81008311832283338345C097
:1013DE00CD91DC911197CE0102968D939C9323C0F3
:1013EE00CD91DC911197CE0108968D939C937881C7
:1013FE0069815A814B813C812D819E818F817083C1
:10140E00618352834383348325839683878381E06C
:10141E0090E02AC0CD91DC911197CE0102968D936A
:10142E009C93452BA1F099812881892F880F880BD9
:10143E002083918382838383848385838683E6CF0F
:10144E00CD91DC911197CE0102968D939C930881DC
:10145E0019810083118312821382148215821682DF
:10146E001782D5CF80E090E0DF91CF911F910F9141
:02147E000895CF
:10148000A2E1B0E0E6E4FAE00C949D11FC010A8BC5
:101490001B832C83732E642E552E462E7D83CC8683
:1014A000D886BF82AE82868197819B878A87D50145
:1014B0004D915C91228133818085918501971C013A
:1014C00037FF02C021E030E0EA85FB85E80FF91F15
:1014D00010824701E1E0F0E0FA83E983C9018E1947
:1014E0009F099E878D87DA01A270BB27B88BAF87D3
:1014F000B885BB0FBB0BB98B1214130474F0A98110
:10150000BA81AB2B09F05CC0AE81BF818D919C91FB
:1015100011978F7E8D939C9353C02A893B814C8178
:10152000572D662D752D842D9D81A0E00E94B0124F
:10153000B1F1E1E02E1A3108FC85F987AF2EB884AD
:10154000C988DC2CEC2CFC2C0C2D1C2D2A893B8111
:101550004C81572D662D752D842D9D810E948812FA
:10156000C90129839A83EA85FB85E20DF31D805D1D
:10157000808381E0881A91082A893B814C81572D0C
:10158000662D752D842D9D810E948A122A8B3B83A6
:101590004C83752E662E572E482E9D83ADCF8D859C
:1015A0009E85880D991D181619061CF21814190429
:1015B0000CF0A5CFEF85F889EF2B09F0BACF9FCFBC
:0A15C000C1016296E2E10C94D4111F
:1015CA002F923F924F926F927F928F92AF92BF92D9
:1015DA00CF92DF92EF92FF920F931F93CF93DF93F5
:1015EA00CDB7DEB766970FB6F894DEBF0FBECDBF94
:1015FA005C013A01862E6901C701817099279C8B8B
:10160A008B8BE0FC1DC020173107D4F47801EC184D
:10161A00FD08FE8AED8AA70191E1E916F10410F0AE
:10162A0040E150E060E270E0CE0101969A8B898B2E
:10163A000E94D21289899A891C0120E8422E0BC085
:10164A009601682DA301C5010E942410C016D10677
:10165A00ECF2C60125C090E1E916F10458F020E148
:10166A0030E0642DA101C5010E94241080E1E81A2E
:10167A00F108F1CF2D893E892F70332789899A89FC
:10168A00AC0160E8C5010E9424108B899C89892BD2
:10169A0031F49601682DA301C5010E942410C801E6
:1016AA0066960FB6F894DEBF0FBECDBFDF91CF911D
:1016BA001F910F91FF90EF90DF90CF90BF90AF9066
:0E16CA008F907F906F904F903F902F900895DB
:1016D800CF93DF93DC01F90164387105D9F164F423
:1016E8006138710521F16238710509F440C060382C
:1016F800710509F054C02EC060397105C1F184F438
:101708006838710509F04BC0C081D181CE010296BD
:1017180091838083E881F981ED93FC9340833CC0F9
:10172800603A7105B9F0603C7105A1F038C0C0811C
:10173800D181CE01029691838083E881F981ED936E
:10174800FC93052E000C660B770B40835183628354
:10175800738322C0C081D181CE0102969183808398
:10176800E881F981ED93FC935183408315C0C081D2
:10177800D181CE01029691838083E881F981ED932E
:10178800FC9351834083852F880F880B8283838342
:10179800848385838683878381E090E002C080E02C
:0817A80090E0DF91CF9108955C
:1017B000A2E0B0E0EEEDFBE00C949D111C014B01AA
:1017C000FA01DB0112962D913C91139714964D90DE
:1017D0005C9015978D919C9111979A8389831696A9
:1017E0006D907C90179737FD03C08D7F9A83898316
:1017F0000081118122813381448155816681778105
:10180000FE0131965F0188E0C82ED12C7201C4011F
:101810000E94400A298124FF06C00197F301E80FC6
:10182000F91F20E32083298123FF06C00197F301DC
:10183000E80FF91F20E22083E980FA80D40118968E
:101840002D913C91199721503109281B390B860D98
:10185000971DAC0160E88201C1010E94E50A9C016C
:10186000F1018081918190FF08C0D40112968D9181
:101870009C911397821793070CF4C9012296E2E119
:041880000C94D411DF
:101884002F923F924F926F927F928F92AF92BF921C
:10189400CF92DF92EF92FF920F931F93CF93DF9338
:1018A400CDB7DEB727970FB6F894DEBF0FBECDBF16
:1018B4006C017B013901842E98018CE5282E84E08B
:1018C400382E80E0482E87E0F101AE014F5F5F4F74
:1018D400DA01742D0E949612F70102811381A4800B
:1018E400B580E080F18061147104810419F43A0137
:1018F400F0E88F2E2115310529F4882DB3010E94BB
:1019040055129C0117FD04C00217130708F498012F
:101914008501682DA301C6010E94E50A27960FB62A
:10192400F894DEBF0FBECDBFDF91CF911F910F9111
:10193400FF90EF90DF90CF90BF90AF908F907F900B
:0A1944006F904F903F902F90089590
:10194E000F931F93CF93DF93C0E0D0E04BC0FE0107
:10195E00E050FE4F808190ED980F9A3028F4FE01F2
:10196E00E050FE4F90833DC09FEB980F963030F4C1
:10197E00FE01E050FE4F8753808333C09FE9980FDE
:10198E00963030F4FE01E050FE4F8755808329C01B
:10199E008D3061F163E771E080E00E94B710FE01C7
:1019AE00E050FE4F80811F928F9388EA91E0A0E075
:1019BE00AF939F938F930EEF12E01F930F930E949E
:1019CE003012B80180E80E94B7100E948A100E945F
:1019DE0081118DB79EB707960FB6F8949EBF0FBEB6
:1019EE008DBF2196CA30D1050CF4B1CFDF91CF91C6
:0619FE001F910F910895F6
:101A0400A2E0B0E0E8E0FDE00C949D113C014B0144
:101A1400FA01DB0112962D913C91139714964D9087
:101A24005C9015978D919C9111979A838983169652
:101A34002D903C90179737FD03C08D7F9A8389833F
:101A440000811181228133814481558166817781AE
:101A5400FE0131965F018AE0C82ED12C7201C401C7
:101A64000E94400AE980FA80D40118962D913C9195
:101A7400199721503109281B390B820D931DAC0194
:101A840060E88201C3010E94E50A9C01F3018081A0
:101A9400918190FF08C0D40112968D919C91139767
:101AA400821793070CF4C9012296E2E10C94D41135
:101AB400CF92DF92EF92DC0190E0292F30E0220FE9
:101AC400331F6901032E000CEE086E2DA6014D5C38
:101AD4005B4F6F4F6A01E62EFA015E2D0E940813D8
:101AE400862F61110EC02F5F3F4F032E000C440B55
:101AF4002D5C3B4F4F4FF901542F0E940813862F42
:101B040025C0CD90DD90EC901297F6015E2D0E94D9
:101B14000813861316C02F5F3F4F032E000C440B8F
:101B24002D5C3B4F4F4FF901542F0E940813962F01
:101B34005FEFC51AD50AE50ACD92DD92EC921297B1
:101B440001C09F5F9B3008F4B8CF892FEF90DF90DE
:041B5400CF90089591
:101B58006F927F928F92EF92FF920F931F93CF9382
:101B6800DF93CDB7DEB761970FB6F894DEBF0FBE2F
:101B7800CDBFFE01319651E1DF011D925A95E9F77B
:101B8800A2E0B1E0BA83A9839C838B8377FF09C065
:101B98008FE490E090932E0480932D048FEF9FEFB5
:101BA80019C03901842E7C01615071097F836E83CD
:101BB8009801682DA301CF010E94EF11488559852E
:101BC8002E813F814217530708F49A01F701E20F6B
:101BD800F31F108261960FB6F894DEBF0FBECDBF1B
:101BE800DF91CF911F910F91FF90EF908F907F9091
:041BF8006F9008954D
:101BFC0088249924F401E401B0E49F93AA279A1550
:101C0C008B049C04ED05FE05CF05D007A10798F4C5
:101C1C00AD2FDC2FCF2FFE2FE92D982C892E982F4E
:101C2C00872F762F652F542F432F322F2227B85012
:101C3C0031F7BF9127C01B2EBF91BB27220F331F3B
:101C4C00441F551F661F771F881F991F881C991CDE
:101C5C00EE1FFF1FCC1FDD1FAA1FBB1F8A149B0486
:101C6C00EC05FD05CE05DF05A007B10748F08A1885
:101C7C009B08EC09FD09CE09DF09A00BB10B216013
:101C8C001A94E1F62EF49401AF01BE01CD01000CC3
:021C9C000895A9
:101C9E00CF92DF92EF926FE373E080E00E94B71075
:101CAE000E94F31280931C031CC020912F043091CC
:101CBE003004F901E050FE4F80832E3F310520F0B5
:101CCE001092300410922F0480912F0490913004C2
:101CDE0001969093300480932F040E94F312809308
:101CEE001C0380911C038D3011F08A30F1F6E091C7
:101CFE002F04F0913004E050FE4F10821092300409
:101D0E0010922F0480E092E06C0120E8E22E8E2DDE
:101D1E00B6010E94B7108AE00E94EC128E2DB60119
:0C1D2E000E948E07EF90DF90CF90089588
:101D3A000F931F93CF93DF93DB012D913C91119762
:101D4A0030FF25C017964D915C91189715962D91E5
:101D5A003C9116974217530778F41296ED91FC912D
:101D6A001397808312962D913C9113972F5F3F4FC3
:101D7A0013963C932E93129717962D913C91189790
:101D8A002F5F3F4F18963C932E93179715C01D96B9
:101D9A00ED91FC911E97309719F48FEF9FEF0CC0CD
:101DAA008B01EC011995892BC1F7F8018781908580
:101DBA00019690878783CE01DF91CF911F910F9172
:021DCA0008957A
:101DCC000F931F93CF93DF9382B1877F82B98FE0FC
:101DDC008EBD0DB407FEFDCF8EB580932C0480EC28
:101DEC008EBD0DB407FEFDCF8EB580932C041EBCAA
:101DFC000DB407FEFDCF8EB50BE114E0F801808326
:101E0C001F928F9386EB93E0A0E0AF939F938F93F9
:101E1C00CEEFD2E0DF93CF930E943012BE0180E868
:101E2C000E94B710F80180812DB73EB7295F3F4F54
:101E3C000FB6F8943EBF0FBE2DBF80FDD8CF82B138
:0E1E4C00886082B9DF91CF911F910F910895A8
:101E5A00CF93DF9382B1877F82B98FE98EBD0DB4AC
:101E6A0007FEFDCF8EB580932C041EBC0DB407FE71
:101E7A00FDCF8EB580932C041EBC0DB407FEFDCF9A
:101E8A008EB580931B041EBC0DB407FEFDCF9EB514
:101E9A00EBE1F4E0918382B1886082B980811F927C
:101EAA009F931F928F938DE693E0A0E0AF939F9349
:101EBA008F93CEEFD2E0DF93CF930E943012BE0110
:101ECA0080E80E94B7108DB79EB709960FB6F894AE
:0C1EDA009EBF0FBE8DBFDF91CF91089519
:101EE600CF939B01482FF901542F0E9408136032AB
:101EF600B9F1862F062E000C990B0997059780F1EC
:101F06006B3249F5A0E0B0E02F5F3F4F4F4F02C064
:101F1600A0E0B0E080E090E0CAE0F901542F0E9412
:101F26000813062E000C770B605371096A30710591
:101F360060F4C89FF001C99FF00D11242F5F3F4F39
:101F46004F4FCF01861B970BE8CFAB2B69F49195CA
:101F56008195910909C06D32D9F6A1E0B0E0D4CFE0
:0C1F66002F5F3F4F4F4FBFCFCF9108952A
:101F720066E671E080E00E94B7100E94F31280933F
:101F82001C031CC020912F0430913004F901E05051
:101F9200FE4F80832E3F310520F0109230041092C4
:101FA2002F0480912F049091300401969093300475
:101FB20080932F040E94F31280931C0380911C03D0
:101FC2008D3001F7E0912F04F0913004E050FE4F84
:0C1FD20080831092300410922F040895B8
:101FDE00CF93DF93EC010297D0F414C01EBC0DB466
:101FEE0007FEFDCF2EB5FC01E35EFC4F20832EB520
:101FFE002D3031F460E174E080E00E94B71007C02C
:10200E00019602C080E090E08E3F910538F3229752
:10201E0089F40BC01EBC0DB407FEFDCF2EB5FC011E
:10202E00E35EFC4F2083019602C080E090E08E3F7D
:0A203E00910580F3DF91CF91089522
:102048006F927F928F92CF92DF92EF920F931F93AE
:10205800CF93DF938C016A01E62EE9013A01862EBF
:10206800620E731E811C37FD8A94C614D704E804D7
:1020780081F0F6015E2D0E940813862FB801082E04
:10208800000C990B0E949D0E8FEFC81AD80AE80A17
:10209800ECCFCE01DF91CF911F910F91EF90DF90A0
:0A20A800CF908F907F906F90089505
:1020B20081B1886081B982B1886082B981B1806161
:1020C20081B982B1806182B981B1806281B982B104
:1020D200806282B981B1806481B982B1806482B93F
:1020E20081B1806881B982B1806882B981B1826030
:1020F20081B982B1826082B981B1846081B982B1D1
:10210200846082B981B1886081B982B1886082B904
:0221120008952E
:1021140080E090E005C0FC01E55EFB4F1082019673
:1021240085309105C0F380E090E005C0FC01E35EDA
:10213400FC4F108201968E3F9105C0F380E090E041
:1021440005C0FC01E050FE4F108201968E3F9105C0
:10215400C0F380E090E005C0FC01EE5DFB4F10820F
:0A21640001968A309105C0F308953A
:10216E00CF92DF92EF92CF93DF936B01E82EC0E018
:10217E00D0E00FC0AE2DC6018C0F9D1FA11DD7FD47
:10218E00AA95FC015A2F0E940813862F0E94EC126A
:10219E0021968E2DB6010E945512C817D90750F3FD
:0C21AE00DF91CF91EF90DF90CF9008956B
:1021BA000E94071282B1877F82B98BE08EBD0DB46F
:1021CA0007FEFDCF8EB580932C041EBC0DB407FE0E
:1021DA00FDCF8EB580932C04809120049091210428
:1021EA000E94EF0F82B1886082B960E274E080E0F9
:0621FA000E94B7100895D9
:10220000CF92DF92EF926B01E82EF6015E2D0E94D5
:102210000813862FF901542F0E94081386130BC050
:10222000882341F08FEFC81AD80AE80A2F5F3F4F82
:102230004F4FEBCF682F90E0861B9109EF90DF9016
:04224000CF9008959E
:102244000E94BC120E941D120E94B9110E945910D2
:102254000E9443120E9401130E948A1069E474E0F0
:1022640080E00E94B7100E944F0E0E94FA122FEFD6
:1022740081EE94E0215080409040E1F700C00000DE
:02228400EBCF9E
:10228600FA0160387105CCF0623871051CF06338CC
:10229600710599F4A081B1819D012C5F3F4F318377
:1022A60020834D915D916D917C91FC01408351831A
:1022B6006283738381E090E0089580E090E0089562
:1022C60097FB10F8169400080F93083098F0085002
:1022D600232F342F452F562F672F782F892F902D98
:1022E600F4CF059497958795779567955795479574
:0C22F600379527950A95AAF70F910895D7
:102302000E94B90F0E94A70C80E090E011C0FC016E
:10231200E050FE4F2081FC01EA5DFB4F2083FC016F
:10232200EF5FFD4F2081FC01E95DFB4F20830296A8
:082332008630910564F3089563
:10233A002F923F924F925F926F927F928F929F92CB
:10234A00AF92BF92CF92DF92EF92FF920F931F93B9
:10235A00CF93DF93CDB7DEB7CA1BDB0B0FB6F8946A
:08236A00DEBF0FBECDBF1994C8
:1023720087E690E09093C5008093C4008DB182609F
:102382008DB9E1ECF0E08081886080838DB18E7F31
:102392008DB980818061808381B1846081B982B18D
:0623A200846082B9089579
:1023A8002A88398848885F846E847D848C849B84DD
:1023B800AA84B984C884DF80EE80FD800C811B81EB
:1023C800AA81B981CE0FD11D0FB6F894DEBF0FBE1A
:0623D800CDBFED010895E8
:1023DE00A2E0B0E0E5EFF1E10C94AB118C013A8391
:1023EE0029839E012F5F3F4F0E943502F801208105
:1023FE0024FF02C08FEF9FEF2296E4E00C94E211CF
:10240E0082B1877F82B983E18EBD0DB407FEFDCF09
:10241E008EB580932C0482B1886082B90E94E60E3C
:0C242E0066EF73E080E00E94B710089594
:10243A0087B1806487B988B1806488B983B38160C1
:10244A0083BB84B3816084BB83B3826083BB84B360
:06245A00826084BB0895BE
:10246000A0E0B0E0E6E3F2E10C94AD119E01255F3F
:102470003F4F488559856A858E819F810E94A412AD
:06248000E2E00C94E411FF
:1024860084B1866084B984B1877F84B984B1816060
:1024960084B985B1816085B98CB581658CBD8CB5F3
:0424A6008CBD08954C
:1024AA009B01482FA82FCB01FC015A2F0E94081329
:1024BA00662319F00196A11DF7CF642FA901841B89
:0424CA00950B0895D1
:1024CE0082B1877F82B98FEF8EBD0DB407FEFDCF2F
:1024DE0082B1886082B965EA73E080E00E94B7102D
:0224EE0008954F
:1024F0006095709580959095309540955095219573
:102500003F4F4F4F5F4F6F4F7F4F8F4F9F4F0895FC
:10251000689401C0E8948F929F92CF93DF930E94BA
:0C252000FE0DDF91CF919F908F900895E9
:10252C00992777FD06C07BBF07900D920197E1F7C5
:0C253C00089501900D920197E1F70895B9
:102548000F931F9389019A01462F6FEF7FE70E942F
:08255800AC0D1F910F910895D5
:102560000024A7FD00942A1730054005500560059A
:08257000700580059005089537
:10257800E1E0F1E0808180668083E2E0F1E0808143
:06258800806680830895C7
:10258E00EC010E9417130E941613CE010E9418131D
:06259E00CE010E9414139F
:1025A400FC01480F591FE417F50711F06193FBCFA5
:0225B400089588
:1025B6009C01215631092A31310510F48F7599276E
:0225C600089576
:1025C8009C01215431092A31310508F480620895AB
:0E25D8009091C00095FFFCCF8093C60008953F
:0E25E6008091C0008823E4F78091C60008951C
:0E25F400E2E0F1E0908180E489278083089581
:0E260200E2E0F1E0908180E289278083089574
:0E26100057FD03C05BBF679108956081089578
:06261E0080E090E0089549
:042624000C94000012
:042628000E94B1005B
:02262C0008950F
:02262E0008950D
:0226300008950B
:00000001FF
