:100000000C948F000C942D210C942D210C942D21F7
:100010000C942D210C942D210C942D210C942D2128
:100020000C942D210C942D210C942D210C942D2118
:100030000C942D210C942D210C942D210C942D2108
:100040000C942D210C942D210C942D210C942D21F8
:100050000C942D210C942D210C942D210C942D21E8
:100060000C942D210C942D210C942D210C942D21D8
:100070000C942D210C942D210C942D210C942D21C8
:100080000C942D210C942D210C942D210C942D21B8
:100090000C942D210C942D210C942D210C942D21A8
:1000A0000C942D210C942D210C942D210C942D2198
:1000B0000C942D210C942D210C942D210C942D2188
:1000C0000C942D210C942D210C942D210C942D2178
:1000D0000C942D210C942D210C942D210C942D2168
:1000E0000C942D210200045C80000C94DF1F0C9402
:1000F000F4020C940D070C94E8120C94391F0C9424
:10010000CC1F0C946A0A0C943D180C9481150C9425
:10011000E30E0C94511F0C9423100C9443121124E1
:100120001FBECFEFD1E2DEBFCDBF00E00CBFE4EEDB
:10013000F0E040E019C0B791A7913791279107915E
:1001400007FD0EC097918791EF01F92FE82F0BBFA4
:1001500007900D92A217B307D9F7FE011BBE04C08A
:100160001D92A217B307E1F7E93EF40721F70E94B9
:0A017000231E0C94A720F894FFCF83
:10017A0057726F6E6720496E707574200A4D616BF5
:10018A0065207375726520696E70757420697320B5
:10019A004845582076616C6964205B30202D2046E2
:1001AA005D200A004865726520697320776861746A
:1001BA002077617320696E7075747465643A2030B3
:1001CA007825303258200A002D2D2D436F6C756D1D
:1001DA006E20416464726573732D2D2D2032206266
:1001EA0079746573200A00307825303258200A0065
:1001FA002D2D2D426C6F636B2F5061676520416412
:10020A0064726573732D2D2D2033206279746573A2
:10021A00200A00466C617368204944004572617384
:10022A0065204D656D6F7279004E414E44204164E0
:10023A0064726573736573005772697465205465D7
:10024A0073740052656164204D656D6F7279005058
:10025A006172616D65746572205061676500256918
:10026A002D3E446174612052656365697665643A1E
:10027A0020307825303258200A00466C6173682095
:10028A0053746174757300426C6F636B20436865C5
:10029A00636B657200426C6F636B206973206D61DA
:1002AA00726B6564206261640A00426C6F636B2042
:1002BA006170706561727320636C65616E0A0050CB
:1002CA0061676520436865636B6572005265736593
:1002DA007400312920466C617368204944200A0061
:1002EA003229204572617365204D656D6F727920E0
:1002FA000A00332920577269746520546573742083
:10030A000A0034292052656164204D656D6F727947
:10031A00200A00352920506172616D65746572206A
:10032A0050616765200A00362920466C617368208F
:10033A00537461747573200A00372920426C6F6305
:10034A006B20436865636B6572200A003829205068
:10035A0061676520436865636B6572200A00392905
:10036A00204E414E44204164647265737365732064
:10037A000A00313029205265736574200A002D3E27
:10038A005573657220496E7075743A0A004F6E652E
:10039A0020746F206D616E792E204D616B6520731C
:1003AA00757265206F6E6C79203420696E70757471
:1003BA00732E200A00436F6C756D6E20416464725F
:1003CA00657373202D3E20307825303258200A007C
:1003DA004F6E6520746F206D616E792E204D616BB2
:1003EA00652073757265206F6E6C79203620696E90
:1003FA00707574732E200A00426C6F636B2F506104
:10040A0067652041646472657373202D3E203078DD
:07041A0025303258200A00D2
:10042100577269746520456E61626C65200A0057D8
:10043100726974652044697361626C65200A0052B7
:10044100656164204465766963652049443A204DBD
:100451006963726F6E204944202830782530325804
:100461002920446576696365204944202830782530
:1004710030325829200A0044657669636520526547
:100481007365746564200A00446174612052656378
:100491006569766564200A00526561642066726F41
:1004A1006D2043616368653A200A00476574204600
:1004B100656174757265733A205374617475732044
:1004C10028307825303258290A0050726F677261DE
:1004D1006D2045786563757465200A0050726F67F9
:1004E10072616D204C6F6164200A00506167652064
:1004F10052656164200A00426C6F636B2045726132
:050501007365200A00F3
:100506002D2D2D436F6C756D6E204164647265737D
:10051600732D2D2D2032206279746573200A002DEB
:100526002D2D426C6F636B2F5061676520416464AB
:10053600726573732D2D2D203320627974657320B7
:100546000A0030782530325820546869732050618B
:100556006765206973206D61726B656420626164F2
:10056600200A0030782530325820546869732050AC
:0F05760061676520697320636C65616E200A0000
:1005850068076C094C836A9074A07AC000806888FB
:0605950000846C8200816D
:10059B002D3E41727261797320436C6561726564A3
:0305AB00200A0023
:1005AE00494E4600696E66004E414E006E616E0009
:1005BE00494E4600696E66004E414E006E616E00F9
:0705CE00286E756C6C29001A
:0605D500286E696C29008C
:1005DC00A3EAB0E0E4EFF2E00C94C71E4C01590121
:1005EC00C756DF4F488359836A83C959D040212CA1
:1005FC00312C6E012BE8C20ED11C85E2782E26011F
:10060C0030E8632ECE018D569F4FC456DF4F998331
:10061C008883CC59D0409C0140E8CF55DF4F2883CC
:10062C0039834A83C15AD040C756DF4F4881C959D4
:10063C00D040C656DF4FB881CA59D040C556DF4F9F
:10064C007881CB59D040E42FFB2F572F0E94E82004
:10065C00662309F4D0C3CF57DF4F19821882C158D3
:10066C00D0408FEF9FEFCD57DF4F99838883C358CE
:10067C00D040CB57DF4F19821882C558D040E1E0EB
:10068C00F0E0EC0FFD1FC957DF4FF983E883C75823
:10069C00D04020E830E0C757DF4F39832883C95852
:1006AC00D040842F9B2FA72FE12CF12CFC015A2F2B
:1006BC000E94E82061111DC0E114F10411F19701B1
:1006CC005B2F672FC4010E94481CC756DF4F8881DF
:1006DC009981AA81C959D0408E0D9F1DA11DF7FC8F
:1006EC00AA95C756DF4F88839983AA83C959D040EE
:1006FC0008C00196A11D6532F9F23FEFE31AF30A27
:10070C00D5CFC756DF4F88819981AA81C959D0406E
:10071C00FC015A2F0E94E820653209F05AC39C0153
:10072C004A2F2F5F3F4F4F4FC256DF4F28833983DD
:10073C004A83CE59D040C756DF4F288339834A832A
:10074C00C959D040C756DF4F88819981AA81C959B0
:10075C00D040FC015A2F0E94E8206B3241F4CF5755
:10076C00DF4F28813981C158D04024600BC06C32D6
:10077C00CCF06D3259F5CF57DF4F28813981C158F4
:10078C00D0402160CF57DF4F39832883C158D040E8
:10079C000196A11DC756DF4F88839983AA83C95937
:1007AC00D040D0CF603241F4CF57DF4F2881398110
:1007BC00C158D0402860E6CF633291F4CF57DF4F59
:1007CC0028813981C158D0402061DCCF603341F49D
:1007DC00CF57DF4F28813981C158D0402260D2CF0A
:1007EC006A3299F50196A11DC756DF4F888399830C
:1007FC00AA83C959D040D501ED91FC911197CF0135
:10080C0002968D939C9380819181CB57DF4F998376
:10081C008883C558D04097FF3FC0CF57DF4F288102
:10082C003981C158D040B1E02B27CF57DF4F3983E6
:10083C002883C158D040919581959109CB57DF4FB2
:10084C0099838883C558D04027C0BC018A2F0E9449
:10085C00551BCB57DF4F99838883C558D040C7565B
:10086C00DF4F88819981AA81C959D040FC015A2F48
:10087C000E94E820062E000C770B605371096A3039
:10088C00710550F40196A11DC756DF4F88839983DB
:10089C00AA83C959D040E3CFCF57DF4F88819981C4
:1008AC00C158D04080FF07C08D7FCF57DF4F998351
:1008BC008883C158D040C756DF4F88819981AA815F
:1008CC00C959D040FC015A2F0E94E8206E3209F021
:1008DC0059C0CD57DF4F19821882C358D0409C01A4
:1008EC004A2F2F5F3F4F4F4FC756DF4F2883398317
:1008FC004A83C959D040F901542F0E94E8206A322A
:10090C00D1F40296A11DC756DF4F88839983AA8321
:10091C00C959D040D501ED91FC911197CF010296A8
:10092C008D939C9380819181CD57DF4F99838883E0
:10093C00C358D04027C0842FB9010E94551BCD57F6
:10094C00DF4F99838883C358D040C756DF4F8881C7
:10095C009981AA81C959D040FC015A2F0E94E820E4
:10096C00062E000C770B605371096A30710550F438
:10097C000196A11DC756DF4F88839983AA83C95955
:10098C00D040E3CFCE0187569F4F0E943819182FC5
:10099C00C756DF4F9881C959D040C656DF4F888162
:1009AC00CA59D040C556DF4F5881CB59D040E92F9A
:1009BC00F82F0E94E820862F660F990B0E94C42006
:1009CC008936910509F45BC0B4F48336910509F4BA
:1009DC0069C144F48532910509F4A4C181369105AD
:1009EC0029F1B6C18436910509F449C088369105C0
:1009FC000CF42FC1ADC18037910509F4CDC04CF476
:100A0C008E36910509F41BC18F36910509F47DC012
:100A1C009FC18537910509F455C08837910509F4B4
:100A2C0097C08337910509F093C15BC1612F70E0CA
:100A3C00A501C6010E94891E892B09F4BAC1C756AB
:100A4C00DF4F88819981AA81C959D0409C014A2FD6
:100A5C002F5F3F4F4F4FC756DF4F288339834A8351
:100A6C00C959D040FC015A2F0E94E820262FA6011C
:100A7C00BE016F577F4FC4010E94640A97C1612F5A
:100A8C0070E0950141E050E0C6010E94DC10892B1A
:100A9C0009F48FC1C756DF4F88819981AA81C95942
:100AAC00D0400196A11DC756DF4F88839983AA8336
:100ABC00C959D040A601BE016F577F4FC4010E9497
:100ACC001D1074C1612F70E0950140E050E0C6012B
:100ADC000E94DC10892B09F46CC1C756DF4F88814A
:100AEC009981AA81C959D0400196A11DC756DF4FE3
:100AFC0088839983AA83C959D040A601BE016F5738
:100B0C007F4FC4010E94371851C1612F70E09501CD
:100B1C0040E050E0C6010E94DC10892B09F449C169
:100B2C00C756DF4F88819981AA81C959D040019657
:100B3C00A11DC756DF4F88839983AA83C959D0401A
:100B4C00A601BE016F577F4FC4010E947B152EC1B9
:100B5C00612F70E0950140E050E0C6010E94DC106E
:100B6C00892B09F426C1C756DF4F88819981AA8148
:100B7C00C959D0409C014A2F2F5F3F4F4F4FC7564A
:100B8C00DF4F288339834A83C959D040FC015A2F3F
:100B9C000E94E820262F4BC0950140E050E060EF0A
:100BAC0070E0C6010E94DC10892B09F402C1C75603
:100BBC00DF4F88819981AA81C959D0400196A11D26
:100BCC00C756DF4F88839983AA83C959D04086E0E2
:100BDC0025ED35E040E0F901DE01AD56BF4F742F35
:100BEC000E945E20D6012C9111963C911197129681
:100BFC004C91129713965C91139714966C911497D1
:100C0C0015967C91159716968C91169717969C9124
:100C1C00A0E00E94842051F400E010E0CF55DF4F9B
:100C2C00288139814A81C15AD040BAC028E7A6012F
:100C3C00BE016F577F4FC4010E94DD0EB7C0612FFC
:100C4C0070E09501A1014E0D5F1DC6010E940F15AC
:100C5C00B0C0612F70E0A501C6010E94891E892BCE
:100C6C0009F4A7C0C756DF4F88819981AA81C95959
:100C7C00D0409C014A2F2F5F3F4F4F4FC756DF4F3D
:100C8C00288339834A83C959D040FC015A2F0E94CA
:100C9C00E820262FA601BE016F577F4FC4010E948A
:100CAC00070784C0103809F084C0C756DF4F88810D
:100CBC009981AA81C959D0400196A11DC756DF4F11
:100CCC0088839983AA83C959D040D501ED91FC91B1
:100CDC001197CF0102968D939C938081F6018083AE
:100CEC005BC0103809F065C0C756DF4F8881998109
:100CFC00AA81C959D0400196A11DC756DF4F8883E0
:100D0C009983AA83C959D040D501ED91FC911197D3
:100D1C00CF0103968D939C9320813181428100E019
:100D2C0010E03EC0103809F044C0C756DF4F888130
:100D3C009981AA81C959D0400196A11DC756DF4F90
:100D4C0088839983AA83C959D040F601708224C044
:100D5C00D6017C92C256DF4F288139814A81CE5907
:100D6C00D040C756DF4F288339834A83C959D040B6
:100D7C00CF57DF4F19821882C158D040CB57DF4F65
:100D8C0019821882C558D0408FEF9FEFCD57DF4F97
:100D9C0099838883C358D04001E010E0462D92011E
:100DAC00BE016F577F4FC4010E94B6168E0D9F1D5A
:100DBC0011C0C756DF4F88819981AA81C959D0408B
:100DCC000196A11DC756DF4F88839983AA83C95901
:100DDC00D040C7017101E80EF91EE214F3044CF483
:100DEC008FE490E090935704809356048FEF9FEF1D
:100DFC0003C0170119CCC101CD55DF4FE2E10C94B2
:020E0C00FE1EC8
:100E0E00A6E2B0E0EDE0F7E00C94C71E9F8F8E8F48
:100E1E00798F688F122FFB010190F081E02DFA87F8
:100E2E00E987FB01C280D380248135813C8B2B8BDB
:100E3E008085918599A388A30680F781E02DFA839A
:100E4E00E983FA0180809180A280B38020E030E0B7
:100E5E00A901C501B4010E94182187FF06C0B7FA87
:100E6E00B094B7F8B0948DE204C0F985F2FF0CC3CC
:100E7E008BE2E981FA8180832B893C8921503109EB
:100E8E0038872F8341E050E05A8B498B06C08B89FF
:100E9E009C8998878F831A8A198AD501C401BF77D6
:100EAE000097E0E8AE07EFE7BE07D9F4212F110F48
:100EBE00330B2154310989819A8149895A89840FCA
:100ECE00951F2A31310520F44EEA55E060E003C04B
:100EDE0042EB55E060E00E94422062EB75E080E05C
:100EEE001EC00197A048BF4730F1212F110F330BC1
:100EFE002154310989819A8149895A89840F951F14
:100F0E002A31310520F446EB55E060E003C04AEB90
:100F1E0055E060E00E9442206AEB75E080E00E949E
:100F2E00FE1FE981FA81AF0160E8E984FA840B893A
:100F3E001C899C01A1C220E030E0A901C501B401C9
:100F4E000E9418211B821C82882309F467C0F0E8D6
:100F5E00FD832FE32E83212C312C20E030E040E264
:100F6E0051E46B817C818D819E810E942621F62E1B
:100F7E00072F8D879B87A50194010E941D211816AE
:100F8E0054F03FEF231A330AFB820C834D854D83B9
:100F9E005B855E83E2CF1C861B862B813C814D8157
:100FAE005E81C501B4010E94182187FF3DC084ED0A
:100FBE0028168EEF380604F5EB85FC85EF2BE1F451
:100FCE0020E030E040E85AE5C501B4010E94262138
:100FDE004B015C0120E030E040E85AE56B817C81FA
:100FEE008D819E810E9426216B837C838D839E83BF
:100FFE0021E030E03C872B8720E030E040E251E4F6
:10100E006B817C818D819E810E9422216B837C83EA
:10101E008D839E8331E0231A3108BFCF40E84D8384
:10102E005FE35E83212C312C812F110F990B9BA333
:10103E008AA30E94C4208B8FD7FC03C0DEA2CDA250
:10104E0004C0E6E0F0E0FEA3EDA3FB8DF73641F41D
:10105E00CD2809F01EC221E030E03EA32DA319C217
:10106E008B8D8D8B04C037FE25C296E69D8BEDA130
:10107E00FEA13196FEA3EDA3FD89F63699F437FE57
:10108E0008C01B821C8220E82D833FE33E83212C67
:10109E00312C4B8D473631F08DA19EA1820D931DC3
:1010AE009EA38DA39B819B87EC81ED87FD81FE8B9B
:1010BE002E812A8F750164011D8E1C8E8C8D9D8D47
:1010CE00EDA1FEA18E179F07C1F12B853D854E899F
:1010DE005A8DC701B6010E9422210E9480132B0156
:1010EE003C010E94F6206CA38701760117FB109538
:1010FE0017F910952B853D854E895A8DC301B20186
:10110E000E94E2126B017C01F7FAF094F7F8F0946A
:10111E0020E030E040E251E46B857D858E899A8D2A
:10112E000E9422216B877D878E8B9A8F4C8D5D8DD1
:10113E004F5F5F4F5D8F4C8FC1CF20E030E040EAB4
:10114E0050E46B857D858E899A8D0E9426212B0118
:10115E003C019B01AC01C701B6010E94182187FD1D
:10116E000BC0A3019201C701B6010E941821811183
:10117E0006C0FCA1F0FD03C0412C512C3201A3018D
:10118E009201C501B4010E94F0204B015C012D8932
:10119E00253611F0310102C0612C712C23014DA1B5
:1011AE005EA1441A550AC988DA8800E010E01C8650
:1011BE001B8689859A85807199279F8B8E8B6414E7
:1011CE00750431F48B859C85892B09F49AC0A6C0D1
:1011DE00DD8ECC8EE88DF98D808591850597C816AC
:1011EE00D90680F72B813C814D815E81C501B4010A
:1011FE000E9422210E9480136D877E878F87988B95
:10120E000E94F620CB01EE89FF89EF2B69F4892B22
:10121E0059F4FB8DF73641F477FE06C098012F5F27
:10122E003F4F3D8F2C8F43C04B855C85452BB1F4D2
:10123E0077FE14C05FEFC51AD50AE981FA818C8D4D
:10124E009D8DE80FF91F9EE29083EF81F88531970F
:10125E00F887EF8321E030E03C872B87E981FA8124
:10126E00EC0DFD1D1D8F0C8F8C8D9D8D892B49F0E6
:10127E0030E331934C8D5D8D415051095D8F4C8F14
:10128E00F3CFC8018C0D9D1D2F813885201B310B8E
:10129E006C01EFEFCE1ADE0AE981FA81E80FF91F31
:1012AE00605D6083A9014150510958874F838501C4
:1012BE00740117FB109517F910952B813C814D8108
:1012CE005E816D857E858F8598890E94E2124B0125
:1012DE005C01B7FAB094B7F8B09420E030E040E289
:1012EE0051E46B817C818D819E810E9422216B83D2
:1012FE007C838D839E8351E0651A71080C8D1D8D44
:10130E005ECFF985F4FF0AC0E981FA81EC0DFD1D6F
:10131E008EE2808396012F5F3F4F690149815A818A
:10132E004C0D5D1D5C874B87FA011082FD89F536E9
:10133E0009F061C0E981FA8128A139A1E20FF31FFA
:10134E003197108237FE06C031942194310801E0A6
:10135E0010E002C000E010E0E8A1F9A13197498148
:10136E005A81E40FF51F22E030E08AE0E82EF12CDE
:10137E00CF0149815A81841B950B2114310479F0D8
:10138E00C101B7010E948B1F805D82931B0121500A
:10139E0031098F819885019798878F83E9CF12162F
:1013AE00130674F3FC013197E40FF51F012B11F4B2
:1013BE002BE201C02DE220830297E981FA81E80F2A
:1013CE00F91F2AA13BA1215431092A31310510F010
:1013DE0025E601C025E420832F813885225031096E
:1013EE0038872F83C816D90634F4AF0160E88B8591
:1013FE009C850E94422049815A813A0180E8882EBC
:10140E00998591FF2EC090FD2CC0EF81F8851E1698
:10141E001F063CF5882DB3010E94FE1F29813A81DB
:10142E00820F931F9C0149815A81241B350BE98938
:10143E00FA892E173F074CF0FC012081EF81F885C9
:10144E00E80FF91F20830197EDCF4F81588560E398
:10145E0070E089819A818E0F9F1F0E94B2201C8A94
:10146E001B8A882DB3010E94FE1FE984FA840B8922
:10147E001C899C01682DA3018E8D9F8D0E941914CD
:10148E00A696E2E10C94FE1E598553FF00CD80E234
:10149E00F0CC2CEF22162FEF32064CF04DA15EA1B0
:1014AE00241635060CF4DFCD55E65D8BFBCD35E607
:0A14BE003D8BF8CD46E64D8BF5CDD1
:1014C800A0E2B0E0EAE6FAE00C94C71E9D8F8C8F8C
:1014D800FB01298320812D8331813E8F8281938175
:1014E8009B8B8A8B248135813987288780859185D4
:1014F800998F888F46805780FA01C080D180E2801A
:10150800F38020E030E0A901C701B6010E9418214C
:1015180087FF06C0F7FAF094F7F8F0948DE204C05C
:101528005D8152FFF6C28BE2F201808328853985FE
:10153800215031093F872E8741E050E05C834B837F
:1015480006C0888599859F878E871C821B82B70174
:10155800A6017F77E9810E2E000CFF0BF98BE88B33
:1015680041155105F0E86F07FFE77F07C1F42889A7
:101578003989215431098B819C81840D951D2A312B
:10158800310520F44EEB55E060E003C042EC55E035
:1015980060E00E94422062EC75E080E01CC08B8114
:1015A8009C81840D951D4130510560487F47E8F0C6
:1015B80028893989215431092A31310520F446EC2A
:1015C80055E060E003C04AEC55E060E00E9442202C
:1015D8006AEC75E080E00E94FE1FA20160E8ED80E1
:1015E800FE8C088519859C018CC220E3FC012083B0
:1015F800EB81FC813196E40DF51D2B813C812E5F3A
:101608003F4F3C832B8348895989415451095B8F4B
:101618004A8F4A31510510F088E701C088E5808378
:1016280020E030E0A901C701B6010E941821612C11
:10163800712C1F8E1982882309F464C050E858A3BE
:101648008FE38A832F8D398148A15A816F8D7981E3
:1016580088A19A810E94F0205B018C01A701960164
:101668000E941D2118160CF442C09FEF691A790ACE
:10167800AF8EB98208A31A83E5CF20E030E040E0BE
:101688005FE36F8D798188A19A810E94262120E0ED
:1016980030E0A9010E941821811118C020E030E033
:1016A80040E85AE56F8D798188A19A810E942621A8
:1016B8006F8F798388A39A8320E030E040E85AE569
:1016C800C701B6010E9426216B017C0120E030E0B1
:1016D80040E05FE36F8D798188A19A810E9426217D
:1016E8006F8F798388A39A83A1E06A1A71082F8D76
:1016F800398148A15A81C701B6010E94182187FD86
:10170800BCCF04C0E0E8E8A3FFE3FA832A893B8959
:1017180037FD02C0C90102C088E190E0AC014F5F0B
:101728005F4F5B874A878F8C9980A8A0BA80160183
:1017380087011F821E829401A501B101C8010E9480
:1017480022210E9480136C8B7D8B8E8B9F8B940142
:10175800A5010E9426219B01AC01B101C8010E948C
:10176800EF201B018C0120E030E040E85DE3B4018C
:10177800C5010E9426214B015C018E819F81019643
:101788009F838E83EA89FB89F7FF09C020E030E058
:10179800A901B101C8010E941821882341F02A85B6
:1017A8003B854E815F81421753072CF204C08E811E
:1017B8009F819B878A8720E030E040E051E4B401B4
:1017C800C5010E9426214B015C019B01AC01B101BE
:1017D800C8010E94182187FD12C0A5019401B1011A
:1017E800C8010E94182181110DC06C897D898E89DC
:1017F8009F890E94F62061707727672B19F4812C46
:10180800912C5401A5019401C701B6010E94F02052
:101818006B017C01DC01CB01BF770097A048BF4773
:1018280009F4A5CE2E843F84F2E02F1A31082A85C8
:101838003B85319521953109398B288B0B811C818A
:10184800A12CB12C1F821E82812C912C488D598D80
:10185800455051095D8B4C8BEC89FD890E171F078C
:101868000CF091C02F8D398148A15A81C701B6016A
:101878000E9422210E9480136A877B878C879D871C
:101888000E94F620AB016115710539F481149104A9
:1018980021F05FEFA51AB50A4DC0EE81FF81EF2B4D
:1018A80089F48114910471F0F201E00FF11F2EE226
:1018B800208331E0231A31080F5F1F4FE1E0F0E089
:1018C800FF83EE83F201E00FF11F95012115310529
:1018D80029F0A0E3A19321503109F8CFF801EA0DCE
:1018E800FB1DFF87EE872A183B084A3051051CF478
:1018F800605D7F4F02C0695A7F4F2A8D3B8D2A3128
:10190800310550F4CB018062815691094A9720F441
:10191800CB010E94BB20BC010E851F850F5F1F4FA6
:10192800EE85FF85E40DF51D608331E0231A31084B
:10193800A12CB12C2F8D398148A15A816A857B85CC
:101948008C859D850E9426219B01AC01C701B601AB
:101958000E94EF206B017C0120E030E040E85DE36D
:101968006F8D798188A19A810E9426216F8F798352
:1019780088A39A8341E0841A9108888999898815EF
:10198800990509F069CF2E813F81232B51F5F2018A
:10199800E00FF11FA114B104E9F04A895B8914161C
:1019A8001506C4F45D8150FD15C08EE28083F801F0
:1019B8003196E40DF51DC50120E321930197E9F760
:1019C8000A0D1B1D0F5F1F4FC50180959095280EAE
:1019D800391E07C08D8184FF04C08EE280830F5FAB
:1019E8001F4FF201E00FF11FFF83EE831082E88D95
:1019F800F98DE40DF51D3197108277FE07C07194BB
:101A080061947108EE24E394F12C02C0E12CF12CCE
:101A1800E88DF98D3197E40DF51D21E030E08AE07D
:101A2800C82ED12CCF01841995096114710469F06D
:101A3800C301B6010E948B1F805D82933B01215038
:101A4800310941E0241A3108EDCF2130310581F305
:101A5800FC013197E40DF51DEF2811F42BE201C0CC
:101A68002DE220830297F201E80FF91F2A8D3B8DA2
:101A78002A31310510F020E701C020E5208308173E
:101A8800190734F4AF0160E88E819F810E944220DB
:101A9800320130E8832E4D8141FF28C040FD26C029
:101AA80052E0251A31081214130404F5882DB301E5
:101AB8000E94FE1F840D951D9C01241935094B8138
:101AC8005C81241735073CF0FC012081E20DF31DF1
:101AD80020830197F1CFA10160E370E08B819C81A5
:101AE800840D951D0E94B22019861886882DB30191
:101AF8000E94FE1FED80FE8C088519859C01682DCB
:101B0800A3018C8D9D8D0E941914A096E2E10C947E
:0C1B1800FE1E5D8153FF15CD80E206CD5E
:101B2400CF92DF92EF92FF920F931F93CF93DF93A5
:101B34006B01E82E2DE132E040E00E94451E892B26
:101B440029F40E94DD1C0E940F1B2CC126E232E006
:101B540040E08E2DB6010E94451E892B49F4109257
:101B64004F0410924E040E94DD1C0E94191F1AC1DA
:101B740023E332E040E08E2DB6010E94451E892BFE
:101B840019F40E94D71B0EC122E432E040E08E2DEE
:101B9400B6010E94451E892B81F510924F041092C4
:101BA4004E040E94DD1C80E00E94D91762ED71E0B2
:101BB40080E00E948F1D80E00E9495116AEF71E021
:101BC40080E00E948F1D81E00E94951180E594E0E1
:101BD4007C0120E8022F0F2EFEEFCF2EF2E0DF2E45
:101BE400F02D2EEA31E040E060E070E085E090E026
:101BF4000E948F180E949B1BD5C02DE432E040E068
:101C04008E2DB6010E94451E892B89F410924F0433
:101C140010924E040E94DD1C0E94DA1D6DE173E0F7
:101C240080E80E948F1D8AE00E94CC20BBC029E579
:101C340032E040E08E2DB6010E94451E892B99F5B5
:101C440081E090E090934F0480934E040E94DD1C49
:101C54000E94391DC0E0D0E021C0FE01E35EFC4FCC
:101C640080811F928F93DF93CF9388E692E0A0E068
:101C7400AF939F938F930EEF12E01F930F930E94E5
:101C8400C61FB80180E80E948F1D21968DB79EB7AC
:101C940009960FB6F8949EBF0FBE8DBFCF3FD105F6
:101CA400E1F2DCF27FC024E832E040E08E2DB601A0
:101CB4000E94451E892B29F40E94DD1C0E94C81A2B
:101CC40071C021E932E040E08E2DB6010E94451E2C
:101CD400892BC1F410924F0410924E040E94DD1C13
:101CE4000E94DA1D809149048F3F31F06FE972E060
:101CF40080E00E948F1D56C064EB72E080E00E9479
:101D04008F1D50C029EC32E040E08E2DB6010E94B8
:101D1400451E892B39F410924F0410924E040E94F0
:101D24001B1740C026ED32E040E08E2DB6010E9424
:101D3400451E892B29F40E94DD1C0E94102032C00C
:101D44006CED72E080E00E948F1D6AEE72E080E02C
:101D54000E948F1D6CEF72E080E00E948F1D6CE08A
:101D640073E080E00E948F1D6DE173E080E00E94CB
:101D74008F1D61E373E080E00E948F1D63E473E0D4
:101D840080E00E948F1D66E573E080E00E948F1D55
:101D940068E673E080E00E948F1D6CE773E080E0EA
:101DA4000E948F1DDF91CF911F910F91FF90EF90B3
:061DB400DF90CF900895BE
:101DBA00A4E1B0E0E3EEFEE00C94C71E98878F839F
:101DCA007A8369835C8B4B8B122FDB011296ED9120
:101DDA00FC91139714962D913C9115973E832D8370
:101DEA00ED90FC90119716962D903C901797F7FD61
:101DFA0003C0E894E1F802C0E1E0F0E0C7018071B5
:101E0A0099279A878987E4FE1FC0AB89BC892C91E0
:101E1A0011963C91119712964C91129713965C91D8
:101E2A00139714966C91149715967C91159716969C
:101E3A008C91169717969C91A0E00E94842021F01D
:101E4A008D819E81029702C08D819E8197012870A3
:101E5A0033273C872B87E3FC0197AB89BC894C90DD
:101E6A0011965C90119712966C90129713967C902B
:101E7A00139714968C90149715969C90159716960E
:101E8A00AC9016971796BC90A981BA811896CD90F6
:101E9A00DC901997B1E0CB1AD108D101AC0DBD1D68
:101EAA001C929C838B839F01281B390B3E872D87AD
:101EBA00C70182709927988B8F87812F012E000C7A
:101ECA00990BDC01A154B109BA8BA98B32E0C31674
:101EDA00D10434F489859A85892B09F04CC073C0E2
:101EEA009201A301B401C501A0E00E94842081F1FE
:101EFA00B1E0CB1AD108C2018F7099278A309105B7
:101F0A0014F4C09602C0895A9F4FE989FA897A97D0
:101F1A0048F49C012062215631092A31310510F416
:101F2A000E94BB20F101EC0DFD1D80832B813C81B9
:101F3A00215031093C832B839201A301B401C501CD
:101F4A0004E00E94AB1E29013A014B015C01BECF9D
:101F5A008D859E85AB81BC818A0F9B1F1816190639
:101F6A003CF21A161B060CF0B5CFEF85F889EF2B59
:101F7A0009F0BECFAFCFAB89BC892C9111963C91A9
:101F8A00119712964C91129713965C911397149687
:101F9A006C91149715967C91159716968C911697B5
:101FAA0017969C91A0E00E94842069F0F101EC0D43
:101FBA00FD1D31971083B2E0CB1AD108F101EC0D67
:101FCA00FD1D80E38083EB85FC85EF2B41F0F1E07A
:101FDA00CF1AD108F101EC0DFD1D80E28083A981A1
:101FEA00BA8118962D913C911997215031092C19D3
:101FFA003D09C20CD31CA60160E80D811E818F81A8
:10200A0098850E9419149C01EF81F885808191813D
:10201A0090FF09C0A981BA8112968D919C9113975C
:10202A00821793070CF4C9016496E2E10C94FE1E30
:10203A00ADE0B0E0E3E2F0E10C94C71E9A8789872D
:10204A007C836B83FA01DB011296CD90DC901397A7
:10205A0014968D919C9115979E838D83ED90FC909B
:10206A001197FA82E98216960D90BC91A02DB88735
:10207A00AF8320803180428053806480758086805F
:10208A0097808101B42DF52DE62D7B868C869D8661
:10209A009101A201B301C401A0E00E9484204CF482
:1020AA000E9432208901B42FF52FE62F7B878C8777
:1020BA009D87D7FC04C0E894E1F8FA82E98291018D
:1020CA00A201B301C401A0E0ED80FE800E94842039
:1020DA001CF0898182FF04C081E0E81AF10805C07A
:1020EA0083FF03C091E0E91AF108CE0101965C0171
:1020FA008AE0C82ED12C2B2F3F2F4E2F5B856C8563
:10210A007D858B819C810E943D12FC019101A20177
:10211A00B301C401A0E00E9484201CF0898182FFDF
:10212A0012C031970F8118850E0F1F1F9101A2014E
:10213A00B301C401A0E00E94842014F08BE201C024
:10214A008DE2D80108C083FF07C03197AF81B885F7
:10215A00AE0FBF1F80E28C93E980FA80AB81BC810D
:10216A0018962D913C911997215031092E1B3F0B3E
:10217A008F819885E80FF91FAF0160E80D811E81F4
:10218A0089859A850E9419149C01A985BA858D9121
:10219A009C9190FF07C0EB81FC8182819381821719
:0E21AA0093070CF4C9012D96E2E10C94FE1E81
:1021B8000F931F93CF93DF93FC01D9016838710502
:1021C80031F194F461387105B1F12CF4603871057E
:1021D80009F478C09FC06238710509F459C06438A1
:1021E800710509F46FC096C0603A710509F448C0DA
:1021F8002CF46039710509F44BC08CC0603C710542
:1022080009F476C0603F710509F472C083C0CD91AE
:10221800DC911197CE0102968D939C93452B39F052
:102228009881892F880F880B908381835BC0888170
:102238008083118268C0CD91DC911197CE010496FC
:102248008D939C93452B99F088819981AA81BB81B4
:10225800AC01BD01770F440B542FBA0180839183E1
:10226800A283B383448345834683478328C0088178
:1022780019812A813B81008311832283338345C0DE
:10228800CD91DC911197CE0102968D939C9323C03A
:10229800CD91DC911197CE0108968D939C9378810E
:1022A80069815A814B813C812D819E818F81708308
:1022B800618352834383348325839683878381E0B4
:1022C80090E02AC0CD91DC911197CE0102968D93B2
:1022D8009C93452BA1F099812881892F880F880B21
:1022E8002083918382838383848385838683E6CF57
:1022F800CD91DC911197CE0102968D939C93088124
:102308001981008311831282138214821582168226
:102318001782D5CF80E090E0DF91CF911F910F9188
:02232800089516
:10232A00CF92DF92EF92FF920F93CF93C82F80E064
:10233A000E94D917C1114BC0809158049091590439
:10234A00059744F067E973E080E00E948F1D80E002
:10235A000E94D9170E947B1781111BC034C09C01AF
:10236A00992314F42F5F3F4F35952795FC01E050D0
:10237A00FE4F408160E1469FA0011124FC01EF5FFE
:10238A00FD4F5081F901E05BFB4F452B40830296DC
:10239A0002C080E090E0833091050CF380E594E080
:1023AA007C0120E8022F0F2EFEEFCF2EF2E0DF2E67
:1023BA00F02D2FEB33E040E060E070E082E090E047
:1023CA000E948F184EC08C2F0E9495114AC080918E
:1023DA00580490915904079744F06AED73E080E03D
:1023EA000E948F1D80E00E94D9170E947B178111DD
:1023FA001BC034C09C01992314F42F5F3F4F3595BD
:10240A002795FC01E050FE4F408160E1469FA00104
:10241A001124FC01EF5FFD4F5081F901EE5AFB4F89
:10242A00452B4083029602C080E090E085309105FA
:10243A000CF380E594E07C0120E8022F0F2EFEEFDA
:10244A00CF2EF2E0DF2EF02D22E034E040E062E011
:10245A0070E083E090E00E948F1803C08C2F0E94E6
:10246A009511CF910F91FF90EF90DF90CF90089543
:10247A00A2E1B0E0E3E4F2E10C94C71EFC010A8B8E
:10248A001B832C83732E642E552E462E7D83CC8679
:10249A00D886BF82AE82868197819B878A87D5013B
:1024AA004D915C91228133818085918501971C0130
:1024BA0037FF02C021E030E0EA85FB85E80FF91F0B
:1024CA0010824701E1E0F0E0FA83E983C9018E193D
:1024DA009F099E878D87DA01A270BB27B88BAF87C9
:1024EA00B885BB0FBB0BB98B1214130474F0A98106
:1024FA00BA81AB2B09F05CC0AE81BF818D919C91F2
:10250A0011978F7E8D939C9353C02A893B814C816E
:10251A00572D662D752D842D9D81A0E00E94842063
:10252A00B1F1E1E02E1A3108FC85F987AF2EB884A3
:10253A00C988DC2CEC2CFC2C0C2D1C2D2A893B8107
:10254A004C81572D662D752D842D9D810E9450201A
:10255A00C90129839A83EA85FB85E20DF31D805D13
:10256A00808381E0881A91082A893B814C81572D02
:10257A00662D752D842D9D810E9452202A8B3B83C6
:10258A004C83752E662E572E482E9D83ADCF8D8592
:10259A009E85880D991D181619061CF2181419041F
:1025AA000CF0A5CFEF85F889EF2B09F0BACF9FCFB2
:0A25BA00C1016296E2E10C94FE1EDE
:1025C400A5E1B0E0E8EEF2E10C94C71E4701580122
:1025D4000E9426212B013C01A80197010E94F020B2
:1025E400162FC72ED82EF92E862F9C2DAD2DBF2D3C
:1025F40089839A83AB83BC83AA81FB81EC81ED80C0
:102604003E802F8008850D8B5E2F5F71212F3A2F1E
:102614004F2F60E070E080E090E021153105410526
:1026240000E15007610571058105910509F05EC05F
:102634005E2F6E2D732D822D9D8904E30E94AB1EA7
:102644002D873E874F87588B698B7A8B8B8B9C8B1E
:102654008D859E8597708F3F974009F447C0A301ED
:102664009201612F7C2D8D2D9F2D0E94EF209B01C7
:10267400AC01C501B4010E9418218823B9F149862F
:102684005A866B867C8629853A854B855C85C5018F
:10269400B4010E94F020B62E872E982EA92E262F44
:1026A400372F482F592F612F7C2D8D2D9F2D0E9460
:1026B4001821811118C02B2D8B2D982DA92DBA2DE1
:1026C40089839A83AB83BC833A814B815C816E2D71
:1026D400732D822D9D89A1E00E949020122FC32E7C
:1026E400D42EF52E03C01B2D6401FA2C612F7C2DF2
:0C26F4008D2D9F2D6596E2E10C94FE1EDA
:102700004F925F926F927F928F929F92AF92BF9201
:10271000CF92DF92EF92FF92CF93DF93CDB7DEB7E8
:1027200028970FB6F894DEBF0FBECDBF6B017C01BA
:10273000DC01CB0147E1B695A795979587954A951A
:10274000D1F799278F579109873191059CF597FD0E
:1027500036C088248A94982C3FE7A32EB12C04C05D
:10276000B594A794979487948A95D2F7D501C4011C
:102770008C219D21AE21BF21892B8A2B8B2BD1F05F
:1027800020E030E040E85BE7C701B6010E94F0209E
:102790006D837E838F839887F7FE04C0C80CD91C95
:1027A000EA1CFB1C80949094A094B094C820D9207B
:1027B000EA20FB205C2D4D2D3E2D2F2D21C020E049
:1027C00030E040E85BE7C701B6010E94F020698372
:1027D0007A838B839C83F7FE0FC0D701C601880FD5
:1027E000991FAA1FBB1F892B8A2B8B2B19F350E033
:1027F00040E030E82FEB04C050E040E030E020E063
:10280000652F742F832F922F28960FB6F894DEBF72
:102810000FBECDBFDF91CF91FF90EF90DF90CF90B3
:10282000BF90AF909F908F907F906F905F904F90F0
:02283000089509
:102832002F923F924F926F927F928F92AF92BF925E
:10284200CF92DF92EF92FF920F931F93CF93DF937A
:10285200CDB7DEB766970FB6F894DEBF0FBECDBF19
:102862005C013A01862E6901C701817099279C8B10
:102872008B8BE0FC1DC020173107D4F47801EC18D3
:10288200FD08FE8AED8AA70191E1E916F10410F034
:1028920040E150E060E270E0CE0101969A8B898BB4
:1028A2000E94B22089899A891C0120E8422E0BC01D
:1028B2009601682DA301C5010E94481CC016D106CD
:1028C200ECF2C60125C090E1E916F10458F020E1CE
:1028D20030E0642DA101C5010E94481C80E1E81A84
:1028E200F108F1CF2D893E892F70332789899A8982
:1028F200AC0160E8C5010E94481C8B899C89892B28
:1029020031F49601682DA301C5010E94481CC8013B
:1029120066960FB6F894DEBF0FBECDBFDF91CF91A2
:102922001F910F91FF90EF90DF90CF90BF90AF90EB
:0E2932008F907F906F904F903F902F90089560
:1029400010C00E94042158F00E94FD2040F029F49C
:102950005F3F29F00C94122151110C940C210C941E
:102960002A210E94671E68F39923B1F3552391F33E
:10297000951B550BBB27AA2762177307840738F0EE
:102980009F5F5F4F220F331F441FAA1FA9F335D04B
:102990000E2E3AF0E0E832D091505040E695001CFF
:1029A000CAF72BD0FE2F29D0660F771F881FBB1FB9
:1029B000261737074807AB07B0E809F0BB0B802D97
:1029C000BF01FF2793585F4F3AF09E3F510578F0C3
:1029D0000C9412210C940C215F3FE4F3983ED4F345
:1029E000869577956795B795F7959F5FC9F7880F97
:1029F000911D9695879597F90895E1E0660F771FE9
:102A0000881FBB1F621773078407BA0720F0621B79
:0E2A1000730B840BBA0BEE1F88F7E095089548
:102A1E00CF93DF93DC01F90164387105D9F164F4C9
:102A2E006138710521F16238710509F440C06038D2
:102A3E00710509F054C02EC060397105C1F184F4DE
:102A4E006838710509F04BC0C081D181CE01029664
:102A5E0091838083E881F981ED93FC9340833CC0A0
:102A6E00603A7105B9F0603C7105A1F038C0C081C3
:102A7E00D181CE01029691838083E881F981ED9315
:102A8E00FC93052E000C660B770B408351836283FB
:102A9E00738322C0C081D181CE010296918380833F
:102AAE00E881F981ED93FC935183408315C0C08179
:102ABE00D181CE01029691838083E881F981ED93D5
:102ACE00FC9351834083852F880F880B82838383E9
:102ADE00848385838683878381E090E002C080E0D3
:082AEE0090E0DF91CF91089503
:102AF600A2E0B0E0E1E8F5E10C94C71E1C014B0131
:102B0600FA01DB0112962D913C91139714964D9084
:102B16005C9015978D919C9111979A83898316964F
:102B26006D907C90179737FD03C08D7F9A838983BC
:102B360000811181228133814481558166817781AB
:102B4600FE0131965F0188E0C82ED12C7201C401C6
:102B56000E943D12298124FF06C00197F301E80F68
:102B6600F91F20E32083298123FF06C00197F30183
:102B7600E80FF91F20E22083E980FA80D401189635
:102B86002D913C91199721503109281B390B860D3F
:102B9600971DAC0160E88201C1010E9419149C01D5
:102BA600F1018081918190FF08C0D40112968D9128
:102BB6009C911397821793070CF4C9012296E2E1C0
:042BC6000C94FE1E4F
:102BCA000FC00E94FD2038F00E94042120F09523B6
:102BDA0011F00C9412210C942A2111240C940C212A
:102BEA000E94671E70F3959FC1F3950F50E0551F21
:102BFA00629FF001729FBB27F00DB11D639FAA2748
:102C0A00F00DB11DAA1F649F6627B00DA11D661F96
:102C1A00829F2227B00DA11D621F739FB00DA11DB7
:102C2A00621F839FA00D611D221F749F3327A00D71
:102C3A00611D231F849F600D211D822F762F6A2F0D
:102C4A0011249F5750409AF0F1F088234AF0EE0F72
:102C5A00FF1FBB1F661F771F881F91505040A9F79F
:102C6A009E3F510580F00C9412210C940C215F3F79
:102C7A00E4F3983ED4F3869577956795B795F795DB
:102C8A00E7959F5FC1F7FE2B880F911D9695879553
:042C9A0097F9089509
:102C9E0011C00E94FD2038F00E94042120F039F46A
:102CAE009F3F19F426F40C942A210EF4E095E7FBCD
:102CBE000C941221E92F0E94671E58F3BA1762076F
:102CCE0073078407950720F079F4A6F50C940B2171
:102CDE000EF4E0950B2EBA2FA02D0B01B901900129
:102CEE000C01CA01A0011124FF27591B99F0593F6D
:102CFE0050F4503E68F11A16F040A22F232F342FB5
:102D0E004427585FF3CF469537952795A795F04002
:102D1E005395C9F77EF41F16BA0B620B730B840B17
:102D2E00BAF09150A1F0FF0FBB1F661F771F881FCF
:102D3E00C2F70EC0BA0F621F731F841F48F4879527
:102D4E0077956795B795F7959E3F08F0B0CF939519
:0E2D5E00880F08F09927EE0F97958795089536
:102D6C002F923F924F926F927F928F92AF92BF921F
:102D7C00CF92DF92EF92FF920F931F93CF93DF933B
:102D8C00CDB7DEB727970FB6F894DEBF0FBECDBF19
:102D9C006C017B013901842E98018EEC282E85E084
:102DAC00382E80E0482E87E0F101AE014F5F5F4F77
:102DBC00DA01742D0E945E20F70102811381A48038
:102DCC00B580E080F18061147104810419F43A013A
:102DDC00F0E88F2E2115310529F4882DB3010E94BE
:102DEC00FE1F9C0117FD04C00217130708F498017D
:102DFC008501682DA301C6010E94191427960FB6F0
:102E0C00F894DEBF0FBECDBFDF91CF911F910F9114
:102E1C00FF90EF90DF90CF90BF90AF908F907F900E
:0A2E2C006F904F903F902F90089593
:102E3600CF92DF92EF92FF920F93CF93DF9366E0EC
:102E460075E080E00E948F1D80E00E94951165E28A
:102E560075E080E00E948F1D81E00E949511C0E020
:102E6600D0E03BC00E94DD1C0E94DA1D8091520416
:102E76008034B1F180911D038F3FA9F080E594E085
:102E86007C0120E8022F0F2EFEEFCF2EF2E0DF2E80
:102E9600F02D28E435E040E062E070E081E090E06B
:102EA6000E948F1814C080E594E07C0120E8022F70
:102EB6000F2EFEEFCF2EF2E0DF2EF02D29E635E0C5
:102EC60040E062E070E081E090E00E948F18E0E56B
:102ED600F4E082818F5F82832196C034D10514F29B
:102EE600DF91CF910F91FF90EF90DF90CF900895F3
:102EF600CF92DF92EF92FF920F9380E090E045C071
:102F0600FC01E050FE4F208130ED320F3A3028F4BC
:102F1600FC01E050FE4F308337C03FEB320F3630B6
:102F260030F4FC01E050FE4F275320832DC03FE9CB
:102F3600320F363030F4FC01E050FE4F2755208327
:102F460023C02D3041F12A3041F1222341F16AE7B5
:102F560071E080E00E948F1D80E092E07C0120E815
:102F6600022F0F2EFEEFCF2EF2E0DF2EF02D2EEAEF
:102F760031E040E060E070E081E090E00E948F1870
:102F86000E94DD1C80E00CC00196863091050CF491
:102F9600B7CF81E005C081E003C081E001C081E0D8
:0C2FA6000F91FF90EF90DF90CF90089506
:102FB200CF92DF92EF92CF93C82F68E873E080E060
:102FC2000E948F1D10925904109258040E94D3201F
:102FD20080931C0325C08091580490915904019656
:102FE200909359048093580480915A0490915B0401
:102FF200FC01E050FE4F20838E3F910520F010929D
:103002005B0410925A0480915A0490915B040196D9
:1030120090935B0480935A040E94D32080931C03F4
:1030220020911C032D30B9F6E0915A04F0915B0413
:10303200E050FE4F108210925B0410925A0480E01E
:1030420092E06C0120E8E22E8E2DB6010E948F1DC7
:103052008AE00E94CC20CC2321F08E2DB6010E9462
:0C306200920DCF91EF90DF90CF90089579
:10306E00A2E0B0E0EDE3F8E10C94C71E3C014B0189
:10307E00FA01DB0112962D913C91139714964D9007
:10308E005C9015978D919C9111979A8389831696D2
:10309E002D903C90179737FD03C08D7F9A838983BF
:1030AE00008111812281338144815581668177812E
:1030BE00FE0131965F018AE0C82ED12C7201C40147
:1030CE000E943D12E980FA80D40118962D913C9110
:1030DE00199721503109281B390B820D931DAC0114
:1030EE0060E88201C3010E9419149C01F3018081E2
:1030FE00918190FF08C0D40112968D919C911397E7
:10310E00821793070CF4C9012296E2E10C94FE1E7D
:10311E003F924F925F926F927F928F929F92AF9259
:10312E00BF92CF92DF92EF92FF920F931F93CF93A6
:10313E00DF935C014B01722E132F342E2701602E6C
:10314E00C0E0D0E026C0CE01880D991D462D92011B
:10315E00280F391F411D97FD4A95A42FC901F9016A
:10316E005A2F0E94E8201F926F933F921F937F92D7
:10317E00DF92CF920E94D91FB60180E80E948F1D68
:10318E0021968DB79EB707960FB6F8949EBF0FBEC9
:10319E008DBFCA15DB05BCF2DF91CF911F910F9148
:1031AE00FF90EF90DF90CF90BF90AF909F908F9059
:0C31BE007F906F905F904F903F900895BD
:1031CA00CF92DF92EF929A01462F009781F569011B
:1031DA00E42E52E0C50ED11CE11CF6015E2D0E94C0
:1031EA00E8206EBD0DB407FEFDCF5EB550935504C1
:1031FA006901E42E53E0C50ED11CE11CF6015E2DD7
:10320A000E94E8206EBD0DB407FEFDCF5EB5509357
:10321A0055042C5F3F4F4F4FF901542F0E94E8206D
:10322A006EBD0DB407FEFDCF2EB520935504019750
:10323A00B1F41EBC0DB407FEFDCF8EB580935504C4
:10324A001EBC0DB407FEFDCF8EB58093550481E0F8
:10325A008EBD0DB407FEFDCF8EB580935504EF9059
:06326A00DF90CF900895F3
:10327000CF92DF92EF92DC0190E0292F30E0220F15
:10328000331F6901032E000CEE086E2DA6014B576B
:103290005A4F6F4F6A01E62EFA015E2D0E94E82018
:1032A000862F61110EC02F5F3F4F032E000C440B81
:1032B0002B573A4F4F4FF901542F0E94E820862F89
:1032C00025C0CD90DD90EC901297F6015E2D0E9406
:1032D000E820861316C02F5F3F4F032E000C440BCF
:1032E0002B573A4F4F4FF901542F0E94E820962F49
:1032F0005FEFC51AD50AE50ACD92DD92EC921297DE
:1033000001C09F5F9B3008F4B8CF892FEF90DF900A
:04331000CF900895BD
:103314006F927F928F92EF92FF920F931F93CF93AE
:10332400DF93CDB7DEB761970FB6F894DEBF0FBE5B
:10333400CDBFFE01319651E1DF011D925A95E9F7A7
:10334400A2E0B1E0BA83A9839C838B8377FF09C091
:103354008FE490E090935704809356048FEF9FEF8F
:1033640019C03901842E7C01615071097F836E83F9
:103374009801682DA301CF010E944B1F48855985F0
:103384002E813F814217530708F49A01F701E20F97
:10339400F31F108261960FB6F894DEBF0FBECDBF47
:1033A400DF91CF911F910F91FF90EF908F907F90BD
:0433B4006F90089579
:1033B8006F927F928F92EF92FF920F931F93CF930A
:1033C800DF93CDB7DEB761970FB6F894DEBF0FBEB7
:1033D800CDBFFE01319651E1DF011D925A95E9F703
:1033E800A2E0B1E0BA83A9839C838B8377FF09C0ED
:1033F8008FE490E090935704809356048FEF9FEFEB
:1034080019C03901842E7C01615071097F836E8354
:103418009801682DA301CF010E94331F4885598563
:103428002E813F814217530708F49A01F701E20FF2
:10343800F31F108261960FB6F894DEBF0FBECDBFA2
:10344800DF91CF911F910F91FF90EF908F907F9018
:043458006F900895D4
:10345C0088249924F401E401B0E49F93AA279A15D7
:10346C008B049C04ED05FE05CF05D007A10798F44D
:10347C00AD2FDC2FCF2FFE2FE92D982C892E982FD6
:10348C00872F762F652F542F432F322F2227B8509A
:10349C0031F7BF9127C01B2EBF91BB27220F331FC3
:1034AC00441F551F661F771F881F991F881C991C66
:1034BC00EE1FFF1FCC1FDD1FAA1FBB1F8A149B040E
:1034CC00EC05FD05CE05DF05A007B10748F08A180D
:1034DC009B08EC09FD09CE09DF09A00BB10B21609B
:1034EC001A94E1F62EF49401AF01BE01CD01000C4B
:0234FC00089531
:1034FE000F931F93CF93DF93DB012D913C91119787
:10350E0030FF25C017964D915C91189715962D9109
:10351E003C9116974217530778F41296ED91FC9151
:10352E001397808312962D913C9113972F5F3F4FE7
:10353E0013963C932E93129717962D913C911897B4
:10354E002F5F3F4F18963C932E93179715C01D96DD
:10355E00ED91FC911E97309719F48FEF9FEF0CC0F1
:10356E008B01EC011995892BC1F7F80187819085A4
:10357E00019690878783CE01DF91CF911F910F9196
:02358E0008959E
:103590000F931F93CF93DF9382B1877F82B98FE020
:1035A0008EBD0DB407FEFDCF8EB58093550480EC23
:1035B0008EBD0DB407FEFDCF8EB5809355041EBCA5
:1035C0000DB407FEFDCF8EB509E414E0F801808349
:1035D0001F928F938CEA94E0A0E0AF939F938F9318
:1035E000CEEFD2E0DF93CF930E94C61FBE0180E8EA
:1035F0000E948F1DF80180812DB73EB7295F3F4F94
:103600000FB6F8943EBF0FBE2DBF80FDD8CF82B15C
:0E361000886082B9DF91CF911F910F910895CC
:10361E00CF93DF9382B1877F82B98FE98EBD0DB4D0
:10362E0007FEFDCF8EB5809355041EBC0DB407FE6C
:10363E00FDCF8EB5809355041EBC0DB407FEFDCF95
:10364E008EB5809349041EBC0DB407FEFDCF9EB50A
:10365E00E9E4F4E0918382B1886082B980811F929F
:10366E009F931F928F9380E494E0A0E0AF939F937B
:10367E008F93CEEFD2E0DF93CF930E94C61FBE0191
:10368E0080E80E948F1D8DB79EB709960FB6F894ED
:0C369E009EBF0FBE8DBFDF91CF9108953D
:1036AA00CF939B01482FF901542F0E94E8206032E2
:1036BA00B9F1862F062E000C990B0997059780F110
:1036CA006B3249F5A0E0B0E02F5F3F4F4F4F02C089
:1036DA00A0E0B0E080E090E0CAE0F901542F0E9437
:1036EA00E820062E000C770B605371096A307105C9
:1036FA0060F4C89FF001C99FF00D11242F5F3F4F5E
:10370A004F4FCF01861B970BE8CFAB2B69F49195EE
:10371A008195910909C06D32D9F6A1E0B0E0D4CF04
:0C372A002F5F3F4F4F4FBFCFCF9108954E
:10373600CF93DF930E94631F82B1877F82B982E0B5
:103746008EBD0DB407FEFDCF8EB58093550440E5C2
:1037560054E060E880914E0490914F040E940B1D46
:10376600C0E0D0E00CC0FE01E050FE4F80818EBD6F
:103776000DB407FEFDCF8EB580935504219660E00B
:1037860072E080E80E94FE1FC817D90760F382B175
:10379600886082B96DED74E080E00E948F1D0E9402
:0837A600B51DDF91CF910895DC
:1037AE006F927F928F92CF92DF92EF92FF920F9352
:1037BE0062ED71E080E00E948F1D80E594E03C0197
:1037CE0020E8822E0F2EFEEFCF2EF2E0DF2EF02D10
:1037DE00082D730121EF31E040E060E070E082E0FF
:1037EE0090E00E948F186AEF71E080E00E948F1DBA
:1037FE0021EF31E040E062E070E083E090E00E9473
:10380E008F180F91FF90EF90DF90CF908F907F9059
:04381E006F9008950A
:10382200CF93DF93EC01892BA9F01AC01EBC0DB413
:1038320007FEFDCF2EB5FC01E35EFC4F20832EB5C3
:103842002D3031F469E874E080E00E948F1D08C0D9
:10385200019602C080E090E08C3221E0920730F3C2
:10386200219791F40BC01EBC0DB407FEFDCF2EB5FF
:10387200FC01E35EFC4F2083019602C080E090E0F1
:0E3882008C3221E0920778F3DF91CF91089508
:103890006F927F928F92CF92DF92EF920F931F934E
:1038A000CF93DF938C016A01E62EE9013A01862E5F
:1038B000620E731E811C37FD8A94C614D704E80477
:1038C00081F0F6015E2D0E94E820862FB801082EB7
:1038D000000C990B0E947F1A8FEFC81AD80AE80AC9
:1038E000ECCFCE01DF91CF911F910F91EF90DF9040
:0A38F000CF908F907F906F900895A5
:1038FA0081B1886081B982B1886082B981B1806101
:10390A0081B982B1806182B981B1806281B982B1A3
:10391A00806282B981B1806481B982B1806482B9DE
:10392A0081B1806881B982B1806882B981B18260CF
:10393A0081B982B1826082B981B1846081B982B170
:10394A00846082B981B1886081B982B1886082B9A4
:02395A000895CE
:10395C000E946F1E88F09F5798F0B92F9927B75186
:10396C00B0F0E1F0660F771F881F991F1AF0BA9517
:10397C00C9F714C0B13091F00E940B21B1E0089549
:10398C000C940B21672F782F8827B85F39F0B93F3B
:10399C00CCF3869577956795B395D9F73EF49095CA
:0E39AC008095709561957F4F8F4F9F4F0895C6
:1039BA0080E090E005C0FC01E75BFB4F10820196B6
:1039CA0085309105C0F380E090E005C0FC01E35E1C
:1039DA00FC4F108201968C3221E09207B8F380E006
:1039EA0090E005C0FC01E050FE4F108201968E3F28
:1039FA009105C0F380E090E005C0FC01E250FD4F64
:0C3A0A00108201968E319105C0F30895E2
:103A16009A01462F0097C9F4F901542F0E94E82015
:103A26006EBD0DB407FEFDCF5EB5509355042F5FF6
:103A36003F4F4F4FF901542F0E94E8206EBD0DB441
:103A460007FEFDCF2EB520935504019771F41EBCD9
:103A56000DB407FEFDCF8EB5809349041EBC0DB490
:0C3A660007FEFDCF8EB580934A04089542
:103A720082B1877F82B98FE18EBD0DB407FEFDCF83
:103A820080EB8EBD0DB407FEFDCF80E48EBD0DB47C
:103A920007FEFDCF82B1886082B90E94DA1D82B131
:103AA200877F82B98FE18EBD0DB407FEFDCF80EB1B
:103AB2008EBD0DB407FEFDCF1EBC0DB407FEFDCFBB
:083AC20082B1886082B9089509
:103ACA0082B1877F82B98BE08EBD0DB407FEFDCF30
:103ADA008EB58093550440E554E060E880914E0429
:103AEA0090914F040E940B1D1EBC0DB407FEFDCF22
:103AFA008EB58093550480914E0490914F040E9494
:103B0A00111C82B1886082B969E974E080E00E9480
:043B1A008F1D08955E
:103B1E00CF92DF92EF92CF93DF936B01E82EC0E04E
:103B2E00D0E00FC0AE2DC6018C0F9D1FA11DD7FD7D
:103B3E00AA95FC015A2F0E94E820862F0E94CC20C5
:103B4E0021968E2DB6010E94FE1FC817D90750F37D
:0C3B5E00DF91CF91EF90DF90CF900895A1
:103B6A0082B1877F82B980E18EBD0DB407FEFDCF99
:103B7A008EB58093550440E554E060E880914E0488
:103B8A0090914F040E94E5188AE18A95F1F700C0E6
:103B9A0082B1886082B96BEC74E080E00E948F1D6C
:0A3BAA000E94C81A0E94771F0895B8
:103BB40082B1877F82B983E18EBD0DB407FEFDCF4C
:103BC4008EB58093550440E554E060E880914E043E
:103BD40090914F040E94E5188AE18A95F1F700C09C
:103BE40082B1886082B90E94C81A6CEE74E080E0E9
:0A3BF4000E948F1D0E94651D0895B8
:103BFE00990F0008550FAA0BE0E8FEEF16161706F0
:103C0E00E807F907C0F012161306E407F50798F057
:103C1E00621B730B840B950B39F40A2661F0232B70
:103C2E00242B252B21F408950A2609F4A140A695EC
:083C3E008FEF811D811D089527
:103C46000E949C200E94B31F0E94E31E0E947D1CBE
:103C56000E94EC1F0E94E1200E94DD1C6BE975E0CA
:103C660080E00E948F1D81E00E94D9170E94DA2011
:103C76002FEF81EE94E0215080409040E1F700C0A4
:043C86000000EACF81
:103C8A00CF92DF92EF926B01E82EF6015E2D0E9431
:103C9A00E820862FF901542F0E94E82086130BC0D2
:103CAA00882341F08FEFC81AD80AE80A2F5F3F4FDE
:103CBA004F4FEBCF682F90E0861B9109EF90DF9072
:043CCA00CF900895FA
:103CCE0057FD9058440F551F59F05F3F71F04795BF
:103CDE00880F97FB991F61F09F3F79F087950895A4
:103CEE00121613061406551FF2CF4695F1DF08C0C3
:103CFE00161617061806991FF1CF869571056105E0
:043D0E000894089578
:103D1200FA0160387105CCF0623871051CF0633825
:103D2200710599F4A081B1819D012C5F3F4F3183D0
:103D320020834D915D916D917C91FC014083518373
:103D42006283738381E090E0089580E090E00895BB
:103D520097FB10F8169400080F93083098F008505B
:103D6200232F342F452F562F672F782F892F902DF1
:103D7200F4CF0594979587957795679557954795CD
:0C3D8200379527950A95AAF70F91089530
:103D8E002F923F924F925F926F927F928F929F925D
:103D9E00AF92BF92CF92DF92EF92FF920F931F934B
:103DAE00CF93DF93CDB7DEB7CA1BDB0B0FB6F894FC
:083DBE00DEBF0FBECDBF19945A
:103DC60087E690E09093C5008093C4008DB1826031
:103DD6008DB9E1ECF0E08081886080838DB18E7FC3
:103DE6008DB980818061808381B1846081B982B11F
:063DF600846082B908950B
:103DFC002A88398848885F846E847D848C849B846F
:103E0C00AA84B984C884DF80EE80FD800C811B817C
:103E1C00AA81B981CE0FD11D0FB6F894DEBF0FBEAB
:063E2C00CDBFED01089579
:103E32000E94631F82B1877F82B988ED8EBD0DB467
:103E420007FEFDCF8EB58093550482B1886082B99A
:103E520068EF74E080E00E948F1D0E94C81A0E94E1
:043E6200771F089529
:103E6600A2E0B0E0E9E3FFE10C94D51E8C013A83B1
:103E760029839E012F5F3F4F0E94EE02F8012081A9
:103E860024FF02C08FEF9FEF2296E4E00C940C1FF4
:103E9600A2E0B0E0E1E5FFE10C94D51E8C013A8387
:103EA60029839E012F5F3F4F0E94EE02F801208179
:103EB60024FF02C08FEF9FEF2296E4E00C940C1FC4
:103EC60082B1877F82B986E08EBD0DB407FEFDCF35
:103ED6008EB58093550482B1886082B961E274E040
:083EE60080E00E948F1D089589
:103EEE0082B1877F82B984E08EBD0DB407FEFDCF0F
:103EFE008EB58093550482B1886082B960E374E018
:083F0E0080E00E948F1D089560
:103F160097FB072E16F4009407D077FD09D00E9470
:103F26009F1F07FC05D03EF4909581959F4F0895FD
:083F3600709561957F4F08951D
:103F3E00AA1BBB1B51E107C0AA1FBB1FA617B707C1
:103F4E0010F0A61BB70B881F991F5A95A9F78095DD
:083F5E009095BC01CD0108950E
:103F660087B1806487B988B1806488B983B381607A
:103F760083BB84B3816084BB83B3826083BB84B319
:063F8600826084BB089577
:103F8C00A0E0B0E0ECECFFE10C94D71E9E01255FA5
:103F9C003F4F488559856A858E819F810E94782084
:063FAC00E2E00C940E1F80
:103FB200A0E0B0E0EFEDFFE10C94D71E9E01255F7B
:103FC2003F4F488559856A858E819F810E946C206A
:063FD200E2E00C940E1F5A
:103FD80084B1866084B984B1877F84B984B18160F3
:103FE80084B985B1816085B98CB581658CBD8CB586
:043FF8008CBD0895DF
:103FFC009B01482FA82FCB01FC015A2F0E94E820CF
:10400C00662319F00196A11DF7CF642FA901841B1B
:04401C00950B089563
:1040200082B1877F82B98FEF8EBD0DB407FEFDCFC1
:1040300082B1886082B968E774E080E00E948F1DD9
:024040000895E1
:10404200092E0394000C11F4882352F0BB0F40F4A4
:10405200BF2B11F460FF04C06F5F7F4F8F4F9F4FE4
:024062000895BF
:1040640060957095809590953095409550952195E3
:104074003F4F4F4F5F4F6F4F7F4F8F4F9F4F08956D
:104084009A01462FDC01F901542F0E94E8206D9318
:0C4094002F5F3F4F4F4F6111F6CF089592
:1040A000689401C0E8948F929F92CF93DF930E940F
:0C40B0002E1ADF91CF919F908F90089501
:1040BC00992777FD06C07BBF07900D920197E1F71A
:0C40CC00089501900D920197E1F708950E
:1040D8000F931F9389019A01462F6FEF7FE70E9484
:0840E800DC191F910F910895EE
:1040F0000F931F9389019A01462F6FEF7FE70E946C
:084100008A191F910F91089527
:104108000024A7FD00942A173005400550056005D6
:08411800700580059005089573
:104120000024A7FD00942A0F301D401D501D601D66
:08413000701D801D901D089513
:10413800E1E0F1E0808180668083E2E0F1E0808167
:06414800806680830895EB
:10414E00EC010E9432210E943121CE010E943321C6
:06415E00CE010E942F219A
:10416400FC01480F591FE417F50711F06193FBCFC9
:024174000895AC
:104176009C01215631092A31310510F48F75992792
:0241860008959A
:104188009C01215431092A31310508F480620895CF
:0E4198009091C00095FFFCCF8093C600089563
:0E41A6008091C0008823E4F78091C600089540
:0E41B400E2E0F1E0908180E4892780830895A5
:0E41C200E2E0F1E0908180E289278083089599
:0E41D00057FD03C05BBF67910895608108959D
:0E41DE005058BB27AA270E944F160C94212090
:0E41EC000E94AE1C6894B1110C940C21089531
:0E41FA0000240A9416161706180609060895E2
:0E42080000240A9412161306140605060895E3
:0E421600E894BB2766277727CB0197F9089518
:0C42240097F99F6780E870E060E0089563
:0A4230000E94FF1D08F481E00895CC
:0A423A000E94FF1D08F48FEF0895A5
:084244000E94A0140C9421203B
:08424C000E94E5150C942120ED
:064254009FEF80EC0895CD
:04425A000C940000C0
:04425E000E94BB00FF
:024262000895BD
:024264000895BB
:024266000895B9
:00000001FF
