:100000000C948F000C9406210C9406210C9406216C
:100010000C9406210C9406210C9406210C940621C4
:100020000C9406210C9406210C9406210C940621B4
:100030000C9406210C9406210C9406210C940621A4
:100040000C9406210C9406210C9406210C94062194
:100050000C9406210C9406210C9406210C94062184
:100060000C9406210C9406210C9406210C94062174
:100070000C9406210C9406210C9406210C94062164
:100080000C9406210C9406210C9406210C94062154
:100090000C9406210C9406210C9406210C94062144
:1000A0000C9406210C9406210C9406210C94062134
:1000B0000C9406210C9406210C9406210C94062124
:1000C0000C9406210C9406210C9406210C94062114
:1000D0000C9406210C9406210C9406210C94062104
:1000E0000C9406210200045C80000C949A1F0C946E
:1000F000CE020C94E7060C94C2120C941C1F0C94B4
:10010000871F0C94440A0C9417180C945B150C94DC
:10011000BD0E0C94341F0C94FD0F0C941D12112471
:100120001FBECFEFD1E2DEBFCDBF00E00CBFE4EEDB
:10013000F0E040E019C0B791A7913791279107915E
:1001400007FD0EC097918791EF01F92FE82F0BBFA4
:1001500007900D92A217B307D9F7FE011BBE04C08A
:100160001D92A217B307E1F7E93EF40721F70E94B9
:0A017000E01D0C948020F894FFCFEE
:10017A0057726F6E6720496E707574200A4D616BF5
:10018A0065207375726520696E70757420697320B5
:10019A004845582076616C6964205B30202D2046E2
:1001AA005D200A004865726520697320776861746A
:1001BA002077617320696E7075747465643A2030B3
:1001CA007825303258200A002D2D2D436F6C756D1D
:1001DA006E20416464726573732D2D2D2032206266
:1001EA0079746573200A00307825303258200A0065
:1001FA002D2D2D426C6F636B2F5061676520416412
:10020A0064726573732D2D2D2033206279746573A2
:10021A00200A00466C617368204944004572617384
:10022A0065204D656D6F7279004E414E44204164E0
:10023A0064726573736573005772697465205465D7
:10024A0073740052656164204D656D6F7279005058
:10025A006172616D65746572205061676500256918
:10026A002D3E446174612052656365697665643A1E
:10027A0020307825303258200A00466C6173682095
:10028A0053746174757300426C6F636B20436865C5
:10029A00636B657200426C6F636B206973206D61DA
:1002AA00726B6564206261640A00426C6F636B2042
:1002BA006170706561727320636C65616E0A0050CB
:1002CA0061676520436865636B6572005265736593
:1002DA007400312920466C617368204944200A0061
:1002EA003229204572617365204D656D6F727920E0
:1002FA000A00332920577269746520546573742083
:10030A000A0034292052656164204D656D6F727947
:10031A00200A00352920506172616D65746572206A
:10032A0050616765200A00362920466C617368208F
:10033A00537461747573200A00372920426C6F6305
:10034A006B20436865636B6572200A003829205068
:10035A0061676520436865636B6572200A00392905
:10036A00204E414E44204164647265737365732064
:10037A000A00313029205265736574200A002D3E27
:10038A005573657220496E7075743A0A004F6E652E
:10039A0020746F206D616E792E204D616B6520731C
:1003AA00757265206F6E6C79203420696E70757471
:1003BA00732E200A00436F6C756D6E20416464725F
:1003CA00657373202D3E20307825303258200A007C
:1003DA004F6E6520746F206D616E792E204D616BB2
:1003EA00652073757265206F6E6C79203620696E90
:1003FA00707574732E200A00426C6F636B2F506104
:10040A0067652041646472657373202D3E203078DD
:07041A0025303258200A00D2
:1004210052656164204465766963652049443A20D8
:100431004D6963726F6E204944202830782530322F
:10044100582920446576696365204944202830781D
:100451002530325829200A004465766963652052A7
:10046100657365746564200A004461746120526596
:10047100636569766564200A00526561642066726D
:100481006F6D2043616368653A200A0047657420F7
:1004910046656174757265733A205374617475733E
:1004A1002028307825303258290A00426C6F636B5E
:0904B100204572617365200A0008
:1004BA002D2D2D436F6C756D6E20416464726573CA
:1004CA00732D2D2D2032206279746573200A002D38
:1004DA002D2D426C6F636B2F5061676520416464F8
:1004EA00726573732D2D2D20332062797465732004
:1004FA000A003078253032582054686973205061D8
:10050A006765206973206D61726B6564206261643E
:10051A00200A0030782530325820546869732050F8
:0F052A0061676520697320636C65616E200A004C
:1005390068076C094C836A9074A07AC00080688847
:0605490000846C820081B9
:10054F002D3E41727261797320436C6561726564EF
:03055F00200A006F
:10056200494E4600696E66004E414E006E616E0055
:10057200494E4600696E66004E414E006E616E0045
:07058200286E756C6C290066
:06058900286E696C2900D8
:10059000A3EAB0E0EEECF2E00C94C41E4C01590169
:1005A000C756DF4F488359836A83C959D040212CED
:1005B000312C6E012BE8C20ED11C85E2782E26016B
:1005C00030E8632ECE018D569F4FC456DF4F99837E
:1005D0008883CC59D0409C0140E8CF55DF4F288319
:1005E00039834A83C15AD040C756DF4F4881C95921
:1005F000D040C656DF4FB881CA59D040C556DF4FEC
:100600007881CB59D040E42FFB2F572F0E94C12077
:10061000662309F4D0C3CF57DF4F19821882C1581F
:10062000D0408FEF9FEFCD57DF4F99838883C3581A
:10063000D040CB57DF4F19821882C558D040E1E037
:10064000F0E0EC0FFD1FC957DF4FF983E883C7586F
:10065000D04020E830E0C757DF4F39832883C9589E
:10066000D040842F9B2FA72FE12CF12CFC015A2F77
:100670000E94C12061111DC0E114F10411F1970124
:100680005B2F672FC4010E94271CC756DF4F88814C
:100690009981AA81C959D0408E0D9F1DA11DF7FCDB
:1006A000AA95C756DF4F88839983AA83C959D0403A
:1006B00008C00196A11D6532F9F23FEFE31AF30A73
:1006C000D5CFC756DF4F88819981AA81C959D040BB
:1006D000FC015A2F0E94C120653209F05AC39C01C7
:1006E0004A2F2F5F3F4F4F4FC256DF4F288339832A
:1006F0004A83CE59D040C756DF4F288339834A8377
:10070000C959D040C756DF4F88819981AA81C959FC
:10071000D040FC015A2F0E94C1206B3241F4CF57C8
:10072000DF4F28813981C158D04024600BC06C3222
:10073000CCF06D3259F5CF57DF4F28813981C15840
:10074000D0402160CF57DF4F39832883C158D04034
:100750000196A11DC756DF4F88839983AA83C95983
:10076000D040D0CF603241F4CF57DF4F288139815C
:10077000C158D0402860E6CF633291F4CF57DF4FA5
:1007800028813981C158D0402061DCCF603341F4E9
:10079000CF57DF4F28813981C158D0402260D2CF56
:1007A0006A3299F50196A11DC756DF4F8883998358
:1007B000AA83C959D040D501ED91FC911197CF0181
:1007C00002968D939C9380819181CB57DF4F9983C3
:1007D0008883C558D04097FF3FC0CF57DF4F28814F
:1007E0003981C158D040B1E02B27CF57DF4F398333
:1007F0002883C158D040919581959109CB57DF4FFF
:1008000099838883C558D04027C0BC018A2F0E9495
:10081000331BCB57DF4F99838883C558D040C756C9
:10082000DF4F88819981AA81C959D040FC015A2F94
:100830000E94C120062E000C770B605371096A30AC
:10084000710550F40196A11DC756DF4F8883998327
:10085000AA83C959D040E3CFCF57DF4F8881998110
:10086000C158D04080FF07C08D7FCF57DF4F99839D
:100870008883C158D040C756DF4F88819981AA81AB
:10088000C959D040FC015A2F0E94C1206E3209F094
:1008900059C0CD57DF4F19821882C358D0409C01F0
:1008A0004A2F2F5F3F4F4F4FC756DF4F2883398363
:1008B0004A83C959D040F901542F0E94C1206A329D
:1008C000D1F40296A11DC756DF4F88839983AA836E
:1008D000C959D040D501ED91FC911197CF010296F5
:1008E0008D939C9380819181CD57DF4F998388832D
:1008F000C358D04027C0842FB9010E94331BCD5765
:10090000DF4F99838883C358D040C756DF4F888113
:100910009981AA81C959D040FC015A2F0E94C12057
:10092000062E000C770B605371096A30710550F484
:100930000196A11DC756DF4F88839983AA83C959A1
:10094000D040E3CFCE0187569F4F0E941219182F37
:10095000C756DF4F9881C959D040C656DF4F8881AE
:10096000CA59D040C556DF4F5881CB59D040E92FE6
:10097000F82F0E94C120862F660F990B0E949D20A0
:100980008936910509F45BC0B4F48336910509F406
:1009900069C144F48532910509F4A4C181369105F9
:1009A00029F1B6C18436910509F449C0883691050C
:1009B0000CF42FC1ADC18037910509F4CDC04CF4C2
:1009C0008E36910509F41BC18F36910509F47DC05F
:1009D0009FC18537910509F455C08837910509F401
:1009E00097C08337910509F093C15BC1612F70E017
:1009F000A501C6010E94861E892B09F4BAC1C756FB
:100A0000DF4F88819981AA81C959D0409C014A2F22
:100A10002F5F3F4F4F4FC756DF4F288339834A839D
:100A2000C959D040FC015A2F0E94C120262FA6018F
:100A3000BE016F577F4FC4010E943E0A97C1612FCC
:100A400070E0950141E050E0C6010E94B610892B8C
:100A500009F48FC1C756DF4F88819981AA81C9598E
:100A6000D0400196A11DC756DF4F88839983AA8382
:100A7000C959D040A601BE016F577F4FC4010E94E3
:100A8000F70F74C1612F70E0950140E050E0C6019E
:100A90000E94B610892B09F46CC1C756DF4F8881BC
:100AA0009981AA81C959D0400196A11DC756DF4F2F
:100AB00088839983AA83C959D040A601BE016F5784
:100AC0007F4FC4010E94111851C1612F70E0950140
:100AD00040E050E0C6010E94B610892B09F449C1DC
:100AE000C756DF4F88819981AA81C959D0400196A4
:100AF000A11DC756DF4F88839983AA83C959D04067
:100B0000A601BE016F577F4FC4010E9455152EC12B
:100B1000612F70E0950140E050E0C6010E94B610E0
:100B2000892B09F426C1C756DF4F88819981AA8194
:100B3000C959D0409C014A2F2F5F3F4F4F4FC75696
:100B4000DF4F288339834A83C959D040FC015A2F8B
:100B50000E94C120262F4BC0950140E050E060EF7D
:100B600070E0C6010E94B610892B09F402C1C75675
:100B7000DF4F88819981AA81C959D0400196A11D72
:100B8000C756DF4F88839983AA83C959D04086E02E
:100B900029E835E040E0F901DE01AD56BF4F742F82
:100BA0000E943720D6012C9111963C9111971296F4
:100BB0004C91129713965C91139714966C9114971D
:100BC00015967C91159716968C91169717969C9171
:100BD000A0E00E945D2051F400E010E0CF55DF4F0F
:100BE000288139814A81C15AD040BAC028E7A6017C
:100BF000BE016F577F4FC4010E94B70EB7C0612F6F
:100C000070E09501A1014E0D5F1DC6010E94E9141F
:100C1000B0C0612F70E0A501C6010E94861E892B1D
:100C200009F4A7C0C756DF4F88819981AA81C959A5
:100C3000D0409C014A2F2F5F3F4F4F4FC756DF4F89
:100C4000288339834A83C959D040FC015A2F0E9416
:100C5000C120262FA601BE016F577F4FC4010E94FD
:100C6000E10684C0103809F084C0C756DF4F888180
:100C70009981AA81C959D0400196A11DC756DF4F5D
:100C800088839983AA83C959D040D501ED91FC91FD
:100C90001197CF0102968D939C938081F6018083FA
:100CA0005BC0103809F065C0C756DF4F8881998155
:100CB000AA81C959D0400196A11DC756DF4F88832C
:100CC0009983AA83C959D040D501ED91FC91119720
:100CD000CF0103968D939C9320813181428100E066
:100CE00010E03EC0103809F044C0C756DF4F88817D
:100CF0009981AA81C959D0400196A11DC756DF4FDD
:100D000088839983AA83C959D040F601708224C090
:100D1000D6017C92C256DF4F288139814A81CE5953
:100D2000D040C756DF4F288339834A83C959D04002
:100D3000CF57DF4F19821882C158D040CB57DF4FB1
:100D400019821882C558D0408FEF9FEFCD57DF4FE3
:100D500099838883C358D04001E010E0462D92016A
:100D6000BE016F577F4FC4010E9490168E0D9F1DCC
:100D700011C0C756DF4F88819981AA81C959D040D7
:100D80000196A11DC756DF4F88839983AA83C9594D
:100D9000D040C7017101E80EF91EE214F3044CF4CF
:100DA0008FE490E090935704809356048FEF9FEF69
:100DB00003C0170119CCC101CD55DF4FE2E10C94FE
:020DC000FB1E18
:100DC200A6E2B0E0E7EEF6E00C94C41E9F8F8E8F91
:100DD200798F688F122FFB010190F081E02DFA8745
:100DE200E987FB01C280D380248135813C8B2B8B28
:100DF2008085918599A388A30680F781E02DFA83E7
:100E0200E983FA0180809180A280B38020E030E003
:100E1200A901C501B4010E94F12087FF06C0B7FAFB
:100E2200B094B7F8B0948DE204C0F985F2FF0CC318
:100E32008BE2E981FA8180832B893C892150310937
:100E420038872F8341E050E05A8B498B06C08B894B
:100E52009C8998878F831A8A198AD501C401BF7722
:100E62000097E0E8AE07EFE7BE07D9F4212F110F94
:100E7200330B2154310989819A8149895A89840F16
:100E8200951F2A31310520F442E655E060E003C0A7
:100E920046E655E060E00E941B2066E675E080E0D1
:100EA2001EC00197A048BF4730F1212F110F330B0D
:100EB2002154310989819A8149895A89840F951F60
:100EC2002A31310520F44AE655E060E003C04EE6DF
:100ED20055E060E00E941B206EE675E080E00E9413
:100EE200B91FE981FA81AF0160E8E984FA840B89CC
:100EF2001C899C01A1C220E030E0A901C501B40116
:100F02000E94F1201B821C82882309F467C0F0E84A
:100F1200FD832FE32E83212C312C20E030E040E2B0
:100F220051E46B817C818D819E810E94FF20F62E8F
:100F3200072F8D879B87A50194010E94F620181622
:100F420054F03FEF231A330AFB820C834D854D8305
:100F52005B855E83E2CF1C861B862B813C814D81A3
:100F62005E81C501B4010E94F12087FF3DC084ED7E
:100F720028168EEF380604F5EB85FC85EF2BE1F49D
:100F820020E030E040E85AE5C501B4010E94FF20AC
:100F92004B015C0120E030E040E85AE56B817C8146
:100FA2008D819E810E94FF206B837C838D839E8333
:100FB20021E030E03C872B8720E030E040E251E442
:100FC2006B817C818D819E810E94FB206B837C835F
:100FD2008D839E8331E0231A3108BFCF40E84D83D1
:100FE2005FE35E83212C312C812F110F990B9BA380
:100FF2008AA30E949D208B8FD7FC03C0DEA2CDA2C4
:1010020004C0E6E0F0E0FEA3EDA3FB8DF73641F469
:10101200CD2809F01EC221E030E03EA32DA319C263
:101022008B8D8D8B04C037FE25C296E69D8BEDA17C
:10103200FEA13196FEA3EDA3FD89F63699F437FEA3
:1010420008C01B821C8220E82D833FE33E83212CB3
:10105200312C4B8D473631F08DA19EA1820D931D0F
:101062009EA38DA39B819B87EC81ED87FD81FE8BE7
:101072002E812A8F750164011D8E1C8E8C8D9D8D93
:10108200EDA1FEA18E179F07C1F12B853D854E89EB
:101092005A8DC701B6010E94FB200E945A132B01F0
:1010A2003C010E94CF206CA38701760117FB1095AB
:1010B20017F910952B853D854E895A8DC301B201D2
:1010C2000E94BC126B017C01F7FAF094F7F8F094DD
:1010D20020E030E040E251E46B857D858E899A8D77
:1010E2000E94FB206B877D878E8B9A8F4C8D5D8D46
:1010F2004F5F5F4F5D8F4C8FC1CF20E030E040EA01
:1011020050E46B857D858E899A8D0E94FF202B018C
:101112003C019B01AC01C701B6010E94F12087FD91
:101122000BC0A3019201C701B6010E94F1208111F7
:1011320006C0FCA1F0FD03C0412C512C3201A301D9
:101142009201C501B4010E94C9204B015C012D89A5
:10115200253611F0310102C0612C712C23014DA101
:101162005EA1441A550AC988DA8800E010E01C869C
:101172001B8689859A85807199279F8B8E8B641433
:10118200750431F48B859C85892B09F49AC0A6C01D
:10119200DD8ECC8EE88DF98D808591850597C816F8
:1011A200D90680F72B813C814D815E81C501B40156
:1011B2000E94FB200E945A136D877E878F87988B2F
:1011C2000E94CF20CB01EE89FF89EF2B69F4892B96
:1011D20059F4FB8DF73641F477FE06C098012F5F74
:1011E2003F4F3D8F2C8F43C04B855C85452BB1F41F
:1011F20077FE14C05FEFC51AD50AE981FA818C8D9A
:101202009D8DE80FF91F9EE29083EF81F88531975B
:10121200F887EF8321E030E03C872B87E981FA8170
:10122200EC0DFD1D1D8F0C8F8C8D9D8D892B49F032
:1012320030E331934C8D5D8D415051095D8F4C8F60
:10124200F3CFC8018C0D9D1D2F813885201B310BDA
:101252006C01EFEFCE1ADE0AE981FA81E80FF91F7D
:10126200605D6083A9014150510958874F83850110
:10127200740117FB109517F910952B813C814D8154
:101282005E816D857E858F8598890E94BC124B0197
:101292005C01B7FAB094B7F8B09420E030E040E2D5
:1012A20051E46B817C818D819E810E94FB206B8346
:1012B2007C838D839E8351E0651A71080C8D1D8D90
:1012C2005ECFF985F4FF0AC0E981FA81EC0DFD1DBC
:1012D2008EE2808396012F5F3F4F690149815A81D7
:1012E2004C0D5D1D5C874B87FA011082FD89F53636
:1012F20009F061C0E981FA8128A139A1E20FF31F47
:101302003197108237FE06C031942194310801E0F2
:1013120010E002C000E010E0E8A1F9A13197498194
:101322005A81E40FF51F22E030E08AE0E82EF12C2A
:10133200CF0149815A81841B950B2114310479F024
:10134200C101B7010E94461F805D82931B0121509B
:1013520031098F819885019798878F83E9CF12167B
:10136200130674F3FC013197E40FF51F012B11F4FE
:101372002BE201C02DE220830297E981FA81E80F76
:10138200F91F2AA13BA1215431092A31310510F05C
:1013920025E601C025E420832F81388522503109BA
:1013A20038872F83C816D90634F4AF0160E88B85DD
:1013B2009C850E941B2049815A813A0180E8882E2F
:1013C200998591FF2EC090FD2CC0EF81F8851E16E5
:1013D2001F063CF5882DB3010E94B91F29813A816D
:1013E200820F931F9C0149815A81241B350BE98985
:1013F200FA892E173F074CF0FC012081EF81F88516
:10140200E80FF91F20830197EDCF4F81588560E3E4
:1014120070E089819A818E0F9F1F0E948B201C8A07
:101422001B8A882DB3010E94B91FE984FA840B89B3
:101432001C899C01682DA3018E8D9F8D0E94F31340
:10144200A696E2E10C94FB1E598553FF00CD80E283
:10145200F0CC2CEF22162FEF32064CF04DA15EA1FC
:10146200241635060CF4DFCD55E65D8BFBCD35E653
:0A1472003D8BF8CD46E64D8BF5CD1D
:10147C00A0E2B0E0E4E4FAE00C94C41E9D8F8C8FE3
:10148C00FB01298320812D8331813E8F82819381C1
:10149C009B8B8A8B24813581398728878085918520
:1014AC00998F888F46805780FA01C080D180E28066
:1014BC00F38020E030E0A901C701B6010E94F120C1
:1014CC0087FF06C0F7FAF094F7F8F0948DE204C0A9
:1014DC005D8152FFF6C28BE2F2018083288539854B
:1014EC00215031093F872E8741E050E05C834B83CC
:1014FC0006C0888599859F878E871C821B82B701C1
:10150C00A6017F77E9810E2E000CFF0BF98BE88B7F
:10151C0041155105F0E86F07FFE77F07C1F42889F3
:10152C003989215431098B819C81840D951D2A3177
:10153C00310520F442E755E060E003C046E755E092
:10154C0060E00E941B2066E775E080E01CC08B8188
:10155C009C81840D951D4130510560487F47E8F012
:10156C0028893989215431092A31310520F44AE777
:10157C0055E060E003C04EE755E060E00E941B20A0
:10158C006EE775E080E00E94B91FA20160E8ED8073
:10159C00FE8C088519859C018CC220E3FC012083FC
:1015AC00EB81FC813196E40DF51D2B813C812E5F86
:1015BC003F4F3C832B8348895989415451095B8F98
:1015CC004A8F4A31510510F088E701C088E58083C5
:1015DC0020E030E0A901C701B6010E94F120612C86
:1015EC00712C1F8E1982882309F464C050E858A30B
:1015FC008FE38A832F8D398148A15A816F8D798130
:10160C0088A19A810E94C9205B018C01A7019601D7
:10161C000E94F62018160CF442C09FEF691A790A42
:10162C00AF8EB98208A31A83E5CF20E030E040E00A
:10163C005FE36F8D798188A19A810E94FF2020E061
:10164C0030E0A9010E94F120811118C020E030E0A7
:10165C0040E85AE56F8D798188A19A810E94FF201C
:10166C006F8F798388A39A8320E030E040E85AE5B5
:10167C00C701B6010E94FF206B017C0120E030E025
:10168C0040E05FE36F8D798188A19A810E94FF20F1
:10169C006F8F798388A39A83A1E06A1A71082F8DC2
:1016AC00398148A15A81C701B6010E94F12087FDFA
:1016BC00BCCF04C0E0E8E8A3FFE3FA832A893B89A6
:1016CC0037FD02C0C90102C088E190E0AC014F5F58
:1016DC005F4F5B874A878F8C9980A8A0BA801601D0
:1016EC0087011F821E829401A501B101C8010E94CD
:1016FC00FB200E945A136C8B7D8B8E8B9F8B9401DD
:10170C00A5010E94FF209B01AC01B101C8010E9400
:10171C00C8201B018C0120E030E040E85DE3B401FF
:10172C00C5010E94FF204B015C018E819F810196B7
:10173C009F838E83EA89FB89F7FF09C020E030E0A4
:10174C00A901B101C8010E94F120882341F02A852A
:10175C003B854E815F81421753072CF204C08E816A
:10176C009F819B878A8720E030E040E051E4B40100
:10177C00C5010E94FF204B015C019B01AC01B10132
:10178C00C8010E94F12087FD12C0A5019401B1018E
:10179C00C8010E94F12081110DC06C897D898E8950
:1017AC009F890E94CF2061707727672B19F4812CB9
:1017BC00912C5401A5019401C701B6010E94C920C6
:1017CC006B017C01DC01CB01BF770097A048BF47C0
:1017DC0009F4A5CE2E843F84F2E02F1A31082A8515
:1017EC003B85319521953109398B288B0B811C81D7
:1017FC00A12CB12C1F821E82812C912C488D598DCD
:10180C00455051095D8B4C8BEC89FD890E171F07D8
:10181C000CF091C02F8D398148A15A81C701B601B6
:10182C000E94FB200E945A136A877B878C879D87B6
:10183C000E94CF20AB016115710539F4811491041C
:10184C0021F05FEFA51AB50A4DC0EE81FF81EF2B99
:10185C0089F48114910471F0F201E00FF11F2EE272
:10186C00208331E0231A31080F5F1F4FE1E0F0E0D5
:10187C00FF83EE83F201E00FF11F95012115310575
:10188C0029F0A0E3A19321503109F8CFF801EA0D1A
:10189C00FB1DFF87EE872A183B084A3051051CF4C4
:1018AC00605D7F4F02C0695A7F4F2A8D3B8D2A3174
:1018BC00310550F4CB018062815691094A9720F48E
:1018CC00CB010E949420BC010E851F850F5F1F4F1A
:1018DC00EE85FF85E40DF51D608331E0231A310898
:1018EC00A12CB12C2F8D398148A15A816A857B8519
:1018FC008C859D850E94FF209B01AC01C701B60120
:10190C000E94C8206B017C0120E030E040E85DE3E0
:10191C006F8D798188A19A810E94FF206F8F7983C6
:10192C0088A39A8341E0841A91088889998988153B
:10193C00990509F069CF2E813F81232B51F5F201D6
:10194C00E00FF11FA114B104E9F04A895B89141668
:10195C001506C4F45D8150FD15C08EE28083F8013C
:10196C003196E40DF51DC50120E321930197E9F7AC
:10197C000A0D1B1D0F5F1F4FC50180959095280EFA
:10198C00391E07C08D8184FF04C08EE280830F5FF7
:10199C001F4FF201E00FF11FFF83EE831082E88DE1
:1019AC00F98DE40DF51D3197108277FE07C0719407
:1019BC0061947108EE24E394F12C02C0E12CF12C1B
:1019CC00E88DF98D3197E40DF51D21E030E08AE0CA
:1019DC00C82ED12CCF01841995096114710469F0BA
:1019EC00C301B6010E94461F805D82933B012150CA
:1019FC00310941E0241A3108EDCF2130310581F352
:101A0C00FC013197E40DF51DEF2811F42BE201C018
:101A1C002DE220830297F201E80FF91F2A8D3B8DEE
:101A2C002A31310510F020E701C020E5208308178A
:101A3C00190734F4AF0160E88E819F810E941B204E
:101A4C00320130E8832E4D8141FF28C040FD26C075
:101A5C0052E0251A31081214130404F5882DB30131
:101A6C000E94B91F840D951D9C01241935094B81C9
:101A7C005C81241735073CF0FC012081E20DF31D3D
:101A8C0020830197F1CFA10160E370E08B819C81F1
:101A9C00840D951D0E948B2019861886882DB30104
:101AAC000E94B91FED80FE8C088519859C01682D5C
:101ABC00A3018C8D9D8D0E94F313A096E2E10C94F2
:0C1ACC00FB1E5D8153FF15CD80E206CDAE
:101AD800CF92DF92EF92FF920F931F93CF93DF93F2
:101AE8006B01E82E2DE132E040E00E94021E892BB6
:101AF80029F40E94EB1C0E94ED1A2CC126E232E068
:101B080040E08E2DB6010E94021E892B49F41092E6
:101B18004F0410924E040E94EB1C0E94BD1D1AC176
:101B280023E332E040E08E2DB6010E94021E892B8D
:101B380019F40E94B61B0EC122E432E040E08E2D5B
:101B4800B6010E94021E892B81F510924F04109253
:101B58004E040E94EB1C80E00E94B31762ED71E016
:101B680080E00E94731D80E00E946F116AEF71E0AF
:101B780080E00E94731D81E00E946F1180E594E06F
:101B88007C0120E8022F0F2EFEEFCF2EF2E0DF2E91
:101B9800F02D2EEA31E040E060E070E085E090E072
:101BA8000E9469180E94791BD5C02DE432E040E0FC
:101BB8008E2DB6010E94021E892B89F410924F04C3
:101BC80010924E040E94EB1C0E94661E6DE173E0A9
:101BD80080E80E94731D8AE00E94A520BBC029E509
:101BE80032E040E08E2DB6010E94021E892B99F545
:101BF80081E090E090934F0480934E040E94EB1C88
:101C08000E94471DC0E0D0E021C0FE01E35EFC4F0A
:101C180080811F928F93DF93CF9388E692E0A0E0B4
:101C2800AF939F938F930EEF12E01F930F930E9431
:101C3800811FB80180E80E94731D21968DB79EB759
:101C480009960FB6F8949EBF0FBE8DBFCF3FD10542
:101C5800E1F2DCF27FC024E832E040E08E2DB601EC
:101C68000E94021E892B29F40E94EB1C0E94591A1B
:101C780071C021E932E040E08E2DB6010E94021EBB
:101C8800892BC1F410924F0410924E040E94EB1C51
:101C98000E94661E809149048F3F31F06FE972E01F
:101CA80080E00E94731D56C064EB72E080E00E94E1
:101CB800731D50C029EC32E040E08E2DB6010E9421
:101CC800021E892B39F410924F0410924E040E9480
:101CD800F51640C026ED32E040E08E2DB6010E9498
:101CE800021E892B29F40E94EB1C0E94CB1F32C0D4
:101CF8006CED72E080E00E94731D6AEE72E080E095
:101D08000E94731D6CEF72E080E00E94731D6CE00E
:101D180073E080E00E94731D6DE173E080E00E9433
:101D2800731D61E373E080E00E94731D63E473E058
:101D380080E00E94731D66E573E080E00E94731DD9
:101D480068E673E080E00E94731D6CE773E080E052
:101D58000E94731DDF91CF911F910F91FF90EF901B
:061D6800DF90CF9008950A
:101D6E00A4E1B0E0EDEBFEE00C94C41E98878F83E7
:101D7E007A8369835C8B4B8B122FDB011296ED916C
:101D8E00FC91139714962D913C9115973E832D83BC
:101D9E00ED90FC90119716962D903C901797F7FDAD
:101DAE0003C0E894E1F802C0E1E0F0E0C701807101
:101DBE0099279A878987E4FE1FC0AB89BC892C912D
:101DCE0011963C91119712964C91129713965C9125
:101DDE00139714966C91149715967C9115971696E9
:101DEE008C91169717969C91A0E00E945D2021F091
:101DFE008D819E81029702C08D819E8197012870F0
:101E0E0033273C872B87E3FC0197AB89BC894C9029
:101E1E0011965C90119712966C90129713967C9077
:101E2E00139714968C90149715969C90159716965A
:101E3E00AC9016971796BC90A981BA811896CD9042
:101E4E00DC901997B1E0CB1AD108D101AC0DBD1DB4
:101E5E001C929C838B839F01281B390B3E872D87F9
:101E6E00C70182709927988B8F87812F012E000CC6
:101E7E00990BDC01A154B109BA8BA98B32E0C316C0
:101E8E00D10434F489859A85892B09F04CC073C02E
:101E9E009201A301B401C501A0E00E945D2081F171
:101EAE00B1E0CB1AD108C2018F7099278A30910503
:101EBE0014F4C09602C0895A9F4FE989FA897A971D
:101ECE0048F49C012062215631092A31310510F463
:101EDE000E949420F101EC0DFD1D80832B813C812D
:101EEE00215031093C832B839201A301B401C5011A
:101EFE0004E00E94A81E29013A014B015C01BECFED
:101F0E008D859E85AB81BC818A0F9B1F1816190685
:101F1E003CF21A161B060CF0B5CFEF85F889EF2BA5
:101F2E0009F0BECFAFCFAB89BC892C9111963C91F5
:101F3E00119712964C91129713965C9113971496D3
:101F4E006C91149715967C91159716968C91169701
:101F5E0017969C91A0E00E945D2069F0F101EC0DB6
:101F6E00FD1D31971083B2E0CB1AD108F101EC0DB3
:101F7E00FD1D80E38083EB85FC85EF2B41F0F1E0C6
:101F8E00CF1AD108F101EC0DFD1D80E28083A981ED
:101F9E00BA8118962D913C911997215031092C191F
:101FAE003D09C20CD31CA60160E80D811E818F81F4
:101FBE0098850E94F3139C01EF81F88580819181B1
:101FCE0090FF09C0A981BA8112968D919C911397A9
:101FDE00821793070CF4C9016496E2E10C94FB1E80
:101FEE00ADE0B0E0EDEFFFE00C94C41E9A87898758
:101FFE007C836B83FA01DB011296CD90DC901397F4
:10200E0014968D919C9115979E838D83ED90FC90E7
:10201E001197FA82E98216960D90BC91A02DB88781
:10202E00AF832080318042805380648075808680AB
:10203E0097808101B42DF52DE62D7B868C869D86AD
:10204E009101A201B301C401A0E00E945D204CF4F5
:10205E000E94ED1F8901B42FF52FE62F7B878C8709
:10206E009D87D7FC04C0E894E1F8FA82E9829101D9
:10207E00A201B301C401A0E0ED80FE800E945D20AC
:10208E001CF0898182FF04C081E0E81AF10805C0C6
:10209E0083FF03C091E0E91AF108CE0101965C01BD
:1020AE008AE0C82ED12C2B2F3F2F4E2F5B856C85AF
:1020BE007D858B819C810E941712FC019101A201EA
:1020CE00B301C401A0E00E945D201CF0898182FF53
:1020DE0012C031970F8118850E0F1F1F9101A2019B
:1020EE00B301C401A0E00E945D2014F08BE201C098
:1020FE008DE2D80108C083FF07C03197AF81B88544
:10210E00AE0FBF1F80E28C93E980FA80AB81BC8159
:10211E0018962D913C911997215031092E1B3F0B8A
:10212E008F819885E80FF91FAF0160E80D811E8140
:10213E0089859A850E94F3139C01A985BA858D9194
:10214E009C9190FF07C0EB81FC8182819381821765
:0E215E0093070CF4C9012D96E2E10C94FB1ED0
:10216C000F931F93CF93DF93FC01D901683871054E
:10217C0031F194F461387105B1F12CF460387105CA
:10218C0009F478C09FC06238710509F459C06438ED
:10219C00710509F46FC096C0603A710509F448C026
:1021AC002CF46039710509F44BC08CC0603C71058E
:1021BC0009F476C0603F710509F472C083C0CD91FB
:1021CC00DC911197CE0102968D939C93452B39F09F
:1021DC009881892F880F880B908381835BC08881BD
:1021EC008083118268C0CD91DC911197CE01049649
:1021FC008D939C93452B99F088819981AA81BB8101
:10220C00AC01BD01770F440B542FBA01808391832D
:10221C00A283B383448345834683478328C00881C4
:10222C0019812A813B81008311832283338345C02A
:10223C00CD91DC911197CE0102968D939C9323C086
:10224C00CD91DC911197CE0108968D939C9378815A
:10225C0069815A814B813C812D819E818F81708354
:10226C00618352834383348325839683878381E000
:10227C0090E02AC0CD91DC911197CE0102968D93FE
:10228C009C93452BA1F099812881892F880F880B6D
:10229C002083918382838383848385838683E6CFA3
:1022AC00CD91DC911197CE0102968D939C93088170
:1022BC001981008311831282138214821582168273
:1022CC001782D5CF80E090E0DF91CF911F910F91D5
:0222DC00089563
:1022DE00CF92DF92EF92FF920F93CF93C82F80E0B1
:1022EE000E94B317C1114BC08091580490915904AC
:1022FE00059744F067E973E080E00E94731D80E06B
:10230E000E94B3170E94551781111BC034C09C0147
:10231E00992314F42F5F3F4F35952795FC01E0501C
:10232E00FE4F408160E1469FA0011124FC01EF5F4A
:10233E00FD4F5081F901E05BFB4F452B4083029628
:10234E0002C080E090E0833091050CF380E594E0CC
:10235E007C0120E8022F0F2EFEEFCF2EF2E0DF2EB3
:10236E00F02D2FEB33E040E060E070E082E090E093
:10237E000E9469184EC08C2F0E946F114AC0809126
:10238E00580490915904079744F06AED73E080E089
:10239E000E94731D80E00E94B3170E945517811191
:1023AE001BC034C09C01992314F42F5F3F4F359509
:1023BE002795FC01E050FE4F408160E1469FA00151
:1023CE001124FC01EF5FFD4F5081F901EE5AFB4FD6
:1023DE00452B4083029602C080E090E08530910547
:1023EE000CF380E594E07C0120E8022F0F2EFEEF27
:1023FE00CF2EF2E0DF2EF02D22E034E040E062E05E
:10240E0070E083E090E00E94691803C08C2F0E9458
:10241E006F11CF910F91FF90EF90DF90CF900895B5
:10242E00A2E1B0E0EDE1F2E10C94C41EFC010A8BD6
:10243E001B832C83732E642E552E462E7D83CC86C5
:10244E00D886BF82AE82868197819B878A87D50187
:10245E004D915C91228133818085918501971C017C
:10246E0037FF02C021E030E0EA85FB85E80FF91F57
:10247E0010824701E1E0F0E0FA83E983C9018E1989
:10248E009F099E878D87DA01A270BB27B88BAF8715
:10249E00B885BB0FBB0BB98B1214130474F0A98152
:1024AE00BA81AB2B09F05CC0AE81BF818D919C913E
:1024BE0011978F7E8D939C9353C02A893B814C81BB
:1024CE00572D662D752D842D9D81A0E00E945D20D7
:1024DE00B1F1E1E02E1A3108FC85F987AF2EB884F0
:1024EE00C988DC2CEC2CFC2C0C2D1C2D2A893B8154
:1024FE004C81572D662D752D842D9D810E9429208E
:10250E00C90129839A83EA85FB85E20DF31D805D5F
:10251E00808381E0881A91082A893B814C81572D4E
:10252E00662D752D842D9D810E942B202A8B3B8339
:10253E004C83752E662E572E482E9D83ADCF8D85DE
:10254E009E85880D991D181619061CF2181419046B
:10255E000CF0A5CFEF85F889EF2B09F0BACF9FCFFE
:0A256E00C1016296E2E10C94FB1E2D
:10257800A5E1B0E0E2ECF2E10C94C41E4701580179
:102588000E94FF202B013C01A80197010E94C9204D
:10259800162FC72ED82EF92E862F9C2DAD2DBF2D88
:1025A80089839A83AB83BC83AA81FB81EC81ED800C
:1025B8003E802F8008850D8B5E2F5F71212F3A2F6B
:1025C8004F2F60E070E080E090E021153105410573
:1025D80000E15007610571058105910509F05EC0AC
:1025E8005E2F6E2D732D822D9D8904E30E94A81EF7
:1025F8002D873E874F87588B698B7A8B8B8B9C8B6B
:102608008D859E8597708F3F974009F447C0A30139
:102618009201612F7C2D8D2D9F2D0E94C8209B013A
:10262800AC01C501B4010E94F1208823B9F14986A3
:102638005A866B867C8629853A854B855C85C501DB
:10264800B4010E94C920B62E872E982EA92E262FB7
:10265800372F482F592F612F7C2D8D2D9F2D0E94AC
:10266800F120811118C02B2D8B2D982DA92DBA2D55
:1026780089839A83AB83BC833A814B815C816E2DBD
:10268800732D822D9D89A1E00E946920122FC32EEF
:10269800D42EF52E03C01B2D6401FA2C612F7C2D3E
:0C26A8008D2D9F2D6596E2E10C94FB1E29
:1026B4004F925F926F927F928F929F92AF92BF924E
:1026C400CF92DF92EF92FF92CF93DF93CDB7DEB735
:1026D40028970FB6F894DEBF0FBECDBF6B017C0107
:1026E400DC01CB0147E1B695A795979587954A9567
:1026F400D1F799278F579109873191059CF597FD5B
:1027040036C088248A94982C3FE7A32EB12C04C0A9
:10271400B594A794979487948A95D2F7D501C40168
:102724008C219D21AE21BF21892B8A2B8B2BD1F0AB
:1027340020E030E040E85BE7C701B6010E94C92011
:102744006D837E838F839887F7FE04C0C80CD91CE1
:10275400EA1CFB1C80949094A094B094C820D920C7
:10276400EA20FB205C2D4D2D3E2D2F2D21C020E095
:1027740030E040E85BE7C701B6010E94C9206983E5
:102784007A838B839C83F7FE0FC0D701C601880F21
:10279400991FAA1FBB1F892B8A2B8B2B19F350E07F
:1027A40040E030E82FEB04C050E040E030E020E0AF
:1027B400652F742F832F922F28960FB6F894DEBFBF
:1027C4000FBECDBFDF91CF91FF90EF90DF90CF9000
:1027D400BF90AF909F908F907F906F905F904F903D
:0227E400089556
:1027E6002F923F924F926F927F928F92AF92BF92AB
:1027F600CF92DF92EF92FF920F931F93CF93DF93C7
:10280600CDB7DEB766970FB6F894DEBF0FBECDBF65
:102816005C013A01862E6901C701817099279C8B5C
:102826008B8BE0FC1DC020173107D4F47801EC181F
:10283600FD08FE8AED8AA70191E1E916F10410F080
:1028460040E150E060E270E0CE0101969A8B898B00
:102856000E948B2089899A891C0120E8422E0BC090
:102866009601682DA301C5010E94271CC016D1063A
:10287600ECF2C60125C090E1E916F10458F020E11A
:1028860030E0642DA101C5010E94271C80E1E81AF1
:10289600F108F1CF2D893E892F70332789899A89CE
:1028A600AC0160E8C5010E94271C8B899C89892B95
:1028B60031F49601682DA301C5010E94271CC801A9
:1028C60066960FB6F894DEBF0FBECDBFDF91CF91EF
:1028D6001F910F91FF90EF90DF90CF90BF90AF9038
:0E28E6008F907F906F904F903F902F900895AD
:1028F40010C00E94DD2058F00E94D62040F029F438
:102904005F3F29F00C94EB2051110C94E5200C94BA
:1029140003210E94241E68F39923B1F3552391F3F4
:10292400951B550BBB27AA2762177307840738F03A
:102934009F5F5F4F220F331F441FAA1FA9F335D097
:102944000E2E3AF0E0E832D091505040E695001C4B
:10295400CAF72BD0FE2F29D0660F771F881FBB1F05
:10296400261737074807AB07B0E809F0BB0B802DE3
:10297400BF01FF2793585F4F3AF09E3F510578F00F
:102984000C94EB200C94E5205F3FE4F3983ED4F3E1
:10299400869577956795B795F7959F5FC9F7880FE3
:1029A400911D9695879597F90895E1E0660F771F35
:1029B400881FBB1F621773078407BA0720F0621BC6
:0E29C400730B840BBA0BEE1F88F7E095089595
:1029D200CF93DF93DC01F90164387105D9F164F416
:1029E2006138710521F16238710509F440C060381F
:1029F200710509F054C02EC060397105C1F184F42B
:102A02006838710509F04BC0C081D181CE010296B0
:102A120091838083E881F981ED93FC9340833CC0EC
:102A2200603A7105B9F0603C7105A1F038C0C0810F
:102A3200D181CE01029691838083E881F981ED9361
:102A4200FC93052E000C660B770B40835183628347
:102A5200738322C0C081D181CE010296918380838B
:102A6200E881F981ED93FC935183408315C0C081C5
:102A7200D181CE01029691838083E881F981ED9321
:102A8200FC9351834083852F880F880B8283838335
:102A9200848385838683878381E090E002C080E01F
:082AA20090E0DF91CF9108954F
:102AAA00A2E0B0E0EBE5F5E10C94C41E1C014B0179
:102ABA00FA01DB0112962D913C91139714964D90D1
:102ACA005C9015978D919C9111979A83898316969C
:102ADA006D907C90179737FD03C08D7F9A83898309
:102AEA0000811181228133814481558166817781F8
:102AFA00FE0131965F0188E0C82ED12C7201C40113
:102B0A000E941712298124FF06C00197F301E80FDA
:102B1A00F91F20E32083298123FF06C00197F301CF
:102B2A00E80FF91F20E22083E980FA80D401189681
:102B3A002D913C91199721503109281B390B860D8B
:102B4A00971DAC0160E88201C1010E94F3139C0148
:102B5A00F1018081918190FF08C0D40112968D9174
:102B6A009C911397821793070CF4C9012296E2E10C
:042B7A000C94FB1E9E
:102B7E000FC00E94D62038F00E94DD2020F0952351
:102B8E0011F00C94EB200C94032111240C94E520ED
:102B9E000E94241E70F3959FC1F3950F50E0551FB0
:102BAE00629FF001729FBB27F00DB11D639FAA2794
:102BBE00F00DB11DAA1F649F6627B00DA11D661FE3
:102BCE00829F2227B00DA11D621F739FB00DA11D04
:102BDE00621F839FA00D611D221F749F3327A00DBE
:102BEE00611D231F849F600D211D822F762F6A2F5A
:102BFE0011249F5750409AF0F1F088234AF0EE0FBF
:102C0E00FF1FBB1F661F771F881F91505040A9F7EB
:102C1E009E3F510580F00C94EB200C94E5205F3F15
:102C2E00E4F3983ED4F3869577956795B795F79527
:102C3E00E7959F5FC1F7FE2B880F911D969587959F
:042C4E0097F9089555
:102C520011C00E94D62038F00E94DD2020F039F405
:102C62009F3F19F426F40C9403210EF4E095E7FB40
:102C72000C94EB20E92F0E94241E58F3BA17620726
:102C820073078407950720F079F4A6F50C94E420E5
:102C92000EF4E0950B2EBA2FA02D0B01B901900175
:102CA2000C01CA01A0011124FF27591B99F0593FB9
:102CB20050F4503E68F11A16F040A22F232F342F01
:102CC2004427585FF3CF469537952795A795F0404F
:102CD2005395C9F77EF41F16BA0B620B730B840B64
:102CE200BAF09150A1F0FF0FBB1F661F771F881F1C
:102CF200C2F70EC0BA0F621F731F841F48F4879574
:102D020077956795B795F7959E3F08F0B0CF939565
:0E2D1200880F08F09927EE0F97958795089582
:102D20002F923F924F926F927F928F92AF92BF926B
:102D3000CF92DF92EF92FF920F931F93CF93DF9387
:102D4000CDB7DEB727970FB6F894DEBF0FBECDBF65
:102D50006C017B013901842E980182E8282E85E0E0
:102D6000382E80E0482E87E0F101AE014F5F5F4FC3
:102D7000DA01742D0E943720F70102811381A480AB
:102D8000B580E080F18061147104810419F43A0186
:102D9000F0E88F2E2115310529F4882DB3010E940A
:102DA000B91F9C0117FD04C00217130708F498010E
:102DB0008501682DA301C6010E94F31327960FB663
:102DC000F894DEBF0FBECDBFDF91CF911F910F9161
:102DD000FF90EF90DF90CF90BF90AF908F907F905B
:0A2DE0006F904F903F902F900895E0
:102DEA00CF92DF92EF92FF920F93CF93DF936AEB2A
:102DFA0074E080E00E94731D80E00E946F1169ED0B
:102E0A0074E080E00E94731D81E00E946F11C0E0AF
:102E1A00D0E03BC00E94EB1C0E94661E80915204C7
:102E2A008034B1F180911D038F3FA9F080E594E0D1
:102E3A007C0120E8022F0F2EFEEFCF2EF2E0DF2ECC
:102E4A00F02D2CEF34E040E062E070E081E090E0A9
:102E5A000E94691814C080E594E07C0120E8022FE2
:102E6A000F2EFEEFCF2EF2E0DF2EF02D2DE135E012
:102E7A0040E062E070E081E090E00E946918E0E5DD
:102E8A00F4E082818F5F82832196C034D10514F2E7
:102E9A00DF91CF910F91FF90EF90DF90CF9008953F
:102EAA00CF92DF92EF92FF920F9380E090E045C0BD
:102EBA00FC01E050FE4F208130ED320F3A3028F409
:102ECA00FC01E050FE4F308337C03FEB320F363003
:102EDA0030F4FC01E050FE4F275320832DC03FE918
:102EEA00320F363030F4FC01E050FE4F2755208374
:102EFA0023C02D3041F12A3041F1222341F16AE702
:102F0A0071E080E00E94731D80E092E07C0120E87D
:102F1A00022F0F2EFEEFCF2EF2E0DF2EF02D2EEA3B
:102F2A0031E040E060E070E081E090E00E946918E2
:102F3A000E94EB1C80E00CC00196863091050CF4CF
:102F4A00B7CF81E005C081E003C081E001C081E024
:0C2F5A000F91FF90EF90DF90CF90089552
:102F6600CF92DF92EF92CF93C82F68E873E080E0AC
:102F76000E94731D10925904109258040E94AC20AE
:102F860080931C0325C080915804909159040196A2
:102F9600909359048093580480915A0490915B044D
:102FA600FC01E050FE4F20838E3F910520F01092E9
:102FB6005B0410925A0480915A0490915B04019626
:102FC60090935B0480935A040E94AC2080931C0368
:102FD60020911C032D30B9F6E0915A04F0915B0460
:102FE600E050FE4F108210925B0410925A0480E06B
:102FF60092E06C0120E8E22E8E2DB6010E94731D30
:103006008AE00E94A520CC2321F08E2DB6010E94D5
:0C3016006C0DCF91EF90DF90CF900895EB
:10302200A2E0B0E0E7E1F8E10C94C41E3C014B01E0
:10303200FA01DB0112962D913C91139714964D9053
:103042005C9015978D919C9111979A83898316961E
:103052002D903C90179737FD03C08D7F9A8389830B
:10306200008111812281338144815581668177817A
:10307200FE0131965F018AE0C82ED12C7201C40193
:103082000E941712E980FA80D40118962D913C9182
:10309200199721503109281B390B820D931DAC0160
:1030A20060E88201C3010E94F3139C01F301808155
:1030B200918190FF08C0D40112968D919C91139733
:1030C200821793070CF4C9012296E2E10C94FB1ECD
:1030D2003F924F925F926F927F928F929F92AF92A6
:1030E200BF92CF92DF92EF92FF920F931F93CF93F3
:1030F200DF935C014B01722E132F342E2701602EB9
:10310200C0E0D0E026C0CE01880D991D462D920167
:10311200280F391F411D97FD4A95A42FC901F901B6
:103122005A2F0E94C1201F926F933F921F937F924A
:10313200DF92CF920E94941FB60180E80E94731D15
:1031420021968DB79EB707960FB6F8949EBF0FBE15
:103152008DBFCA15DB05BCF2DF91CF911F910F9194
:10316200FF90EF90DF90CF90BF90AF909F908F90A5
:0C3172007F906F905F904F903F90089509
:10317E00CF92DF92EF929A01462F009781F5690167
:10318E00E42E52E0C50ED11CE11CF6015E2D0E940C
:10319E00C1206EBD0DB407FEFDCF5EB55093550434
:1031AE006901E42E53E0C50ED11CE11CF6015E2D23
:1031BE000E94C1206EBD0DB407FEFDCF5EB55093CB
:1031CE0055042C5F3F4F4F4FF901542F0E94C120E1
:1031DE006EBD0DB407FEFDCF2EB52093550401979D
:1031EE00B1F41EBC0DB407FEFDCF8EB58093550411
:1031FE001EBC0DB407FEFDCF8EB58093550481E045
:10320E008EBD0DB407FEFDCF8EB580935504EF90A5
:06321E00DF90CF9008953F
:10322400CF92DF92EF92DC0190E0292F30E0220F61
:10323400331F6901032E000CEE086E2DA601475CB6
:103244005A4F6F4F6A01E62EFA015E2D0E94C1208B
:10325400862F61110EC02F5F3F4F032E000C440BCD
:10326400275C3A4F4F4FF901542F0E94C120862FFB
:1032740025C0CD90DD90EC901297F6015E2D0E9452
:10328400C120861316C02F5F3F4F032E000C440B42
:10329400275C3A4F4F4FF901542F0E94C120962FBB
:1032A4005FEFC51AD50AE50ACD92DD92EC9212972A
:1032B40001C09F5F9B3008F4B8CF892FEF90DF9057
:0432C400CF9008950A
:1032C8006F927F928F92EF92FF920F931F93CF93FB
:1032D800DF93CDB7DEB761970FB6F894DEBF0FBEA8
:1032E800CDBFFE01319651E1DF011D925A95E9F7F4
:1032F800A2E0B1E0BA83A9839C838B8377FF09C0DE
:103308008FE490E090935704809356048FEF9FEFDB
:1033180019C03901842E7C01615071097F836E8345
:103328009801682DA301CF010E942E1F4885598559
:103338002E813F814217530708F49A01F701E20FE3
:10334800F31F108261960FB6F894DEBF0FBECDBF93
:10335800DF91CF911F910F91FF90EF908F907F9009
:043368006F900895C5
:10336C006F927F928F92EF92FF920F931F93CF9356
:10337C00DF93CDB7DEB761970FB6F894DEBF0FBE03
:10338C00CDBFFE01319651E1DF011D925A95E9F74F
:10339C00A2E0B1E0BA83A9839C838B8377FF09C039
:1033AC008FE490E090935704809356048FEF9FEF37
:1033BC0019C03901842E7C01615071097F836E83A1
:1033CC009801682DA301CF010E94161F48855985CD
:1033DC002E813F814217530708F49A01F701E20F3F
:1033EC00F31F108261960FB6F894DEBF0FBECDBFEF
:1033FC00DF91CF911F910F91FF90EF908F907F9065
:04340C006F90089520
:1034100088249924F401E401B0E49F93AA279A1523
:103420008B049C04ED05FE05CF05D007A10798F499
:10343000AD2FDC2FCF2FFE2FE92D982C892E982F22
:10344000872F762F652F542F432F322F2227B850E6
:1034500031F7BF9127C01B2EBF91BB27220F331F0F
:10346000441F551F661F771F881F991F881C991CB2
:10347000EE1FFF1FCC1FDD1FAA1FBB1F8A149B045A
:10348000EC05FD05CE05DF05A007B10748F08A1859
:103490009B08EC09FD09CE09DF09A00BB10B2160E7
:1034A0001A94E1F62EF49401AF01BE01CD01000C97
:0234B00008957D
:1034B2000F931F93CF93DF9382B1877F82B98FE0FF
:1034C2008EBD0DB407FEFDCF8EB58093550480EC02
:1034D2008EBD0DB407FEFDCF8EB5809355041EBC84
:1034E2000DB407FEFDCF8EB509E414E0F801808328
:1034F2001F928F938DE894E0A0E0AF939F938F93F8
:10350200CEEFD2E0DF93CF930E94811FBE0180E80D
:103512000E94731D3AE13A95F1F700C0F8018081EB
:103522002DB73EB7295F3F4F0FB6F8943EBF0FBE8F
:103532002DBF80FDD4CF82B1886082B9DF91CF9157
:063542001F910F91089596
:103548000F931F93CF93DF93DB012D913C9111973C
:1035580030FF25C017964D915C91189715962D91BF
:103568003C9116974217530778F41296ED91FC9107
:103578001397808312962D913C9113972F5F3F4F9D
:1035880013963C932E93129717962D913C9118976A
:103598002F5F3F4F18963C932E93179715C01D9693
:1035A800ED91FC911E97309719F48FEF9FEF0CC0A7
:1035B8008B01EC011995892BC1F7F801878190855A
:1035C800019690878783CE01DF91CF911F910F914C
:0235D800089554
:1035DA00CF93DF9382B1877F82B98FE98EBD0DB415
:1035EA0007FEFDCF8EB5809355041EBC0DB407FEB1
:1035FA00FDCF8EB5809355041EBC0DB407FEFDCFDA
:10360A008EB5809349041EBC0DB407FEFDCF9EB54E
:10361A00E9E4F4E0918382B1886082B980811F92E3
:10362A009F931F928F9381E294E0A0E0AF939F93C0
:10363A008F93CEEFD2E0DF93CF930E94811FBE011A
:10364A0080E80E94731D8DB79EB709960FB6F8944D
:0C365A009EBF0FBE8DBFDF91CF91089581
:10366600CF939B01482FF901542F0E94C12060324D
:10367600B9F1862F062E000C990B0997059780F154
:103686006B3249F5A0E0B0E02F5F3F4F4F4F02C0CD
:10369600A0E0B0E080E090E0CAE0F901542F0E947B
:1036A600C120062E000C770B605371096A30710534
:1036B60060F4C89FF001C99FF00D11242F5F3F4FA2
:1036C6004F4FCF01861B970BE8CFAB2B69F4919533
:1036D6008195910909C06D32D9F6A1E0B0E0D4CF49
:0C36E6002F5F3F4F4F4FBFCFCF91089593
:1036F200CF93DF930E94BD1D0E94FD1F82B1877F81
:1037020082B982E08EBD0DB407FEFDCF8EB58093E7
:1037120055048AE18A95F1F700C040E554E060E87B
:1037220080914E0490914F040E94191DC0E0D0E098
:103732000CC0FE01E050FE4F80818EBD0DB407FE2D
:10374200FDCF8EB580935504219660E072E080E84B
:103752000E94B91FC817D90760F382B1886082B985
:0A3762000E94461EDF91CF910895EA
:10376C006F927F928F92CF92DF92EF92FF920F9394
:10377C0062ED71E080E00E94731D80E594E03C01F5
:10378C0020E8822E0F2EFEEFCF2EF2E0DF2EF02D52
:10379C00082D730121EF31E040E060E070E082E041
:1037AC0090E00E9469186AEF71E080E00E94731D3E
:1037BC0021EF31E040E062E070E083E090E00E94B5
:1037CC0069180F91FF90EF90DF90CF908F907F90C2
:0437DC006F9008954D
:1037E000CF93DF93EC01892BA9F01AC01EBC0DB456
:1037F00007FEFDCF2EB5FC01E35EFC4F20832EB506
:103800002D3031F46AE674E080E00E94731D08C038
:10381000019602C080E090E08C3221E0920730F304
:10382000219791F40BC01EBC0DB407FEFDCF2EB541
:10383000FC01E35EFC4F2083019602C080E090E033
:0E3840008C3221E0920778F3DF91CF9108954A
:10384E006F927F928F92CF92DF92EF920F931F9390
:10385E00CF93DF938C016A01E62EE9013A01862EA1
:10386E00620E731E811C37FD8A94C614D704E804B9
:10387E0081F0F6015E2D0E94C120862FB801082E20
:10388E00000C990B0E94A41A8FEFC81AD80AE80AE6
:10389E00ECCFCE01DF91CF911F910F91EF90DF9082
:0A38AE00CF908F907F906F900895E7
:1038B80081B1886081B982B1886082B981B1806143
:1038C80081B982B1806182B981B1806281B982B1E6
:1038D800806282B981B1806481B982B1806482B921
:1038E80081B1806881B982B1806882B981B1826012
:1038F80081B982B1826082B981B1846081B982B1B3
:10390800846082B981B1886081B982B1886082B9E6
:02391800089510
:10391A0082B1877F82B98BE08EBD0DB407FEFDCFE1
:10392A008EB5809355048AE18A95F1F700C040E587
:10393A0054E060E880914E0490914F040E94191D52
:10394A008FEF8EBD0DB407FEFDCF8EB58093550463
:10395A0080914E0490914F040E94F01B82B18860BE
:0E396A0082B96AE774E080E00E94731D089540
:103978000E942C1E88F09F5798F0B92F9927B751AD
:10398800B0F0E1F0660F771F881F991F1AF0BA95FB
:10399800C9F714C0B13091F00E94E420B1E0089555
:1039A8000C94E420672F782F8827B85F39F0B93F47
:1039B800CCF3869577956795B395D9F73EF49095AE
:0E39C8008095709561957F4F8F4F9F4F0895AA
:1039D60080E090E005C0FC01E75BFB4F108201969A
:1039E60085309105C0F380E090E005C0FC01E35E00
:1039F600FC4F108201968C3221E09207B8F380E0EA
:103A060090E005C0FC01E050FE4F108201968E3F0B
:103A16009105C0F380E090E005C0FC01E250FD4F47
:0C3A2600108201968E319105C0F30895C6
:103A32009A01462F0097C9F4F901542F0E94C12020
:103A42006EBD0DB407FEFDCF5EB5509355042F5FDA
:103A52003F4F4F4FF901542F0E94C1206EBD0DB44C
:103A620007FEFDCF2EB520935504019771F41EBCBD
:103A72000DB407FEFDCF8EB5809349041EBC0DB474
:0C3A820007FEFDCF8EB580934A04089526
:103A8E0082B1877F82B98FE18EBD0DB407FEFDCF67
:103A9E0080EB8EBD0DB407FEFDCF80E48EBD0DB460
:103AAE0007FEFDCF82B1886082B90E94661E82B188
:103ABE00877F82B98FE18EBD0DB407FEFDCF80EBFF
:103ACE008EBD0DB407FEFDCF1EBC0DB407FEFDCF9F
:083ADE0082B1886082B90895ED
:103AE600CF92DF92EF92CF93DF936B01E82EC0E087
:103AF600D0E00FC0AE2DC6018C0F9D1FA11DD7FDB6
:103B0600AA95FC015A2F0E94C120862F0E94A5204B
:103B160021968E2DB6010E94B91FC817D90750F3FA
:0C3B2600DF91CF91EF90DF90CF900895D9
:103B3200990F0008550FAA0BE0E8FEEF16161706BC
:103B4200E807F907C0F012161306E407F50798F024
:103B5200621B730B840B950B39F40A2661F0232B3D
:103B6200242B252B21F408950A2609F4A140A695B9
:083B72008FEF811D811D0895F4
:103B7A000E94FD1F82B1877F82B988ED8EBD0DB488
:103B8A0007FEFDCF8EB58093550440E554E060E80A
:103B9A0080914E0490914F040E94BF1882B18860B0
:103BAA0082B96CEA74E080E00E94731D0E94591A7F
:063BBA000E940C2008959A
:103BC0000E9475200E946E1F0E94E01E0E945C1CD5
:103BD0000E94A71F0E94BA200E94EB1C6FE475E0B0
:103BE00080E00E94731D81E00E94B3170E94B32001
:103BF0002FEF81EE94E0215080409040E1F700C02B
:043C00000000EACF07
:103C0400CF92DF92EF926B01E82EF6015E2D0E94B7
:103C1400C120862FF901542F0E94C12086130BC0A6
:103C2400882341F08FEFC81AD80AE80A2F5F3F4F64
:103C34004F4FEBCF682F90E0861B9109EF90DF90F8
:043C4400CF90089580
:103C480057FD9058440F551F59F05F3F71F0479545
:103C5800880F97FB991F61F09F3F79F0879508952A
:103C6800121613061406551FF2CF4695F1DF08C049
:103C7800161617061806991FF1CF86957105610566
:043C880008940895FF
:103C8C0082B1877F82B980E18EBD0DB407FEFDCF76
:103C9C008EB5809355048AE18A95F1F700C040E512
:103CAC0054E060E880914E0490914F040E94BF183C
:103CBC0082B1886082B90E94591A0E940C20089522
:103CCC0082B1877F82B983E18EBD0DB407FEFDCF33
:103CDC008EB5809355048AE18A95F1F700C040E5D2
:103CEC0054E060E880914E0490914F040E94BF18FC
:103CFC0082B1886082B90E94591A0E948D1C089565
:103D0C00FA0160387105CCF0623871051CF063382B
:103D1C00710599F4A081B1819D012C5F3F4F3183D6
:103D2C0020834D915D916D917C91FC014083518379
:103D3C006283738381E090E0089580E090E00895C1
:103D4C0097FB10F8169400080F93083098F0085061
:103D5C00232F342F452F562F672F782F892F902DF7
:103D6C00F4CF0594979587957795679557954795D3
:0C3D7C00379527950A95AAF70F91089536
:103D88002F923F924F925F926F927F928F929F9263
:103D9800AF92BF92CF92DF92EF92FF920F931F9351
:103DA800CF93DF93CDB7DEB7CA1BDB0B0FB6F89402
:083DB800DEBF0FBECDBF199460
:103DC00087E690E09093C5008093C4008DB1826037
:103DD0008DB9E1ECF0E08081886080838DB18E7FC9
:103DE0008DB980818061808381B1846081B982B125
:063DF000846082B9089511
:103DF6002A88398848885F846E847D848C849B8475
:103E0600AA84B984C884DF80EE80FD800C811B8182
:103E1600AA81B981CE0FD11D0FB6F894DEBF0FBEB1
:063E2600CDBFED0108957F
:103E2C00A2E0B0E0ECE1FFE10C94D21E8C013A83ED
:103E3C0029839E012F5F3F4F0E94C802F801208109
:103E4C0024FF02C08FEF9FEF2296E4E00C94091F31
:103E5C00A2E0B0E0E4E3FFE10C94D21E8C013A83C3
:103E6C0029839E012F5F3F4F0E94C802F8012081D9
:103E7C0024FF02C08FEF9FEF2296E4E00C94091F01
:103E8C0097FB072E16F4009407D077FD09D00E94FB
:103E9C005A1F07FC05D03EF4909581959F4F0895CD
:083EAC00709561957F4F0895A8
:103EB400AA1BBB1B51E107C0AA1FBB1FA617B7074C
:103EC40010F0A61BB70B881F991F5A95A9F7809568
:083ED4009095BC01CD01089599
:103EDC0087B1806487B988B1806488B983B3816005
:103EEC0083BB84B3816084BB83B3826083BB84B3A4
:063EFC00826084BB089502
:103F0200A0E0B0E0E7E8FFE10C94D41E9E01255F3B
:103F12003F4F488559856A858E819F810E94512035
:063F2200E2E00C940B1F0D
:103F2800A0E0B0E0EAE9FFE10C94D41E9E01255F11
:103F38003F4F488559856A858E819F810E9445201B
:063F4800E2E00C940B1FE7
:103F4E0084B1866084B984B1877F84B984B181607D
:103F5E0084B985B1816085B98CB581658CBD8CB510
:043F6E008CBD089569
:103F72009B01482FA82FCB01FC015A2F0E94C12080
:103F8200662319F00196A11DF7CF642FA901841BA6
:043F9200950B0895EE
:103F960082B1877F82B98FEF8EBD0DB407FEFDCF4C
:103FA60082B1886082B969E574E080E00E94731D81
:023FB60008956C
:103FB800092E0394000C11F4882352F0BB0F40F42F
:103FC800BF2B11F460FF04C06F5F7F4F8F4F9F4F6F
:023FD80008954A
:103FDA00609570958095909530954095509521956E
:103FEA003F4F4F4F5F4F6F4F7F4F8F4F9F4F0895F8
:103FFA0082B1877F82B986E08EBD0DB407FEFDCF00
:0E400A008EB58093550482B1886082B9089506
:1040180082B1877F82B984E08EBD0DB407FEFDCFE3
:0E4028008EB58093550482B1886082B90895E8
:104036009A01462FDC01F901542F0E94C1206D938D
:0C4046002F5F3F4F4F4F6111F6CF0895E0
:10405200689401C0E8948F929F92CF93DF930E945D
:0C406200081ADF91CF919F908F90089575
:10406E00992777FD06C07BBF07900D920197E1F768
:0C407E00089501900D920197E1F708955C
:10408A000F931F9389019A01462F6FEF7FE70E94D2
:08409A00B6191F910F91089562
:1040A2000F931F9389019A01462F6FEF7FE70E94BA
:0840B20064191F910F9108959C
:1040BA000024A7FD00942A17300540055005600525
:0840CA007005800590050895C2
:1040D2000024A7FD00942A0F301D401D501D601DB5
:0840E200701D801D901D089562
:1040EA00E1E0F1E0808180668083E2E0F1E08081B6
:0640FA008066808308953A
:10410000EC010E940B210E940A21CE010E940C2189
:06411000CE010E9408210F
:10411600FC01480F591FE417F50711F06193FBCF17
:024126000895FA
:104128009C01215631092A31310510F48F759927E0
:024138000895E8
:10413A009C01215431092A31310508F4806208951D
:0E414A009091C00095FFFCCF8093C6000895B1
:0E4158008091C0008823E4F78091C60008958E
:0E416600E2E0F1E0908180E4892780830895F3
:0E417400E2E0F1E0908180E2892780830895E7
:0E41820057FD03C05BBF6791089560810895EB
:0E4190005058BB27AA270E9429160C94DC1F4A
:0E419E000E94BC1C6894B1110C94E520089599
:0E41AC0000240A941616170618060906089530
:0E41BA0000240A941216130614060506089532
:0E41C800E894BB2766277727CB0197F9089567
:0C41D60097F99F6780E870E060E00895B2
:0A41E2000E94991D08F481E0089581
:0A41EC000E94991D08F48FEF08955A
:0841F6000E947A140C94DC1FF6
:0841FE000E94BF150C94DC1FA8
:064206009FEF80EC08951B
:04420C000C9400000E
:044210000E94BB004D
:0242140008950B
:02421600089509
:02421800089507
:00000001FF
