:100000000C9485000C94F0120C94F0120C94F012E5
:100010000C94F0120C94F0120C94F0120C94F01258
:100020000C94F0120C94F0120C94F0120C94F01248
:100030000C94F0120C94F0120C94F0120C94F01238
:100040000C94F0120C94F0120C94F0120C94F01228
:100050000C94F0120C94F0120C94F0120C94F01218
:100060000C94F0120C94F0120C94F0120C94F01208
:100070000C94F0120C94F0120C94F0120C94F012F8
:100080000C94F0120C94F0120C94F0120C94F012E8
:100090000C94F0120C94F0120C94F0120C94F012D8
:1000A0000C94F0120C94F0120C94F0120C94F012C8
:1000B0000C94F0120C94F0120C94F0120C94F012B8
:1000C0000C94F0120C94F0120C94F0120C94F012A8
:1000D0000C94F0120C94F0120C94F0120C94F01298
:1000E0000C94F0120200042C80000C9414120C9456
:1000F000C1110C94E70A0C94B3010C944F090C94B1
:10010000B60B0C94D7070C94CC0511241FBECFEF6F
:10011000D1E2DEBFCDBF00E00CBFE4EEF0E040E096
:1001200019C0B791A79137912791079107FD0EC08C
:1001300097918791EF01F92FE82F0BBF07900D9250
:10014000A217B307D9F7FE011BBE04C01D92A21768
:10015000B307E1F7E93EF40721F70E94B0100C94D1
:06016000A512F894FFCF88
:10016600577269746520456E61626C65200A005796
:10017600726974652044697361626C65200A005275
:10018600656164204465766963652049443A204D7B
:100196006963726F6E2049442028307825303258C2
:1001A60029204465766963652049442028307825EE
:1001B60030325829200A0044657669636520526505
:1001C6007365746564200A0047657420466561742A
:1001D600757265733A2053746174757320436C6548
:1001E600617265642028307825303258292C202801
:1001F600307825303258290A0050726F6772616D67
:100206002045786563757465200A0050726F6772C1
:10021600616D204C6F6164200A0050616765205251
:10022600656164200A00426C6F636B2045726173DE
:1002360065200A00446174612052656365697665CC
:1002460064200A00526561642066726F6D20436106
:070256006368653A200A000D
:10025D005573657220496E7075743A0A00466C616B
:10026D007368204944004572617365204D656D6F5B
:10027D007279005772697465205465737400526504
:10028D006164204D656D6F727900506172616D65AD
:10029D007465722050616765004461746120526518
:1002AD006365697665643A2028307825303258299F
:1002BD00200A00526573657400312920466C617304
:1002CD0068204944200A0032292045726173652057
:1002DD004D656D6F7279200A00332920577269744C
:1002ED00652054657374200A0034292052656164B9
:1002FD00204D656D6F7279200A003529205061728D
:10030D00616D657465722050616765200A0036293C
:09031D00205265736574200A008A
:1003260068076C094C836A9074A07AC0008068885C
:0603360000846C820081CE
:10033C0041727261797320436C6561726564200A45
:01034C0000B0
:07034D00286E756C6C29009D
:06035400286E696C29000F
:10035A00A3EAB0E0E3EBF1E00C9469114C01590116
:10036A00C756DF4F488359836A83C959D040212C25
:10037A00312C6E012BE8C20ED11C85E2782E2601A3
:10038A0030E8632ECE018D569F4FC456DF4F9983B6
:10039A008883CC59D0409C0140E8CF55DF4F288351
:1003AA0039834A83C15AD040C756DF4F4881C95959
:1003BA00D040C656DF4FB881CA59D040C556DF4F24
:1003CA007881CB59D040E42FFB2F572F0E94E61299
:1003DA00662309F4D0C3CF57DF4F19821882C15858
:1003EA00D0408FEF9FEFCD57DF4F99838883C35853
:1003FA00D040CB57DF4F19821882C558D040E1E070
:10040A00F0E0EC0FFD1FC957DF4FF983E883C758A7
:10041A00D04020E830E0C757DF4F39832883C958D6
:10042A00D040842F9B2FA72FE12CF12CFC015A2FAF
:10043A000E94E61261111DC0E114F10411F1970145
:10044A005B2F672FC4010E94580FC756DF4F888160
:10045A009981AA81C959D0408E0D9F1DA11DF7FC13
:10046A00AA95C756DF4F88839983AA83C959D04072
:10047A0008C00196A11D6532F9F23FEFE31AF30AAB
:10048A00D5CFC756DF4F88819981AA81C959D040F3
:10049A00FC015A2F0E94E612653209F05AC39C01E8
:1004AA004A2F2F5F3F4F4F4FC256DF4F2883398362
:1004BA004A83CE59D040C756DF4F288339834A83AF
:1004CA00C959D040C756DF4F88819981AA81C95935
:1004DA00D040FC015A2F0E94E6126B3241F4CF57EA
:1004EA00DF4F28813981C158D04024600BC06C325B
:1004FA00CCF06D3259F5CF57DF4F28813981C15879
:10050A00D0402160CF57DF4F39832883C158D0406C
:10051A000196A11DC756DF4F88839983AA83C959BB
:10052A00D040D0CF603241F4CF57DF4F2881398194
:10053A00C158D0402860E6CF633291F4CF57DF4FDD
:10054A0028813981C158D0402061DCCF603341F421
:10055A00CF57DF4F28813981C158D0402260D2CF8E
:10056A006A3299F50196A11DC756DF4F8883998390
:10057A00AA83C959D040D501ED91FC911197CF01B9
:10058A0002968D939C9380819181CB57DF4F9983FB
:10059A008883C558D04097FF3FC0CF57DF4F288187
:1005AA003981C158D040B1E02B27CF57DF4F39836B
:1005BA002883C158D040919581959109CB57DF4F37
:1005CA0099838883C558D04027C0BC018A2F0E94CE
:1005DA006E0ECB57DF4F99838883C558D040C756D4
:1005EA00DF4F88819981AA81C959D040FC015A2FCD
:1005FA000E94E612062E000C770B605371096A30CE
:10060A00710550F40196A11DC756DF4F888399835F
:10061A00AA83C959D040E3CFCF57DF4F8881998148
:10062A00C158D04080FF07C08D7FCF57DF4F9983D5
:10063A008883C158D040C756DF4F88819981AA81E3
:10064A00C959D040FC015A2F0E94E6126E3209F0B5
:10065A0059C0CD57DF4F19821882C358D0409C0128
:10066A004A2F2F5F3F4F4F4FC756DF4F288339839B
:10067A004A83C959D040F901542F0E94E6126A32BE
:10068A00D1F40296A11DC756DF4F88839983AA83A6
:10069A00C959D040D501ED91FC911197CF0102962D
:1006AA008D939C9380819181CD57DF4F9983888365
:1006BA00C358D04027C0842FB9010E946E0ECD576F
:1006CA00DF4F99838883C358D040C756DF4F88814C
:1006DA009981AA81C959D040FC015A2F0E94E61279
:1006EA00062E000C770B605371096A30710550F4BD
:1006FA000196A11DC756DF4F88839983AA83C959DA
:10070A00D040E3CFCE0187569F4F0E94080C182F86
:10071A00C756DF4F9881C959D040C656DF4F8881E6
:10072A00CA59D040C556DF4F5881CB59D040E92F1E
:10073A00F82F0E94E612862F660F990B0E94C212AA
:10074A008936910509F45BC0B4F48336910509F43E
:10075A0069C144F48532910509F4A4C18136910531
:10076A0029F1B6C18436910509F449C08836910544
:10077A000CF42FC1ADC18037910509F4CDC04CF4FA
:10078A008E36910509F41BC18F36910509F47DC097
:10079A009FC18537910509F455C08837910509F439
:1007AA0097C08337910509F093C15BC1612F70E04F
:1007BA00A501C6010E94F110892B09F4BAC1C756D6
:1007CA00DF4F88819981AA81C959D0409C014A2F5B
:1007DA002F5F3F4F4F4FC756DF4F288339834A83D6
:1007EA00C959D040FC015A2F0E94E612262FA601B1
:1007FA00BE016F577F4FC4010E94ED1297C1612F4E
:10080A0070E0950141E050E0C6010E949008892BF2
:10081A0009F48FC1C756DF4F88819981AA81C959C6
:10082A00D0400196A11DC756DF4F88839983AA83BA
:10083A00C959D040A601BE016F577F4FC4010E941B
:10084A00D10774C1612F70E0950140E050E0C60104
:10085A000E949008892B09F46CC1C756DF4F888122
:10086A009981AA81C959D0400196A11DC756DF4F67
:10087A0088839983AA83C959D040A601BE016F57BC
:10088A007F4FC4010E94B00B51C1612F70E09501E6
:10089A0040E050E0C6010E949008892B09F449C142
:1008AA00C756DF4F88819981AA81C959D0400196DC
:1008BA00A11DC756DF4F88839983AA83C959D0409F
:1008CA00A601BE016F577F4FC4010E94E10A2EC1E3
:1008DA00612F70E0950140E050E0C6010E94900847
:1008EA00892B09F426C1C756DF4F88819981AA81CD
:1008FA00C959D0409C014A2F2F5F3F4F4F4FC756CF
:10090A00DF4F288339834A83C959D040FC015A2FC3
:10091A000E94E612262F4BC0950140E050E060EF9E
:10092A0070E0C6010E949008892B09F402C1C756DB
:10093A00DF4F88819981AA81C959D0400196A11DAA
:10094A00C756DF4F88839983AA83C959D04086E066
:10095A0024E533E040E0F901DE01AD56BF4F742FC4
:10096A000E947412D6012C9111963C9111971296FD
:10097A004C91129713965C91139714966C91149755
:10098A0015967C91159716968C91169717969C91A9
:10099A00A0E00E948E1251F400E010E0CF55DF4F24
:1009AA00288139814A81C15AD040BAC028E7A601B4
:1009BA00BE016F577F4FC4010E94C605B7C0612FA1
:1009CA0070E09501A1014E0D5F1DC6010E94750AD6
:1009DA00B0C0612F70E0A501C6010E94F110892BF9
:1009EA0009F4A7C0C756DF4F88819981AA81C959DE
:1009FA00D0409C014A2F2F5F3F4F4F4FC756DF4FC2
:100A0A00288339834A83C959D040FC015A2F0E944E
:100A1A00E612262FA601BE016F577F4FC4010E941E
:100A2A00ED1284C0103809F084C0C756DF4F8881A0
:100A3A009981AA81C959D0400196A11DC756DF4F95
:100A4A0088839983AA83C959D040D501ED91FC9135
:100A5A001197CF0102968D939C938081F601808332
:100A6A005BC0103809F065C0C756DF4F888199818D
:100A7A00AA81C959D0400196A11DC756DF4F888364
:100A8A009983AA83C959D040D501ED91FC91119758
:100A9A00CF0103968D939C9320813181428100E09E
:100AAA0010E03EC0103809F044C0C756DF4F8881B5
:100ABA009981AA81C959D0400196A11DC756DF4F15
:100ACA0088839983AA83C959D040F601708224C0C9
:100ADA00D6017C92C256DF4F288139814A81CE598C
:100AEA00D040C756DF4F288339834A83C959D0403B
:100AFA00CF57DF4F19821882C158D040CB57DF4FEA
:100B0A0019821882C558D0408FEF9FEFCD57DF4F1B
:100B1A0099838883C358D04001E010E0462D9201A2
:100B2A00BE016F577F4FC4010E944B0B8E0D9F1D54
:100B3A0011C0C756DF4F88819981AA81C959D0400F
:100B4A000196A11DC756DF4F88839983AA83C95985
:100B5A00D040C7017101E80EF91EE214F3044CF407
:100B6A008FE490E090932904809328048FEF9FEFFD
:100B7A0003C0170119CCC101CD55DF4FE2E10C9436
:020B8A00A011B8
:100B8C00A4E1B0E0ECECF5E00C94691198878F834C
:100B9C007A8369835C8B4B8B122FDB011296ED9160
:100BAC00FC91139714962D913C9115973E832D83B0
:100BBC00ED90FC90119716962D903C901797F7FDA1
:100BCC0003C0E894E1F802C0E1E0F0E0C7018071F5
:100BDC0099279A878987E4FE1FC0AB89BC892C9121
:100BEC0011963C91119712964C91129713965C9119
:100BFC00139714966C91149715967C9115971696DD
:100C0C008C91169717969C91A0E00E948E1221F061
:100C1C008D819E81029702C08D819E8197012870E3
:100C2C0033273C872B87E3FC0197AB89BC894C901D
:100C3C0011965C90119712966C90129713967C906B
:100C4C00139714968C90149715969C90159716964E
:100C5C00AC9016971796BC90A981BA811896CD9036
:100C6C00DC901997B1E0CB1AD108D101AC0DBD1DA8
:100C7C001C929C838B839F01281B390B3E872D87ED
:100C8C00C70182709927988B8F87812F012E000CBA
:100C9C00990BDC01A154B109BA8BA98B32E0C316B4
:100CAC00D10434F489859A85892B09F04CC073C022
:100CBC009201A301B401C501A0E00E948E1281F142
:100CCC00B1E0CB1AD108C2018F7099278A309105F7
:100CDC0014F4C09602C0895A9F4FE989FA897A9711
:100CEC0048F49C012062215631092A31310510F457
:100CFC000E94B912F101EC0DFD1D80832B813C810A
:100D0C00215031093C832B839201A301B401C5010D
:100D1C0004E00E94311129013A014B015C01BECF64
:100D2C008D859E85AB81BC818A0F9B1F1816190679
:100D3C003CF21A161B060CF0B5CFEF85F889EF2B99
:100D4C0009F0BECFAFCFAB89BC892C9111963C91E9
:100D5C00119712964C91129713965C9113971496C7
:100D6C006C91149715967C91159716968C911697F5
:100D7C0017969C91A0E00E948E1269F0F101EC0D87
:100D8C00FD1D31971083B2E0CB1AD108F101EC0DA7
:100D9C00FD1D80E38083EB85FC85EF2B41F0F1E0BA
:100DAC00CF1AD108F101EC0DFD1D80E28083A981E1
:100DBC00BA8118962D913C911997215031092C1913
:100DCC003D09C20CD31CA60160E80D811E818F81E8
:100DDC0098850E94EE099C01EF81F88580819181B4
:100DEC0090FF09C0A981BA8112968D919C9113979D
:100DFC00821793070CF4C9016496E2E10C94A011DC
:100E0C00CF92DF92EF920F931F93CF93DF936B01EF
:100E1C00E82E2AE632E040E00E948E10892B29F45D
:100E2C000E94280E0E946C10AEC023E732E040E016
:100E3C008E2DB6010E948E10892B49F41092260437
:100E4C00109225040E946C100E94D1109CC020E8C6
:100E5C0032E040E08E2DB6010E948E10892B99F461
:100E6C0010922604109225040E946C100E94ED0E24
:100E7C0060E072E080E80E9446108AE00E94CA128C
:100E8C000E94B40E80C02BE832E040E08E2DB601FB
:100E9C000E948E10892B89F410922604109225043E
:100EAC000E946C100E941D106DE173E080E80E949E
:100EBC0046108AE00E94CA1266C027E932E040E080
:100ECC008E2DB6010E948E10892B89F582E090E060
:100EDC0090932604809325040E946C100E94F10FBD
:100EEC0000E010E020C0F801E35EFC4F80811F920F
:100EFC008F9386EA92E0A0E0AF939F938F93CEEF0F
:100F0C00D2E0DF93CF930E940E12BE0180E80E94C4
:100F1C0046100F5F1F4F8DB79EB707960FB6F8940C
:100F2C009EBF0FBE8DBF0E3F1105E8F22CC020EC0A
:100F3C0032E040E08E2DB6010E948E10892B29F4F0
:100F4C000E946C100E9445121EC066EC72E080E09C
:100F5C000E94461064ED72E080E00E94461066EE3E
:100F6C0072E080E00E94461066EF72E080E00E9422
:100F7C00461067E073E080E00E9446106BE173E07E
:100F8C0080E00E944610DF91CF911F910F91EF905E
:060F9C00DF90CF900895E4
:100FA200ADE0B0E0E7EDF7E00C9469119A8789872C
:100FB2007C836B83FA01DB011296CD90DC90139750
:100FC20014968D919C9115979E838D83ED90FC9044
:100FD2001197FA82E98216960D90BC91A02DB887DE
:100FE200AF83208031804280538064807580868008
:100FF20097808101B42DF52DE62D7B868C869D860A
:101002009101A201B301C401A0E00E948E124CF42E
:101012000E9456128901B42FF52FE62F7B878C8709
:101022009D87D7FC04C0E894E1F8FA82E982910135
:10103200A201B301C401A0E0ED80FE800E948E12E5
:101042001CF0898182FF04C081E0E81AF10805C022
:1010520083FF03C091E0E91AF108CE0101965C0119
:101062008AE0C82ED12C2B2F3F2F4E2F5B856C850B
:101072007D858B819C810E944909FC019101A2011D
:10108200B301C401A0E00E948E121CF0898182FF8C
:1010920012C031970F8118850E0F1F1F9101A201F7
:1010A200B301C401A0E00E948E1214F08BE201C0D1
:1010B2008DE2D80108C083FF07C03197AF81B885A0
:1010C200AE0FBF1F80E28C93E980FA80AB81BC81B6
:1010D20018962D913C911997215031092E1B3F0BE7
:1010E2008F819885E80FF91FAF0160E80D811E819D
:1010F20089859A850E94EE099C01A985BA858D9100
:101102009C9190FF07C0EB81FC81828193818217C1
:0E11120093070CF4C9012D96E2E10C94A01194
:101120000F931F93CF93DF93FC01D90168387105AA
:1011300031F194F461387105B1F12CF46038710526
:1011400009F478C09FC06238710509F459C0643849
:10115000710509F46FC096C0603A710509F448C082
:101160002CF46039710509F44BC08CC0603C7105EA
:1011700009F476C0603F710509F472C083C0CD9157
:10118000DC911197CE0102968D939C93452B39F0FB
:101190009881892F880F880B908381835BC0888119
:1011A0008083118268C0CD91DC911197CE010496A5
:1011B0008D939C93452B99F088819981AA81BB815D
:1011C000AC01BD01770F440B542FBA01808391838A
:1011D000A283B383448345834683478328C0088121
:1011E00019812A813B81008311832283338345C087
:1011F000CD91DC911197CE0102968D939C9323C0E3
:10120000CD91DC911197CE0108968D939C937881B6
:1012100069815A814B813C812D819E818F817083B0
:10122000618352834383348325839683878381E05C
:1012300090E02AC0CD91DC911197CE0102968D935A
:101240009C93452BA1F099812881892F880F880BC9
:101250002083918382838383848385838683E6CFFF
:10126000CD91DC911197CE0102968D939C930881CC
:1012700019810083118312821382148215821682CF
:101280001782D5CF80E090E0DF91CF911F910F9131
:021290000895BF
:10129200A2E1B0E0EFE4F9E00C946911FC010A8BE1
:1012A2001B832C83732E642E552E462E7D83CC8673
:1012B200D886BF82AE82868197819B878A87D50135
:1012C2004D915C91228133818085918501971C012A
:1012D20037FF02C021E030E0EA85FB85E80FF91F05
:1012E20010824701E1E0F0E0FA83E983C9018E1937
:1012F2009F099E878D87DA01A270BB27B88BAF87C3
:10130200B885BB0FBB0BB98B1214130474F0A981FF
:10131200BA81AB2B09F05CC0AE81BF818D919C91EB
:1013220011978F7E8D939C9353C02A893B814C8168
:10133200572D662D752D842D9D81A0E00E948E1261
:10134200B1F1E1E02E1A3108FC85F987AF2EB8849D
:10135200C988DC2CEC2CFC2C0C2D1C2D2A893B8101
:101362004C81572D662D752D842D9D810E9466120C
:10137200C90129839A83EA85FB85E20DF31D805D0D
:10138200808381E0881A91082A893B814C81572DFC
:10139200662D752D842D9D810E9468122A8B3B83B8
:1013A2004C83752E662E572E482E9D83ADCF8D858C
:1013B2009E85880D991D181619061CF21814190419
:1013C2000CF0A5CFEF85F889EF2B09F0BACF9FCFAC
:0A13D200C1016296E2E10C94A01143
:1013DC002F923F924F926F927F928F92AF92BF92C9
:1013EC00CF92DF92EF92FF920F931F93CF93DF93E5
:1013FC00CDB7DEB766970FB6F894DEBF0FBECDBF84
:10140C005C013A01862E6901C701817099279C8B7A
:10141C008B8BE0FC1DC020173107D4F47801EC183D
:10142C00FD08FE8AED8AA70191E1E916F10410F09E
:10143C0040E150E060E270E0CE0101969A8B898B1E
:10144C000E94B01289899A891C0120E8422E0BC097
:10145C009601682DA301C5010E94580FC016D10634
:10146C00ECF2C60125C090E1E916F10458F020E138
:10147C0030E0642DA101C5010E94580F80E1E81AEB
:10148C00F108F1CF2D893E892F70332789899A89EC
:10149C00AC0160E8C5010E94580F8B899C89892B8F
:1014AC0031F49601682DA301C5010E94580FC801A3
:1014BC0066960FB6F894DEBF0FBECDBFDF91CF910D
:1014CC001F910F91FF90EF90DF90CF90BF90AF9056
:0E14DC008F907F906F904F903F902F900895CB
:1014EA00CF93DF93DC01F90164387105D9F164F413
:1014FA006138710521F16238710509F440C060381C
:10150A00710509F054C02EC060397105C1F184F427
:10151A006838710509F04BC0C081D181CE010296AD
:10152A0091838083E881F981ED93FC9340833CC0E9
:10153A00603A7105B9F0603C7105A1F038C0C0810C
:10154A00D181CE01029691838083E881F981ED935E
:10155A00FC93052E000C660B770B40835183628344
:10156A00738322C0C081D181CE0102969183808388
:10157A00E881F981ED93FC935183408315C0C081C2
:10158A00D181CE01029691838083E881F981ED931E
:10159A00FC9351834083852F880F880B8283838332
:1015AA00848385838683878381E090E002C080E01C
:0815BA0090E0DF91CF9108954C
:1015C200A2E0B0E0E7EEFAE00C9469111C014B01D5
:1015D200FA01DB0112962D913C91139714964D90CE
:1015E2005C9015978D919C9111979A838983169699
:1015F2006D907C90179737FD03C08D7F9A83898306
:1016020000811181228133814481558166817781F4
:10161200FE0131965F0188E0C82ED12C7201C4010F
:101622000E944909298124FF06C00197F301E80FAE
:10163200F91F20E32083298123FF06C00197F301CC
:10164200E80FF91F20E22083E980FA80D40118967E
:101652002D913C91199721503109281B390B860D88
:10166200971DAC0160E88201C1010E94EE099C0154
:10167200F1018081918190FF08C0D40112968D9171
:101682009C911397821793070CF4C9012296E2E109
:041692000C94A01103
:101696002F923F924F926F927F928F92AF92BF920C
:1016A600CF92DF92EF92FF920F931F93CF93DF9328
:1016B600CDB7DEB727970FB6F894DEBF0FBECDBF06
:1016C6006C017B013901842E98018DE4282E83E07C
:1016D600382E80E0482E87E0F101AE014F5F5F4F64
:1016E600DA01742D0E947412F70102811381A4801D
:1016F600B580E080F18061147104810419F43A0127
:10170600F0E88F2E2115310529F4882DB3010E94AA
:1017160033129C0117FD04C00217130708F4980141
:101726008501682DA301C6010E94EE0927960FB612
:10173600F894DEBF0FBECDBFDF91CF911F910F9101
:10174600FF90EF90DF90CF90BF90AF908F907F90FB
:0A1756006F904F903F902F90089580
:10176000A2E0B0E0E6EBFBE00C9469113C014B0118
:10177000FA01DB0112962D913C91139714964D902E
:101780005C9015978D919C9111979A8389831696F9
:101790002D903C90179737FD03C08D7F9A838983E6
:1017A0000081118122813381448155816681778155
:1017B000FE0131965F018AE0C82ED12C7201C4016E
:1017C0000E944909E980FA80D40118962D913C9134
:1017D000199721503109281B390B820D931DAC013B
:1017E00060E88201C3010E94EE099C01F30180813F
:1017F000918190FF08C0D40112968D919C9113970E
:10180000821793070CF4C9012296E2E10C94A0110F
:10181000CF92DF92EF92DC0190E0292F30E0220F8F
:10182000331F6901032E000CEE086E2DA6014A5DE0
:101830005C4F6F4F6A01E62EFA015E2D0E94E612A0
:10184000862F61110EC02F5F3F4F032E000C440BFB
:101850002A5D3C4F4F4FF901542F0E94E612862F0C
:1018600025C0CD90DD90EC901297F6015E2D0E9480
:10187000E612861316C02F5F3F4F032E000C440B59
:101880002A5D3C4F4F4FF901542F0E94E612962FCC
:101890005FEFC51AD50AE50ACD92DD92EC92129758
:1018A00001C09F5F9B3008F4B8CF892FEF90DF9085
:0418B000CF90089538
:1018B4006F927F928F92EF92FF920F931F93CF9329
:1018C400DF93CDB7DEB761970FB6F894DEBF0FBED6
:1018D400CDBFFE01319651E1DF011D925A95E9F722
:1018E400A2E0B1E0BA83A9839C838B8377FF09C00C
:1018F4008FE490E090932904809328048FEF9FEF66
:1019040019C03901842E7C01615071097F836E8373
:101914009801682DA301CF010E94BB114885598508
:101924002E813F814217530708F49A01F701E20F11
:10193400F31F108261960FB6F894DEBF0FBECDBFC1
:10194400DF91CF911F910F91FF90EF908F907F9037
:041954006F900895F3
:1019580088249924F401E401B0E49F93AA279A15F6
:101968008B049C04ED05FE05CF05D007A10798F46C
:10197800AD2FDC2FCF2FFE2FE92D982C892E982FF5
:10198800872F762F652F542F432F322F2227B850B9
:1019980031F7BF9127C01B2EBF91BB27220F331FE2
:1019A800441F551F661F771F881F991F881C991C85
:1019B800EE1FFF1FCC1FDD1FAA1FBB1F8A149B042D
:1019C800EC05FD05CE05DF05A007B10748F08A182C
:1019D8009B08EC09FD09CE09DF09A00BB10B2160BA
:1019E8001A94E1F62EF49401AF01BE01CD01000C6A
:0219F800089550
:1019FA00CF92DF92EF926DE572E080E00E9446108E
:101A0A000E94D11280931C031CC020912A04309199
:101A1A002B04F901E050FE4F80832E3F310520F060
:101A2A0010922B0410922A0480912A0490912B047C
:101A3A00019690932B0480932A040E94D1128093DA
:101A4A001C0380911C038D3011F08A30F1F6E0916D
:101A5A002A04F0912B04E050FE4F108210922B04BE
:101A6A0010922A0480E092E06C0120E8E22E8E2D8A
:101A7A00B6010E9446108AE00E94CA128E2DB60153
:0C1A8A000E940607EF90DF90CF900895B7
:101A9600CF93DF9382B1877F82B98FE08EBD0DB47D
:101AA60007FEFDCF8EB58093270480EC8EBD0DB466
:101AB60007FEFDCF8EB58093270480E090E00AC034
:101AC6001EBC0DB407FEFDCF2EB5FC01E55EFB4F37
:101AD60020830196823091059CF382B1886082B999
:101AE600EBE1F4E0918180811F929F931F928F9387
:101AF6008EEC91E0A0E0AF939F938F93CEEFD2E070
:101B0600DF93CF930E940E12BE0180E80E9446101A
:101B16008DB79EB709960FB6F8949EBF0FBE8DBFC0
:061B2600DF91CF9108954C
:101B2C000097A9F41EBC0DB407FEFDCF2EB5209373
:101B3C0027041EBC0DB407FEFDCF2EB52093270441
:101B4C001EBC0DB407FEFDCF2EB5209327048130AB
:101B5C009105B1F41EBC0DB407FEFDCF2EB520933C
:101B6C0027041EBC0DB407FEFDCF2EB52093270411
:101B7C0021E02EBD0DB407FEFDCF2EB5209327041A
:101B8C000297B1F41EBC0DB407FEFDCF8EB5809349
:101B9C0027041EBC0DB407FEFDCF8EB58093270421
:101BAC0081E08EBD0DB407FEFDCF8EB5809327046A
:021BBC0008958A
:101BBE000F931F93CF93DF93DB012D913C911197E0
:101BCE0030FF25C017964D915C91189715962D9163
:101BDE003C9116974217530778F41296ED91FC91AB
:101BEE001397808312962D913C9113972F5F3F4F41
:101BFE0013963C932E93129717962D913C9118970E
:101C0E002F5F3F4F18963C932E93179715C01D9636
:101C1E00ED91FC911E97309719F48FEF9FEF0CC04A
:101C2E008B01EC011995892BC1F7F80187819085FD
:101C3E00019690878783CE01DF91CF911F910F91EF
:021C4E000895F7
:101C5000CF93DF9382B1877F82B98FE98EBD0DB4B8
:101C600007FEFDCF8EB5809327041EBC0DB407FE82
:101C7000FDCF8EB5809327041EBC0DB407FEFDCFAB
:101C80008EB580931B041EBC0DB407FEFDCF9EB520
:101C9000EBE1F4E0918382B1886082B980811F9288
:101CA0009F931F928F9385E891E0A0E0AF939F935D
:101CB0008F93CEEFD2E0DF93CF930E940E12BE013E
:101CC00080E80E9446108DB79EB709960FB6F8942B
:0C1CD0009EBF0FBE8DBFDF91CF91089525
:101CDC00CF939B01482FF901542F0E94E6126032DA
:101CEC00B9F1862F062E000C990B0997059780F1F8
:101CFC006B3249F5A0E0B0E02F5F3F4F4F4F02C071
:101D0C00A0E0B0E080E090E0CAE0F901542F0E941E
:101D1C00E612062E000C770B605371096A307105C0
:101D2C0060F4C89FF001C99FF00D11242F5F3F4F45
:101D3C004F4FCF01861B970BE8CFAB2B69F49195D6
:101D4C008195910909C06D32D9F6A1E0B0E0D4CFEC
:0C1D5C002F5F3F4F4F4FBFCFCF91089536
:101D6800CF93DF930E94D31182B1877F82B982E03B
:101D78008EBD0DB407FEFDCF8EB5809327048091EC
:101D88002504909126040E948D0FC0E0D0E00CC07D
:101D9800FE01E050FE4F80818EBD0DB407FEFDCFE1
:101DA8008EB580932704219660E072E080E80E9457
:101DB8003312C817D90760F382B1886082B961E12C
:101DC80072E080E00E9446100E941111DF91CF91CD
:021DD80008956C
:101DDA006DE572E080E00E9446100E94D112809365
:101DEA001C031CC020912A0430912B04F901E050F5
:101DFA00FE4F80832E3F310520F010922B04109263
:101E0A002A0480912A0490912B04019690932B0422
:101E1A0080932A040E94D11280931C0380911C0390
:101E2A008D3001F7E0912A04F0912B04E050FE4F27
:0C1E3A00808310922B0410922A0408955B
:101E4600CF93DF93EC01892BA9F019C01EBC0DB40A
:101E560007FEFDCF2EB5FC01E35EFC4F20832EB5B9
:101E66002D3031F46AE372E080E00E94461007C02C
:101E7600019602C080E090E08E3F910538F32297EC
:101E860089F40BC01EBC0DB407FEFDCF2EB5FC01B8
:101E9600E35EFC4F2083019602C080E090E08E3F17
:0A1EA600910580F3DF91CF910895BC
:101EB0006F927F928F92CF92DF92EF920F931F9348
:101EC000CF93DF938C016A01E62EE9013A01862E59
:101ED000620E731E811C37FD8A94C614D704E80471
:101EE00081F0F6015E2D0E94E612862FB801082EC1
:101EF000000C990B0E94DF0D8FEFC81AD80AE80A70
:101F0000ECCFCE01DF91CF911F910F91EF90DF9039
:0A1F1000CF908F907F906F9008959E
:101F1A00009779F420E12EBD0DB407FEFDCF2EB552
:101F2A00209327041EBC0DB407FEFDCF2EB52093C7
:101F3A0027048130910571F41EBC0DB407FEFDCF54
:101F4A002EB520931B041EBC0DB407FEFDCF2EB583
:101F5A0020931C04029771F41EBC0DB407FEFDCF3A
:101F6A008EB580931B041EBC0DB407FEFDCF8EB543
:061F7A0080931C04089591
:101F800081B1886081B982B1886082B981B1806194
:101F900081B982B1806182B981B1806281B982B137
:101FA000806282B981B1806481B982B1806482B972
:101FB00081B1806881B982B1806882B981B1826063
:101FC00081B982B1826082B981B1846081B982B104
:101FD000846082B981B1886081B982B1886082B938
:021FE000089562
:101FE20082B1877F82B98FE18EBD0DB407FEFDCF2E
:101FF20080EB8EBD0DB407FEFDCF80E48EBD0DB427
:1020020007FEFDCF82B1886082B90E941D1082B1A5
:10201200877F82B98FE18EBD0DB407FEFDCF80EBC5
:102022008EBD0DB407FEFDCF1EBC0DB407FEFDCF65
:0820320082B1886082B90895B3
:10203A000E944D1182B1877F82B98BE08EBD0DB4AB
:10204A0007FEFDCF8EB580932704809125049091D9
:10205A0026040E948D0F1EBC0DB407FEFDCF8EB55F
:10206A008093270480912504909126040E94230FCF
:10207A0082B1886082B96AE472E080E00E94461008
:02208A000895B7
:10208C00CF92DF92EF92CF93DF936B01E82EC0E0FB
:10209C00D0E00FC0AE2DC6018C0F9D1FA11DD7FD2A
:1020AC00AA95FC015A2F0E94E612862F0E94CA1292
:1020BC0021968E2DB6010E943312C817D90750F302
:0C20CC00DF91CF91EF90DF90CF9008954E
:1020D80080E090E005C0FC01E55EFB4F10820196B0
:1020E8008A309105C0F380E090E005C0FC01E35E12
:1020F800FC4F108201968E3F9105C0F380E090E07E
:1021080005C0FC01E050FE4F108201968E3F9105FC
:04211800C0F3089573
:10211C00CF92DF92EF926B01E82EF6015E2D0E94BA
:10212C00E612862FF901542F0E94E61286130BC07B
:10213C00882341F08FEFC81AD80AE80A2F5F3F4F67
:10214C004F4FEBCF682F90E0861B9109EF90DF90FB
:04215C00CF90089583
:102160000E949A120E94FB110E9485110E94C00FCA
:102170000E9421120E94DF120E946C106CE373E037
:1021800080E00E9446100E94FD0C0E94D8122FEFA2
:1021900081EE94E0215080409040E1F700C00000C3
:0221A000EBCF83
:1021A2000E94D31182B1877F82B988ED8EBD0DB4B2
:1021B20007FEFDCF8EB58093270480912504909170
:1021C20026040E94960D82B1886082B96CE272E0A8
:1021D20080E00E9446100E944B0D0E94E711089574
:1021E200FA0160387105CCF0623871051CF0633871
:1021F200710599F4A081B1819D012C5F3F4F31831C
:1022020020834D915D916D917C91FC0140835183BE
:102212006283738381E090E0089580E090E0089506
:1022220082B1877F82B980E18EBD0DB407FEFDCFFA
:102232008EB58093270480912504909126040E94F4
:10224200960D82B1886082B96FEF71E080E00E94E2
:0C22520046100E944B0D0E94E7110895F9
:10225E0097FB10F8169400080F93083098F008506A
:10226E00232F342F452F562F672F782F892F902D00
:10227E00F4CF0594979587957795679557954795DC
:0C228E00379527950A95AAF70F9108953F
:10229A0082B1877F82B983E18EBD0DB407FEFDCF7F
:1022AA008EB58093270480912504909126040E947C
:1022BA00960D82B1886082B90E944B0D60E272E08D
:0822CA0080E00E944610089517
:1022D2002F923F924F925F926F927F928F929F9234
:1022E200AF92BF92CF92DF92EF92FF920F931F9322
:1022F200CF93DF93CDB7DEB7CA1BDB0B0FB6F894D3
:08230200DEBF0FBECDBF199430
:10230A0087E690E09093C5008093C4008DB1826007
:10231A008DB9E1ECF0E08081886080838DB18E7F99
:10232A008DB980818061808381B1846081B982B1F5
:06233A00846082B90895E1
:102340002A88398848885F846E847D848C849B8445
:10235000AA84B984C884DF80EE80FD800C811B8153
:10236000AA81B981CE0FD11D0FB6F894DEBF0FBE82
:06237000CDBFED01089550
:10237600A2E0B0E0E1ECF1E10C9477118C013A8334
:1023860029839E012F5F3F4F0E94AD01F8012081F6
:1023960024FF02C08FEF9FEF2296E4E00C94AE116B
:1023A60082B1877F82B986E08EBD0DB407FEFDCF70
:1023B6008EB58093270482B1886082B966E671E0A3
:0823C60080E00E94461008951A
:1023CE0082B1877F82B984E08EBD0DB407FEFDCF4A
:1023DE008EB58093270482B1886082B965E771E07B
:0823EE0080E00E9446100895F2
:1023F60087B1806487B988B1806488B983B3816006
:1024060083BB84B3816084BB83B3826083BB84B3A4
:06241600826084BB089502
:10241C00A0E0B0E0E4E1F2E10C9479119E01255FBB
:10242C003F4F488559856A858E819F810E94821213
:06243C00E2E00C94B01177
:1024420084B1866084B984B1877F84B984B18160A4
:1024520084B985B1816085B98CB581658CBD8CB537
:042462008CBD089590
:102466009B01482FA82FCB01FC015A2F0E94E61290
:10247600662319F00196A11DF7CF642FA901841BCD
:04248600950B089515
:10248A0082B1877F82B98FEF8EBD0DB407FEFDCF73
:10249A0082B1886082B96DEB71E080E00E944610DB
:0224AA00089593
:1024AC0060957095809590953095409550952195B7
:1024BC003F4F4F4F5F4F6F4F7F4F8F4F9F4F089541
:1024CC00689401C0E8948F929F92CF93DF930E94FF
:0C24DC00AC0CDF91CF919F908F90089581
:1024E800992777FD06C07BBF07900D920197E1F70A
:0C24F800089501900D920197E1F70895FE
:102504000F931F9389019A01462F6FEF7FE70E9473
:082514005A0C1F910F9108956C
:10251C000024A7FD00942A173005400550056005DE
:08252C0070058005900508957B
:10253400E1E0F1E0808180668083E2E0F1E0808187
:062544008066808308950B
:10254A00EC010E94F5120E94F412CE010E94F612CA
:06255A00CE010E94F21206
:10256000FC01480F591FE417F50711F06193FBCFE9
:022570000895CC
:102572009C01215631092A31310510F48F759927B2
:022582000895BA
:102584009C01215431092A31310508F480620895EF
:0E2594009091C00095FFFCCF8093C600089583
:0E25A2008091C0008823E4F78091C600089560
:0E25B000E2E0F1E0908180E4892780830895C5
:0E25BE00E2E0F1E0908180E2892780830895B9
:0E25CC0057FD03C05BBF6791089560810895BD
:0625DA0080E090E008958E
:0425E0000C94000057
:0425E4000E94B100A0
:0225E800089554
:0225EA00089552
:0225EC00089550
:00000001FF
