:100000000C9485000C946E130C946E130C946E1368
:100010000C946E130C946E130C946E130C946E135C
:100020000C946E130C946E130C946E130C946E134C
:100030000C946E130C946E130C946E130C946E133C
:100040000C946E130C946E130C946E130C946E132C
:100050000C946E130C946E130C946E130C946E131C
:100060000C946E130C946E130C946E130C946E130C
:100070000C946E130C946E130C946E130C946E13FC
:100080000C946E130C946E130C946E130C946E13EC
:100090000C946E130C946E130C946E130C946E13DC
:1000A0000C946E130C946E130C946E130C946E13CC
:1000B0000C946E130C946E130C946E130C946E13BC
:1000C0000C946E130C946E130C946E130C946E13AC
:1000D0000C946E130C946E130C946E130C946E139C
:1000E0000C946E130200042C80000C9492120C9459
:1000F0003F120C945D0B0C94ED010C94C5090C940B
:100100002C0C0C944D080C94060611241FBECFEF46
:10011000D1E2DEBFCDBF00E00CBFE4EEF0E040E096
:1001200019C0B791A79137912791079107FD0EC08C
:1001300097918791EF01F92FE82F0BBF07900D9250
:10014000A217B307D9F7FE011BBE04C01D92A21768
:10015000B307E1F7E93EF40721F70E944C110C9434
:060160002313F894FFCF09
:100166005573657220496E7075743A0A00466C6163
:100176007368204944004572617365204D656D6F53
:1001860072790057726974652054657374005265FC
:100196006164204D656D6F727900506172616D65A5
:1001A60074657220506167650025692D3E4461744F
:1001B600612052656365697665643A202830782542
:1001C60030325829200A00526573657400466C6106
:1001D60073682053746174757300426C6F636B208F
:1001E600436865636B657200426C6F636B203135E3
:1001F600206973206D61726B6564206261640A0018
:10020600426C6F636B20313520617070656172736B
:1002160020636C65616E0A00312920466C61736843
:10022600204944200A003229204572617365204D19
:10023600656D6F7279200A003329205772697465DB
:100246002054657374200A003429205265616420A5
:100256004D656D6F7279200A0035292050617261F3
:100266006D657465722050616765200A0036292025
:10027600466C61736820537461747573200A003785
:100286002920426C6F636B20436865636B6572203F
:100296000A003829205265736574200A002D3E55E0
:0C02A60073657220496E7075743A0A008E
:1002B200577269746520456E61626C65200A005749
:1002C200726974652044697361626C65200A005228
:1002D200656164204465766963652049443A204D2E
:1002E2006963726F6E204944202830782530325875
:1002F20029204465766963652049442028307825A1
:1003020030325829200A00446576696365205265B7
:100312007365746564200A004765742046656174DC
:10032200757265733A20537461747573202830783E
:1003320025303258290A0050726F6772616D20456C
:10034200786563757465200A0050726F6772616D1B
:10035200204C6F6164200A0050616765205265611C
:1003620064200A00426C6F636B20457261736520E2
:100372000A00446174612052656365697665642090
:100382000A00526561642066726F6D204361636882
:05039200653A200A009D
:1003970068076C094C836A9074A07AC000806888EB
:0603A70000846C8200815D
:1003AD002D3E41727261797320436C656172656493
:0303BD00200A0013
:0703C000286E756C6C29002A
:0603C700286E696C29009C
:1003CE00A3EAB0E0EDEEF1E00C94E7114C01590117
:1003DE00C756DF4F488359836A83C959D040212CB1
:1003EE00312C6E012BE8C20ED11C85E2782E26012F
:1003FE0030E8632ECE018D569F4FC456DF4F998342
:10040E008883CC59D0409C0140E8CF55DF4F2883DC
:10041E0039834A83C15AD040C756DF4F4881C959E4
:10042E00D040C656DF4FB881CA59D040C556DF4FAF
:10043E007881CB59D040E42FFB2F572F0E946413A5
:10044E00662309F4D0C3CF57DF4F19821882C158E3
:10045E00D0408FEF9FEFCD57DF4F99838883C358DE
:10046E00D040CB57DF4F19821882C558D040E1E0FB
:10047E00F0E0EC0FFD1FC957DF4FF983E883C75833
:10048E00D04020E830E0C757DF4F39832883C95862
:10049E00D040842F9B2FA72FE12CF12CFC015A2F3B
:1004AE000E94641361111DC0E114F10411F1970152
:1004BE005B2F672FC4010E94CD0FC756DF4F888177
:1004CE009981AA81C959D0408E0D9F1DA11DF7FC9F
:1004DE00AA95C756DF4F88839983AA83C959D040FE
:1004EE0008C00196A11D6532F9F23FEFE31AF30A37
:1004FE00D5CFC756DF4F88819981AA81C959D0407F
:10050E00FC015A2F0E946413653209F05AC39C01F4
:10051E004A2F2F5F3F4F4F4FC256DF4F28833983ED
:10052E004A83CE59D040C756DF4F288339834A833A
:10053E00C959D040C756DF4F88819981AA81C959C0
:10054E00D040FC015A2F0E9464136B3241F4CF57F6
:10055E00DF4F28813981C158D04024600BC06C32E6
:10056E00CCF06D3259F5CF57DF4F28813981C15804
:10057E00D0402160CF57DF4F39832883C158D040F8
:10058E000196A11DC756DF4F88839983AA83C95947
:10059E00D040D0CF603241F4CF57DF4F2881398120
:1005AE00C158D0402860E6CF633291F4CF57DF4F69
:1005BE0028813981C158D0402061DCCF603341F4AD
:1005CE00CF57DF4F28813981C158D0402260D2CF1A
:1005DE006A3299F50196A11DC756DF4F888399831C
:1005EE00AA83C959D040D501ED91FC911197CF0145
:1005FE0002968D939C9380819181CB57DF4F998387
:10060E008883C558D04097FF3FC0CF57DF4F288112
:10061E003981C158D040B1E02B27CF57DF4F3983F6
:10062E002883C158D040919581959109CB57DF4FC2
:10063E0099838883C558D04027C0BC018A2F0E9459
:10064E00E30ECB57DF4F99838883C558D040C756EA
:10065E00DF4F88819981AA81C959D040FC015A2F58
:10066E000E946413062E000C770B605371096A30DA
:10067E00710550F40196A11DC756DF4F88839983EB
:10068E00AA83C959D040E3CFCF57DF4F88819981D4
:10069E00C158D04080FF07C08D7FCF57DF4F998361
:1006AE008883C158D040C756DF4F88819981AA816F
:1006BE00C959D040FC015A2F0E9464136E3209F0C2
:1006CE0059C0CD57DF4F19821882C358D0409C01B4
:1006DE004A2F2F5F3F4F4F4FC756DF4F2883398327
:1006EE004A83C959D040F901542F0E9464136A32CB
:1006FE00D1F40296A11DC756DF4F88839983AA8332
:10070E00C959D040D501ED91FC911197CF010296B8
:10071E008D939C9380819181CD57DF4F99838883F0
:10072E00C358D04027C0842FB9010E94E30ECD5785
:10073E00DF4F99838883C358D040C756DF4F8881D7
:10074E009981AA81C959D040FC015A2F0E94641385
:10075E00062E000C770B605371096A30710550F448
:10076E000196A11DC756DF4F88839983AA83C95965
:10077E00D040E3CFCE0187569F4F0E947E0C182F9C
:10078E00C756DF4F9881C959D040C656DF4F888172
:10079E00CA59D040C556DF4F5881CB59D040E92FAA
:1007AE00F82F0E946413862F660F990B0E94401338
:1007BE008936910509F45BC0B4F48336910509F4CA
:1007CE0069C144F48532910509F4A4C181369105BD
:1007DE0029F1B6C18436910509F449C088369105D0
:1007EE000CF42FC1ADC18037910509F4CDC04CF486
:1007FE008E36910509F41BC18F36910509F47DC023
:10080E009FC18537910509F455C08837910509F4C4
:10081E0097C08337910509F093C15BC1612F70E0DA
:10082E00A501C6010E948D11892B09F4BAC1C756C4
:10083E00DF4F88819981AA81C959D0409C014A2FE6
:10084E002F5F3F4F4F4FC756DF4F288339834A8361
:10085E00C959D040FC015A2F0E946413262FA601BD
:10086E00BE016F577F4FC4010E946B1397C1612F5A
:10087E0070E0950141E050E0C6010E940609892B07
:10088E0009F48FC1C756DF4F88819981AA81C95952
:10089E00D0400196A11DC756DF4F88839983AA8346
:1008AE00C959D040A601BE016F577F4FC4010E94A7
:1008BE00470874C1612F70E0950140E050E0C60119
:1008CE000E940609892B09F46CC1C756DF4F888137
:1008DE009981AA81C959D0400196A11DC756DF4FF3
:1008EE0088839983AA83C959D040A601BE016F5748
:1008FE007F4FC4010E94260C51C1612F70E09501FB
:10090E0040E050E0C6010E940609892B09F449C156
:10091E00C756DF4F88819981AA81C959D040019667
:10092E00A11DC756DF4F88839983AA83C959D0402A
:10093E00A601BE016F577F4FC4010E94570B2EC1F7
:10094E00612F70E0950140E050E0C6010E9406095B
:10095E00892B09F426C1C756DF4F88819981AA8158
:10096E00C959D0409C014A2F2F5F3F4F4F4FC7565A
:10097E00DF4F288339834A83C959D040FC015A2F4F
:10098E000E946413262F4BC0950140E050E060EFAB
:10099E0070E0C6010E940609892B09F402C1C756F0
:1009AE00DF4F88819981AA81C959D0400196A11D36
:1009BE00C756DF4F88839983AA83C959D04086E0F2
:1009CE0027EC33E040E0F901DE01AD56BF4F742F46
:1009DE000E94F212D6012C9111963C91119712960B
:1009EE004C91129713965C91139714966C911497E1
:1009FE0015967C91159716968C91169717969C9135
:100A0E00A0E00E940C1351F400E010E0CF55DF4F30
:100A1E00288139814A81C15AD040BAC028E7A6013F
:100A2E00BE016F577F4FC4010E940006B7C0612FF1
:100A3E0070E09501A1014E0D5F1DC6010E94EB0AEB
:100A4E00B0C0612F70E0A501C6010E948D11892BE7
:100A5E0009F4A7C0C756DF4F88819981AA81C95969
:100A6E00D0409C014A2F2F5F3F4F4F4FC756DF4F4D
:100A7E00288339834A83C959D040FC015A2F0E94DA
:100A8E006413262FA601BE016F577F4FC4010E942B
:100A9E006B1384C0103809F084C0C756DF4F8881AD
:100AAE009981AA81C959D0400196A11DC756DF4F21
:100ABE0088839983AA83C959D040D501ED91FC91C1
:100ACE001197CF0102968D939C938081F6018083BE
:100ADE005BC0103809F065C0C756DF4F8881998119
:100AEE00AA81C959D0400196A11DC756DF4F8883F0
:100AFE009983AA83C959D040D501ED91FC911197E4
:100B0E00CF0103968D939C9320813181428100E029
:100B1E0010E03EC0103809F044C0C756DF4F888140
:100B2E009981AA81C959D0400196A11DC756DF4FA0
:100B3E0088839983AA83C959D040F601708224C054
:100B4E00D6017C92C256DF4F288139814A81CE5917
:100B5E00D040C756DF4F288339834A83C959D040C6
:100B6E00CF57DF4F19821882C158D040CB57DF4F75
:100B7E0019821882C558D0408FEF9FEFCD57DF4FA7
:100B8E0099838883C358D04001E010E0462D92012E
:100B9E00BE016F577F4FC4010E94C10B8E0D9F1D6A
:100BAE0011C0C756DF4F88819981AA81C959D0409B
:100BBE000196A11DC756DF4F88839983AA83C95911
:100BCE00D040C7017101E80EF91EE214F3044CF493
:100BDE008FE490E090932904809328048FEF9FEF89
:100BEE0003C0170119CCC101CD55DF4FE2E10C94C2
:020BFE001E12C5
:100C0000A4E1B0E0E6E0F6E00C94E71198878F836A
:100C10007A8369835C8B4B8B122FDB011296ED91EB
:100C2000FC91139714962D913C9115973E832D833B
:100C3000ED90FC90119716962D903C901797F7FD2C
:100C400003C0E894E1F802C0E1E0F0E0C701807180
:100C500099279A878987E4FE1FC0AB89BC892C91AC
:100C600011963C91119712964C91129713965C91A4
:100C7000139714966C91149715967C911597169668
:100C80008C91169717969C91A0E00E940C1321F06E
:100C90008D819E81029702C08D819E81970128706F
:100CA00033273C872B87E3FC0197AB89BC894C90A9
:100CB00011965C90119712966C90129713967C90F7
:100CC000139714968C90149715969C9015971696DA
:100CD000AC9016971796BC90A981BA811896CD90C2
:100CE000DC901997B1E0CB1AD108D101AC0DBD1D34
:100CF0001C929C838B839F01281B390B3E872D8779
:100D0000C70182709927988B8F87812F012E000C45
:100D1000990BDC01A154B109BA8BA98B32E0C3163F
:100D2000D10434F489859A85892B09F04CC073C0AD
:100D30009201A301B401C501A0E00E940C1381F14E
:100D4000B1E0CB1AD108C2018F7099278A30910582
:100D500014F4C09602C0895A9F4FE989FA897A979C
:100D600048F49C012062215631092A31310510F4E2
:100D70000E943713F101EC0DFD1D80832B813C8116
:100D8000215031093C832B839201A301B401C50199
:100D900004E00E94AF1129013A014B015C01BECF72
:100DA0008D859E85AB81BC818A0F9B1F1816190605
:100DB0003CF21A161B060CF0B5CFEF85F889EF2B25
:100DC00009F0BECFAFCFAB89BC892C9111963C9175
:100DD000119712964C91129713965C911397149653
:100DE0006C91149715967C91159716968C91169781
:100DF00017969C91A0E00E940C1369F0F101EC0D94
:100E0000FD1D31971083B2E0CB1AD108F101EC0D32
:100E1000FD1D80E38083EB85FC85EF2B41F0F1E045
:100E2000CF1AD108F101EC0DFD1D80E28083A9816C
:100E3000BA8118962D913C911997215031092C199E
:100E40003D09C20CD31CA60160E80D811E818F8173
:100E500098850E94640A9C01EF81F88580819181C8
:100E600090FF09C0A981BA8112968D919C91139728
:100E7000821793070CF4C9016496E2E10C941E12E8
:100E8000CF92DF92EF920F931F93CF93DF936B017B
:100E9000E82E23E731E040E00E942A11892B29F453
:100EA0000E949D0E0E940811EAC02CE731E040E04C
:100EB0008E2DB6010E942A11892B49F41092260426
:100EC000109225040E9408110E946D11D8C029E8D3
:100ED00031E040E08E2DB6010E942A11892B99F451
:100EE00010922604109225040E9408110E94620F9D
:100EF00060E072E080E80E94BC108AE00E94481323
:100F00000E94290FBCC024E931E040E08E2DB601DB
:100F10000E942A11892B89F410922604109225042C
:100F20000E9408110E9493106DE173E080E80E9416
:100F3000BC108AE00E944813A2C020EA31E040E0E1
:100F40008E2DB6010E942A11892B91F582E090E046
:100F500090932604809325040E9408110E94671034
:100F6000C0E0D0E021C0FE01E35EFC4F80811F9213
:100F70008F93DF93CF938FEA91E0A0E0AF939F939D
:100F80008F930EEF12E01F930F930E948C12B80103
:100F900080E80E94BC1021968DB79EB709960FB6C7
:100FA000F8949EBF0FBE8DBFCE3FD105E0F267C063
:100FB0002DEC31E040E08E2DB6010E942A11892BE4
:100FC00029F40E9408110E94C31259C023ED31E098
:100FD00040E08E2DB6010E942A11892B29F40E942F
:100FE00008110E94560E4BC020EE31E040E08E2DDD
:100FF000B6010E942A11892BD1F481E090E09093F0
:101000002604809325040E9408110E949310809169
:101010001B048F3F31F06EEE71E080E00E94BC1047
:101020002EC066E072E080E00E94BC1028C06EE135
:1010300072E080E00E94BC106CE272E080E00E94EE
:10104000BC106EE372E080E00E94BC106EE472E0BF
:1010500080E00E94BC106FE572E080E00E94BC104E
:1010600063E772E080E00E94BC1065E872E080E017
:101070000E94BC1068E972E080E00E94BC10DF9121
:0E108000CF911F910F91EF90DF90CF900895C8
:10108E00ADE0B0E0EDE4F8E00C94E7119A878987C3
:10109E007C836B83FA01DB011296CD90DC90139763
:1010AE0014968D919C9115979E838D83ED90FC9057
:1010BE001197FA82E98216960D90BC91A02DB887F1
:1010CE00AF8320803180428053806480758086801B
:1010DE0097808101B42DF52DE62D7B868C869D861D
:1010EE009101A201B301C401A0E00E940C134CF4C3
:1010FE000E94D4128901B42FF52FE62F7B878C879F
:10110E009D87D7FC04C0E894E1F8FA82E982910148
:10111E00A201B301C401A0E0ED80FE800E940C1379
:10112E001CF0898182FF04C081E0E81AF10805C035
:10113E0083FF03C091E0E91AF108CE0101965C012C
:10114E008AE0C82ED12C2B2F3F2F4E2F5B856C851E
:10115E007D858B819C810E94BF09FC019101A201BA
:10116E00B301C401A0E00E940C131CF0898182FF20
:10117E0012C031970F8118850E0F1F1F9101A2010A
:10118E00B301C401A0E00E940C1314F08BE201C065
:10119E008DE2D80108C083FF07C03197AF81B885B3
:1011AE00AE0FBF1F80E28C93E980FA80AB81BC81C9
:1011BE0018962D913C911997215031092E1B3F0BFA
:1011CE008F819885E80FF91FAF0160E80D811E81B0
:1011DE0089859A850E94640A9C01A985BA858D919C
:1011EE009C9190FF07C0EB81FC81828193818217D5
:0E11FE0093070CF4C9012D96E2E10C941E1229
:10120C000F931F93CF93DF93FC01D90168387105BD
:10121C0031F194F461387105B1F12CF46038710539
:10122C0009F478C09FC06238710509F459C064385C
:10123C00710509F46FC096C0603A710509F448C095
:10124C002CF46039710509F44BC08CC0603C7105FD
:10125C0009F476C0603F710509F472C083C0CD916A
:10126C00DC911197CE0102968D939C93452B39F00E
:10127C009881892F880F880B908381835BC088812C
:10128C008083118268C0CD91DC911197CE010496B8
:10129C008D939C93452B99F088819981AA81BB8170
:1012AC00AC01BD01770F440B542FBA01808391839D
:1012BC00A283B383448345834683478328C0088134
:1012CC0019812A813B81008311832283338345C09A
:1012DC00CD91DC911197CE0102968D939C9323C0F6
:1012EC00CD91DC911197CE0108968D939C937881CA
:1012FC0069815A814B813C812D819E818F817083C4
:10130C00618352834383348325839683878381E06F
:10131C0090E02AC0CD91DC911197CE0102968D936D
:10132C009C93452BA1F099812881892F880F880BDC
:10133C002083918382838383848385838683E6CF12
:10134C00CD91DC911197CE0102968D939C930881DF
:10135C0019810083118312821382148215821682E2
:10136C001782D5CF80E090E0DF91CF911F910F9144
:02137C000895D2
:10137E00A2E1B0E0E5ECF9E00C94E711FC010A8B78
:10138E001B832C83732E642E552E462E7D83CC8686
:10139E00D886BF82AE82868197819B878A87D50148
:1013AE004D915C91228133818085918501971C013D
:1013BE0037FF02C021E030E0EA85FB85E80FF91F18
:1013CE0010824701E1E0F0E0FA83E983C9018E194A
:1013DE009F099E878D87DA01A270BB27B88BAF87D6
:1013EE00B885BB0FBB0BB98B1214130474F0A98113
:1013FE00BA81AB2B09F05CC0AE81BF818D919C91FF
:10140E0011978F7E8D939C9353C02A893B814C817B
:10141E00572D662D752D842D9D81A0E00E940C13F5
:10142E00B1F1E1E02E1A3108FC85F987AF2EB884B0
:10143E00C988DC2CEC2CFC2C0C2D1C2D2A893B8114
:10144E004C81572D662D752D842D9D810E94E412A1
:10145E00C90129839A83EA85FB85E20DF31D805D20
:10146E00808381E0881A91082A893B814C81572D0F
:10147E00662D752D842D9D810E94E6122A8B3B834D
:10148E004C83752E662E572E482E9D83ADCF8D859F
:10149E009E85880D991D181619061CF2181419042C
:1014AE000CF0A5CFEF85F889EF2B09F0BACF9FCFBF
:0A14BE00C1016296E2E10C941E12D7
:1014C8002F923F924F926F927F928F92AF92BF92DC
:1014D800CF92DF92EF92FF920F931F93CF93DF93F8
:1014E800CDB7DEB766970FB6F894DEBF0FBECDBF97
:1014F8005C013A01862E6901C701817099279C8B8E
:101508008B8BE0FC1DC020173107D4F47801EC1850
:10151800FD08FE8AED8AA70191E1E916F10410F0B1
:1015280040E150E060E270E0CE0101969A8B898B31
:101538000E942E1389899A891C0120E8422E0BC02B
:101548009601682DA301C5010E94CD0FC016D106D2
:10155800ECF2C60125C090E1E916F10458F020E14B
:1015680030E0642DA101C5010E94CD0F80E1E81A89
:10157800F108F1CF2D893E892F70332789899A89FF
:10158800AC0160E8C5010E94CD0F8B899C89892B2D
:1015980031F49601682DA301C5010E94CD0FC80141
:1015A80066960FB6F894DEBF0FBECDBFDF91CF9120
:1015B8001F910F91FF90EF90DF90CF90BF90AF9069
:0E15C8008F907F906F904F903F902F900895DE
:1015D600CF93DF93DC01F90164387105D9F164F426
:1015E6006138710521F16238710509F440C060382F
:1015F600710509F054C02EC060397105C1F184F43B
:101606006838710509F04BC0C081D181CE010296C0
:1016160091838083E881F981ED93FC9340833CC0FC
:10162600603A7105B9F0603C7105A1F038C0C0811F
:10163600D181CE01029691838083E881F981ED9371
:10164600FC93052E000C660B770B40835183628357
:10165600738322C0C081D181CE010296918380839B
:10166600E881F981ED93FC935183408315C0C081D5
:10167600D181CE01029691838083E881F981ED9331
:10168600FC9351834083852F880F880B8283838345
:10169600848385838683878381E090E002C080E02F
:0816A60090E0DF91CF9108955F
:1016AE00A2E0B0E0EDE5FBE00C94E7111C014B016C
:1016BE00FA01DB0112962D913C91139714964D90E1
:1016CE005C9015978D919C9111979A8389831696AC
:1016DE006D907C90179737FD03C08D7F9A83898319
:1016EE000081118122813381448155816681778108
:1016FE00FE0131965F0188E0C82ED12C7201C40123
:10170E000E94BF09298124FF06C00197F301E80F4B
:10171E00F91F20E32083298123FF06C00197F301DF
:10172E00E80FF91F20E22083E980FA80D401189691
:10173E002D913C91199721503109281B390B860D9B
:10174E00971DAC0160E88201C1010E94640A9C01F0
:10175E00F1018081918190FF08C0D40112968D9184
:10176E009C911397821793070CF4C9012296E2E11C
:04177E000C941E1297
:101782002F923F924F926F927F928F92AF92BF921F
:10179200CF92DF92EF92FF920F931F93CF93DF933B
:1017A200CDB7DEB727970FB6F894DEBF0FBECDBF19
:1017B2006C017B013901842E980180EC282E83E094
:1017C200382E80E0482E87E0F101AE014F5F5F4F77
:1017D200DA01742D0E94F212F70102811381A480B2
:1017E200B580E080F18061147104810419F43A013A
:1017F200F0E88F2E2115310529F4882DB3010E94BE
:10180200B1129C0117FD04C00217130708F49801D6
:101812008501682DA301C6010E94640A27960FB6AE
:10182200F894DEBF0FBECDBFDF91CF911F910F9114
:10183200FF90EF90DF90CF90BF90AF908F907F900E
:0A1842006F904F903F902F90089593
:10184C00A2E0B0E0ECE2FCE00C94E7113C014B01AF
:10185C00FA01DB0112962D913C91139714964D9041
:10186C005C9015978D919C9111979A83898316960C
:10187C002D903C90179737FD03C08D7F9A838983F9
:10188C000081118122813381448155816681778168
:10189C00FE0131965F018AE0C82ED12C7201C40181
:1018AC000E94BF09E980FA80D40118962D913C91D1
:1018BC00199721503109281B390B820D931DAC014E
:1018CC0060E88201C3010E94640A9C01F3018081DB
:1018DC00918190FF08C0D40112968D919C91139721
:1018EC00821793070CF4C9012296E2E10C941E12A4
:1018FC00CF92DF92EF92DC0190E0292F30E0220FA3
:10190C00331F6901032E000CEE086E2DA6014956FB
:10191C005C4F6F4F6A01E62EFA015E2D0E94641334
:10192C00862F61110EC02F5F3F4F032E000C440B0E
:10193C0029563C4F4F4FF901542F0E946413862FA8
:10194C0025C0CD90DD90EC901297F6015E2D0E9493
:10195C006413861316C02F5F3F4F032E000C440BED
:10196C0029563C4F4F4FF901542F0E946413962F68
:10197C005FEFC51AD50AE50ACD92DD92EC9212976B
:10198C0001C09F5F9B3008F4B8CF892FEF90DF9098
:04199C00CF9008954B
:1019A0006F927F928F92EF92FF920F931F93CF933C
:1019B000DF93CDB7DEB761970FB6F894DEBF0FBEE9
:1019C000CDBFFE01319651E1DF011D925A95E9F735
:1019D000A2E0B1E0BA83A9839C838B8377FF09C01F
:1019E0008FE490E090932904809328048FEF9FEF79
:1019F00019C03901842E7C01615071097F836E8387
:101A00009801682DA301CF010E943912488559859C
:101A10002E813F814217530708F49A01F701E20F24
:101A2000F31F108261960FB6F894DEBF0FBECDBFD4
:101A3000DF91CF911F910F91FF90EF908F907F904A
:041A40006F90089506
:101A440088249924F401E401B0E49F93AA279A1509
:101A54008B049C04ED05FE05CF05D007A10798F47F
:101A6400AD2FDC2FCF2FFE2FE92D982C892E982F08
:101A7400872F762F652F542F432F322F2227B850CC
:101A840031F7BF9127C01B2EBF91BB27220F331FF5
:101A9400441F551F661F771F881F991F881C991C98
:101AA400EE1FFF1FCC1FDD1FAA1FBB1F8A149B0440
:101AB400EC05FD05CE05DF05A007B10748F08A183F
:101AC4009B08EC09FD09CE09DF09A00BB10B2160CD
:101AD4001A94E1F62EF49401AF01BE01CD01000C7D
:021AE400089563
:101AE600CF92DF92EF9263EA72E080E00E94BC1030
:101AF6000E944F1380931C031CC020912A0430912E
:101B06002B04F901E050FE4F80832E3F310520F073
:101B160010922B0410922A0480912A0490912B048F
:101B2600019690932B0480932A040E944F1380936E
:101B36001C0380911C038D3011F08A30F1F6E09180
:101B46002A04F0912B04E050FE4F108210922B04D1
:101B560010922A0480E092E06C0120E8E22E8E2D9D
:101B6600B6010E94BC108AE00E9448138E2DB60171
:0C1B76000E944007EF90DF90CF90089590
:101B82000097B9F41EBC0DB407FEFDCF2EB520930D
:101B9200270423E02EBD0DB407FEFDCF2EB5209302
:101BA200270420EC2EBD0DB407FEFDCF2EB52093E9
:101BB200270481309105B9F41EBC0DB407FEFDCF98
:101BC2002EB52093270423E02EBD0DB407FEFDCFD2
:101BD2002EB52093270420EC2EBD0DB407FEFDCFB9
:101BE2002EB5209327040297B1F41EBC0DB407FE54
:101BF200FDCF8EB5809327041EBC0DB407FEFDCF2A
:101C02008EB58093270481E08EBD0DB407FEFDCF13
:081C12008EB5809327040895AC
:101C1A000F931F93CF93DF93DB012D913C91119783
:101C2A0030FF25C017964D915C91189715962D9106
:101C3A003C9116974217530778F41296ED91FC914E
:101C4A001397808312962D913C9113972F5F3F4FE4
:101C5A0013963C932E93129717962D913C911897B1
:101C6A002F5F3F4F18963C932E93179715C01D96DA
:101C7A00ED91FC911E97309719F48FEF9FEF0CC0EE
:101C8A008B01EC011995892BC1F7F80187819085A1
:101C9A00019690878783CE01DF91CF911F910F9193
:021CAA0008959B
:101CAC000F931F93CF93DF9382B1877F82B98FE01D
:101CBC008EBD0DB407FEFDCF8EB58093270480EC4E
:101CCC008EBD0DB407FEFDCF8EB5809327041EBCD0
:101CDC000DB407FEFDCF8EB50BE114E0F801808347
:101CEC001F928F938AE193E0A0E0AF939F938F9321
:101CFC00CEEFD2E0DF93CF930E948C12BE0180E82E
:101D0C000E94BC10F80180812DB73EB7295F3F4F70
:101D1C000FB6F8943EBF0FBE2DBF80FDD8CF82B159
:0E1D2C00886082B9DF91CF911F910F910895C9
:101D3A00CF93DF9382B1877F82B98FE98EBD0DB4CD
:101D4A0007FEFDCF8EB5809327041EBC0DB407FE97
:101D5A00FDCF8EB5809327041EBC0DB407FEFDCFC0
:101D6A008EB580931B041EBC0DB407FEFDCF9EB535
:101D7A00EBE1F4E0918382B1886082B980811F929D
:101D8A009F931F928F9381ED92E0A0E0AF939F9370
:101D9A008F93CEEFD2E0DF93CF930E948C12BE01D5
:101DAA0080E80E94BC108DB79EB709960FB6F894CA
:0C1DBA009EBF0FBE8DBFDF91CF9108953A
:101DC600CF939B01482FF901542F0E946413603270
:101DD600B9F1862F062E000C990B0997059780F10D
:101DE6006B3249F5A0E0B0E02F5F3F4F4F4F02C086
:101DF600A0E0B0E080E090E0CAE0F901542F0E9434
:101E06006413062E000C770B605371096A30710556
:101E160060F4C89FF001C99FF00D11242F5F3F4F5A
:101E26004F4FCF01861B970BE8CFAB2B69F49195EB
:101E36008195910909C06D32D9F6A1E0B0E0D4CF01
:0C1E46002F5F3F4F4F4FBFCFCF9108954B
:101E5200CF93DF930E94511282B1877F82B982E0D1
:101E62008EBD0DB407FEFDCF8EB580932704809101
:101E72002504909126040E940210C0E0D0E00CC01C
:101E8200FE01E050FE4F80818EBD0DB407FEFDCFF6
:101E92008EB580932704219660E072E080E80E946C
:101EA200B112C817D90760F382B1886082B96BE4B6
:101EB20073E080E00E94BC100E94E210DF91CF919B
:021EC200089581
:101EC40066E671E080E00E94BC100E944F1380938C
:101ED4001C031CC020912A0430912B04F901E0500A
:101EE400FE4F80832E3F310520F010922B04109278
:101EF4002A0480912A0490912B04019690932B0438
:101F040080932A040E944F1380931C0380911C0326
:101F14008D3001F7E0912A04F0912B04E050FE4F3C
:0C1F2400808310922B0410922A04089570
:101F3000CF93DF93EC010297D0F414C01EBC0DB414
:101F400007FEFDCF2EB5FC01E35EFC4F20832EB5CE
:101F50002D3031F464E773E080E00E94BC1007C0CC
:101F6000019602C080E090E08E3F910538F3229701
:101F700089F40BC01EBC0DB407FEFDCF2EB5FC01CD
:101F8000E35EFC4F2083019602C080E090E08E3F2C
:0A1F9000910580F3DF91CF910895D1
:101F9A006F927F928F92CF92DF92EF920F931F935D
:101FAA00CF93DF938C016A01E62EE9013A01862E6E
:101FBA00620E731E811C37FD8A94C614D704E80486
:101FCA0081F0F6015E2D0E946413862FB801082E57
:101FDA00000C990B0E940D0E8FEFC81AD80AE80A56
:101FEA00ECCFCE01DF91CF911F910F91EF90DF904F
:0A1FFA00CF908F907F906F900895B4
:10200400009779F420E12EBD0DB407FEFDCF2EB567
:10201400209327041EBC0DB407FEFDCF2EB52093DC
:1020240027048130910579F428E02EBD0DB407FE14
:10203400FDCF2EB520931B041EBC0DB407FEFDCFAF
:102044002EB520931C04029771F41EBC0DB407FE38
:10205400FDCF8EB580931B041EBC0DB407FEFDCFCF
:082064008EB580931C04089561
:10206C0081B1886081B982B1886082B981B18061A7
:10207C0081B982B1806182B981B1806281B982B14A
:10208C00806282B981B1806481B982B1806482B985
:10209C0081B1806881B982B1806882B981B1826076
:1020AC0081B982B1826082B981B1846081B982B117
:1020BC00846082B981B1886081B982B1886082B94B
:0220CC00089575
:1020CE0082B1877F82B98FE18EBD0DB407FEFDCF41
:1020DE0080EB8EBD0DB407FEFDCF80E48EBD0DB43A
:1020EE0007FEFDCF82B1886082B90E94931082B143
:1020FE00877F82B98FE18EBD0DB407FEFDCF80EBD9
:10210E008EBD0DB407FEFDCF1EBC0DB407FEFDCF78
:08211E0082B1886082B90895C6
:102126000E94CB1182B1877F82B98BE08EBD0DB440
:1021360007FEFDCF8EB580932704809125049091EC
:1021460026040E9402101EBC0DB407FEFDCF8EB5FC
:102156008093270480912504909126040E94980F6D
:1021660082B1886082B964E873E080E00E94BC10A6
:022176000895CA
:10217800CF92DF92EF92CF93DF936B01E82EC0E00E
:10218800D0E00FC0AE2DC6018C0F9D1FA11DD7FD3D
:10219800AA95FC015A2F0E946413862F0E944813A7
:1021A80021968E2DB6010E94B112C817D90750F397
:0C21B800DF91CF91EF90DF90CF90089561
:1021C40082B1877F82B980E18EBD0DB407FEFDCF59
:1021D4008EB58093270480912504909126040E9453
:1021E400C10D8AE18A95F1F700C082B1886082B995
:1021F40069E373E080E00E94BC108AE18A95F1F7FC
:0C22040000C00E94560E0E946512089552
:1022100080E090E005C0FC01E55EFB4F1082019676
:102220008A309105C0F380E090E005C0FC01E35ED8
:10223000FC4F108201968E3F9105C0F380E090E044
:1022400005C0FC01E050FE4F108201968E3F9105C3
:04225000C0F308953A
:10225400CF92DF92EF926B01E82EF6015E2D0E9481
:102264006413862FF901542F0E94641386130BC044
:10227400882341F08FEFC81AD80AE80A2F5F3F4F2E
:102284004F4FEBCF682F90E0861B9109EF90DF90C2
:04229400CF9008954A
:102298000E9418130E9479120E9403120E9436109D
:1022A8000E949F120E945D130E9408116DEA73E05C
:1022B80080E00E94BC100E94730D0E9456132FEFFD
:1022C80081EE94E0215080409040E1F700C000008A
:0222D800EBCF4A
:1022DA000E94511282B1877F82B988ED8EBD0DB4FA
:1022EA0007FEFDCF8EB58093270480912504909137
:1022FA0026040E94C10D82B1886082B966E673E045
:10230A0080E00E94BC100E94560E0E946512089539
:10231A00FA0160387105CCF0623871051CF0633837
:10232A00710599F4A081B1819D012C5F3F4F3183E2
:10233A0020834D915D916D917C91FC014083518385
:10234A006283738381E090E0089580E090E00895CD
:10235A0097FB10F8169400080F93083098F008506D
:10236A00232F342F452F562F672F782F892F902D03
:10237A00F4CF0594979587957795679557954795DF
:0C238A00379527950A95AAF70F91089542
:1023960082B1877F82B983E18EBD0DB407FEFDCF82
:1023A6008EB58093270480912504909126040E947F
:1023B600C10D82B1886082B90E94560E6AE573E04B
:0823C60080E00E94BC100895A4
:1023CE002F923F924F925F926F927F928F929F9237
:1023DE00AF92BF92CF92DF92EF92FF920F931F9325
:1023EE00CF93DF93CDB7DEB7CA1BDB0B0FB6F894D6
:0823FE00DEBF0FBECDBF199434
:1024060087E690E09093C5008093C4008DB182600A
:102416008DB9E1ECF0E08081886080838DB18E7F9C
:102426008DB980818061808381B1846081B982B1F8
:06243600846082B90895E4
:10243C002A88398848885F846E847D848C849B8448
:10244C00AA84B984C884DF80EE80FD800C811B8156
:10245C00AA81B981CE0FD11D0FB6F894DEBF0FBE85
:06246C00CDBFED01089553
:10247200A2E0B0E0EFE3F2E10C94F5118C013A83B3
:1024820029839E012F5F3F4F0E94E701F8012081BF
:1024920024FF02C08FEF9FEF2296E4E00C942C12EF
:1024A20082B1877F82B986E08EBD0DB407FEFDCF73
:1024B2008EB58093270482B1886082B962EB72E0A4
:0824C20080E00E94BC100895A7
:1024CA0082B1877F82B984E08EBD0DB407FEFDCF4D
:1024DA008EB58093270482B1886082B961EC72E07C
:0824EA0080E00E94BC1008957F
:1024F20087B1806487B988B1806488B983B3816009
:1025020083BB84B3816084BB83B3826083BB84B3A7
:06251200826084BB089505
:10251800A0E0B0E0E2E9F2E10C94F7119E01255F3A
:102528003F4F488559856A858E819F810E94001397
:06253800E2E00C942E12FB
:10253E0084B1866084B984B1877F84B984B18160A7
:10254E0084B985B1816085B98CB581658CBD8CB53A
:04255E008CBD089593
:102562009B01482FA82FCB01FC015A2F0E94641314
:10257200662319F00196A11DF7CF642FA901841BD0
:04258200950B089518
:1025860082B1877F82B98FEF8EBD0DB407FEFDCF76
:1025960082B1886082B969E073E080E00E94BC1075
:0225A600089596
:1025A80060957095809590953095409550952195BA
:1025B8003F4F4F4F5F4F6F4F7F4F8F4F9F4F089544
:1025C800689401C0E8948F929F92CF93DF930E9402
:0C25D800220DDF91CF919F908F9008950D
:1025E400992777FD06C07BBF07900D920197E1F70D
:0C25F400089501900D920197E1F7089501
:102600000F931F9389019A01462F6FEF7FE70E9476
:08261000D00C1F910F910895F9
:102618000024A7FD00942A173005400550056005E1
:0826280070058005900508957E
:10263000E1E0F1E0808180668083E2E0F1E080818A
:062640008066808308950E
:10264600EC010E9473130E947213CE010E94741350
:06265600CE010E9470138A
:10265C00FC01480F591FE417F50711F06193FBCFEC
:02266C000895CF
:10266E009C01215631092A31310510F48F759927B5
:02267E000895BD
:102680009C01215431092A31310508F480620895F2
:0E2690009091C00095FFFCCF8093C600089586
:0E269E008091C0008823E4F78091C600089563
:0E26AC00E2E0F1E0908180E4892780830895C8
:0E26BA00E2E0F1E0908180E2892780830895BC
:0E26C80057FD03C05BBF6791089560810895C0
:0626D60080E090E0089591
:0426DC000C9400005A
:0426E0000E94B100A3
:0226E400089557
:0226E600089555
:0226E800089553
:00000001FF
