:100000000C948F000C944F230C944F230C944F238B
:100010000C944F230C944F230C944F230C944F2398
:100020000C944F230C944F230C944F230C944F2388
:100030000C944F230C944F230C944F230C944F2378
:100040000C944F230C944F230C944F230C944F2368
:100050000C944F230C944F230C944F230C944F2358
:100060000C944F230C944F230C944F230C944F2348
:100070000C944F230C944F230C944F230C944F2338
:100080000C944F230C944F230C944F230C944F2328
:100090000C944F230C944F230C944F230C944F2318
:1000A0000C944F230C944F230C944F230C944F2308
:1000B0000C944F230C944F230C944F230C944F23F8
:1000C0000C944F230C944F230C944F230C944F23E8
:1000D0000C944F230C944F230C944F230C944F23D8
:1000E0000C944F230200123280000C949F160C9443
:1000F000E1210C947B210C94CE210C9456030C949A
:1001000061130C9401100C945B190C9406140C945C
:10011000CC0A0C9463210C946F070C9441111124A8
:100120001FBECFEFD1E2DEBFCDBF00E00CBFE4EEDB
:10013000F0E040E019C0B791A7913791279107915E
:1001400007FD0EC097918791EF01F92FE82F0BBFA4
:1001500007900D92A217B307D9F7FE011BBE04C08A
:100160001D92A217B307E1F7E93EF40721F70E94B9
:0A0170000E200C94C122F894FFCF7A
:10017A0057726F6E6720496E707574200A4D616BF5
:10018A0065207375726520696E70757420697320B5
:10019A004845582076616C6964205B30202D2046E2
:1001AA005D200A004865726520697320776861746A
:1001BA002077617320696E7075747465643A2030B3
:1001CA007825303258200A002D2D2D436F6C756D1D
:1001DA006E20416464726573732D2D2D2032206266
:1001EA0079746573200A00307825303258200A0065
:1001FA002D2D2D426C6F636B2F5061676520416412
:10020A0064726573732D2D2D2033206279746573A2
:10021A00200A00466C617368204944004E414E44EE
:10022A002041646472657373657300506172616D15
:10023A006574657220506167650025692D3E4461C9
:10024A0074612052656365697665643A2030782561
:10025A00303258200A00466561747572652052650D
:10026A006769737465727300312920426C6F636B1E
:10027A00204C6F636B200A00322920436F6E666937
:10028A006775726174696F6E200A0033292053748E
:10029A0061747573200A0034292044696520536506
:1002AA006C656374200A00426C6F636B204C6F6349
:1002BA006B003129204C6F636B200A0032292055CC
:1002CA006E6C6F636B200A003329205265616420CB
:1002DA000A00342920436F6E666967757265200AC1
:1002EA00004C6F636B00556E6C6F636B00526561F7
:1002FA006400436F6E66696775726500436F6E6668
:10030A00696775726174696F6E005374617475738D
:10031A00004469652053656C6563740054657374A1
:10032A00204D6574686F64730031292057726974AF
:10033A00652054657374200A00322920526561646D
:10034A002054657374200A0033292045726173654D
:10035A002054657374200A00342920426C6F636B41
:10036A0020436865636B6572200A00352920506155
:10037A00676520436865636B6572200A0057726976
:10038A007465205465737400526561642054657302
:10039A0074004572617365205465737400426C6F12
:1003AA00636B20436865636B657200426C6F636BB5
:1003BA00206973206D61726B6564206261640A0052
:1003CA00426C6F636B206170706561727320636C3D
:1003DA0065616E0A005061676520436865636B65F5
:1003EA007200526573657400312920466C61736826
:1003FA00204944200A003229204E414E44204164BB
:10040A0064726573736573200A0033292050617220
:10041A00616D657465722050616765200A00342930
:10042A0020466561747572652052656769737465E3
:10043A007273200A0035292054657374204D65743F
:10044A00686F6473200A0036292052657365742028
:10045A000A002D3E5573657220496E7075743A0A0A
:10046A00004D616B652073757265206F6E6C792023
:10047A003420696E707574732E200A00436F6C7590
:10048A006D6E2041646472657373202D3E2030784E
:10049A0025303258200A004D616B652073757265EC
:1004AA00206F6E6C79203620696E707574732E20F9
:1004BA000A00426C6F636B2F506167652041646468
:1004CA0072657373202D3E20307825303258200A09
:0104DA000021
:1004DB0052656164204465766963652049443A201E
:1004EB004D6963726F6E2049442028307825303275
:1004FB005829204465766963652049442028307863
:10050B002530325829200A004469652053656C65F3
:10051B006374696F6E2052656769737465723A20F4
:10052B00307825303258200A00436F6E6669677544
:10053B00726174696F6E2052656769737465723A84
:10054B0020307825303258200A00426C6F636B20C4
:10055B004C6F636B2052656769737465723A203018
:10056B007825303258200A0044657669636520523D
:10057B00657365746564200A00446174612052657B
:10058B006365697665643A20696E646578202569D0
:10059B00200A004765742046656174757265733A6D
:1005AB0020537461747573202830782530325829A4
:1005BB000A00426C6F636B204572617365200A0001
:1005CB002D2D2D436F6C756D6E20416464726573B8
:1005DB00732D2D2D2032206279746573200A002D26
:1005EB002D2D426C6F636B2F5061676520416464E6
:1005FB00726573732D2D2D203320627974657320F2
:10060B000A003078253032582054686973205061C5
:10061B006765206973206D61726B6564206261642C
:10062B00200A0030782530325820546869732050E6
:0F063B0061676520697320636C65616E200A003A
:10064A0068076C094C836A9074A07AC00080688835
:06065A0000846C820081A7
:100660002D3E41727261797320436C6561726564DD
:03067000200A005D
:10067300494E4600696E66004E414E006E616E0043
:10068300494E4600696E66004E414E006E616E0033
:07069300286E756C6C290054
:06069A00286E696C2900C6
:1006A000A3EAB0E0E6E5F3E00C94F1204C01590137
:1006B000C756DF4F488359836A83C959D040212CDC
:1006C000312C6E012BE8C20ED11C85E2782E26015A
:1006D00030E8632ECE018D569F4FC456DF4F99836D
:1006E0008883CC59D0409C0140E8CF55DF4F288308
:1006F00039834A83C15AD040C756DF4F4881C95910
:10070000D040C656DF4FB881CA59D040C556DF4FDA
:100710007881CB59D040E42FFB2F572F0E94022322
:10072000662309F4D0C3CF57DF4F19821882C1580E
:10073000D0408FEF9FEFCD57DF4F99838883C35809
:10074000D040CB57DF4F19821882C558D040E1E026
:10075000F0E0EC0FFD1FC957DF4FF983E883C7585E
:10076000D04020E830E0C757DF4F39832883C9588D
:10077000D040842F9B2FA72FE12CF12CFC015A2F66
:100780000E94022361111DC0E114F10411F19701CF
:100790005B2F672FC4010E94821EC756DF4F8881DE
:1007A0009981AA81C959D0408E0D9F1DA11DF7FCCA
:1007B000AA95C756DF4F88839983AA83C959D04029
:1007C00008C00196A11D6532F9F23FEFE31AF30A62
:1007D000D5CFC756DF4F88819981AA81C959D040AA
:1007E000FC015A2F0E940223653209F05AC39C0172
:1007F0004A2F2F5F3F4F4F4FC256DF4F2883398319
:100800004A83CE59D040C756DF4F288339834A8365
:10081000C959D040C756DF4F88819981AA81C959EB
:10082000D040FC015A2F0E9402236B3241F4CF5773
:10083000DF4F28813981C158D04024600BC06C3211
:10084000CCF06D3259F5CF57DF4F28813981C1582F
:10085000D0402160CF57DF4F39832883C158D04023
:100860000196A11DC756DF4F88839983AA83C95972
:10087000D040D0CF603241F4CF57DF4F288139814B
:10088000C158D0402860E6CF633291F4CF57DF4F94
:1008900028813981C158D0402061DCCF603341F4D8
:1008A000CF57DF4F28813981C158D0402260D2CF45
:1008B0006A3299F50196A11DC756DF4F8883998347
:1008C000AA83C959D040D501ED91FC911197CF0170
:1008D00002968D939C9380819181CB57DF4F9983B2
:1008E0008883C558D04097FF3FC0CF57DF4F28813E
:1008F0003981C158D040B1E02B27CF57DF4F398322
:100900002883C158D040919581959109CB57DF4FED
:1009100099838883C558D04027C0BC018A2F0E9484
:100920008C1CCB57DF4F99838883C558D040C7565E
:10093000DF4F88819981AA81C959D040FC015A2F83
:100940000E940223062E000C770B605371096A3057
:10095000710550F40196A11DC756DF4F8883998316
:10096000AA83C959D040E3CFCF57DF4F88819981FF
:10097000C158D04080FF07C08D7FCF57DF4F99838C
:100980008883C158D040C756DF4F88819981AA819A
:10099000C959D040FC015A2F0E9402236E3209F03F
:1009A00059C0CD57DF4F19821882C358D0409C01DF
:1009B0004A2F2F5F3F4F4F4FC756DF4F2883398352
:1009C0004A83C959D040F901542F0E9402236A3248
:1009D000D1F40296A11DC756DF4F88839983AA835D
:1009E000C959D040D501ED91FC911197CF010296E4
:1009F0008D939C9380819181CD57DF4F998388831C
:100A0000C358D04027C0842FB9010E948C1CCD57F9
:100A1000DF4F99838883C358D040C756DF4F888102
:100A20009981AA81C959D040FC015A2F0E94022302
:100A3000062E000C770B605371096A30710550F473
:100A40000196A11DC756DF4F88839983AA83C95990
:100A5000D040E3CFCE0187569F4F0E94AB1A182F8C
:100A6000C756DF4F9881C959D040C656DF4F88819D
:100A7000CA59D040C556DF4F5881CB59D040E92FD5
:100A8000F82F0E940223862F660F990B0E94DE2208
:100A90008936910509F45BC0B4F48336910509F4F5
:100AA00069C144F48532910509F4A4C181369105E8
:100AB00029F1B6C18436910509F449C088369105FB
:100AC0000CF42FC1ADC18037910509F4CDC04CF4B1
:100AD0008E36910509F41BC18F36910509F47DC04E
:100AE0009FC18537910509F455C08837910509F4F0
:100AF00097C08337910509F093C15BC1612F70E006
:100B0000A501C6010E949520892B09F4BAC1C756D8
:100B1000DF4F88819981AA81C959D0409C014A2F11
:100B20002F5F3F4F4F4FC756DF4F288339834A838C
:100B3000C959D040FC015A2F0E940223262FA6013A
:100B4000BE016F577F4FC4010E94C60A97C1612F33
:100B500070E0950141E050E0C6010E94FA11892B36
:100B600009F48FC1C756DF4F88819981AA81C9597D
:100B7000D0400196A11DC756DF4F88839983AA8371
:100B8000C959D040A601BE016F577F4FC4010E94D2
:100B90003B1174C1612F70E0950140E050E0C60147
:100BA0000E94FA11892B09F46CC1C756DF4F888166
:100BB0009981AA81C959D0400196A11DC756DF4F1E
:100BC00088839983AA83C959D040A601BE016F5773
:100BD0007F4FC4010E94551951C1612F70E09501EA
:100BE00040E050E0C6010E94FA11892B09F449C186
:100BF000C756DF4F88819981AA81C959D040019693
:100C0000A11DC756DF4F88839983AA83C959D04055
:100C1000A601BE016F577F4FC4010E9499162EC1D5
:100C2000612F70E0950140E050E0C6010E94FA118A
:100C3000892B09F426C1C756DF4F88819981AA8183
:100C4000C959D0409C014A2F2F5F3F4F4F4FC75685
:100C5000DF4F288339834A83C959D040FC015A2F7A
:100C60000E940223262F4BC0950140E050E060EF28
:100C700070E0C6010E94FA11892B09F402C1C7561F
:100C8000DF4F88819981AA81C959D0400196A11D61
:100C9000C756DF4F88839983AA83C959D04086E01D
:100CA0002AE936E040E0F901DE01AD56BF4F742F6E
:100CB0000E945E22D6012C9111963C9111971296BA
:100CC0004C91129713965C91139714966C9114970C
:100CD00015967C91159716968C91169717969C9160
:100CE000A0E00E949E2251F400E010E0CF55DF4FBB
:100CF000288139814A81C15AD040BAC028E7A6016B
:100D0000BE016F577F4FC4010E94FB0FB7C0612F18
:100D100070E09501A1014E0D5F1DC6010E942D16C8
:100D2000B0C0612F70E0A501C6010E949520892BFB
:100D300009F4A7C0C756DF4F88819981AA81C95994
:100D4000D0409C014A2F2F5F3F4F4F4FC756DF4F78
:100D5000288339834A83C959D040FC015A2F0E9405
:100D60000223262FA601BE016F577F4FC4010E94A8
:100D7000690784C0103809F084C0C756DF4F8881E6
:100D80009981AA81C959D0400196A11DC756DF4F4C
:100D900088839983AA83C959D040D501ED91FC91EC
:100DA0001197CF0102968D939C938081F6018083E9
:100DB0005BC0103809F065C0C756DF4F8881998144
:100DC000AA81C959D0400196A11DC756DF4F88831B
:100DD0009983AA83C959D040D501ED91FC9111970F
:100DE000CF0103968D939C9320813181428100E055
:100DF00010E03EC0103809F044C0C756DF4F88816C
:100E00009981AA81C959D0400196A11DC756DF4FCB
:100E100088839983AA83C959D040F601708224C07F
:100E2000D6017C92C256DF4F288139814A81CE5942
:100E3000D040C756DF4F288339834A83C959D040F1
:100E4000CF57DF4F19821882C158D040CB57DF4FA0
:100E500019821882C558D0408FEF9FEFCD57DF4FD2
:100E600099838883C358D04001E010E0462D920159
:100E7000BE016F577F4FC4010E94D4178E0D9F1D76
:100E800011C0C756DF4F88819981AA81C959D040C6
:100E90000196A11DC756DF4F88839983AA83C9593C
:100EA000D040C7017101E80EF91EE214F3044CF4BE
:100EB0008FE490E090932D1280932C128FEF9FEF90
:100EC00003C0170119CCC101CD55DF4FE2E10C94ED
:020ED0002821D7
:100ED200A6E2B0E0EFE6F7E00C94F1209F8F8E8F50
:100EE200798F688F122FFB010190F081E02DFA8734
:100EF200E987FB01C280D380248135813C8B2B8B17
:100F02008085918599A388A30680F781E02DFA83D5
:100F1200E983FA0180809180A280B38020E030E0F2
:100F2200A901C501B4010E94322387FF06C0B7FAA6
:100F3200B094B7F8B0948DE204C0F985F2FF0CC307
:100F42008BE2E981FA8180832B893C892150310926
:100F520038872F8341E050E05A8B498B06C08B893A
:100F62009C8998878F831A8A198AD501C401BF7711
:100F72000097E0E8AE07EFE7BE07D9F4212F110F83
:100F8200330B2154310989819A8149895A89840F05
:100F9200951F2A31310520F443E756E060E003C093
:100FA20047E756E060E00E94422267E776E080E091
:100FB2001EC00197A048BF4730F1212F110F330BFC
:100FC2002154310989819A8149895A89840F951F4F
:100FD2002A31310520F44BE756E060E003C04FE7C9
:100FE20056E060E00E9442226FE776E080E00E94D5
:100FF2000022E981FA81AF0160E8E984FA840B8971
:101002001C899C01A1C220E030E0A901C501B40104
:101012000E9432231B821C82882309F467C0F0E8F5
:10102200FD832FE32E83212C312C20E030E040E29F
:1010320051E46B817C818D819E810E944823F62E32
:10104200072F8D879B87A50194010E9437231816CD
:1010520054F03FEF231A330AFB820C834D854D83F4
:101062005B855E83E2CF1C861B862B813C814D8192
:101072005E81C501B4010E94322387FF3DC084ED29
:1010820028168EEF380604F5EB85FC85EF2BE1F48C
:1010920020E030E040E85AE5C501B4010E9448234F
:1010A2004B015C0120E030E040E85AE56B817C8135
:1010B2008D819E810E9448236B837C838D839E83D6
:1010C20021E030E03C872B8720E030E040E251E431
:1010D2006B817C818D819E810E9444236B837C8302
:1010E2008D839E8331E0231A3108BFCF40E84D83C0
:1010F2005FE35E83212C312C812F110F990B9BA36F
:101102008AA30E94DE228B8FD7FC03C0DEA2CDA26F
:1011120004C0E6E0F0E0FEA3EDA3FB8DF73641F458
:10112200CD2809F01EC221E030E03EA32DA319C252
:101132008B8D8D8B04C037FE25C296E69D8BEDA16B
:10114200FEA13196FEA3EDA3FD89F63699F437FE92
:1011520008C01B821C8220E82D833FE33E83212CA2
:10116200312C4B8D473631F08DA19EA1820D931DFE
:101172009EA38DA39B819B87EC81ED87FD81FE8BD6
:101182002E812A8F750164011D8E1C8E8C8D9D8D82
:10119200EDA1FEA18E179F07C1F12B853D854E89DA
:1011A2005A8DC701B6010E9444230E949E142B014E
:1011B2003C010E9410236CA38701760117FB109556
:1011C20017F910952B853D854E895A8DC301B201C1
:1011D2000E9400146B017C01F7FAF094F7F8F09486
:1011E20020E030E040E251E46B857D858E899A8D66
:1011F2000E9444236B877D878E8B9A8F4C8D5D8DE9
:101202004F5F5F4F5D8F4C8FC1CF20E030E040EAEF
:1012120050E46B857D858E899A8D0E9448232B012F
:101222003C019B01AC01C701B6010E94322387FD3C
:101232000BC0A3019201C701B6010E9432238111A2
:1012420006C0FCA1F0FD03C0412C512C3201A301C8
:101252009201C501B4010E940A234B015C012D8950
:10126200253611F0310102C0612C712C23014DA1F0
:101272005EA1441A550AC988DA8800E010E01C868B
:101282001B8689859A85807199279F8B8E8B641422
:10129200750431F48B859C85892B09F49AC0A6C00C
:1012A200DD8ECC8EE88DF98D808591850597C816E7
:1012B200D90680F72B813C814D815E81C501B40145
:1012C2000E9444230E949E146D877E878F87988B8D
:1012D2000E941023CB01EE89FF89EF2B69F4892B41
:1012E20059F4FB8DF73641F477FE06C098012F5F63
:1012F2003F4F3D8F2C8F43C04B855C85452BB1F40E
:1013020077FE14C05FEFC51AD50AE981FA818C8D88
:101312009D8DE80FF91F9EE29083EF81F88531974A
:10132200F887EF8321E030E03C872B87E981FA815F
:10133200EC0DFD1D1D8F0C8F8C8D9D8D892B49F021
:1013420030E331934C8D5D8D415051095D8F4C8F4F
:10135200F3CFC8018C0D9D1D2F813885201B310BC9
:101362006C01EFEFCE1ADE0AE981FA81E80FF91F6C
:10137200605D6083A9014150510958874F838501FF
:10138200740117FB109517F910952B813C814D8143
:101392005E816D857E858F8598890E9400144B0140
:1013A2005C01B7FAB094B7F8B09420E030E040E2C4
:1013B20051E46B817C818D819E810E9444236B83E9
:1013C2007C838D839E8351E0651A71080C8D1D8D7F
:1013D2005ECFF985F4FF0AC0E981FA81EC0DFD1DAB
:1013E2008EE2808396012F5F3F4F690149815A81C6
:1013F2004C0D5D1D5C874B87FA011082FD89F53625
:1014020009F061C0E981FA8128A139A1E20FF31F35
:101412003197108237FE06C031942194310801E0E1
:1014220010E002C000E010E0E8A1F9A13197498183
:101432005A81E40FF51F22E030E08AE0E82EF12C19
:10144200CF0149815A81841B950B2114310479F013
:10145200C101B7010E948D21805D82931B01215041
:1014620031098F819885019798878F83E9CF12166A
:10147200130674F3FC013197E40FF51F012B11F4ED
:101482002BE201C02DE220830297E981FA81E80F65
:10149200F91F2AA13BA1215431092A31310510F04B
:1014A20025E601C025E420832F81388522503109A9
:1014B20038872F83C816D90634F4AF0160E88B85CC
:1014C2009C850E94422249815A813A0180E8882EF5
:1014D200998591FF2EC090FD2CC0EF81F8851E16D4
:1014E2001F063CF5882DB3010E94002229813A8112
:1014F200820F931F9C0149815A81241B350BE98974
:10150200FA892E173F074CF0FC012081EF81F88504
:10151200E80FF91F20830197EDCF4F81588560E3D3
:1015220070E089819A818E0F9F1F0E94CC221C8AB3
:101532001B8A882DB3010E940022E984FA840B8958
:101542001C899C01682DA3018E8D9F8D0E943715E9
:10155200A696E2E10C942821598553FF00CD80E242
:10156200F0CC2CEF22162FEF32064CF04DA15EA1EB
:10157200241635060CF4DFCD55E65D8BFBCD35E642
:0A1582003D8BF8CD46E64D8BF5CD0C
:10158C00A0E2B0E0ECECFAE00C94F1209D8F8C8F93
:10159C00FB01298320812D8331813E8F82819381B0
:1015AC009B8B8A8B2481358139872887808591850F
:1015BC00998F888F46805780FA01C080D180E28055
:1015CC00F38020E030E0A901C701B6010E9432236C
:1015DC0087FF06C0F7FAF094F7F8F0948DE204C098
:1015EC005D8152FFF6C28BE2F2018083288539853A
:1015FC00215031093F872E8741E050E05C834B83BB
:10160C0006C0888599859F878E871C821B82B701AF
:10161C00A6017F77E9810E2E000CFF0BF98BE88B6E
:10162C0041155105F0E86F07FFE77F07C1F42889E2
:10163C003989215431098B819C81840D951D2A3166
:10164C00310520F443E856E060E003C047E856E07B
:10165C0060E00E94422267E876E080E01CC08B814B
:10166C009C81840D951D4130510560487F47E8F001
:10167C0028893989215431092A31310520F44BE864
:10168C0056E060E003C04FE856E060E00E94422262
:10169C006FE876E080E00E940022A20160E8ED8015
:1016AC00FE8C088519859C018CC220E3FC012083EB
:1016BC00EB81FC813196E40DF51D2B813C812E5F75
:1016CC003F4F3C832B8348895989415451095B8F87
:1016DC004A8F4A31510510F088E701C088E58083B4
:1016EC0020E030E0A901C701B6010E943223612C31
:1016FC00712C1F8E1982882309F464C050E858A3FA
:10170C008FE38A832F8D398148A15A816F8D79811E
:10171C0088A19A810E940A235B018C01A701960182
:10172C000E94372318160CF442C09FEF691A790AED
:10173C00AF8EB98208A31A83E5CF20E030E040E0F9
:10174C005FE36F8D798188A19A810E94482320E004
:10175C0030E0A9010E943223811118C020E030E052
:10176C0040E85AE56F8D798188A19A810E944823BF
:10177C006F8F798388A39A8320E030E040E85AE5A4
:10178C00C701B6010E9448236B017C0120E030E0C8
:10179C0040E05FE36F8D798188A19A810E94482394
:1017AC006F8F798388A39A83A1E06A1A71082F8DB1
:1017BC00398148A15A81C701B6010E94322387FDA5
:1017CC00BCCF04C0E0E8E8A3FFE3FA832A893B8995
:1017DC0037FD02C0C90102C088E190E0AC014F5F47
:1017EC005F4F5B874A878F8C9980A8A0BA801601BF
:1017FC0087011F821E829401A501B101C8010E94BC
:10180C0044230E949E146C8B7D8B8E8B9F8B94013A
:10181C00A5010E9448239B01AC01B101C8010E94A3
:10182C0009231B018C0120E030E040E85DE3B401AA
:10183C00C5010E9448234B015C018E819F8101965A
:10184C009F838E83EA89FB89F7FF09C020E030E093
:10185C00A901B101C8010E943223882341F02A85D5
:10186C003B854E815F81421753072CF204C08E8159
:10187C009F819B878A8720E030E040E051E4B401EF
:10188C00C5010E9448234B015C019B01AC01B101D5
:10189C00C8010E94322387FD12C0A5019401B10139
:1018AC00C8010E94322381110DC06C897D898E89FB
:1018BC009F890E94102361707727672B19F4812C64
:1018CC00912C5401A5019401C701B6010E940A2371
:1018DC006B017C01DC01CB01BF770097A048BF47AF
:1018EC0009F4A5CE2E843F84F2E02F1A31082A8504
:1018FC003B85319521953109398B288B0B811C81C6
:10190C00A12CB12C1F821E82812C912C488D598DBB
:10191C00455051095D8B4C8BEC89FD890E171F07C7
:10192C000CF091C02F8D398148A15A81C701B601A5
:10193C000E9444230E949E146A877B878C879D8714
:10194C000E941023AB016115710539F481149104C7
:10195C0021F05FEFA51AB50A4DC0EE81FF81EF2B88
:10196C0089F48114910471F0F201E00FF11F2EE261
:10197C00208331E0231A31080F5F1F4FE1E0F0E0C4
:10198C00FF83EE83F201E00FF11F95012115310564
:10199C0029F0A0E3A19321503109F8CFF801EA0D09
:1019AC00FB1DFF87EE872A183B084A3051051CF4B3
:1019BC00605D7F4F02C0695A7F4F2A8D3B8D2A3163
:1019CC00310550F4CB018062815691094A9720F47D
:1019DC00CB010E94D522BC010E851F850F5F1F4FC6
:1019EC00EE85FF85E40DF51D608331E0231A310887
:1019FC00A12CB12C2F8D398148A15A816A857B8508
:101A0C008C859D850E9448239B01AC01C701B601C2
:101A1C000E9409236B017C0120E030E040E85DE38B
:101A2C006F8D798188A19A810E9448236F8F798369
:101A3C0088A39A8341E0841A91088889998988152A
:101A4C00990509F069CF2E813F81232B51F5F201C5
:101A5C00E00FF11FA114B104E9F04A895B89141657
:101A6C001506C4F45D8150FD15C08EE28083F8012B
:101A7C003196E40DF51DC50120E321930197E9F79B
:101A8C000A0D1B1D0F5F1F4FC50180959095280EE9
:101A9C00391E07C08D8184FF04C08EE280830F5FE6
:101AAC001F4FF201E00FF11FFF83EE831082E88DD0
:101ABC00F98DE40DF51D3197108277FE07C07194F6
:101ACC0061947108EE24E394F12C02C0E12CF12C0A
:101ADC00E88DF98D3197E40DF51D21E030E08AE0B9
:101AEC00C82ED12CCF01841995096114710469F0A9
:101AFC00C301B6010E948D21805D82933B01215070
:101B0C00310941E0241A3108EDCF2130310581F340
:101B1C00FC013197E40DF51DEF2811F42BE201C007
:101B2C002DE220830297F201E80FF91F2A8D3B8DDD
:101B3C002A31310510F020E701C020E52083081779
:101B4C00190734F4AF0160E88E819F810E94422214
:101B5C00320130E8832E4D8141FF28C040FD26C064
:101B6C0052E0251A31081214130404F5882DB30120
:101B7C000E940022840D951D9C01241935094B816E
:101B8C005C81241735073CF0FC012081E20DF31D2C
:101B9C0020830197F1CFA10160E370E08B819C81E0
:101BAC00840D951D0E94CC2219861886882DB301B0
:101BBC000E940022ED80FE8C088519859C01682D01
:101BCC00A3018C8D9D8D0E943715A096E2E10C949B
:0C1BDC0028215D8153FF15CD80E206CD6D
:101BE8006F927F928F92CF92DF92EF92FF920F9334
:101BF8001F93CF93DF936B01E82E2DE132E040E095
:101C08000E943020892B29F40E94E81E0E94D21CD1
:101C1800E2C126E232E040E08E2DB6010E9430207B
:101C2800892B19F40E94D51DD6C125E332E040E086
:101C38008E2DB6010E943020892B99F581E090E025
:101C480090932512809324120E94E81E0E949C1FE4
:101C5800C0E0D0E021C0FE01E15EF54F80811F9217
:101C68008F93DF93CF9384E492E0A0E0AF939F93A8
:101C78008F9300E01AE01F930F930E94C821B801C8
:101C880080E80E94C41F21968DB79EB709960FB6AB
:101C9800F8949EBF0FBE8DBFCF3FD105E1F2DCF2B5
:101CA8009AC120E632E040E08E2DB6010E94302035
:101CB800892B09F0A1C00E94E81E62E772E080E06B
:101CC8000E94C41F62E872E080E00E94C41F65E9B8
:101CD80072E080E00E94C41F61EA72E080E00E9426
:101CE800C41F80E00E94F71880E092E06C0120E8B1
:101CF800E22E21EB32E040E08E2DB6010E9430202A
:101D0800892B09F04EC00E94E81E6CEB72E080E05F
:101D18000E94C41F66EC72E080E00E94C41F62ED5E
:101D280072E080E00E94C41F6CED72E080E00E94C7
:101D3800C41F80E00E94F7182BEE32E040E08E2DA1
:101D4800B6010E943020892B21F481E00E940F1EE9
:101D580042C120EF32E040E08E2DB6010E943020D3
:101D6800892B21F480E00E940F1E35C127EF32E055
:101D780040E08E2DB6010E943020892B21F480E0AE
:101D88000E94031A28C12CEF32E040E08E2DB601E4
:101D98000E943020892B09F01EC181E00E94031A9D
:101DA8001AC126E033E040E08E2DB6010E943020B3
:101DB800892B29F40E94E81E0E94981D0CC124E179
:101DC80033E040E08E2DB6010E943020892B29F4A3
:101DD8000E94E81E0E94171DFEC02BE133E040E080
:101DE8008E2DB6010E943020892B09F0F4C00E9484
:101DF800E81E0E945B1DEFC026E233E040E08E2D16
:101E0800B6010E943020892B09F0B9C00E94E81E53
:101E180063E373E080E00E94C41F63E473E080E042
:101E28000E94C41F62E573E080E00E94C41F62E65E
:101E380073E080E00E94C41F65E773E080E00E94C1
:101E4800C41F80E00E94F71880E092E03C0120E87F
:101E5800822E27E833E040E0882DB3010E9430202D
:101E6800892B81F510922512109224120E94E81EE7
:101E780080E00E94F71862ED71E080E00E94C41FC4
:101E880080E00E94B3126AEF71E080E00E94C41FF4
:101E980081E00E94B31286E292E17C0120E8022FE1
:101EA8000F2EF0E0CF2EFAE0DF2EF02D2EEA31E0F3
:101EB80040E060E070E085E090E00E94AD190E948B
:101EC800491E89C022E933E040E0882DB3010E9411
:101ED8003020892B89F410922512109224120E9426
:101EE800E81E0E94B5206FE17AE080E80E94C41FD6
:101EF8008AE00E94E6226FC02CE933E040E0882D9A
:101F0800B3010E943020892B49F4109225121092B7
:101F180024120E94E81E0E9474205DC027EA33E064
:101F280040E0882DB3010E943020892BC1F4109223
:101F38002512109224120E94E81E0E94B52080915A
:101F48001F128F3F31F065EB73E080E00E94C41FE1
:101F580042C06AEC73E080E00E94C41F3CC02FEDD1
:101F680033E040E08E2DB6010E943020892B99F590
:101F780010922512109224120E9439182CC02CEEAF
:101F880033E040E08E2DB6010E943020892B29F4E1
:101F98000E94E81E0E9433221EC062EF73E080E0B8
:101FA8000E94C41F60E074E080E00E94C41F64E1E6
:101FB80074E080E00E94C41F68E274E080E00E9440
:101FC800C41F6FE374E080E00E94C41F61E574E001
:101FD80080E00E94C41FDF91CF911F910F91FF9065
:0E1FE800EF90DF90CF908F907F906F900895D4
:101FF600A4E1B0E0E1E0F0E10C94F12098878F8352
:102006007A8369835C8B4B8B122FDB011296ED91E1
:10201600FC91139714962D913C9115973E832D8331
:10202600ED90FC90119716962D903C901797F7FD22
:1020360003C0E894E1F802C0E1E0F0E0C701807176
:1020460099279A878987E4FE1FC0AB89BC892C91A2
:1020560011963C91119712964C91129713965C919A
:10206600139714966C91149715967C91159716965E
:102076008C91169717969C91A0E00E949E2221F0C3
:102086008D819E81029702C08D819E819701287065
:1020960033273C872B87E3FC0197AB89BC894C909F
:1020A60011965C90119712966C90129713967C90ED
:1020B600139714968C90149715969C9015971696D0
:1020C600AC9016971796BC90A981BA811896CD90B8
:1020D600DC901997B1E0CB1AD108D101AC0DBD1D2A
:1020E6001C929C838B839F01281B390B3E872D876F
:1020F600C70182709927988B8F87812F012E000C3C
:10210600990BDC01A154B109BA8BA98B32E0C31635
:10211600D10434F489859A85892B09F04CC073C0A3
:102126009201A301B401C501A0E00E949E2281F1A3
:10213600B1E0CB1AD108C2018F7099278A30910578
:1021460014F4C09602C0895A9F4FE989FA897A9792
:1021560048F49C012062215631092A31310510F4D8
:102166000E94D522F101EC0DFD1D80832B813C815F
:10217600215031093C832B839201A301B401C5018F
:1021860004E00E94D52029013A014B015C01BECF33
:102196008D859E85AB81BC818A0F9B1F18161906FB
:1021A6003CF21A161B060CF0B5CFEF85F889EF2B1B
:1021B60009F0BECFAFCFAB89BC892C9111963C916B
:1021C600119712964C91129713965C911397149649
:1021D6006C91149715967C91159716968C91169777
:1021E60017969C91A0E00E949E2269F0F101EC0DE9
:1021F600FD1D31971083B2E0CB1AD108F101EC0D29
:10220600FD1D80E38083EB85FC85EF2B41F0F1E03B
:10221600CF1AD108F101EC0DFD1D80E28083A98162
:10222600BA8118962D913C911997215031092C1994
:102236003D09C20CD31CA60160E80D811E818F8169
:1022460098850E9437159C01EF81F88580819181E0
:1022560090FF09C0A981BA8112968D919C9113971E
:10226600821793070CF4C9016496E2E10C942821C5
:10227600ADE0B0E0E1E4F1E10C94F1209A878987C2
:102286007C836B83FA01DB011296CD90DC90139769
:1022960014968D919C9115979E838D83ED90FC905D
:1022A6001197FA82E98216960D90BC91A02DB887F7
:1022B600AF83208031804280538064807580868021
:1022C60097808101B42DF52DE62D7B868C869D8623
:1022D6009101A201B301C401A0E00E949E224CF428
:1022E6000E9423228901B42FF52FE62F7B878C8746
:1022F6009D87D7FC04C0E894E1F8FA82E98291014F
:10230600A201B301C401A0E0ED80FE800E949E22DE
:102316001CF0898182FF04C081E0E81AF10805C03B
:1023260083FF03C091E0E91AF108CE0101965C0132
:102336008AE0C82ED12C2B2F3F2F4E2F5B856C8524
:102346007D858B819C810E945B13FC019101A2011A
:10235600B301C401A0E00E949E221CF0898182FF85
:1023660012C031970F8118850E0F1F1F9101A20110
:10237600B301C401A0E00E949E2214F08BE201C0CA
:102386008DE2D80108C083FF07C03197AF81B885B9
:10239600AE0FBF1F80E28C93E980FA80AB81BC81CF
:1023A60018962D913C911997215031092E1B3F0B00
:1023B6008F819885E80FF91FAF0160E80D811E81B6
:1023C60089859A850E9437159C01A985BA858D91C4
:1023D6009C9190FF07C0EB81FC81828193818217DB
:0E23E60093070CF4C9012D96E2E10C94282116
:1023F4000F931F93CF93DF93FC01D90168387105C4
:1024040031F194F461387105B1F12CF4603871053F
:1024140009F478C09FC06238710509F459C0643862
:10242400710509F46FC096C0603A710509F448C09B
:102434002CF46039710509F44BC08CC0603C710503
:1024440009F476C0603F710509F472C083C0CD9170
:10245400DC911197CE0102968D939C93452B39F014
:102464009881892F880F880B908381835BC0888132
:102474008083118268C0CD91DC911197CE010496BE
:102484008D939C93452B99F088819981AA81BB8176
:10249400AC01BD01770F440B542FBA0180839183A3
:1024A400A283B383448345834683478328C008813A
:1024B40019812A813B81008311832283338345C0A0
:1024C400CD91DC911197CE0102968D939C9323C0FC
:1024D400CD91DC911197CE0108968D939C937881D0
:1024E40069815A814B813C812D819E818F817083CA
:1024F400618352834383348325839683878381E076
:1025040090E02AC0CD91DC911197CE0102968D9373
:102514009C93452BA1F099812881892F880F880BE2
:102524002083918382838383848385838683E6CF18
:10253400CD91DC911197CE0102968D939C930881E5
:1025440019810083118312821382148215821682E8
:102554001782D5CF80E090E0DF91CF911F910F914A
:022564000895D8
:10256600CF92DF92EF92FF920F93CF93C82F80E026
:102576000E94F718C1114BC080912E1290912F1214
:10258600049741F06BE674E080E00E94C41F80E08F
:102596000E94F7180E94991881111BC034C09C0133
:1025A600992314F42F5F3F4F35952795FC01E05092
:1025B600FE4F408160E1469FA0011124FC01EF5FC0
:1025C600FD4F5081F901EA5DFD4E452B4083029691
:1025D60002C080E090E0833091050CF386E292E140
:1025E6007C0120E8022F0F2EF0E0CF2EFAE0DF2E3E
:1025F600F02D26E834E040E060E070E082E090E014
:102606000E94AD194EC08C2F0E94B3124AC0809111
:102616002E1290912F12069741F061EA74E080E045
:102626000E94C41F80E00E94F7180E949918811129
:102636001BC034C09C01992314F42F5F3F4F35957E
:102646002795FC01E050FE4F408160E1469FA001C6
:102656001124FC01EF5FFD4F5081F901E85DFD4E4D
:10266600452B4083029602C080E090E085309105BC
:102676000CF386E292E17C0120E8022F0F2EF0E0B7
:10268600CF2EFAE0DF2EF02D2CEB34E040E062E0B6
:1026960070E083E090E00E94AD1903C08C2F0E9489
:1026A600B312CF910F91FF90EF90DF90CF900895E6
:1026B600A2E1B0E0E1E6F3E10C94F120FC010A8B23
:1026C6001B832C83732E642E552E462E7D83CC863B
:1026D600D886BF82AE82868197819B878A87D501FD
:1026E6004D915C91228133818085918501971C01F2
:1026F60037FF02C021E030E0EA85FB85E80FF91FCD
:1027060010824701E1E0F0E0FA83E983C9018E19FE
:102716009F099E878D87DA01A270BB27B88BAF878A
:10272600B885BB0FBB0BB98B1214130474F0A981C7
:10273600BA81AB2B09F05CC0AE81BF818D919C91B3
:1027460011978F7E8D939C9353C02A893B814C8130
:10275600572D662D752D842D9D81A0E00E949E2209
:10276600B1F1E1E02E1A3108FC85F987AF2EB88465
:10277600C988DC2CEC2CFC2C0C2D1C2D2A893B81C9
:102786004C81572D662D752D842D9D810E945022DA
:10279600C90129839A83EA85FB85E20DF31D805DD5
:1027A600808381E0881A91082A893B814C81572DC4
:1027B600662D752D842D9D810E9452222A8B3B8386
:1027C6004C83752E662E572E482E9D83ADCF8D8554
:1027D6009E85880D991D181619061CF218141904E1
:1027E6000CF0A5CFEF85F889EF2B09F0BACF9FCF74
:0A27F600C1016296E2E10C94282173
:10280000A5E1B0E0E6E0F4E10C94F12047015801C5
:102810000E9448232B013C01A80197010E940A2332
:10282000162FC72ED82EF92E862F9C2DAD2DBF2DFD
:1028300089839A83AB83BC83AA81FB81EC81ED8081
:102840003E802F8008850D8B5E2F5F71212F3A2FE0
:102850004F2F60E070E080E090E0211531054105E8
:1028600000E15007610571058105910509F05EC021
:102870005E2F6E2D732D822D9D8904E30E94D5203D
:102880002D873E874F87588B698B7A8B8B8B9C8BE0
:102890008D859E8597708F3F974009F447C0A301AF
:1028A0009201612F7C2D8D2D9F2D0E9409239B016C
:1028B000AC01C501B4010E9432238823B9F14986D5
:1028C0005A866B867C8629853A854B855C85C50151
:1028D000B4010E940A23B62E872E982EA92E262FE9
:1028E000372F482F592F612F7C2D8D2D9F2D0E9422
:1028F0003223811118C02B2D8B2D982DA92DBA2D87
:1029000089839A83AB83BC833A814B815C816E2D32
:10291000732D822D9D89A1E00E94AA22122FC32E21
:10292000D42EF52E03C01B2D6401FA2C612F7C2DB3
:0C2930008D2D9F2D6596E2E10C9428216E
:10293C004F925F926F927F928F929F92AF92BF92C3
:10294C00CF92DF92EF92FF92CF93DF93CDB7DEB7AA
:10295C0028970FB6F894DEBF0FBECDBF6B017C017C
:10296C00DC01CB0147E1B695A795979587954A95DC
:10297C00D1F799278F579109873191059CF597FDD0
:10298C0036C088248A94982C3FE7A32EB12C04C01F
:10299C00B594A794979487948A95D2F7D501C401DE
:1029AC008C219D21AE21BF21892B8A2B8B2BD1F021
:1029BC0020E030E040E85BE7C701B6010E940A2343
:1029CC006D837E838F839887F7FE04C0C80CD91C57
:1029DC00EA1CFB1C80949094A094B094C820D9203D
:1029EC00EA20FB205C2D4D2D3E2D2F2D21C020E00B
:1029FC0030E040E85BE7C701B6010E940A23698317
:102A0C007A838B839C83F7FE0FC0D701C601880F96
:102A1C00991FAA1FBB1F892B8A2B8B2B19F350E0F4
:102A2C0040E030E82FEB04C050E040E030E020E024
:102A3C00652F742F832F922F28960FB6F894DEBF34
:102A4C000FBECDBFDF91CF91FF90EF90DF90CF9075
:102A5C00BF90AF909F908F907F906F905F904F90B2
:022A6C000895CB
:102A6E002F923F924F926F927F928F92AF92BF9220
:102A7E00CF92DF92EF92FF920F931F93CF93DF933C
:102A8E00CDB7DEB766970FB6F894DEBF0FBECDBFDB
:102A9E005C013A01862E6901C701817099279C8BD2
:102AAE008B8BE0FC1DC020173107D4F47801EC1895
:102ABE00FD08FE8AED8AA70191E1E916F10410F0F6
:102ACE0040E150E060E270E0CE0101969A8B898B76
:102ADE000E94CC2289899A891C0120E8422E0BC0C3
:102AEE009601682DA301C5010E94821EC016D10653
:102AFE00ECF2C60125C090E1E916F10458F020E190
:102B0E0030E0642DA101C5010E94821E80E1E81A09
:102B1E00F108F1CF2D893E892F70332789899A8943
:102B2E00AC0160E8C5010E94821E8B899C89892BAD
:102B3E0031F49601682DA301C5010E94821EC801C1
:102B4E0066960FB6F894DEBF0FBECDBFDF91CF9164
:102B5E001F910F91FF90EF90DF90CF90BF90AF90AD
:0E2B6E008F907F906F904F903F902F90089522
:102B7C0010C00E941E2358F00E94172340F029F425
:102B8C005F3F29F00C942C2351110C9426230C94A8
:102B9C004C230E94522068F39923B1F3552391F3EF
:102BAC00951B550BBB27AA2762177307840738F0B0
:102BBC009F5F5F4F220F331F441FAA1FA9F335D00D
:102BCC000E2E3AF0E0E832D091505040E695001CC1
:102BDC00CAF72BD0FE2F29D0660F771F881FBB1F7B
:102BEC00261737074807AB07B0E809F0BB0B802D59
:102BFC00BF01FF2793585F4F3AF09E3F510578F085
:102C0C000C942C230C9426235F3FE4F3983ED4F3CE
:102C1C00869577956795B795F7959F5FC9F7880F58
:102C2C00911D9695879597F90895E1E0660F771FAA
:102C3C00881FBB1F621773078407BA0720F0621B3B
:0E2C4C00730B840BBA0BEE1F88F7E09508950A
:102C5A00CF93DF93DC01F90164387105D9F164F48B
:102C6A006138710521F16238710509F440C0603894
:102C7A00710509F054C02EC060397105C1F184F4A0
:102C8A006838710509F04BC0C081D181CE01029626
:102C9A0091838083E881F981ED93FC9340833CC062
:102CAA00603A7105B9F0603C7105A1F038C0C08185
:102CBA00D181CE01029691838083E881F981ED93D7
:102CCA00FC93052E000C660B770B408351836283BD
:102CDA00738322C0C081D181CE0102969183808301
:102CEA00E881F981ED93FC935183408315C0C0813B
:102CFA00D181CE01029691838083E881F981ED9397
:102D0A00FC9351834083852F880F880B82838383AA
:102D1A00848385838683878381E090E002C080E094
:082D2A0090E0DF91CF910895C4
:102D3200A2E0B0E0EFE9F6E10C94F1201C014B01B6
:102D4200FA01DB0112962D913C91139714964D9046
:102D52005C9015978D919C9111979A838983169611
:102D62006D907C90179737FD03C08D7F9A8389837E
:102D7200008111812281338144815581668177816D
:102D8200FE0131965F0188E0C82ED12C7201C40188
:102D92000E945B13298124FF06C00197F301E80F0B
:102DA200F91F20E32083298123FF06C00197F30145
:102DB200E80FF91F20E22083E980FA80D4011896F7
:102DC2002D913C91199721503109281B390B860D01
:102DD200971DAC0160E88201C1010E9437159C0178
:102DE200F1018081918190FF08C0D40112968D91EA
:102DF2009C911397821793070CF4C9012296E2E182
:042E02000C942821E3
:102E06000FC00E94172338F00E941E2320F095233E
:102E160011F00C942C230C944C2311240C9426238F
:102E26000E94522070F3959FC1F3950F50E0551FF5
:102E3600629FF001729FBB27F00DB11D639FAA2709
:102E4600F00DB11DAA1F649F6627B00DA11D661F58
:102E5600829F2227B00DA11D621F739FB00DA11D79
:102E6600621F839FA00D611D221F749F3327A00D33
:102E7600611D231F849F600D211D822F762F6A2FCF
:102E860011249F5750409AF0F1F088234AF0EE0F34
:102E9600FF1FBB1F661F771F881F91505040A9F761
:102EA6009E3F510580F00C942C230C9426235F3F03
:102EB600E4F3983ED4F3869577956795B795F7959D
:102EC600E7959F5FC1F7FE2B880F911D9695879515
:042ED60097F90895CB
:102EDA0011C00E94172338F00E941E2320F039F4F3
:102EEA009F3F19F426F40C944C230EF4E095E7FB6B
:102EFA000C942C23E92F0E94522058F3BA17620728
:102F0A0073078407950720F079F4A6F50C94252316
:102F1A000EF4E0950B2EBA2FA02D0B01B9019001EA
:102F2A000C01CA01A0011124FF27591B99F0593F2E
:102F3A0050F4503E68F11A16F040A22F232F342F76
:102F4A004427585FF3CF469537952795A795F040C4
:102F5A005395C9F77EF41F16BA0B620B730B840BD9
:102F6A00BAF09150A1F0FF0FBB1F661F771F881F91
:102F7A00C2F70EC0BA0F621F731F841F48F48795E9
:102F8A0077956795B795F7959E3F08F0B0CF9395DB
:0E2F9A00880F08F09927EE0F979587950895F8
:102FA8002F923F924F926F927F928F92AF92BF92E1
:102FB800CF92DF92EF92FF920F931F93CF93DF93FD
:102FC800CDB7DEB727970FB6F894DEBF0FBECDBFDB
:102FD8006C017B013901842E980183E9282E86E053
:102FE800382E80E0482E87E0F101AE014F5F5F4F39
:102FF800DA01742D0E945E22F70102811381A480F8
:10300800B580E080F18061147104810419F43A01FB
:10301800F0E88F2E2115310529F4882DB3010E947F
:1030280000229C0117FD04C00217130708F4980139
:103038008501682DA301C6010E94371527960FB692
:10304800F894DEBF0FBECDBFDF91CF911F910F91D6
:10305800FF90EF90DF90CF90BF90AF908F907F90D0
:0A3068006F904F903F902F90089555
:10307200CF92DF92EF92FF920F93CF93DF936BEC9D
:1030820075E080E00E94C41F80E00E94B3126AEEE5
:1030920075E080E00E94C41F81E00E94B312C0E08C
:1030A200D0E03BC00E94E81E0E94B52080912A1207
:1030B2008034B1F180911F0A8F3FA9F086E292E13C
:1030C2007C0120E8022F0F2EF0E0CF2EFAE0DF2E57
:1030D200F02D2DE036E040E064E070E081E090E029
:1030E2000E94AD1914C086E292E17C0120E8022F11
:1030F2000F2EF0E0CF2EFAE0DF2EF02D2EE236E09A
:1031020040E064E070E081E090E00E94AD19E6E208
:10311200F2E184818F5F84832196C034D10514F259
:10312200DF91CF910F91FF90EF90DF90CF900895B4
:10313200CF92DF92EF92FF920F9380E090E045C032
:10314200FC01E050FE4F208130ED320F3A3028F47E
:10315200FC01E050FE4F308337C03FEB320F363078
:1031620030F4FC01E050FE4F275320832DC03FE98D
:10317200320F363030F4FC01E050FE4F27552083E9
:1031820023C02D3041F12A3041F1222341F16AE777
:1031920071E080E00E94C41F80E092E07C0120E8A0
:1031A200022F0F2EF0E0CF2EFAE0DF2EF02D2EEAC6
:1031B20031E040E060E070E081E090E00E94AD1913
:1031C2000E94E81E80E00CC00196863091050CF446
:1031D200B7CF81E005C081E003C081E001C081E09A
:0C31E2000F91FF90EF90DF90CF900895C8
:1031EE00CF92DF92EF92CF93C82F6CE574E080E020
:1031FE000E94C41F10922F1210922E120E94ED22C6
:10320E0080931E0A25C080912E1290912F12019646
:10321E0090932F1280932E12809130129091311232
:10322E00FC01E050FE4F20838115984020F0109253
:10323E00311210923012809130129091311201960B
:10324E0090933112809330120E94ED2280931E0AC9
:10325E0020911E0A2D30B9F6E0913012F091311204
:10326E00E050FE4F1082109231121092301280E018
:10327E0092E06C0120E8E22E8E2DB6010E94C41F52
:10328E008AE00E94E622CC2321F08E2DB6010E9408
:0C329E00F40DCF91EF90DF90CF900895D9
:1032AA00A2E0B0E0EBE5F9E10C94F1203C014B011E
:1032BA00FA01DB0112962D913C91139714964D90C9
:1032CA005C9015978D919C9111979A838983169694
:1032DA002D903C90179737FD03C08D7F9A83898381
:1032EA0000811181228133814481558166817781F0
:1032FA00FE0131965F018AE0C82ED12C7201C40109
:10330A000E945B13E980FA80D40118962D913C91B2
:10331A00199721503109281B390B820D931DAC01D5
:10332A0060E88201C3010E9437159C01F301808184
:10333A00918190FF08C0D40112968D919C911397A8
:10334A00821793070CF4C9012296E2E10C94282112
:10335A003F924F925F926F927F928F929F92AF921B
:10336A00BF92CF92DF92EF92FF920F931F93CF9368
:10337A00DF935C014B01722E132F342E2701602E2E
:10338A00C0E0D0E026C0CE01880D991D462D9201DD
:10339A00280F391F411D97FD4A95A42FC901F9012C
:1033AA005A2F0E9402231F926F933F921F937F927C
:1033BA00DF92CF920E94DB21B60180E80E94C41FEF
:1033CA0021968DB79EB707960FB6F8949EBF0FBE8B
:1033DA008DBFCA15DB05BCF2DF91CF911F910F910A
:1033EA00FF90EF90DF90CF90BF90AF909F908F901B
:0C33FA007F906F905F904F903F9008957F
:10340600CF92DF92EF92FF920F93082F0E943C23F8
:103416000023C1F08FE18EBD0DB407FEFDCF8EB542
:1034260080932B1280EA8EBD0DB407FEFDCF8EB5BC
:1034360080932B121EBC0DB407FEFDCF8EB5809374
:103446001F0A17C08FE08EBD0DB407FEFDCF8EB5E7
:1034560080932B1280EA8EBD0DB407FEFDCF8EB58C
:1034660080932B121EBC0DB407FEFDCF8EB5809344
:103476001F0A0E9440238FE19AE07C0120E8022F78
:103486000F2EF0E0CF2EFAE0DF2EF02D25E535E009
:1034960040E060E070E081E090E00E94AD190F919D
:0A34A600FF90EF90DF90CF900895A3
:1034B000CF92DF92EF929A01462F009781F5690132
:1034C000E42E52E0C50ED11CE11CF6015E2D0E94D7
:1034D00002236EBD0DB407FEFDCF5EB550932B12D7
:1034E0006901E42E53E0C50ED11CE11CF6015E2DEE
:1034F0000E9402236EBD0DB407FEFDCF5EB5509352
:103500002B122C5F3F4F4F4FF901542F0E94022383
:103510006EBD0DB407FEFDCF2EB520932B12019783
:10352000B1F41EBC0DB407FEFDCF8EB580932B12F7
:103530001EBC0DB407FEFDCF8EB580932B1281E02B
:103540008EBD0DB407FEFDCF8EB580932B12EF908C
:06355000DF90CF9008950A
:10355600CF92DF92EF92DC0190E0292F30E0220F2C
:10356600331F6901032E000CEE086E2DA601465B83
:10357600594F6F4F6A01E62EFA015E2D0E94022313
:10358600862F61110EC02F5F3F4F032E000C440B98
:10359600265B394F4F4FF901542F0E940223862F85
:1035A60025C0CD90DD90EC901297F6015E2D0E941D
:1035B6000223861316C02F5F3F4F032E000C440BC9
:1035C600265B394F4F4FF901542F0E940223962F45
:1035D6005FEFC51AD50AE50ACD92DD92EC921297F5
:1035E60001C09F5F9B3008F4B8CF892FEF90DF9022
:0435F600CF900895D5
:1035FA006F927F928F92EF92FF920F931F93CF93C6
:10360A00DF93CDB7DEB761970FB6F894DEBF0FBE72
:10361A00CDBFFE01319651E1DF011D925A95E9F7BE
:10362A00A2E0B1E0BA83A9839C838B8377FF09C0A8
:10363A008FE490E090932D1280932C128FEF9FEFDE
:10364A0019C03901842E7C01615071097F836E8310
:10365A009801682DA301CF010E94752148855985DB
:10366A002E813F814217530708F49A01F701E20FAE
:10367A00F31F108261960FB6F894DEBF0FBECDBF5E
:10368A00DF91CF911F910F91FF90EF908F907F90D4
:04369A006F90089590
:10369E006F927F928F92EF92FF920F931F93CF9321
:1036AE00DF93CDB7DEB761970FB6F894DEBF0FBECE
:1036BE00CDBFFE01319651E1DF011D925A95E9F71A
:1036CE00A2E0B1E0BA83A9839C838B8377FF09C004
:1036DE008FE490E090932D1280932C128FEF9FEF3A
:1036EE0019C03901842E7C01615071097F836E836C
:1036FE009801682DA301CF010E945D21488559854F
:10370E002E813F814217530708F49A01F701E20F09
:10371E00F31F108261960FB6F894DEBF0FBECDBFB9
:10372E00DF91CF911F910F91FF90EF908F907F902F
:04373E006F900895EB
:10374200CF92DF92EF92FF920F931F93CF93DF936B
:10375200EC01892B19F128C01EBC0DB407FEFDCF68
:103762002EB5FC01E15EF54F20832EB52D30A1F47C
:103772007C01990F000B110B0F2EF0E0CF2EFAE017
:10378200DF2EF02D24E835E040E060E070E081E0DB
:1037920090E00E94AD1908C0019602C080E090E05E
:1037A200811528E09207C0F2219791F40BC01EBC4C
:1037B2000DB407FEFDCF2EB5FC01E15EF54F20836F
:1037C200019602C080E090E0811528E0920778F32C
:1037D200DF91CF911F910F91FF90EF90DF90CF90EB
:0237E200089548
:1037E40088249924F401E401B0E49F93AA279A154C
:1037F4008B049C04ED05FE05CF05D007A10798F4C2
:10380400AD2FDC2FCF2FFE2FE92D982C892E982F4A
:10381400872F762F652F542F432F322F2227B8500E
:1038240031F7BF9127C01B2EBF91BB27220F331F37
:10383400441F551F661F771F881F991F881C991CDA
:10384400EE1FFF1FCC1FDD1FAA1FBB1F8A149B0482
:10385400EC05FD05CE05DF05A007B10748F08A1881
:103864009B08EC09FD09CE09DF09A00BB10B21600F
:103874001A94E1F62EF49401AF01BE01CD01000CBF
:023884000895A5
:103886000F931F93CF93DF93DB012D913C911197FB
:1038960030FF25C017964D915C91189715962D917E
:1038A6003C9116974217530778F41296ED91FC91C6
:1038B6001397808312962D913C9113972F5F3F4F5C
:1038C60013963C932E93129717962D913C91189729
:1038D6002F5F3F4F18963C932E93179715C01D9652
:1038E600ED91FC911E97309719F48FEF9FEF0CC066
:1038F6008B01EC011995892BC1F7F8018781908519
:10390600019690878783CE01DF91CF911F910F910A
:02391600089512
:10391800CF939B01482FF901542F0E940223603254
:10392800B9F1862F062E000C990B0997059780F19F
:103938006B3249F5A0E0B0E02F5F3F4F4F4F02C018
:10394800A0E0B0E080E090E0CAE0F901542F0E94C6
:103958000223062E000C770B605371096A3071053B
:1039680060F4C89FF001C99FF00D11242F5F3F4FED
:103978004F4FCF01861B970BE8CFAB2B69F491957E
:103988008195910909C06D32D9F6A1E0B0E0D4CF94
:0C3998002F5F3F4F4F4FBFCFCF910895DE
:1039A400CF93DF930E943C238FE98EBD0DB407FEB5
:1039B400FDCF8EB580932B121EBC0DB407FEFDCF38
:1039C4008EB580932B121EBC0DB407FEFDCF8EB5B1
:1039D40080931F121EBC0DB407FEFDCF8EB5CFE140
:1039E400D2E189830E944023998188811F929F9309
:1039F4001F928F938BED94E0A0E0AF939F938F93EE
:103A0400C0E0DAE0DF93CF930E94C821BE0180E8D2
:103A14000E94C41F8DB79EB709960FB6F8949EBF37
:0A3A24000FBE8DBFDF91CF91089512
:103A2E00CF92DF92EF92FF920F93CF93DF930E948C
:103A3E003C238FE08EBD0DB407FEFDCF8EB5809377
:103A4E002B1280EC8EBD0DB407FEFDCF8EB580938C
:103A5E002B121EBC0DB407FEFDCF8EB5CFE1D2E109
:103A6E0088837E0180E8082F0F2EF0E0CF2EFAE03B
:103A7E00DF2EF02D2EE935E040E060E070E081E0D1
:103A8E0090E00E94AD198AE18A95F1F700C0888115
:103A9E0080FDDFCF0E944023DF91CF910F91FF90E9
:083AAE00EF90DF90CF90089526
:103AB600CF92DF92EF92FF920F93CF93DF930E9404
:103AC6003C238FE08EBD0DB407FEFDCF8EB58093EF
:103AD6001F0A80ED8EBD0DB407FEFDCF8EB5809317
:103AE6001F0A1EBC0DB407FEFDCF8EB5CFE1DAE08E
:103AF60088830E9440237E0180E8082F0F2EF0E085
:103B0600CF2EFAE0DF2EF02D23E135E040E060E035
:103B160070E081E090E00E94AD19DF91CF910F91A6
:0A3B2600FF90EF90DF90CF9008951C
:103B3000CF92DF92EF92FF920F93CF93DF930E9489
:103B40003C238FE08EBD0DB407FEFDCF8EB5809374
:103B50001F0A80EB8EBD0DB407FEFDCF8EB580939E
:103B60001F0A1EBC0DB407FEFDCF8EB5CFE1DAE013
:103B700088830E9440237E0180E8082F0F2EF0E00A
:103B8000CF2EFAE0DF2EF02D24E335E040E060E0B8
:103B900070E081E090E00E94AD19DF91CF910F912C
:0A3BA000FF90EF90DF90CF900895A2
:103BAA006F927F928F92CF92DF92EF92FF920F9352
:103BBA0062ED71E080E00E94C41F86E292E13C015E
:103BCA0020E8822E0F2EF0E0CF2EFAE0DF2EF02D25
:103BDA00082D730121EF31E040E060E070E082E0FF
:103BEA0090E00E94AD196AEF71E080E00E94C41F64
:103BFA0021EF31E040E062E070E083E090E00E9473
:103C0A00AD190F91FF90EF90DF90CF908F907F903A
:043C1A006F9008950A
:103C1E00CF93C82F0E943C23CC23C9F08FE18EBDD9
:103C2E000DB407FEFDCF8EB580932B1280EA8EBDAC
:103C3E000DB407FEFDCF8EB580932B128CE78EBD93
:103C4E000DB407FEFDCF8EB580931F0A17C08FE10E
:103C5E008EBD0DB407FEFDCF8EB580932B1280EA7C
:103C6E008EBD0DB407FEFDCF8EB580932B121EBCFC
:103C7E000DB407FEFDCF8EB580931F0A0E94402320
:043C8E00CF91089535
:103C9200CF93DF930E946C220E943C2382E08EBD70
:103CA2000DB407FEFDCF8EB580932B128AE18A9563
:103CB200F1F700C046E252E160E88091241290914F
:103CC20025120E94461FC0E0D0E00CC0FE01E05069
:103CD200FE4F80818EBD0DB407FEFDCF8EB5809361
:103CE2002B12219660E072E080E80E940022C81741
:103CF200D90760F30E9440230E944321DF91CF91B4
:023D0200089522
:103D04006F927F928F92CF92DF92EF920F931F93D5
:103D1400CF93DF938C016A01E62EE9013A01862EE6
:103D2400620E731E811C37FD8A94C614D704E804FE
:103D340081F0F6015E2D0E940223862FB801082E21
:103D4400000C990B0E94431C8FEFC81AD80AE80A8A
:103D5400ECCFCE01DF91CF911F910F91EF90DF90C7
:0A3D6400CF908F907F906F9008952C
:103D6E0081B1886081B982B1886082B981B1806188
:103D7E0081B982B1806182B981B1806281B982B12B
:103D8E00806282B981B1806481B982B1806482B966
:103D9E0081B1806881B982B1806882B981B1826057
:103DAE0081B982B1826082B981B1846081B982B1F8
:103DBE00846082B981B1886081B982B1886082B92C
:023DCE00089556
:103DD00080E090E005C0FC01E15EFD4E108201969E
:103DE00085309105C0F380E090E005C0FC01E15E04
:103DF000F54F10820196811528E09207B8F380E014
:103E000090E005C0FC01E050FE4F10820196811544
:103E100028E09207B8F380E090E005C0FC01E05094
:0E3E2000F64F108201968E319105C0F3089581
:103E2E000E945A2088F09F5798F0B92F9927B751C2
:103E3E00B0F0E1F0660F771F881F991F1AF0BA9540
:103E4E00C9F714C0B13091F00E942523B1E0089556
:103E5E000C942523672F782F8827B85F39F0B93F48
:103E6E00CCF3869577956795B395D9F73EF49095F3
:0E3E7E008095709561957F4F8F4F9F4F0895EF
:103E8C009A01462F0097C9F4F901542F0E9402237E
:103E9C006EBD0DB407FEFDCF5EB550932B122F5F98
:103EAC003F4F4F4FF901542F0E9402236EBD0DB4AA
:103EBC0007FEFDCF2EB520932B12019771F41EBC7B
:103ECC000DB407FEFDCF8EB580931F121EBC0DB432
:0C3EDC0007FEFDCF8EB5809320120895E4
:103EE8000E943C238BE08EBD0DB407FEFDCF8EB53E
:103EF80080932B128AE18A95F1F700C046E252E1DD
:103F080060E880912412909125120E94461F8FEF3D
:103F18008EBD0DB407FEFDCF8EB580932B12809118
:103F28002412909125120E94A11B0E9440230895FB
:103F38000E943C238FE18EBD0DB407FEFDCF80EBC0
:103F48008EBD0DB407FEFDCF80E48EBD0DB407FE17
:103F5800FDCF0E9440230E94B5200E943C238FE1A0
:103F68008EBD0DB407FEFDCF80EB8EBD0DB407FEF0
:103F7800FDCF1EBC0DB407FEFDCF0E94402308955F
:103F8800CF92DF92EF92CF93DF936B01E82EC0E0E0
:103F9800D0E00FC0AE2DC6018C0F9D1FA11DD7FD0F
:103FA800AA95FC015A2F0E940223862F0E94E6221E
:103FB80021968E2DB6010E940022C817D90750F30A
:0C3FC800DF91CF91EF90DF90CF90089533
:103FD400990F0008550FAA0BE0E8FEEF1616170616
:103FE400E807F907C0F012161306E407F50798F07E
:103FF400621B730B840B950B39F40A2661F0232B97
:10400400242B252B21F408950A2609F4A140A69512
:084014008FEF811D811D08954D
:10401C000E94B6220E94B5210E940D210E94B71E5B
:10402C000E94EE210E94FB220E94E81E60E676E0D0
:10403C0080E00E94C41F81E00E94F7180E94F422C5
:10404C002FEF81EE94E0215080409040E1F700C0CA
:04405C000000EACFA7
:10406000CF92DF92EF926B01E82EF6015E2D0E9457
:104070000223862FF901542F0E94022386130BC0BE
:10408000882341F08FEFC81AD80AE80A2F5F3F4F04
:104090004F4FEBCF682F90E0861B9109EF90DF9098
:0440A000CF90089520
:1040A40057FD9058440F551F59F05F3F71F04795E5
:1040B400880F97FB991F61F09F3F79F087950895CA
:1040C400121613061406551FF2CF4695F1DF08C0E9
:1040D400161617061806991FF1CF86957105610506
:0440E400089408959F
:1040E8000E946C220E943C2388ED8EBD0DB407FE11
:1040F800FDCF8EB580932B1246E252E160E88091A5
:104108002412909125120E94581A0E9440236DEBA8
:1041180075E080E00E94C41F0E94171D0E9479224A
:024128000895F8
:10412A00FA0160387105CCF0623871051CF0633809
:10413A00710599F4A081B1819D012C5F3F4F3183B4
:10414A0020834D915D916D917C91FC014083518357
:10415A006283738381E090E0089580E090E008959F
:10416A000E943C2383E18EBD0DB407FEFDCF8EB5C0
:10417A0080932B128AE18A95F1F700C046E252E158
:10418A0060E880912412909125120E94581A0E9488
:0C419A0040230E94171D0E94741F08950E
:1041A60097FB10F8169400080F93083098F0085003
:1041B600232F342F452F562F672F782F892F902D99
:1041C600F4CF059497958795779567955795479575
:0C41D600379527950A95AAF70F910895D8
:1041E2002F923F924F925F926F927F928F929F9205
:1041F200AF92BF92CF92DF92EF92FF920F931F93F3
:10420200CF93DF93CDB7DEB7CA1BDB0B0FB6F894A3
:08421200DEBF0FBECDBF199401
:10421A0087E690E09093C5008093C4008DB18260D8
:10422A008DB9E1ECF0E08081886080838DB18E7F6A
:10423A008DB980818061808381B1846081B982B1C6
:06424A00846082B90895B2
:104250002A88398848885F846E847D848C849B8416
:10426000AA84B984C884DF80EE80FD800C811B8124
:10427000AA81B981CE0FD11D0FB6F894DEBF0FBE53
:06428000CDBFED01089521
:104286000E943C2380E18EBD0DB407FEFDCF8EB5A6
:1042960080932B1246E252E160E8809124129091BD
:1042A60025120E94581A0E9440230E94171D0E9440
:0442B60079220895CC
:1042BA00A2E0B0E0E3E6F1E20C94FF208C013A833D
:1042CA0029839E012F5F3F4F0E945003F8012081EE
:1042DA0024FF02C08FEF9FEF2296E4E00C94362170
:1042EA00A2E0B0E0EBE7F1E20C94FF208C013A8304
:1042FA0029839E012F5F3F4F0E945003F8012081BE
:10430A0024FF02C08FEF9FEF2296E4E00C9436213F
:10431A0097FB072E16F4009407D077FD09D00E9468
:10432A00A12107FC05D03EF4909581959F4F0895F1
:08433A00709561957F4F089515
:10434200AA1BBB1B51E107C0AA1FBB1FA617B707B9
:1043520010F0A61BB70B881F991F5A95A9F78095D5
:084362009095BC01CD01089506
:10436A0087B1806487B988B1806488B983B3816072
:10437A0083BB84B3816084BB83B3826083BB84B311
:06438A00826084BB08956F
:10439000A0E0B0E0EEECF1E20C9401219E01255F7B
:1043A0003F4F488559856A858E819F810E94922260
:0643B000E2E00C9438214C
:1043B600A0E0B0E0E1EEF1E20C9401219E01255F60
:1043C6003F4F488559856A858E819F810E94862246
:0643D600E2E00C94382126
:1043DC0084B1866084B984B1877F84B984B18160EB
:1043EC0084B985B1816085B98CB581658CBD8CB57E
:0443FC008CBD0895D7
:104400009B01482FA82FCB01FC015A2F0E940223A9
:10441000662319F00196A11DF7CF642FA901841B13
:04442000950B08955B
:10442400092E0394000C11F4882352F0BB0F40F4BE
:10443400BF2B11F460FF04C06F5F7F4F8F4F9F4FFE
:024444000895D9
:1044460060957095809590953095409550952195FD
:104456003F4F4F4F5F4F6F4F7F4F8F4F9F4F089587
:104466000E943C238FEF8EBD0DB407FEFDCF0E9448
:0E447600402363E775E080E00E94C41F0895B4
:104484009A01462FDC01F901542F0E9402236D93F7
:0C4494002F5F3F4F4F4F6111F6CF08958E
:1044A000689401C0E8948F929F92CF93DF930E940B
:0C44B000F21BDF91CF919F908F90089538
:1044BC00992777FD06C07BBF07900D920197E1F716
:0C44CC00089501900D920197E1F708950A
:1044D8000E943C2386E08EBD0DB407FEFDCF8EB54D
:0A44E80080932B120E9440230895D8
:1044F2000E943C2384E08EBD0DB407FEFDCF8EB535
:0A45020080932B120E9440230895BD
:10450C000F931F9389019A01462F6FEF7FE70E944B
:08451C004F1B1F910F91089540
:104524000F931F9389019A01462F6FEF7FE70E9433
:08453400FD1A1F910F9108957B
:10453C000024A7FD00942A1730054005500560059E
:08454C0070058005900508953B
:104554000024A7FD00942A0F301D401D501D601D2E
:08456400701D801D901D0895DB
:10456C00E1E0F1E0808180668083E2E0F1E080812F
:06457C00806680830895B3
:10458200EC010E9454230E945323CE010E94552322
:06459200CE010E9451233E
:10459800FC01480F591FE417F50711F06193FBCF91
:0245A800089574
:1045AA009C01215631092A31310510F48F7599275A
:0245BA00089562
:1045BC009C01215431092A31310508F48062089597
:0E45CC009091C00095FFFCCF8093C60008952B
:0E45DA008091C0008823E4F78091C600089508
:0E45E800E2E0F1E0908180E48927808308956D
:0E45F600E2E0F1E0908180E289278083089561
:0E46040057FD03C05BBF679108956081089564
:0E4612005058BB27AA270E946D170C94122245
:0E4620000E94171F6894B1110C942623089570
:0E462E0000240A9416161706180609060895A9
:0E463C0000240A9412161306140605060895AB
:0E464A00E894BB2766277727CB0197F90895E0
:0C46580097F99F6780E870E060E008952B
:0A4664000E94EA1F08F481E00895A7
:0A466E000E94EA1F08F48FEF089580
:0846780082B1877F82B9089529
:0846800082B1886082B908953F
:084688000E94BE150C941222E1
:084690000E9403170C94122292
:064698009FEF80EC089585
:04469E000C94000078
:0446A2000E94BB00B7
:0246A600089575
:0246A800089573
:0246AA00089571
:00000001FF
