:100000000C948F000C94AB240C94AB240C94AB2474
:100010000C94AB240C94AB240C94AB240C94AB2424
:100020000C94AB240C94AB240C94AB240C94AB2414
:100030000C94AB240C94AB240C94AB240C94AB2404
:100040000C94AB240C94AB240C94AB240C94AB24F4
:100050000C94AB240C94AB240C94AB240C94AB24E4
:100060000C94AB240C94AB240C94AB240C94AB24D4
:100070000C94AB240C94AB240C94AB240C94AB24C4
:100080000C94AB240C94AB240C94AB240C94AB24B4
:100090000C94AB240C94AB240C94AB240C94AB24A4
:1000A0000C94AB240C94AB240C94AB240C94AB2494
:1000B0000C94AB240C94AB240C94AB240C94AB2484
:1000C0000C94AB240C94AB240C94AB240C94AB2474
:1000D0000C94AB240C94AB240C94AB240C94AB2464
:1000E0000C94AB240200041180000C9475170C943E
:1000F00071030C948A070C94D7100C94E70A0C94A3
:10010000DC220C94DC140C94C4220C9417120C9472
:100110005B230C946E230C9437140C948F1A1124C7
:100120001FBECFEFD1E2DEBFCDBF00E00CBFE4EEDB
:10013000F0E040E019C0B791A7913791279107915E
:1001400007FD0EC097918791EF01F92FE82F0BBFA4
:1001500007900D92A217B307D9F7FE011BBE04C08A
:100160001D92A217B307E1F7E93EF40721F70E94B9
:0A0170004C210C942524F894FFCFD5
:10017A0057726F6E6720496E707574200A4D616BF5
:10018A0065207375726520696E70757420697320B5
:10019A004845582076616C6964205B30202D2046E2
:1001AA005D200A004865726520697320776861746A
:1001BA002077617320696E7075747465643A2030B3
:1001CA007825303258200A00466C61736820494409
:1001DA00004E414E442041646472657373003129B4
:1001EA002052656164200A003229205772697465B9
:1001FA00200A0052656164004E414E442041646405
:10020A007265737365730057726974650050617221
:10021A00616D6574657220506167650025692D3EC0
:10022A00446174612052656365697665643A203079
:10023A007825303258200A00466561747572652047
:10024A0052656769737465727300312920426C6F55
:10025A00636B204C6F636B200A00322920436F6E58
:10026A0066696775726174696F6E200A00332920A6
:10027A00537461747573200A003429204469652017
:10028A0053656C656374200A00426C6F636B204C83
:10029A006F636B003129204C6F636B200A0032298F
:1002AA0020556E6C6F636B200A00332920526561FA
:1002BA0064200A00342920436F6E66696775726587
:1002CA00200A004C6F636B00556E6C6F636B0043C2
:1002DA006F6E66696775726500436F6E66696775EA
:1002EA00726174696F6E0053746174757300446946
:1002FA00652053656C6563740054657374204D659D
:10030A0074686F64730031292057726974652054C8
:10031A00657374200A00322920526561642054658D
:10032A007374200A0033292045726173652054656D
:10033A007374200A00342920426C6F636B2043686F
:10034A0065636B6572200A00352920506167652054
:10035A00436865636B6572200A003629204E414E58
:10036A00442041646472657373200A005772697489
:10037A006520546573740048657265206973206F3F
:10038A007572204E414E4420416464726573733A1B
:10039A0020307825303258200A0052656164205492
:1003AA006573740045726173652054657374004205
:1003BA006C6F636B20436865636B657200426C6F98
:1003CA00636B206973206D61726B6564206261647E
:1003DA000A00426C6F636B206170706561727320F2
:1003EA00636C65616E0A00506167652043686563E6
:1003FA006B657200526573657400312920466C6121
:10040A007368204944200A003229204E414E442074
:10041A0041646472657373200A0033292050617243
:10042A00616D657465722050616765200A00342920
:10043A0020466561747572652052656769737465D3
:10044A007273200A0035292054657374204D65742F
:10045A00686F6473200A0036292052657365742018
:10046A000A002D3E5573657220496E7075743A0AFA
:10047A00004D616B652073757265206F6E6C792013
:10048A003420696E707574732E200A00436F6C7580
:10049A006D6E2041646472657373202D3E2030783E
:1004AA0025303258200A004D616B652073757265DC
:1004BA00206F6E6C79203620696E707574732E20E9
:1004CA000A00426C6F636B2F506167652041646458
:1004DA0072657373202D3E20307825303258200AF9
:1004EA00002D2D2D436F6C756D6E2041646472650D
:1004FA0073732D2D2D2032206279746573200A00C2
:10050A002D2D2D426C6F636B2F50616765204164FE
:10051A0064726573732D2D2D20332062797465738F
:0C052A00200A00307825303258200A00EA
:1005360052656164204465766963652049443A20C2
:100546004D6963726F6E2049442028307825303219
:100556005829204465766963652049442028307807
:100566002530325829200A004469652053656C6598
:100576006374696F6E2052656769737465723A2099
:10058600307825303258200A00436F6E66696775E9
:10059600726174696F6E2052656769737465723A29
:1005A60020307825303258200A00426C6F636B2069
:1005B6004C6F636B2052656769737465723A2030BD
:1005C6007825303258200A004465766963652052E2
:1005D600657365746564200A004461746120526520
:1005E600636569766564200A0053746174757320C7
:0A05F60028307825303258290A0019
:100600002D2D2D436F6C756D6E2041646472657382
:10061000732D2D2D2032206279746573200A002DF0
:100620002D2D426C6F636B2F5061676520416464B0
:10063000726573732D2D2D203320627974657320BC
:100640000A00307825303258205468697320506190
:100650006765206973206D61726B656420626164F7
:10066000200A0030782530325820546869732050B1
:0F06700061676520697320636C65616E200A0005
:10067F0068076C094C836A9074A07AC00080688800
:06068F0000846C82008172
:100695002D3E41727261797320436C6561726564A8
:0306A500200A0028
:1006A800494E4600696E66004E414E006E616E000E
:1006B800494E4600696E66004E414E006E616E00FE
:0706C800286E756C6C29001F
:0606CF00286E696C290091
:1006D600A3EAB0E0E1E7F3E00C946C224C01590187
:1006E600C756DF4F488359836A83C959D040212CA6
:1006F600312C6E012BE8C20ED11C85E2782E260124
:1007060030E8632ECE018D569F4FC456DF4F998336
:100716008883CC59D0409C0140E8CF55DF4F2883D1
:1007260039834A83C15AD040C756DF4F4881C959D9
:10073600D040C656DF4FB881CA59D040C556DF4FA4
:100746007881CB59D040E42FFB2F572F0E94662487
:10075600662309F4D0C3CF57DF4F19821882C158D8
:10076600D0408FEF9FEFCD57DF4F99838883C358D3
:10077600D040CB57DF4F19821882C558D040E1E0F0
:10078600F0E0EC0FFD1FC957DF4FF983E883C75828
:10079600D04020E830E0C757DF4F39832883C95857
:1007A600D040842F9B2FA72FE12CF12CFC015A2F30
:1007B6000E94662461111DC0E114F10411F1970134
:1007C6005B2F672FC4010E94BC1FC756DF4F88816D
:1007D6009981AA81C959D0408E0D9F1DA11DF7FC94
:1007E600AA95C756DF4F88839983AA83C959D040F3
:1007F60008C00196A11D6532F9F23FEFE31AF30A2C
:10080600D5CFC756DF4F88819981AA81C959D04073
:10081600FC015A2F0E946624653209F05AC39C01D6
:100826004A2F2F5F3F4F4F4FC256DF4F28833983E2
:100836004A83CE59D040C756DF4F288339834A832F
:10084600C959D040C756DF4F88819981AA81C959B5
:10085600D040FC015A2F0E9466246B3241F4CF57D8
:10086600DF4F28813981C158D04024600BC06C32DB
:10087600CCF06D3259F5CF57DF4F28813981C158F9
:10088600D0402160CF57DF4F39832883C158D040ED
:100896000196A11DC756DF4F88839983AA83C9593C
:1008A600D040D0CF603241F4CF57DF4F2881398115
:1008B600C158D0402860E6CF633291F4CF57DF4F5E
:1008C60028813981C158D0402061DCCF603341F4A2
:1008D600CF57DF4F28813981C158D0402260D2CF0F
:1008E6006A3299F50196A11DC756DF4F8883998311
:1008F600AA83C959D040D501ED91FC911197CF013A
:1009060002968D939C9380819181CB57DF4F99837B
:100916008883C558D04097FF3FC0CF57DF4F288107
:100926003981C158D040B1E02B27CF57DF4F3983EB
:100936002883C158D040919581959109CB57DF4FB7
:1009460099838883C558D04027C0BC018A2F0E944E
:10095600411ECB57DF4F99838883C558D040C75671
:10096600DF4F88819981AA81C959D040FC015A2F4D
:100976000E946624062E000C770B605371096A30BC
:10098600710550F40196A11DC756DF4F88839983E0
:10099600AA83C959D040E3CFCF57DF4F88819981C9
:1009A600C158D04080FF07C08D7FCF57DF4F998356
:1009B6008883C158D040C756DF4F88819981AA8164
:1009C600C959D040FC015A2F0E9466246E3209F0A4
:1009D60059C0CD57DF4F19821882C358D0409C01A9
:1009E6004A2F2F5F3F4F4F4FC756DF4F288339831C
:1009F6004A83C959D040F901542F0E9466246A32AD
:100A0600D1F40296A11DC756DF4F88839983AA8326
:100A1600C959D040D501ED91FC911197CF010296AD
:100A26008D939C9380819181CD57DF4F99838883E5
:100A3600C358D04027C0842FB9010E94411ECD570C
:100A4600DF4F99838883C358D040C756DF4F8881CC
:100A56009981AA81C959D040FC015A2F0E94662467
:100A6600062E000C770B605371096A30710550F43D
:100A76000196A11DC756DF4F88839983AA83C9595A
:100A8600D040E3CFCE0187569F4F0E948A1B182F76
:100A9600C756DF4F9881C959D040C656DF4F888167
:100AA600CA59D040C556DF4F5881CB59D040E92F9F
:100AB600F82F0E946624862F660F990B0E94422407
:100AC6008936910509F45BC0B4F48336910509F4BF
:100AD60069C144F48532910509F4A4C181369105B2
:100AE60029F1B6C18436910509F449C088369105C5
:100AF6000CF42FC1ADC18037910509F4CDC04CF47B
:100B06008E36910509F41BC18F36910509F47DC017
:100B16009FC18537910509F455C08837910509F4B9
:100B260097C08337910509F093C15BC1612F70E0CF
:100B3600A501C6010E94F421892B09F4BAC1C75642
:100B4600DF4F88819981AA81C959D0409C014A2FDB
:100B56002F5F3F4F4F4FC756DF4F288339834A8356
:100B6600C959D040FC015A2F0E946624262FA6019F
:100B7600BE016F577F4FC4010E94E10A97C1612FE2
:100B860070E0950141E050E0C6010E94D012892B29
:100B960009F48FC1C756DF4F88819981AA81C95947
:100BA600D0400196A11DC756DF4F88839983AA833B
:100BB600C959D040A601BE016F577F4FC4010E949C
:100BC600111274C1612F70E0950140E050E0C6013A
:100BD6000E94D012892B09F46CC1C756DF4F888159
:100BE6009981AA81C959D0400196A11DC756DF4FE8
:100BF60088839983AA83C959D040A601BE016F573D
:100C06007F4FC4010E94891A51C1612F70E095017E
:100C160040E050E0C6010E94D012892B09F449C178
:100C2600C756DF4F88819981AA81C959D04001965C
:100C3600A11DC756DF4F88839983AA83C959D0401F
:100C4600A601BE016F577F4FC4010E946F172EC1C8
:100C5600612F70E0950140E050E0C6010E94D0127D
:100C6600892B09F426C1C756DF4F88819981AA814D
:100C7600C959D0409C014A2F2F5F3F4F4F4FC7564F
:100C8600DF4F288339834A83C959D040FC015A2F44
:100C96000E946624262F4BC0950140E050E060EF8D
:100CA60070E0C6010E94D012892B09F402C1C75612
:100CB600DF4F88819981AA81C959D0400196A11D2B
:100CC600C756DF4F88839983AA83C959D04086E0E7
:100CD6002FEC36E040E0F901DE01AD56BF4F742F30
:100CE6000E94DC23D6012C9111963C911197129605
:100CF6004C91129713965C91139714966C911497D6
:100D060015967C91159716968C91169717969C9129
:100D1600A0E00E94022451F400E010E0CF55DF4F1E
:100D2600288139814A81C15AD040BAC028E7A60134
:100D3600BE016F577F4FC4010E94D110B7C0612F0B
:100D460070E09501A1014E0D5F1DC6010E940317BB
:100D5600B0C0612F70E0A501C6010E94F421892B65
:100D660009F4A7C0C756DF4F88819981AA81C9595E
:100D7600D0409C014A2F2F5F3F4F4F4FC756DF4F42
:100D8600288339834A83C959D040FC015A2F0E94CF
:100D96006624262FA601BE016F577F4FC4010E940D
:100DA600840784C0103809F084C0C756DF4F888195
:100DB6009981AA81C959D0400196A11DC756DF4F16
:100DC60088839983AA83C959D040D501ED91FC91B6
:100DD6001197CF0102968D939C938081F6018083B3
:100DE6005BC0103809F065C0C756DF4F888199810E
:100DF600AA81C959D0400196A11DC756DF4F8883E5
:100E06009983AA83C959D040D501ED91FC911197D8
:100E1600CF0103968D939C9320813181428100E01E
:100E260010E03EC0103809F044C0C756DF4F888135
:100E36009981AA81C959D0400196A11DC756DF4F95
:100E460088839983AA83C959D040F601708224C049
:100E5600D6017C92C256DF4F288139814A81CE590C
:100E6600D040C756DF4F288339834A83C959D040BB
:100E7600CF57DF4F19821882C158D040CB57DF4F6A
:100E860019821882C558D0408FEF9FEFCD57DF4F9C
:100E960099838883C358D04001E010E0462D920123
:100EA600BE016F577F4FC4010E94AA188E0D9F1D69
:100EB60011C0C756DF4F88819981AA81C959D04090
:100EC6000196A11DC756DF4F88839983AA83C95906
:100ED600D040C7017101E80EF91EE214F3044CF488
:100EE6008FE490E090930C0480930B048FEF9FEFB8
:100EF60003C0170119CCC101CD55DF4FE2E10C94B7
:020F0600A32224
:100F0800A6E2B0E0EAE8F7E00C946C229F8F8E8F9F
:100F1800798F688F122FFB010190F081E02DFA87FD
:100F2800E987FB01C280D380248135813C8B2B8BE0
:100F38008085918599A388A30680F781E02DFA839F
:100F4800E983FA0180809180A280B38020E030E0BC
:100F5800A901C501B4010E94962487FF06C0B7FA0B
:100F6800B094B7F8B0948DE204C0F985F2FF0CC3D1
:100F78008BE2E981FA8180832B893C8921503109F0
:100F880038872F8341E050E05A8B498B06C08B8904
:100F98009C8998878F831A8A198AD501C401BF77DB
:100FA8000097E0E8AE07EFE7BE07D9F4212F110F4D
:100FB800330B2154310989819A8149895A89840FCF
:100FC800951F2A31310520F448EA56E060E003C055
:100FD8004CEA56E060E00E94C0236CEA76E080E0CC
:100FE8001EC00197A048BF4730F1212F110F330BC6
:100FF8002154310989819A8149895A89840F951F19
:101008002A31310520F440EB56E060E003C044EBA0
:1010180056E060E00E94C02364EB76E080E00E9426
:101028008D23E981FA81AF0160E8E984FA840B89AC
:101038001C899C01A1C220E030E0A901C501B401CE
:101048000E9496241B821C82882309F467C0F0E85A
:10105800FD832FE32E83212C312C20E030E040E269
:1010680051E46B817C818D819E810E94A424F62E9F
:10107800072F8D879B87A50194010E949B24181632
:1010880054F03FEF231A330AFB820C834D854D83BE
:101098005B855E83E2CF1C861B862B813C814D815C
:1010A8005E81C501B4010E94962487FF3DC084ED8E
:1010B80028168EEF380604F5EB85FC85EF2BE1F456
:1010C80020E030E040E85AE5C501B4010E94A424BC
:1010D8004B015C0120E030E040E85AE56B817C81FF
:1010E8008D819E810E94A4246B837C838D839E8343
:1010F80021E030E03C872B8720E030E040E251E4FB
:101108006B817C818D819E810E94A0246B837C836E
:101118008D839E8331E0231A3108BFCF40E84D8389
:101128005FE35E83212C312C812F110F990B9BA338
:101138008AA30E9442248B8FD7FC03C0DEA2CDA2D3
:1011480004C0E6E0F0E0FEA3EDA3FB8DF73641F422
:10115800CD2809F01EC221E030E03EA32DA319C21C
:101168008B8D8D8B04C037FE25C296E69D8BEDA135
:10117800FEA13196FEA3EDA3FD89F63699F437FE5C
:1011880008C01B821C8220E82D833FE33E83212C6C
:10119800312C4B8D473631F08DA19EA1820D931DC8
:1011A8009EA38DA39B819B87EC81ED87FD81FE8BA0
:1011B8002E812A8F750164011D8E1C8E8C8D9D8D4C
:1011C800EDA1FEA18E179F07C1F12B853D854E89A4
:1011D8005A8DC701B6010E94A0240E9474152B01E4
:1011E8003C010E9474246CA38701760117FB1095BB
:1011F80017F910952B853D854E895A8DC301B2018B
:101208000E94D6146B017C01F7FAF094F7F8F09479
:1012180020E030E040E251E46B857D858E899A8D2F
:101228000E94A0246B877D878E8B9A8F4C8D5D8D55
:101238004F5F5F4F5D8F4C8FC1CF20E030E040EAB9
:1012480050E46B857D858E899A8D0E94A4242B019C
:101258003C019B01AC01C701B6010E94962487FDA1
:101268000BC0A3019201C701B6010E949624811107
:1012780006C0FCA1F0FD03C0412C512C3201A30192
:101288009201C501B4010E946E244B015C012D89B5
:10129800253611F0310102C0612C712C23014DA1BA
:1012A8005EA1441A550AC988DA8800E010E01C8655
:1012B8001B8689859A85807199279F8B8E8B6414EC
:1012C800750431F48B859C85892B09F49AC0A6C0D6
:1012D800DD8ECC8EE88DF98D808591850597C816B1
:1012E800D90680F72B813C814D815E81C501B4010F
:1012F8000E94A0240E9474156D877E878F87988B23
:101308000E947424CB01EE89FF89EF2B69F4892BA5
:1013180059F4FB8DF73641F477FE06C098012F5F2C
:101328003F4F3D8F2C8F43C04B855C85452BB1F4D7
:1013380077FE14C05FEFC51AD50AE981FA818C8D52
:101348009D8DE80FF91F9EE29083EF81F885319714
:10135800F887EF8321E030E03C872B87E981FA8129
:10136800EC0DFD1D1D8F0C8F8C8D9D8D892B49F0EB
:1013780030E331934C8D5D8D415051095D8F4C8F19
:10138800F3CFC8018C0D9D1D2F813885201B310B93
:101398006C01EFEFCE1ADE0AE981FA81E80FF91F36
:1013A800605D6083A9014150510958874F838501C9
:1013B800740117FB109517F910952B813C814D810D
:1013C8005E816D857E858F8598890E94D6144B0134
:1013D8005C01B7FAB094B7F8B09420E030E040E28E
:1013E80051E46B817C818D819E810E94A0246B8356
:1013F8007C838D839E8351E0651A71080C8D1D8D49
:101408005ECFF985F4FF0AC0E981FA81EC0DFD1D74
:101418008EE2808396012F5F3F4F690149815A818F
:101428004C0D5D1D5C874B87FA011082FD89F536EE
:1014380009F061C0E981FA8128A139A1E20FF31FFF
:101448003197108237FE06C031942194310801E0AB
:1014580010E002C000E010E0E8A1F9A1319749814D
:101468005A81E40FF51F22E030E08AE0E82EF12CE3
:10147800CF0149815A81841B950B2114310479F0DD
:10148800C101B7010E941A23805D82931B0121507C
:1014980031098F819885019798878F83E9CF121634
:1014A800130674F3FC013197E40FF51F012B11F4B7
:1014B8002BE201C02DE220830297E981FA81E80F2F
:1014C800F91F2AA13BA1215431092A31310510F015
:1014D80025E601C025E420832F8138852250310973
:1014E80038872F83C816D90634F4AF0160E88B8596
:1014F8009C850E94C02349815A813A0180E8882E40
:10150800998591FF2EC090FD2CC0EF81F8851E169D
:101518001F063CF5882DB3010E948D2329813A814D
:10152800820F931F9C0149815A81241B350BE9893D
:10153800FA892E173F074CF0FC012081EF81F885CE
:10154800E80FF91F20830197EDCF4F81588560E39D
:1015580070E089819A818E0F9F1F0E9430241C8A17
:101568001B8A882DB3010E948D23E984FA840B8994
:101578001C899C01682DA3018E8D9F8D0E940D16DC
:10158800A696E2E10C94A322598553FF00CD80E290
:10159800F0CC2CEF22162FEF32064CF04DA15EA1B5
:1015A800241635060CF4DFCD55E65D8BFBCD35E60C
:0A15B8003D8BF8CD46E64D8BF5CDD6
:1015C200A0E2B0E0E7EEFAE00C946C229D8F8C8FE3
:1015D200FB01298320812D8331813E8F828193817A
:1015E2009B8B8A8B248135813987288780859185D9
:1015F200998F888F46805780FA01C080D180E2801F
:10160200F38020E030E0A901C701B6010E949624D0
:1016120087FF06C0F7FAF094F7F8F0948DE204C061
:101622005D8152FFF6C28BE2F20180832885398503
:10163200215031093F872E8741E050E05C834B8384
:1016420006C0888599859F878E871C821B82B70179
:10165200A6017F77E9810E2E000CFF0BF98BE88B38
:1016620041155105F0E86F07FFE77F07C1F42889AC
:101672003989215431098B819C81840D951D2A3130
:10168200310520F448EB56E060E003C04CEB56E035
:1016920060E00E94C0236CEB76E080E01CC08B818E
:1016A2009C81840D951D4130510560487F47E8F0CB
:1016B20028893989215431092A31310520F440EC35
:1016C20056E060E003C044EC56E060E00E94C023B4
:1016D20064EC76E080E00E948D23A20160E8ED8058
:1016E200FE8C088519859C018CC220E3FC012083B5
:1016F200EB81FC813196E40DF51D2B813C812E5F3F
:101702003F4F3C832B8348895989415451095B8F50
:101712004A8F4A31510510F088E701C088E580837D
:1017220020E030E0A901C701B6010E949624612C95
:10173200712C1F8E1982882309F464C050E858A3C3
:101742008FE38A832F8D398148A15A816F8D7981E8
:1017520088A19A810E946E245B018C01A7019601E7
:101762000E949B2418160CF442C09FEF691A790A52
:10177200AF8EB98208A31A83E5CF20E030E040E0C3
:101782005FE36F8D798188A19A810E94A42420E071
:1017920030E0A9010E949624811118C020E030E0B7
:1017A20040E85AE56F8D798188A19A810E94A4242C
:1017B2006F8F798388A39A8320E030E040E85AE56E
:1017C200C701B6010E94A4246B017C0120E030E035
:1017D20040E05FE36F8D798188A19A810E94A42401
:1017E2006F8F798388A39A83A1E06A1A71082F8D7B
:1017F200398148A15A81C701B6010E94962487FD0A
:10180200BCCF04C0E0E8E8A3FFE3FA832A893B895E
:1018120037FD02C0C90102C088E190E0AC014F5F10
:101822005F4F5B874A878F8C9980A8A0BA80160188
:1018320087011F821E829401A501B101C8010E9485
:10184200A0240E9474156C8B7D8B8E8B9F8B9401D0
:10185200A5010E94A4249B01AC01B101C8010E9410
:101862006D241B018C0120E030E040E85DE3B4010F
:10187200C5010E94A4244B015C018E819F810196C7
:101882009F838E83EA89FB89F7FF09C020E030E05D
:10189200A901B101C8010E949624882341F02A853A
:1018A2003B854E815F81421753072CF204C08E8123
:1018B2009F819B878A8720E030E040E051E4B401B9
:1018C200C5010E94A4244B015C019B01AC01B10142
:1018D200C8010E94962487FD12C0A5019401B1019E
:1018E200C8010E94962481110DC06C897D898E8960
:1018F2009F890E94742461707727672B19F4812CC9
:10190200912C5401A5019401C701B6010E946E24D5
:101912006B017C01DC01CB01BF770097A048BF4778
:1019220009F4A5CE2E843F84F2E02F1A31082A85CD
:101932003B85319521953109398B288B0B811C818F
:10194200A12CB12C1F821E82812C912C488D598D85
:10195200455051095D8B4C8BEC89FD890E171F0791
:101962000CF091C02F8D398148A15A81C701B6016F
:101972000E94A0240E9474156A877B878C879D87AA
:101982000E947424AB016115710539F4811491042C
:1019920021F05FEFA51AB50A4DC0EE81FF81EF2B52
:1019A20089F48114910471F0F201E00FF11F2EE22B
:1019B200208331E0231A31080F5F1F4FE1E0F0E08E
:1019C200FF83EE83F201E00FF11F9501211531052E
:1019D20029F0A0E3A19321503109F8CFF801EA0DD3
:1019E200FB1DFF87EE872A183B084A3051051CF47D
:1019F200605D7F4F02C0695A7F4F2A8D3B8D2A312D
:101A0200310550F4CB018062815691094A9720F446
:101A1200CB010E943924BC010E851F850F5F1F4F29
:101A2200EE85FF85E40DF51D608331E0231A310850
:101A3200A12CB12C2F8D398148A15A816A857B85D1
:101A42008C859D850E94A4249B01AC01C701B6012F
:101A52000E946D246B017C0120E030E040E85DE3F0
:101A62006F8D798188A19A810E94A4246F8F7983D6
:101A720088A39A8341E0841A9108888999898815F4
:101A8200990509F069CF2E813F81232B51F5F2018F
:101A9200E00FF11FA114B104E9F04A895B89141621
:101AA2001506C4F45D8150FD15C08EE28083F801F5
:101AB2003196E40DF51DC50120E321930197E9F765
:101AC2000A0D1B1D0F5F1F4FC50180959095280EB3
:101AD200391E07C08D8184FF04C08EE280830F5FB0
:101AE2001F4FF201E00FF11FFF83EE831082E88D9A
:101AF200F98DE40DF51D3197108277FE07C07194C0
:101B020061947108EE24E394F12C02C0E12CF12CD3
:101B1200E88DF98D3197E40DF51D21E030E08AE082
:101B2200C82ED12CCF01841995096114710469F072
:101B3200C301B6010E941A23805D82933B012150AA
:101B4200310941E0241A3108EDCF2130310581F30A
:101B5200FC013197E40DF51DEF2811F42BE201C0D1
:101B62002DE220830297F201E80FF91F2A8D3B8DA7
:101B72002A31310510F020E701C020E52083081743
:101B8200190734F4AF0160E88E819F810E94C0235F
:101B9200320130E8832E4D8141FF28C040FD26C02E
:101BA20052E0251A31081214130404F5882DB301EA
:101BB2000E948D23840D951D9C01241935094B81AA
:101BC2005C81241735073CF0FC012081E20DF31DF6
:101BD20020830197F1CFA10160E370E08B819C81AA
:101BE200840D951D0E94302419861886882DB30114
:101BF2000E948D23ED80FE8C088519859C01682D3D
:101C0200A3018C8D9D8D0E940D16A096E2E10C948D
:0C1C1200A3225D8153FF15CD80E206CDBA
:101C1E006F927F928F92CF92DF92EF92FF920F93FD
:101C2E001F93CF93DF936B01E82E22ED31E040E05E
:101C3E000E949021892BB9F40E942220C1E0D0E0AD
:101C4E00D0930203C09301030E941E1D82E090E018
:101C5E0090930203809301030E941E1DD0930203F2
:101C6E00C09301038BC22BED31E040E08E2DB60107
:101C7E000E949021892BC9F50E94222068EE71E006
:101C8E0080E00E94DE2062EF71E080E00E94DE20A4
:101C9E0080E00E946F1980E092E06C0120E8E22E55
:101CAE002DEF31E040E08E2DB6010E949021892B60
:101CBE0049F480E00E94D11C62E072E080E00E9454
:101CCE000F0E5CC221E132E040E08E2DB6010E9483
:101CDE009021892B09F052C281E00E94D11C62E052
:101CEE0072E080E00E940F0E49C227E132E040E030
:101CFE008E2DB6010E949021892B99F50E942220EB
:101D0E0081E090E090930403809303030E944D1FA3
:101D1E00C0E0D0E021C0FE01E65FFC4F80811F9243
:101D2E008F93DF93CF9386E292E0A0E0AF939F93E1
:101D3E008F9300E012E01F930F930E945523B8017A
:101D4E0080E80E94DE2021968DB79EB709960FB6C9
:101D5E00F8949EBF0FBE8DBFCF3FD105E1F2D8F2F2
:101D6E000DC222E432E040E08E2DB6010E94902199
:101D7E00892B09F0C9C00E94222064E572E080E040
:101D8E000E94DE2064E672E080E00E94DE2067E7BB
:101D9E0072E080E00E94DE2063E872E080E00E9444
:101DAE00DE2080E00E946F1980E092E06C0120E856
:101DBE00E22E23E932E040E08E2DB6010E94902102
:101DCE00892B09F067C00E9422206EE972E080E044
:101DDE000E94DE2068EA72E080E00E94DE2064EB62
:101DEE0072E080E00E94DE206EEB72E080E00E94E6
:101DFE00DE2080E00E946F192DEC32E040E08E2D47
:101E0E00B6010E949021892B49F481E00E940B1F9C
:101E1E0062E472E080E00E940F0EB0C122ED32E06B
:101E2E0040E08E2DB6010E949021892B49F480E06E
:101E3E000E940B1F62E472E080E00E940F0E9EC1B2
:101E4E002DEF31E040E08E2DB6010E949021892BBE
:101E5E0049F480E00E942C1A62E472E080E00E9455
:101E6E000F0E8CC129ED32E040E08E2DB6010E949E
:101E7E009021892B49F481E00E942C1A62E472E0D1
:101E8E0080E00E940F0E7AC162E472E080E00E9450
:101E9E000F0E74C123EE32E040E08E2DB6010E948B
:101EAE009021892B51F40E9422200E94C91E62E4C7
:101EBE0072E080E00E940F0E61C121EF32E040E03F
:101ECE008E2DB6010E949021892B51F40E94222062
:101EDE000E94FB1D62E472E080E00E940F0E4EC174
:101EEE0028EF32E040E08E2DB6010E949021892B22
:101EFE0009F044C10E9422200E94871E62E472E013
:101F0E0080E00E940F0E3AC123E033E040E08E2DB8
:101F1E00B6010E949021892B09F004C10E94222053
:101F2E0060E173E080E00E94DE2060E273E080E01A
:101F3E000E94DE206FE273E080E00E94DE206FE3FD
:101F4E0073E080E00E94DE2062E573E080E00E9494
:101F5E00DE2064E673E080E00E94DE2080E00E94D6
:101F6E006F1980E092E03C0120E8822E26E733E0F4
:101F7E0040E0882DB3010E949021892B29F5109203
:101F8E000403109203030E94222085E093E07C015B
:101F9E0020E8022F0F2EFAE0CF2EF3E0DF2EF02DE9
:101FAE0021E833E040E060E070E085E090E00E94E0
:101FBE00E11A80E00E946F190E94691D63E073E0D0
:101FCE0080E00E940F0EDAC024EA33E040E0882D54
:101FDE00B3010E949021892BB1F410920403109248
:101FEE0003030E9422200E9404216AE073E080E82D
:101FFE000E94DE208AE00E944A2463E073E080E0C3
:10200E000E940F0EBBC02EEA33E040E0882DB301D4
:10201E000E949021892B71F41092040310920303F5
:10202E000E9422200E946E2163E073E080E00E94F5
:10203E000F0EA4C029EB33E040E0882DB3010E94BF
:10204E009021892BE9F410920403109203030E944D
:10205E0022200E94042180910A038F3F31F067EC09
:10206E0073E080E00E94DE2005C06CED73E080E03E
:10207E000E94DE2063E073E080E00E940F0E7EC0BF
:10208E0021EF33E040E08E2DB6010E949021892B86
:10209E0061F410920403109203030E940F1963E07F
:1020AE0073E080E00E940F0E69C02BED31E040E03E
:1020BE008E2DB6010E949021892B09F05FC00E94DF
:1020CE00222068EE71E080E00E94DE2062EF71E077
:1020DE0080E00E94DE2080E00E946F192DEF31E03B
:1020EE0040E0882DB3010E949021892B49F480E0B5
:1020FE000E94D11C63E073E080E00E940F0E3EC090
:10210E0021E132E040E0882DB3010E949021892B1D
:10211E00A9F581E00E94D11C63E073E080E00E948B
:10212E000F0E2CC02EEF33E040E08E2DB6010E9434
:10213E009021892B29F40E9422200E94EE221EC09B
:10214E0064E074E080E00E94DE2062E174E080E0F2
:10215E000E94DE2064E274E080E00E94DE2068E3EC
:10216E0074E080E00E94DE206FE474E080E00E9464
:10217E00DE2061E674E080E00E94DE20DF91CF91E8
:10218E001F910F91FF90EF90DF90CF908F907F90E7
:04219E006F900895A1
:1021A200A4E1B0E0E7EDF0E10C946C2298878F8314
:1021B2007A8369835C8B4B8B122FDB011296ED9134
:1021C200FC91139714962D913C9115973E832D8384
:1021D200ED90FC90119716962D903C901797F7FD75
:1021E20003C0E894E1F802C0E1E0F0E0C7018071C9
:1021F20099279A878987E4FE1FC0AB89BC892C91F5
:1022020011963C91119712964C91129713965C91EC
:10221200139714966C91149715967C9115971696B0
:102222008C91169717969C91A0E00E94022421F0AF
:102232008D819E81029702C08D819E8197012870B7
:1022420033273C872B87E3FC0197AB89BC894C90F1
:1022520011965C90119712966C90129713967C903F
:10226200139714968C90149715969C901597169622
:10227200AC9016971796BC90A981BA811896CD900A
:10228200DC901997B1E0CB1AD108D101AC0DBD1D7C
:102292001C929C838B839F01281B390B3E872D87C1
:1022A200C70182709927988B8F87812F012E000C8E
:1022B200990BDC01A154B109BA8BA98B32E0C31688
:1022C200D10434F489859A85892B09F04CC073C0F6
:1022D2009201A301B401C501A0E00E94022481F190
:1022E200B1E0CB1AD108C2018F7099278A309105CB
:1022F20014F4C09602C0895A9F4FE989FA897A97E5
:1023020048F49C012062215631092A31310510F42A
:102312000E943924F101EC0DFD1D80832B813C814B
:10232200215031093C832B839201A301B401C501E1
:1023320004E00E94162229013A014B015C01BECF42
:102342008D859E85AB81BC818A0F9B1F181619064D
:102352003CF21A161B060CF0B5CFEF85F889EF2B6D
:1023620009F0BECFAFCFAB89BC892C9111963C91BD
:10237200119712964C91129713965C91139714969B
:102382006C91149715967C91159716968C911697C9
:1023920017969C91A0E00E94022469F0F101EC0DD5
:1023A200FD1D31971083B2E0CB1AD108F101EC0D7B
:1023B200FD1D80E38083EB85FC85EF2B41F0F1E08E
:1023C200CF1AD108F101EC0DFD1D80E28083A981B5
:1023D200BA8118962D913C911997215031092C19E7
:1023E2003D09C20CD31CA60160E80D811E818F81BC
:1023F20098850E940D169C01EF81F885808191815C
:1024020090FF09C0A981BA8112968D919C91139770
:10241200821793070CF4C9016496E2E10C94A3229B
:10242200ADE0B0E0E7E1F2E10C946C229A87898793
:102432007C836B83FA01DB011296CD90DC901397BB
:1024420014968D919C9115979E838D83ED90FC90AF
:102452001197FA82E98216960D90BC91A02DB88749
:10246200AF83208031804280538064807580868073
:1024720097808101B42DF52DE62D7B868C869D8675
:102482009101A201B301C401A0E00E9402244CF414
:102492000E94B0238901B42FF52FE62F7B878C870A
:1024A2009D87D7FC04C0E894E1F8FA82E9829101A1
:1024B200A201B301C401A0E0ED80FE800E940224CB
:1024C2001CF0898182FF04C081E0E81AF10805C08E
:1024D20083FF03C091E0E91AF108CE0101965C0185
:1024E2008AE0C82ED12C2B2F3F2F4E2F5B856C8577
:1024F2007D858B819C810E943114FC019101A20196
:10250200B301C401A0E00E9402241CF0898182FF71
:1025120012C031970F8118850E0F1F1F9101A20162
:10252200B301C401A0E00E94022414F08BE201C0B6
:102532008DE2D80108C083FF07C03197AF81B8850B
:10254200AE0FBF1F80E28C93E980FA80AB81BC8121
:1025520018962D913C911997215031092E1B3F0B52
:102562008F819885E80FF91FAF0160E80D811E8108
:1025720089859A850E940D169C01A985BA858D913F
:102582009C9190FF07C0EB81FC818281938182172D
:0E25920093070CF4C9012D96E2E10C94A322EC
:1025A0000F931F93CF93DF93FC01D9016838710516
:1025B00031F194F461387105B1F12CF46038710592
:1025C00009F478C09FC06238710509F459C06438B5
:1025D000710509F46FC096C0603A710509F448C0EE
:1025E0002CF46039710509F44BC08CC0603C710556
:1025F00009F476C0603F710509F472C083C0CD91C3
:10260000DC911197CE0102968D939C93452B39F066
:102610009881892F880F880B908381835BC0888184
:102620008083118268C0CD91DC911197CE01049610
:102630008D939C93452B99F088819981AA81BB81C8
:10264000AC01BD01770F440B542FBA0180839183F5
:10265000A283B383448345834683478328C008818C
:1026600019812A813B81008311832283338345C0F2
:10267000CD91DC911197CE0102968D939C9323C04E
:10268000CD91DC911197CE0108968D939C93788122
:1026900069815A814B813C812D819E818F8170831C
:1026A000618352834383348325839683878381E0C8
:1026B00090E02AC0CD91DC911197CE0102968D93C6
:1026C0009C93452BA1F099812881892F880F880B35
:1026D0002083918382838383848385838683E6CF6B
:1026E000CD91DC911197CE0102968D939C93088138
:1026F000198100831183128213821482158216823B
:102700001782D5CF80E090E0DF91CF911F910F919C
:0227100008952A
:10271200CF92DF92EF92FF920F93CF93C82F80E078
:102722000E946F19C1114BC080910D0490910E044B
:10273200049741F06BE774E080E00E94DE2080E0C5
:102742000E946F190E94CE1981111BC034C09C01D6
:10275200992314F42F5F3F4F35952795FC01E050E4
:10276200FE4F408160E1469FA0011124FC01EF5F12
:10277200FD4F5081F901EB5FFC4F452B40830296E0
:1027820002C080E090E0833091050CF385E093E095
:102792007C0120E8022F0F2EFAE0CF2EF3E0DF2E8D
:1027A200F02D26E934E040E060E070E082E090E065
:1027B2000E94E11A4EC08C2F0E9489134AC0809158
:1027C2000D0490910E04069741F061EB74E080E0F5
:1027D2000E94DE2080E00E946F190E94CE198111B2
:1027E2001BC034C09C01992314F42F5F3F4F3595D1
:1027F2002795FC01E050FE4F408160E1469FA00119
:102802001124FC01EF5FFD4F5081F901E95FFC4F9C
:10281200452B4083029602C080E090E0853091050E
:102822000CF385E093E07C0120E8022F0F2EFAE002
:10283200CF2EF3E0DF2EF02D2CEC34E040E062E00E
:1028420070E083E090E00E94E11A03C08C2F0E94A6
:102852008913CF910F91FF90EF90DF90CF90089561
:10286200A2E1B0E0E7E3F4E10C946C22FC010A8BF4
:102872001B832C83732E642E552E462E7D83CC868D
:10288200D886BF82AE82868197819B878A87D5014F
:102892004D915C91228133818085918501971C0144
:1028A20037FF02C021E030E0EA85FB85E80FF91F1F
:1028B20010824701E1E0F0E0FA83E983C9018E1951
:1028C2009F099E878D87DA01A270BB27B88BAF87DD
:1028D200B885BB0FBB0BB98B1214130474F0A9811A
:1028E200BA81AB2B09F05CC0AE81BF818D919C9106
:1028F20011978F7E8D939C9353C02A893B814C8183
:10290200572D662D752D842D9D81A0E00E940224F5
:10291200B1F1E1E02E1A3108FC85F987AF2EB884B7
:10292200C988DC2CEC2CFC2C0C2D1C2D2A893B811B
:102932004C81572D662D752D842D9D810E94CE23AD
:10294200C90129839A83EA85FB85E20DF31D805D27
:10295200808381E0881A91082A893B814C81572D16
:10296200662D752D842D9D810E94D0232A8B3B8359
:102972004C83752E662E572E482E9D83ADCF8D85A6
:102982009E85880D991D181619061CF21814190433
:102992000CF0A5CFEF85F889EF2B09F0BACF9FCFC6
:0A29A200C1016296E2E10C94A32249
:1029AC00A5E1B0E0ECEDF4E10C946C224701580188
:1029BC000E94A4242B013C01A80197010E946E24C3
:1029CC00162FC72ED82EF92E862F9C2DAD2DBF2D50
:1029DC0089839A83AB83BC83AA81FB81EC81ED80D4
:1029EC003E802F8008850D8B5E2F5F71212F3A2F33
:1029FC004F2F60E070E080E090E02115310541053B
:102A0C0000E15007610571058105910509F05EC073
:102A1C005E2F6E2D732D822D9D8904E30E9416224C
:102A2C002D873E874F87588B698B7A8B8B8B9C8B32
:102A3C008D859E8597708F3F974009F447C0A30101
:102A4C009201612F7C2D8D2D9F2D0E946D249B0159
:102A5C00AC01C501B4010E9496248823B9F14986C2
:102A6C005A866B867C8629853A854B855C85C501A3
:102A7C00B4010E946E24B62E872E982EA92E262FD6
:102A8C00372F482F592F612F7C2D8D2D9F2D0E9474
:102A9C009624811118C02B2D8B2D982DA92DBA2D74
:102AAC0089839A83AB83BC833A814B815C816E2D85
:102ABC00732D822D9D89A1E00E940E24122FC32E0E
:102ACC00D42EF52E03C01B2D6401FA2C612F7C2D06
:0C2ADC008D2D9F2D6596E2E10C94A32245
:102AE8004F925F926F927F928F929F92AF92BF9216
:102AF800CF92DF92EF92FF92CF93DF93CDB7DEB7FD
:102B080028970FB6F894DEBF0FBECDBF6B017C01CE
:102B1800DC01CB0147E1B695A795979587954A952E
:102B2800D1F799278F579109873191059CF597FD22
:102B380036C088248A94982C3FE7A32EB12C04C071
:102B4800B594A794979487948A95D2F7D501C40130
:102B58008C219D21AE21BF21892B8A2B8B2BD1F073
:102B680020E030E040E85BE7C701B6010E946E2430
:102B78006D837E838F839887F7FE04C0C80CD91CA9
:102B8800EA1CFB1C80949094A094B094C820D9208F
:102B9800EA20FB205C2D4D2D3E2D2F2D21C020E05D
:102BA80030E040E85BE7C701B6010E946E24698304
:102BB8007A838B839C83F7FE0FC0D701C601880FE9
:102BC800991FAA1FBB1F892B8A2B8B2B19F350E047
:102BD80040E030E82FEB04C050E040E030E020E077
:102BE800652F742F832F922F28960FB6F894DEBF87
:102BF8000FBECDBFDF91CF91FF90EF90DF90CF90C8
:102C0800BF90AF909F908F907F906F905F904F9004
:022C180008951D
:102C1A002F923F924F926F927F928F92AF92BF9272
:102C2A00CF92DF92EF92FF920F931F93CF93DF938E
:102C3A00CDB7DEB766970FB6F894DEBF0FBECDBF2D
:102C4A005C013A01862E6901C701817099279C8B24
:102C5A008B8BE0FC1DC020173107D4F47801EC18E7
:102C6A00FD08FE8AED8AA70191E1E916F10410F048
:102C7A0040E150E060E270E0CE0101969A8B898BC8
:102C8A000E94302489899A891C0120E8422E0BC0AF
:102C9A009601682DA301C5010E94BC1FC016D1066A
:102CAA00ECF2C60125C090E1E916F10458F020E1E2
:102CBA0030E0642DA101C5010E94BC1F80E1E81A21
:102CCA00F108F1CF2D893E892F70332789899A8996
:102CDA00AC0160E8C5010E94BC1F8B899C89892BC5
:102CEA0031F49601682DA301C5010E94BC1FC801D9
:102CFA0066960FB6F894DEBF0FBECDBFDF91CF91B7
:102D0A001F910F91FF90EF90DF90CF90BF90AF90FF
:0E2D1A008F907F906F904F903F902F90089574
:102D280010C00E94822458F00E947B2440F029F4AD
:102D38005F3F29F00C94902451110C948A240C9430
:102D4800A8240E94B22168F39923B1F3552391F383
:102D5800951B550BBB27AA2762177307840738F002
:102D68009F5F5F4F220F331F441FAA1FA9F335D05F
:102D78000E2E3AF0E0E832D091505040E695001C13
:102D8800CAF72BD0FE2F29D0660F771F881FBB1FCD
:102D9800261737074807AB07B0E809F0BB0B802DAB
:102DA800BF01FF2793585F4F3AF09E3F510578F0D7
:102DB8000C9490240C948A245F3FE4F3983ED4F357
:102DC800869577956795B795F7959F5FC9F7880FAB
:102DD800911D9695879597F90895E1E0660F771FFD
:102DE800881FBB1F621773078407BA0720F0621B8E
:0E2DF800730B840BBA0BEE1F88F7E09508955D
:102E0600CF93DF93DC01F90164387105D9F164F4DD
:102E16006138710521F16238710509F440C06038E6
:102E2600710509F054C02EC060397105C1F184F4F2
:102E36006838710509F04BC0C081D181CE01029678
:102E460091838083E881F981ED93FC9340833CC0B4
:102E5600603A7105B9F0603C7105A1F038C0C081D7
:102E6600D181CE01029691838083E881F981ED9329
:102E7600FC93052E000C660B770B4083518362830F
:102E8600738322C0C081D181CE0102969183808353
:102E9600E881F981ED93FC935183408315C0C0818D
:102EA600D181CE01029691838083E881F981ED93E9
:102EB600FC9351834083852F880F880B82838383FD
:102EC600848385838683878381E090E002C080E0E7
:082ED60090E0DF91CF91089517
:102EDE00A2E0B0E0E5E7F7E10C946C221C014B0197
:102EEE00FA01DB0112962D913C91139714964D9099
:102EFE005C9015978D919C9111979A838983169664
:102F0E006D907C90179737FD03C08D7F9A838983D0
:102F1E0000811181228133814481558166817781BF
:102F2E00FE0131965F0188E0C82ED12C7201C401DA
:102F3E000E943114298124FF06C00197F301E80F86
:102F4E00F91F20E32083298123FF06C00197F30197
:102F5E00E80FF91F20E22083E980FA80D401189649
:102F6E002D913C91199721503109281B390B860D53
:102F7E00971DAC0160E88201C1010E940D169C01F3
:102F8E00F1018081918190FF08C0D40112968D913C
:102F9E009C911397821793070CF4C9012296E2E1D4
:042FAE000C94A322BA
:102FB2000FC00E947B2438F00E94822420F09523C7
:102FC20011F00C9490240C94A82411240C948A24BB
:102FD2000E94B22170F3959FC1F3950F50E0551FE7
:102FE200629FF001729FBB27F00DB11D639FAA275C
:102FF200F00DB11DAA1F649F6627B00DA11D661FAB
:10300200829F2227B00DA11D621F739FB00DA11DCB
:10301200621F839FA00D611D221F749F3327A00D85
:10302200611D231F849F600D211D822F762F6A2F21
:1030320011249F5750409AF0F1F088234AF0EE0F86
:10304200FF1FBB1F661F771F881F91505040A9F7B3
:103052009E3F510580F00C9490240C948A245F3F8B
:10306200E4F3983ED4F3869577956795B795F795EF
:10307200E7959F5FC1F7FE2B880F911D9695879567
:0430820097F908951D
:1030860011C00E947B2438F00E94822420F039F47B
:103096009F3F19F426F40C94A8240EF4E095E7FB60
:1030A6000C949024E92F0E94B22158F3BA176207B4
:1030B60073078407950720F079F4A6F50C94892404
:1030C6000EF4E0950B2EBA2FA02D0B01B90190013D
:1030D6000C01CA01A0011124FF27591B99F0593F81
:1030E60050F4503E68F11A16F040A22F232F342FC9
:1030F6004427585FF3CF469537952795A795F04017
:103106005395C9F77EF41F16BA0B620B730B840B2B
:10311600BAF09150A1F0FF0FBB1F661F771F881FE3
:10312600C2F70EC0BA0F621F731F841F48F487953B
:1031360077956795B795F7959E3F08F0B0CF93952D
:0E314600880F08F09927EE0F9795879508954A
:103154002F923F924F926F927F928F92AF92BF9233
:10316400CF92DF92EF92FF920F931F93CF93DF934F
:10317400CDB7DEB727970FB6F894DEBF0FBECDBF2D
:103184006C017B013901842E980188EC282E86E09D
:10319400382E80E0482E87E0F101AE014F5F5F4F8B
:1031A400DA01742D0E94DC23F70102811381A480CB
:1031B400B580E080F18061147104810419F43A014E
:1031C400F0E88F2E2115310529F4882DB3010E94D2
:1031D4008D239C0117FD04C00217130708F49801FE
:1031E4008501682DA301C6010E940D1627960FB60E
:1031F400F894DEBF0FBECDBFDF91CF911F910F9129
:10320400FF90EF90DF90CF90BF90AF908F907F9022
:0A3214006F904F903F902F900895A7
:10321E00CF92DF92EF92FF920F93CF93DF9360E006
:10322E0076E080E00E94DE2080E00E9489136FE14C
:10323E0076E080E00E94DE2081E00E948913C0E0EB
:10324E00D0E03BC00E9422200E94042180910903FD
:10325E008034B1F180910A038F3FA9F085E093E0AD
:10326E007C0120E8022F0F2EFAE0CF2EF3E0DF2EA6
:10327E00F02D22E436E040E064E070E081E090E082
:10328E000E94E11A14C085E093E07C0120E8022F31
:10329E000F2EFAE0CF2EF3E0DF2EF02D23E636E0F0
:1032AE0040E064E070E081E090E00E94E11AE5E029
:1032BE00F3E084818F5F84832196C034D10514F2AC
:1032CE00DF91CF910F91FF90EF90DF90CF90089507
:1032DE00CF92DF92EF92CF93C82F6CE674E080E02E
:1032EE000E94DE2010920E0410920D040E945124B2
:1032FE008093000326C080910D0490910E040196D8
:10330E0090930E0480930D0480910F0490911004FD
:10331E00FC01E050FE4F20838F3F910529F020F0F5
:10332E001092100410920F0480910F0490911004CB
:10333E0001969093100480930F040E945124809361
:10334E000003209100032D30B1F6E0910F04F091AF
:10335E001004E050FE4F10821092100410920F04D1
:10336E0080E092E06C0120E8E22E8E2DB6010E94E4
:10337E00DE208AE00E944A24CC2321F08E2DB60155
:0E338E000E940F0ECF91EF90DF90CF90089528
:10339C00CF92DF92EF92FF920F9380E090E045C0C6
:1033AC00FC01E050FE4F208130ED320F3A3028F412
:1033BC00FC01E050FE4F308337C03FEB320F36300C
:1033CC0030F4FC01E050FE4F275320832DC03FE921
:1033DC00320F363030F4FC01E050FE4F275520837D
:1033EC0023C02D3041F12A3041F1222341F16AE70B
:1033FC0071E080E00E94DE2080E092E07C0120E819
:10340C00022F0F2EFAE0CF2EF3E0DF2EF02D2EEA56
:10341C0031E040E060E070E081E090E00E94E11A71
:10342C000E94222080E00CC00196863091050CF49D
:10343C00B7CF81E005C081E003C081E001C081E02D
:0C344C000F91FF90EF90DF90CF9008955B
:10345800CF92DF92EF92FF920F93082F8091010392
:10346800909102030E9432220023C1F08FE18EBDA9
:103478000DB407FEFDCF8EB580930A0480EA8EBD99
:103488000DB407FEFDCF8EB580930A041EBC0DB4A3
:1034980007FEFDCF8EB580930A0417C08FE08EBD5E
:1034A8000DB407FEFDCF8EB580930A0480EA8EBD69
:1034B8000DB407FEFDCF8EB580930A041EBC0DB473
:1034C80007FEFDCF8EB580930A0480910103909189
:1034D80002030E944F228AE094E07C0120E8022F38
:1034E8000F2EFAE0CF2EF3E0DF2EF02D20EB35E0A3
:1034F80040E060E070E081E090E00E94E11A0F9106
:0A350800FF90EF90DF90CF90089540
:10351200A2E0B0E0EFE8FAE10C946C223C014B012E
:10352200FA01DB0112962D913C91139714964D905E
:103532005C9015978D919C9111979A838983169629
:103542002D903C90179737FD03C08D7F9A83898316
:103552000081118122813381448155816681778185
:10356200FE0131965F018AE0C82ED12C7201C4019E
:103572000E943114E980FA80D40118962D913C9171
:10358200199721503109281B390B820D931DAC016B
:1035920060E88201C3010E940D169C01F301808143
:1035A200918190FF08C0D40112968D919C9113973E
:1035B200821793070CF4C9012296E2E10C94A3222C
:1035C2003F924F925F926F927F928F929F92AF92B1
:1035D200BF92CF92DF92EF92FF920F931F93CF93FE
:1035E200DF935C014B01722E132F342E2701602EC4
:1035F200C0E0D0E026C0CE01880D991D462D920173
:10360200280F391F411D97FD4A95A42FC901F901C1
:103612005A2F0E9466241F926F933F921F937F92AC
:10362200DF92CF920E946823B60180E80E94DE20DA
:1036320021968DB79EB707960FB6F8949EBF0FBE20
:103642008DBFCA15DB05BCF2DF91CF911F910F919F
:10365200FF90EF90DF90CF90BF90AF909F908F90B0
:0C3662007F906F905F904F903F90089514
:10366E00CF92DF92EF929A01462F009781F5690172
:10367E00E42E52E0C50ED11CE11CF6015E2D0E9417
:10368E0066246EBD0DB407FEFDCF5EB550930A04E1
:10369E006901E42E53E0C50ED11CE11CF6015E2D2E
:1036AE000E9466246EBD0DB407FEFDCF5EB550932D
:1036BE000A042C5F3F4F4F4FF901542F0E9466248E
:1036CE006EBD0DB407FEFDCF2EB520930A040197F3
:1036DE00B1F41EBC0DB407FEFDCF8EB580930A0467
:1036EE001EBC0DB407FEFDCF8EB580930A0481E09B
:1036FE008EBD0DB407FEFDCF8EB580930A04EF90FC
:06370E00DF90CF9008954A
:10371400CF92DF92EF92DC0190E0292F30E0220F6C
:10372400331F6901032E000CEE086E2DA6014158CB
:10373400594F6F4F6A01E62EFA015E2D0E946624EE
:10374400862F61110EC02F5F3F4F032E000C440BD8
:103754002158394F4F4FF901542F0E946624862F68
:1037640025C0CD90DD90EC901297F6015E2D0E945D
:103774006624861316C02F5F3F4F032E000C440BA4
:103784002158394F4F4FF901542F0E946624962F28
:103794005FEFC51AD50AE50ACD92DD92EC92129735
:1037A40001C09F5F9B3008F4B8CF892FEF90DF9062
:0437B400CF90089515
:1037B8006F927F928F92EF92FF920F931F93CF9306
:1037C800DF93CDB7DEB761970FB6F894DEBF0FBEB3
:1037D800CDBFFE01319651E1DF011D925A95E9F7FF
:1037E800A2E0B1E0BA83A9839C838B8377FF09C0E9
:1037F8008FE490E090930C0480930B048FEF9FEF7D
:1038080019C03901842E7C01615071097F836E8350
:103818009801682DA301CF010E94D62248855985B9
:103828002E813F814217530708F49A01F701E20FEE
:10383800F31F108261960FB6F894DEBF0FBECDBF9E
:10384800DF91CF911F910F91FF90EF908F907F9014
:043858006F900895D0
:10385C006F927F928F92EF92FF920F931F93CF9361
:10386C00DF93CDB7DEB761970FB6F894DEBF0FBE0E
:10387C00CDBFFE01319651E1DF011D925A95E9F75A
:10388C00A2E0B1E0BA83A9839C838B8377FF09C044
:10389C008FE490E090930C0480930B048FEF9FEFD8
:1038AC0019C03901842E7C01615071097F836E83AC
:1038BC009801682DA301CF010E94BE22488559852D
:1038CC002E813F814217530708F49A01F701E20F4A
:1038DC00F31F108261960FB6F894DEBF0FBECDBFFA
:1038EC00DF91CF911F910F91FF90EF908F907F9070
:0438FC006F9008952C
:1039000088249924F401E401B0E49F93AA279A152E
:103910008B049C04ED05FE05CF05D007A10798F4A4
:10392000AD2FDC2FCF2FFE2FE92D982C892E982F2D
:10393000872F762F652F542F432F322F2227B850F1
:1039400031F7BF9127C01B2EBF91BB27220F331F1A
:10395000441F551F661F771F881F991F881C991CBD
:10396000EE1FFF1FCC1FDD1FAA1FBB1F8A149B0465
:10397000EC05FD05CE05DF05A007B10748F08A1864
:103980009B08EC09FD09CE09DF09A00BB10B2160F2
:103990001A94E1F62EF49401AF01BE01CD01000CA2
:0239A000089588
:1039A2006F927F928F92CF92DF92EF92FF920F935C
:1039B200882389F06BEE74E080E00E94DE2080E0D4
:1039C2000E9489136AE075E080E00E94DE2081E0B7
:1039D2000E94891329C06BEE74E080E00E94DE2011
:1039E20085E093E03C0120E8822E0F2EFAE0CF2EF4
:1039F200F3E0DF2EF02D082D73012DE235E040E0DB
:103A020060E070E082E090E00E94E11A6AE075E016
:103A120080E00E94DE202DE235E040E062E070E0CE
:103A220083E090E00E94E11A0F91FF90EF90DF9007
:0A3A3200CF908F907F906F90089561
:103A3C00CF93DF9380910103909102030E94322275
:103A4C008FE98EBD0DB407FEFDCF8EB580930A04B1
:103A5C001EBC0DB407FEFDCF8EB580930A041EBCB0
:103A6C000DB407FEFDCF8EB580930A031EBC0DB4BA
:103A7C0007FEFDCF8EB5CAE0D3E0898380910103A8
:103A8C00909102030E944F22998188811F929F93EB
:103A9C001F928F9386E395E0A0E0AF939F938F9353
:103AAC00DF93CF930E945523BE0180E80E94DE2055
:103ABC008DB79EB709960FB6F8949EBF0FBE8DBFFB
:063ACC00DF91CF91089587
:103AD200CF93DF930E94052380910103909102030B
:103AE2000E94322282E08EBD0DB407FEFDCF8EB55C
:103AF20080930A048AE18A95F1F700C045E053E019
:103B020060E880910303909104030E94B020C0E01A
:103B1200D0E00CC0FE01E050FE4F80818EBD0DB49E
:103B220007FEFDCF8EB580930A04219660E072E015
:103B320080E80E948D23C817D90760F38DE08EBDFF
:103B42000DB407FEFDCF8EB580930A048091010368
:103B5200909102030E944F220E94D421DF91CF91C3
:023B62000895C4
:103B64000F931F93CF93DF93DB012D913C9111971A
:103B740030FF25C017964D915C91189715962D919D
:103B84003C9116974217530778F41296ED91FC91E5
:103B94001397808312962D913C9113972F5F3F4F7B
:103BA40013963C932E93129717962D913C91189748
:103BB4002F5F3F4F18963C932E93179715C01D9671
:103BC400ED91FC911E97309719F48FEF9FEF0CC085
:103BD4008B01EC011995892BC1F7F8018781908538
:103BE400019690878783CE01DF91CF911F910F912A
:023BF400089532
:103BF600CF92DF92EF92FF920F9380910103909103
:103C060002030E9432228FE08EBD0DB407FEFDCF67
:103C16008EB580930A0480EC8EBD0DB407FEFDCFF1
:103C26008EB580930A041EBC0DB407FEFDCF8EB57B
:103C360080930A048AE094E07C0120E8022F0F2E8C
:103C4600FAE0CF2EF3E0DF2EF02D2FEE35E040E048
:103C560060E070E081E090E00E94E11A80910A0441
:103C660080FDE1CF80910103909102030E944F22D3
:0C3C76000F91FF90EF90DF90CF90089529
:103C8200CF939B01482FF901542F0E946624603282
:103C9200B9F1862F062E000C990B0997059780F132
:103CA2006B3249F5A0E0B0E02F5F3F4F4F4F02C0AB
:103CB200A0E0B0E080E090E0CAE0F901542F0E9459
:103CC2006624062E000C770B605371096A30710569
:103CD20060F4C89FF001C99FF00D11242F5F3F4F80
:103CE2004F4FCF01861B970BE8CFAB2B69F4919511
:103CF2008195910909C06D32D9F6A1E0B0E0D4CF27
:0C3D02002F5F3F4F4F4FBFCFCF91089570
:103D0E00CF92DF92EF92FF920F93809101039091E9
:103D1E0002030E9432228FE08EBD0DB407FEFDCF4E
:103D2E008EB580930A0480ED8EBD0DB407FEFDCFD7
:103D3E008EB580930A041EBC0DB407FEFDCF8EB562
:103D4E0080930A0480910103909102030E944F22F6
:103D5E008AE094E07C0120E8022F0F2EFAE0CF2EAD
:103D6E00F3E0DF2EF02D2EE635E040E060E070E06F
:103D7E0081E090E00E94E11A0F91FF90EF90DF90AA
:043D8E00CF90089535
:103D9200CF92DF92EF92FF920F9380910103909165
:103DA20002030E9432228FE08EBD0DB407FEFDCFCA
:103DB2008EB580930A0480EB8EBD0DB407FEFDCF55
:103DC2008EB580930A041EBC0DB407FEFDCF8EB5DE
:103DD20080930A0480910103909102030E944F2272
:103DE2008AE094E07C0120E8022F0F2EFAE0CF2E29
:103DF200F3E0DF2EF02D2FE835E040E060E070E0E8
:103E020081E090E00E94E11A0F91FF90EF90DF9025
:043E1200CF900895B0
:103E1600CF93C82F80910103909102030E94322212
:103E2600CC23C9F08FE18EBD0DB407FEFDCF8EB554
:103E360080930A0480EA8EBD0DB407FEFDCF8EB5D1
:103E460080930A048CE78EBD0DB407FEFDCF8EB5B8
:103E560080930A0417C08FE18EBD0DB407FEFDCF17
:103E66008EB580930A0480EA8EBD0DB407FEFDCFA1
:103E76008EB580930A041EBC0DB407FEFDCF8EB529
:103E860080930A0480910103909102030E944F22BD
:043E9600CF9108952B
:103E9A0080910103909102030E9432228FE18EBD2C
:103EAA000DB407FEFDCF80EB8EBD0DB407FEFDCF2E
:103EBA0080E48EBD0DB407FEFDCF80910103909181
:103ECA0002030E944F220E940421809101039091D3
:103EDA0002030E9432228FE18EBD0DB407FEFDCF90
:103EEA0080EB8EBD0DB407FEFDCF1EBC0DB407FEE0
:103EFA00FDCF80910103909102030E944F22089501
:103F0A00CF93DF93EC01892BA9F01AC01EBC0DB424
:103F1A0007FEFDCF2EB5FC01E65FFC4F20832EB5D0
:103F2A002D3031F46FED75E080E00E94DE2008C08C
:103F3A00019602C080E090E08F3F910539F330F39B
:103F4A00219791F40BC01EBC0DB407FEFDCF2EB510
:103F5A00FC01E65FFC4F2083019602C080E090E0FE
:0E3F6A008F3F910581F378F3DF91CF91089599
:103F78006F927F928F92CF92DF92EF920F931F935F
:103F8800CF93DF938C016A01E62EE9013A01862E70
:103F9800620E731E811C37FD8A94C614D704E80488
:103FA80081F0F6015E2D0E946624862FB801082E46
:103FB800000C990B0E94B21D8FEFC81AD80AE80AA4
:103FC800ECCFCE01DF91CF911F910F91EF90DF9051
:0A3FD800CF908F907F906F900895B6
:103FE20081B1886081B982B1886082B981B1806112
:103FF20081B982B1806182B981B1806281B982B1B5
:10400200806282B981B1806481B982B1806482B9EF
:1040120081B1806881B982B1806882B981B18260E0
:1040220081B982B1826082B981B1846081B982B181
:10403200846082B981B1886081B982B1886082B9B5
:024042000895DF
:1040440080E090E005C0FC01E65FFC4F1082019621
:1040540082309105C0F380E090E005C0FC01E65F8A
:10406400FC4F108201968F3F9105C1F3B8F380E0B5
:1040740090E005C0FC01E050FE4F108201968F3F96
:104084009105C1F3B8F380E090E005C0FC01E65F60
:10409400FC4F108201968F3F9105C1F3B8F3089548
:1040A40080910103909102030E94322283E08EBD2D
:1040B4000DB407FEFDCF8EB580930A048AE18A957C
:1040C400F1F700C045E053E060E88091030390916C
:1040D40004030E94B0201EBC0DB407FEFDCF8EB5B4
:1040E40080930A0480910303909104030E94851F26
:0E40F40080910103909102030E944F220895D3
:104102000E94BA2188F09F5798F0B92F9927B7518A
:10411200B0F0E1F0660F771F881F991F1AF0BA9569
:10412200C9F714C0B13091F00E948924B1E008951A
:104132000C948924672F782F8827B85F39F0B93F0C
:10414200CCF3869577956795B395D9F73EF490951C
:0E4152008095709561957F4F8F4F9F4F089518
:104160009A01462F0097C9F4F901542F0E94662442
:104170006EBD0DB407FEFDCF5EB550930A042F5FF0
:104180003F4F4F4FF901542F0E9466246EBD0DB46E
:1041900007FEFDCF2EB520930A04019771F41EBCD3
:1041A0000DB407FEFDCF8EB580930A041EBC0DB47E
:0C41B00007FEFDCF8EB580930A04089531
:1041BC00CF92DF92EF92CF93DF936B01E82EC0E0AA
:1041CC00D0E00FC0AE2DC6018C0F9D1FA11DD7FDD9
:1041DC00AA95FC015A2F0E946624862F0E944A241D
:1041EC0021968E2DB6010E948D23C817D90750F346
:0C41FC00DF91CF91EF90DF90CF900895FD
:1042080080910103909102030E94322283E18EBDC6
:104218000DB407FEFDCF8EB580930A0445E053E048
:1042280060E880910303909104030E94371B00C04B
:1042380000C080910103909102030E944F220E94C6
:08424800FB1D0E9452200895A5
:10425000990F0008550FAA0BE0E8FEEF1616170697
:10426000E807F907C0F012161306E407F50798F0FF
:10427000621B730B840B950B39F40A2661F0232B18
:10428000242B252B21F408950A2609F4A140A69594
:084290008FEF811D811D0895CF
:104298000E941A240E9442230E9488220E94F11F31
:1042A8000E947B230E945F240E94222065E976E019
:1042B80080E00E94DE2081E00E946F190E9458244D
:1042C8002FEF81EE94E0215080409040E1F700C04C
:0442D8000000EACF29
:1042DC000E94052380910103909102030E943222D7
:1042EC0088ED8EBD0DB407FEFDCF8EB580930A040C
:1042FC0045E053E060E880910303909104030E9431
:10430C00371B80910103909102030E944F220E945F
:04431C00FB1D0895E8
:10432000CF92DF92EF926B01E82EF6015E2D0E9494
:104330006624862FF901542F0E94662486130BC031
:10434000882341F08FEFC81AD80AE80A2F5F3F4F41
:104350004F4FEBCF682F90E0861B9109EF90DF90D5
:04436000CF9008955D
:1043640057FD9058440F551F59F05F3F71F0479522
:10437400880F97FB991F61F09F3F79F08795089507
:10438400121613061406551FF2CF4695F1DF08C026
:10439400161617061806991FF1CF86957105610543
:0443A40008940895DC
:1043A80080910103909102030E94322280E18EBD28
:1043B8000DB407FEFDCF8EB580930A0445E053E0A7
:1043C80060E880910303909104030E94371B809159
:1043D8000103909102030E944F220E94FB1D089541
:1043E800FA0160387105CCF0623871051CF0633849
:1043F800710599F4A081B1819D012C5F3F4F3183F4
:1044080020834D915D916D917C91FC014083518396
:104418006283738381E090E0089580E090E00895DE
:1044280097FB10F8169400080F93083098F008507E
:10443800232F342F452F562F672F782F892F902D14
:10444800F4CF0594979587957795679557954795F0
:0C445800379527950A95AAF70F91089553
:104464008230910571F01CF4019739F0089583307E
:10447400910559F0049769F0089582B1877F82B954
:10448400089582B18F7E82B9089582B18F7D82B9F9
:0A449400089582B18F7B82B908956C
:10449E008230910571F01CF4019739F00895833044
:1044AE00910559F0049769F0089582B1886082B938
:1044BE00089582B1806182B9089582B1806282B915
:0A44CE00089582B1806482B9089558
:1044D8002F923F924F925F926F927F928F929F920C
:1044E800AF92BF92CF92DF92EF92FF920F931F93FA
:1044F800CF93DF93CDB7DEB7CA1BDB0B0FB6F894AB
:08450800DEBF0FBECDBF199408
:1045100087E690E09093C5008093C4008DB18260DF
:104520008DB9E1ECF0E08081886080838DB18E7F71
:104530008DB980818061808381B1846081B982B1CD
:06454000846082B90895B9
:104546002A88398848885F846E847D848C849B841D
:10455600AA84B984C884DF80EE80FD800C811B812B
:10456600AA81B981CE0FD11D0FB6F894DEBF0FBE5A
:06457600CDBFED01089528
:10457C00A2E0B0E0E4ECF2E20C947A228C013A83F3
:10458C0029839E012F5F3F4F0E946B03F80120810E
:10459C0024FF02C08FEF9FEF2296E4E00C94B1222F
:1045AC00A2E0B0E0ECEDF2E20C947A228C013A83BA
:1045BC0029839E012F5F3F4F0E946B03F8012081DE
:1045CC0024FF02C08FEF9FEF2296E4E00C94B122FF
:1045DC0080910103909102030E9432228FEF8EBDD5
:1045EC000DB407FEFDCF80910103909102030E9450
:0E45FC004F226EEC75E080E00E94DE200895F4
:10460A0080910103909102030E94322286E08EBDBE
:10461A000DB407FEFDCF8EB580930A048091010385
:0A462A00909102030E944F220895B0
:1046340097FB072E16F4009407D077FD09D00E944B
:104644002E2307FC05D03EF4909581959F4F089545
:08465400709561957F4F0895F8
:10465C00AA1BBB1B51E107C0AA1FBB1FA617B7079C
:10466C0010F0A61BB70B881F991F5A95A9F78095B8
:08467C009095BC01CD010895E9
:1046840087B1806487B988B1806488B983B3816055
:1046940083BB84B3816084BB83B3826083BB84B3F4
:0646A400826084BB089552
:1046AA00A0E0B0E0EBE5F3E20C947C229E01255FEA
:1046BA003F4F488559856A858E819F810E94F623DE
:0646CA00E2E00C94B322B3
:1046D000A0E0B0E0EEE6F3E20C947C229E01255FC0
:1046E0003F4F488559856A858E819F810E94EA23C4
:0646F000E2E00C94B3228D
:1046F60084B1866084B984B1877F84B984B18160CE
:1047060084B985B1816085B98CB581658CBD8CB560
:044716008CBD0895B9
:10471A009B01482FA82FCB01FC015A2F0E94662427
:10472A00662319F00196A11DF7CF642FA901841BF6
:04473A00950B08953E
:10473E00092E0394000C11F4882352F0BB0F40F4A1
:10474E00BF2B11F460FF04C06F5F7F4F8F4F9F4FE1
:02475E000895BC
:1047600060957095809590953095409550952195E0
:104770003F4F4F4F5F4F6F4F7F4F8F4F9F4F08956A
:104780009A01462FDC01F901542F0E9466246D9393
:0C4790002F5F3F4F4F4F6111F6CF08958F
:10479C00689401C0E8948F929F92CF93DF930E940C
:0C47AC00801CDF91CF919F908F900895AA
:1047B800992777FD06C07BBF07900D920197E1F717
:0C47C800089501900D920197E1F708950B
:1047D4000F931F9389019A01462F6FEF7FE70E9481
:0847E4002E1C1F910F91089596
:1047EC000F931F9389019A01462F6FEF7FE70E9469
:0847FC00DC1B1F910F910895D1
:104804000024A7FD00942A173005400550056005D3
:08481400700580059005089570
:10481C000024A7FD00942A0F301D401D501D601D63
:08482C00701D801D901D089510
:10483400E1E0F1E0808180668083E2E0F1E0808164
:06484400806680830895E8
:10484A00EC010E94B0240E94AF24CE010E94B12440
:06485A00CE010E94AD2416
:10486000FC01480F591FE417F50711F06193FBCFC6
:024870000895A9
:104872009C01215631092A31310510F48F7599278F
:02488200089597
:104884009C01215431092A31310508F480620895CC
:0E4894009091C00095FFFCCF8093C600089560
:0E48A2008091C0008823E4F78091C60008953D
:0E48B000E2E0F1E0908180E4892780830895A2
:0E48BE00E2E0F1E0908180E289278083089596
:0E48CC0057FD03C05BBF67910895608108959A
:0E48DA005058BB27AA270E9443180C949F2316
:0E48E8000E9481206894B1110C948A240895D6
:0E48F60000240A9416161706180609060895DF
:0E49040000240A9412161306140605060895E0
:0E491200E894BB2766277727CB0197F9089515
:0C49200097F99F6780E870E060E0089560
:0A492C000E94282108F481E008959C
:0A4936000E94282108F48FEF089575
:084940000E9494160C949F23C1
:084948000E94D9170C949F2373
:064950009FEF80EC0895CA
:044956000C940000BD
:04495A000E94BB00FC
:02495E000895BA
:024960000895B8
:024962000895B6
:00000001FF
