:100000000C948F000C9459230C9459230C9459236D
:100010000C9459230C9459230C9459230C94592370
:100020000C9459230C9459230C9459230C94592360
:100030000C9459230C9459230C9459230C94592350
:100040000C9459230C9459230C9459230C94592340
:100050000C9459230C9459230C9459230C94592330
:100060000C9459230C9459230C9459230C94592320
:100070000C9459230C9459230C9459230C94592310
:100080000C9459230C9459230C9459230C94592300
:100090000C9459230C9459230C9459230C945923F0
:1000A0000C9459230C9459230C9459230C945923E0
:1000B0000C9459230C9459230C9459230C945923D0
:1000C0000C9459230C9459230C9459230C945923C0
:1000D0000C9459230C9459230C9459230C945923B0
:1000E0000C9459230200123280000C94F8210C94D5
:1000F00048030C9461070C9425140C947A210C94F9
:10010000E5210C94BE0A0C947A190C94BE160C943A
:1001100020100C9492210C9460110C9480131124E3
:100120001FBECFEFD1E2DEBFCDBF00E00CBFE4EEDB
:10013000F0E040E019C0B791A7913791279107915E
:1001400007FD0EC097918791EF01F92FE82F0BBFA4
:1001500007900D92A217B307D9F7FE011BBE04C08A
:100160001D92A217B307E1F7E93EF40721F70E94B9
:0A01700030200C94CB22F894FFCF4E
:10017A0057726F6E6720496E707574200A4D616BF5
:10018A0065207375726520696E70757420697320B5
:10019A004845582076616C6964205B30202D2046E2
:1001AA005D200A004865726520697320776861746A
:1001BA002077617320696E7075747465643A2030B3
:1001CA007825303258200A002D2D2D436F6C756D1D
:1001DA006E20416464726573732D2D2D2032206266
:1001EA0079746573200A00307825303258200A0065
:1001FA002D2D2D426C6F636B2F5061676520416412
:10020A0064726573732D2D2D2033206279746573A2
:10021A00200A00466C617368204944004E414E44EE
:10022A002041646472657373657300506172616D15
:10023A006574657220506167650025692D3E4461C9
:10024A0074612052656365697665643A2030782561
:10025A00303258200A00466561747572652052650D
:10026A006769737465727300312920426C6F636B1E
:10027A00204C6F636B200A00322920436F6E666937
:10028A006775726174696F6E200A0033292053748E
:10029A0061747573200A0034292044696520536506
:1002AA006C656374200A00426C6F636B204C6F6349
:1002BA006B003129204C6F636B200A0032292055CC
:1002CA006E6C6F636B200A003329205265616420CB
:1002DA000A00342920436F6E666967757265200AC1
:1002EA00004C6F636B00556E6C6F636B00526561F7
:1002FA006400436F6E66696775726500436F6E6668
:10030A00696775726174696F6E005374617475738D
:10031A00004469652053656C6563740054657374A1
:10032A00204D6574686F64730031292057726974AF
:10033A00652054657374200A00322920526561646D
:10034A002054657374200A0033292045726173654D
:10035A002054657374200A00342920426C6F636B41
:10036A0020436865636B6572200A00352920506155
:10037A00676520436865636B6572200A0057726976
:10038A007465205465737400526561642054657302
:10039A0074004572617365205465737400426C6F12
:1003AA00636B20436865636B657200426C6F636BB5
:1003BA00206973206D61726B6564206261640A0052
:1003CA00426C6F636B206170706561727320636C3D
:1003DA0065616E0A005061676520436865636B65F5
:1003EA007200526573657400312920466C61736826
:1003FA00204944200A003229204E414E44204164BB
:10040A0064726573736573200A0033292050617220
:10041A00616D657465722050616765200A00342930
:10042A0020466561747572652052656769737465E3
:10043A007273200A0035292054657374204D65743F
:10044A00686F6473200A0036292052657365742028
:10045A000A002D3E5573657220496E7075743A0A0A
:10046A00004D616B652073757265206F6E6C792023
:10047A003420696E707574732E200A00436F6C7590
:10048A006D6E2041646472657373202D3E2030784E
:10049A0025303258200A004D616B652073757265EC
:1004AA00206F6E6C79203620696E707574732E20F9
:1004BA000A00426C6F636B2F506167652041646468
:1004CA0072657373202D3E20307825303258200A09
:0104DA000021
:1004DB0052656164204465766963652049443A201E
:1004EB004D6963726F6E2049442028307825303275
:1004FB005829204465766963652049442028307863
:10050B002530325829200A004469652053656C65F3
:10051B006374696F6E2052656769737465723A20F4
:10052B00307825303258200A00436F6E6669677544
:10053B00726174696F6E2052656769737465723A84
:10054B0020307825303258200A00426C6F636B20C4
:10055B004C6F636B2052656769737465723A203018
:10056B007825303258200A0044657669636520523D
:10057B00657365746564200A00446174612052657B
:10058B006365697665643A20696E646578202569D0
:10059B00200A00537461747573202830782530322B
:0405AB0058290A00C1
:1005AF002D2D2D436F6C756D6E20416464726573D4
:1005BF00732D2D2D2032206279746573200A002D42
:1005CF002D2D426C6F636B2F506167652041646402
:1005DF00726573732D2D2D2033206279746573200E
:1005EF000A003078253032582054686973205061E2
:1005FF006765206973206D61726B65642062616449
:10060F00200A003078253032582054686973205002
:0F061F0061676520697320636C65616E200A0056
:10062E0068076C094C836A9074A07AC00080688851
:06063E0000846C820081C3
:100644002D3E41727261797320436C6561726564F9
:03065400200A0079
:10065700494E4600696E66004E414E006E616E005F
:10066700494E4600696E66004E414E006E616E004F
:07067700286E756C6C290070
:06067E00286E696C2900E2
:10068400A3EAB0E0E8E4F3E00C94F0204C01590153
:10069400C756DF4F488359836A83C959D040212CF8
:1006A400312C6E012BE8C20ED11C85E2782E260176
:1006B40030E8632ECE018D569F4FC456DF4F998389
:1006C4008883CC59D0409C0140E8CF55DF4F288324
:1006D40039834A83C15AD040C756DF4F4881C9592C
:1006E400D040C656DF4FB881CA59D040C556DF4FF7
:1006F4007881CB59D040E42FFB2F572F0E940C2335
:10070400662309F4D0C3CF57DF4F19821882C1582A
:10071400D0408FEF9FEFCD57DF4F99838883C35825
:10072400D040CB57DF4F19821882C558D040E1E042
:10073400F0E0EC0FFD1FC957DF4FF983E883C7587A
:10074400D04020E830E0C757DF4F39832883C958A9
:10075400D040842F9B2FA72FE12CF12CFC015A2F82
:100764000E940C2361111DC0E114F10411F19701E1
:100774005B2F672FC4010E94A51EC756DF4F8881D7
:100784009981AA81C959D0408E0D9F1DA11DF7FCE6
:10079400AA95C756DF4F88839983AA83C959D04045
:1007A40008C00196A11D6532F9F23FEFE31AF30A7E
:1007B400D5CFC756DF4F88819981AA81C959D040C6
:1007C400FC015A2F0E940C23653209F05AC39C0184
:1007D4004A2F2F5F3F4F4F4FC256DF4F2883398335
:1007E4004A83CE59D040C756DF4F288339834A8382
:1007F400C959D040C756DF4F88819981AA81C95908
:10080400D040FC015A2F0E940C236B3241F4CF5785
:10081400DF4F28813981C158D04024600BC06C322D
:10082400CCF06D3259F5CF57DF4F28813981C1584B
:10083400D0402160CF57DF4F39832883C158D0403F
:100844000196A11DC756DF4F88839983AA83C9598E
:10085400D040D0CF603241F4CF57DF4F2881398167
:10086400C158D0402860E6CF633291F4CF57DF4FB0
:1008740028813981C158D0402061DCCF603341F4F4
:10088400CF57DF4F28813981C158D0402260D2CF61
:100894006A3299F50196A11DC756DF4F8883998363
:1008A400AA83C959D040D501ED91FC911197CF018C
:1008B40002968D939C9380819181CB57DF4F9983CE
:1008C4008883C558D04097FF3FC0CF57DF4F28815A
:1008D4003981C158D040B1E02B27CF57DF4F39833E
:1008E4002883C158D040919581959109CB57DF4F0A
:1008F40099838883C558D04027C0BC018A2F0E94A1
:10090400AB1CCB57DF4F99838883C558D040C7565B
:10091400DF4F88819981AA81C959D040FC015A2F9F
:100924000E940C23062E000C770B605371096A3069
:10093400710550F40196A11DC756DF4F8883998332
:10094400AA83C959D040E3CFCF57DF4F888199811B
:10095400C158D04080FF07C08D7FCF57DF4F9983A8
:100964008883C158D040C756DF4F88819981AA81B6
:10097400C959D040FC015A2F0E940C236E3209F051
:1009840059C0CD57DF4F19821882C358D0409C01FB
:100994004A2F2F5F3F4F4F4FC756DF4F288339836E
:1009A4004A83C959D040F901542F0E940C236A325A
:1009B400D1F40296A11DC756DF4F88839983AA8379
:1009C400C959D040D501ED91FC911197CF01029600
:1009D4008D939C9380819181CD57DF4F9983888338
:1009E400C358D04027C0842FB9010E94AB1CCD57F7
:1009F400DF4F99838883C358D040C756DF4F88811F
:100A04009981AA81C959D040FC015A2F0E940C2314
:100A1400062E000C770B605371096A30710550F48F
:100A24000196A11DC756DF4F88839983AA83C959AC
:100A3400D040E3CFCE0187569F4F0E94CA1A182F89
:100A4400C756DF4F9881C959D040C656DF4F8881B9
:100A5400CA59D040C556DF4F5881CB59D040E92FF1
:100A6400F82F0E940C23862F660F990B0E94E82210
:100A74008936910509F45BC0B4F48336910509F411
:100A840069C144F48532910509F4A4C18136910504
:100A940029F1B6C18436910509F449C08836910517
:100AA4000CF42FC1ADC18037910509F4CDC04CF4CD
:100AB4008E36910509F41BC18F36910509F47DC06A
:100AC4009FC18537910509F455C08837910509F40C
:100AD40097C08337910509F093C15BC1612F70E022
:100AE400A501C6010E949620892B09F4BAC1C756F4
:100AF400DF4F88819981AA81C959D0409C014A2F2E
:100B04002F5F3F4F4F4FC756DF4F288339834A83A8
:100B1400C959D040FC015A2F0E940C23262FA6014C
:100B2400BE016F577F4FC4010E94B80A97C1612F5D
:100B340070E0950141E050E0C6010E941912892B32
:100B440009F48FC1C756DF4F88819981AA81C95999
:100B5400D0400196A11DC756DF4F88839983AA838D
:100B6400C959D040A601BE016F577F4FC4010E94EE
:100B74005A1174C1612F70E0950140E050E0C60144
:100B84000E941912892B09F46CC1C756DF4F888162
:100B94009981AA81C959D0400196A11DC756DF4F3A
:100BA40088839983AA83C959D040A601BE016F578F
:100BB4007F4FC4010E94741951C1612F70E09501E7
:100BC40040E050E0C6010E941912892B09F449C182
:100BD400C756DF4F88819981AA81C959D0400196AF
:100BE400A11DC756DF4F88839983AA83C959D04072
:100BF400A601BE016F577F4FC4010E94B8162EC1D3
:100C0400612F70E0950140E050E0C6010E94191286
:100C1400892B09F426C1C756DF4F88819981AA819F
:100C2400C959D0409C014A2F2F5F3F4F4F4FC756A1
:100C3400DF4F288339834A83C959D040FC015A2F96
:100C44000E940C23262F4BC0950140E050E060EF3A
:100C540070E0C6010E941912892B09F402C1C7561B
:100C6400DF4F88819981AA81C959D0400196A11D7D
:100C7400C756DF4F88839983AA83C959D04086E039
:100C84002EE736E040E0F901DE01AD56BF4F742F88
:100C94000E947522D6012C9111963C9111971296BF
:100CA4004C91129713965C91139714966C91149728
:100CB40015967C91159716968C91169717969C917C
:100CC400A0E00E94A82251F400E010E0CF55DF4FCD
:100CD400288139814A81C15AD040BAC028E7A60187
:100CE400BE016F577F4FC4010E941A10B7C0612F15
:100CF40070E09501A1014E0D5F1DC6010E944C16C6
:100D0400B0C0612F70E0A501C6010E949620892B16
:100D140009F4A7C0C756DF4F88819981AA81C959B0
:100D2400D0409C014A2F2F5F3F4F4F4FC756DF4F94
:100D3400288339834A83C959D040FC015A2F0E9421
:100D44000C23262FA601BE016F577F4FC4010E94BA
:100D54005B0784C0103809F084C0C756DF4F888110
:100D64009981AA81C959D0400196A11DC756DF4F68
:100D740088839983AA83C959D040D501ED91FC9108
:100D84001197CF0102968D939C938081F601808305
:100D94005BC0103809F065C0C756DF4F8881998160
:100DA400AA81C959D0400196A11DC756DF4F888337
:100DB4009983AA83C959D040D501ED91FC9111972B
:100DC400CF0103968D939C9320813181428100E071
:100DD40010E03EC0103809F044C0C756DF4F888188
:100DE4009981AA81C959D0400196A11DC756DF4FE8
:100DF40088839983AA83C959D040F601708224C09C
:100E0400D6017C92C256DF4F288139814A81CE595E
:100E1400D040C756DF4F288339834A83C959D0400D
:100E2400CF57DF4F19821882C158D040CB57DF4FBC
:100E340019821882C558D0408FEF9FEFCD57DF4FEE
:100E440099838883C358D04001E010E0462D920175
:100E5400BE016F577F4FC4010E94F3178E0D9F1D73
:100E640011C0C756DF4F88819981AA81C959D040E2
:100E74000196A11DC756DF4F88839983AA83C95958
:100E8400D040C7017101E80EF91EE214F3044CF4DA
:100E94008FE490E090932D1280932C128FEF9FEFAC
:100EA40003C0170119CCC101CD55DF4FE2E10C9409
:020EB4002721F4
:100EB600A6E2B0E0E1E6F7E00C94F0209F8F8E8F7B
:100EC600798F688F122FFB010190F081E02DFA8750
:100ED600E987FB01C280D380248135813C8B2B8B33
:100EE6008085918599A388A30680F781E02DFA83F2
:100EF600E983FA0180809180A280B38020E030E00F
:100F0600A901C501B4010E943C2387FF06C0B7FAB8
:100F1600B094B7F8B0948DE204C0F985F2FF0CC323
:100F26008BE2E981FA8180832B893C892150310942
:100F360038872F8341E050E05A8B498B06C08B8956
:100F46009C8998878F831A8A198AD501C401BF772D
:100F56000097E0E8AE07EFE7BE07D9F4212F110F9F
:100F6600330B2154310989819A8149895A89840F21
:100F7600951F2A31310520F447E556E060E003C0AD
:100F86004BE556E060E00E9459226BE576E080E092
:100F96001EC00197A048BF4730F1212F110F330B18
:100FA6002154310989819A8149895A89840F951F6B
:100FB6002A31310520F44FE556E060E003C043E6F0
:100FC60056E060E00E94592263E676E080E00E94E7
:100FD6001722E981FA81AF0160E8E984FA840B8976
:100FE6001C899C01A1C220E030E0A901C501B40121
:100FF6000E943C231B821C82882309F467C0F0E808
:10100600FD832FE32E83212C312C20E030E040E2BB
:1010160051E46B817C818D819E810E945223F62E44
:10102600072F8D879B87A50194010E9441231816DF
:1010360054F03FEF231A330AFB820C834D854D8310
:101046005B855E83E2CF1C861B862B813C814D81AE
:101056005E81C501B4010E943C2387FF3DC084ED3B
:1010660028168EEF380604F5EB85FC85EF2BE1F4A8
:1010760020E030E040E85AE5C501B4010E94522361
:101086004B015C0120E030E040E85AE56B817C8151
:101096008D819E810E9452236B837C838D839E83E8
:1010A60021E030E03C872B8720E030E040E251E44D
:1010B6006B817C818D819E810E944E236B837C8314
:1010C6008D839E8331E0231A3108BFCF40E84D83DC
:1010D6005FE35E83212C312C812F110F990B9BA38B
:1010E6008AA30E94E8228B8FD7FC03C0DEA2CDA282
:1010F60004C0E6E0F0E0FEA3EDA3FB8DF73641F475
:10110600CD2809F01EC221E030E03EA32DA319C26E
:101116008B8D8D8B04C037FE25C296E69D8BEDA187
:10112600FEA13196FEA3EDA3FD89F63699F437FEAE
:1011360008C01B821C8220E82D833FE33E83212CBE
:10114600312C4B8D473631F08DA19EA1820D931D1A
:101156009EA38DA39B819B87EC81ED87FD81FE8BF2
:101166002E812A8F750164011D8E1C8E8C8D9D8D9E
:10117600EDA1FEA18E179F07C1F12B853D854E89F6
:101186005A8DC701B6010E944E230E94BD142B0141
:101196003C010E941A236CA38701760117FB109568
:1011A60017F910952B853D854E895A8DC301B201DD
:1011B6000E941F146B017C01F7FAF094F7F8F09483
:1011C60020E030E040E251E46B857D858E899A8D82
:1011D6000E944E236B877D878E8B9A8F4C8D5D8DFB
:1011E6004F5F5F4F5D8F4C8FC1CF20E030E040EA0C
:1011F60050E46B857D858E899A8D0E9452232B0142
:101206003C019B01AC01C701B6010E943C2387FD4E
:101216000BC0A3019201C701B6010E943C238111B4
:1012260006C0FCA1F0FD03C0412C512C3201A301E4
:101236009201C501B4010E9414234B015C012D8962
:10124600253611F0310102C0612C712C23014DA10C
:101256005EA1441A550AC988DA8800E010E01C86A7
:101266001B8689859A85807199279F8B8E8B64143E
:10127600750431F48B859C85892B09F49AC0A6C028
:10128600DD8ECC8EE88DF98D808591850597C81603
:10129600D90680F72B813C814D815E81C501B40161
:1012A6000E944E230E94BD146D877E878F87988B80
:1012B6000E941A23CB01EE89FF89EF2B69F4892B53
:1012C60059F4FB8DF73641F477FE06C098012F5F7F
:1012D6003F4F3D8F2C8F43C04B855C85452BB1F42A
:1012E60077FE14C05FEFC51AD50AE981FA818C8DA5
:1012F6009D8DE80FF91F9EE29083EF81F885319767
:10130600F887EF8321E030E03C872B87E981FA817B
:10131600EC0DFD1D1D8F0C8F8C8D9D8D892B49F03D
:1013260030E331934C8D5D8D415051095D8F4C8F6B
:10133600F3CFC8018C0D9D1D2F813885201B310BE5
:101346006C01EFEFCE1ADE0AE981FA81E80FF91F88
:10135600605D6083A9014150510958874F8385011B
:10136600740117FB109517F910952B813C814D815F
:101376005E816D857E858F8598890E941F144B013D
:101386005C01B7FAB094B7F8B09420E030E040E2E0
:1013960051E46B817C818D819E810E944E236B83FB
:1013A6007C838D839E8351E0651A71080C8D1D8D9B
:1013B6005ECFF985F4FF0AC0E981FA81EC0DFD1DC7
:1013C6008EE2808396012F5F3F4F690149815A81E2
:1013D6004C0D5D1D5C874B87FA011082FD89F53641
:1013E60009F061C0E981FA8128A139A1E20FF31F52
:1013F6003197108237FE06C031942194310801E0FE
:1014060010E002C000E010E0E8A1F9A1319749819F
:101416005A81E40FF51F22E030E08AE0E82EF12C35
:10142600CF0149815A81841B950B2114310479F02F
:10143600C101B7010E94A421805D82931B01215046
:1014460031098F819885019798878F83E9CF121686
:10145600130674F3FC013197E40FF51F012B11F409
:101466002BE201C02DE220830297E981FA81E80F81
:10147600F91F2AA13BA1215431092A31310510F067
:1014860025E601C025E420832F81388522503109C5
:1014960038872F83C816D90634F4AF0160E88B85E8
:1014A6009C850E94592249815A813A0180E8882EFA
:1014B600998591FF2EC090FD2CC0EF81F8851E16F0
:1014C6001F063CF5882DB3010E94172229813A8117
:1014D600820F931F9C0149815A81241B350BE98990
:1014E600FA892E173F074CF0FC012081EF81F88521
:1014F600E80FF91F20830197EDCF4F81588560E3F0
:1015060070E089819A818E0F9F1F0E94D6221C8AC5
:101516001B8A882DB3010E941722E984FA840B895D
:101526001C899C01682DA3018E8D9F8D0E945615E6
:10153600A696E2E10C942721598553FF00CD80E25F
:10154600F0CC2CEF22162FEF32064CF04DA15EA107
:10155600241635060CF4DFCD55E65D8BFBCD35E65E
:0A1566003D8BF8CD46E64D8BF5CD28
:10157000A0E2B0E0EEEBFAE00C94F0209D8F8C8FAF
:10158000FB01298320812D8331813E8F82819381CC
:101590009B8B8A8B2481358139872887808591852B
:1015A000998F888F46805780FA01C080D180E28071
:1015B000F38020E030E0A901C701B6010E943C237E
:1015C00087FF06C0F7FAF094F7F8F0948DE204C0B4
:1015D0005D8152FFF6C28BE2F20180832885398556
:1015E000215031093F872E8741E050E05C834B83D7
:1015F00006C0888599859F878E871C821B82B701CC
:10160000A6017F77E9810E2E000CFF0BF98BE88B8A
:1016100041155105F0E86F07FFE77F07C1F42889FE
:101620003989215431098B819C81840D951D2A3182
:10163000310520F447E656E060E003C04BE656E093
:1016400060E00E9459226BE676E080E01CC08B814E
:101650009C81840D951D4130510560487F47E8F01D
:1016600028893989215431092A31310520F44FE67E
:1016700056E060E003C043E756E060E00E94592274
:1016800063E776E080E00E941722A20160E8ED8027
:10169000FE8C088519859C018CC220E3FC01208307
:1016A000EB81FC813196E40DF51D2B813C812E5F91
:1016B0003F4F3C832B8348895989415451095B8FA3
:1016C0004A8F4A31510510F088E701C088E58083D0
:1016D00020E030E0A901C701B6010E943C23612C43
:1016E000712C1F8E1982882309F464C050E858A316
:1016F0008FE38A832F8D398148A15A816F8D79813B
:1017000088A19A810E9414235B018C01A701960194
:101710000E94412318160CF442C09FEF691A790AFF
:10172000AF8EB98208A31A83E5CF20E030E040E015
:101730005FE36F8D798188A19A810E94522320E016
:1017400030E0A9010E943C23811118C020E030E064
:1017500040E85AE56F8D798188A19A810E945223D1
:101760006F8F798388A39A8320E030E040E85AE5C0
:10177000C701B6010E9452236B017C0120E030E0DA
:1017800040E05FE36F8D798188A19A810E945223A6
:101790006F8F798388A39A83A1E06A1A71082F8DCD
:1017A000398148A15A81C701B6010E943C2387FDB7
:1017B000BCCF04C0E0E8E8A3FFE3FA832A893B89B1
:1017C00037FD02C0C90102C088E190E0AC014F5F63
:1017D0005F4F5B874A878F8C9980A8A0BA801601DB
:1017E00087011F821E829401A501B101C8010E94D8
:1017F0004E230E94BD146C8B7D8B8E8B9F8B94012E
:10180000A5010E9452239B01AC01B101C8010E94B5
:1018100013231B018C0120E030E040E85DE3B401BC
:10182000C5010E9452234B015C018E819F8101966C
:101830009F838E83EA89FB89F7FF09C020E030E0AF
:10184000A901B101C8010E943C23882341F02A85E7
:101850003B854E815F81421753072CF204C08E8175
:101860009F819B878A8720E030E040E051E4B4010B
:10187000C5010E9452234B015C019B01AC01B101E7
:10188000C8010E943C2387FD12C0A5019401B1014B
:10189000C8010E943C2381110DC06C897D898E890D
:1018A0009F890E941A2361707727672B19F4812C76
:1018B000912C5401A5019401C701B6010E94142383
:1018C0006B017C01DC01CB01BF770097A048BF47CB
:1018D00009F4A5CE2E843F84F2E02F1A31082A8520
:1018E0003B85319521953109398B288B0B811C81E2
:1018F000A12CB12C1F821E82812C912C488D598DD8
:10190000455051095D8B4C8BEC89FD890E171F07E3
:101910000CF091C02F8D398148A15A81C701B601C1
:101920000E944E230E94BD146A877B878C879D8707
:101930000E941A23AB016115710539F481149104D9
:1019400021F05FEFA51AB50A4DC0EE81FF81EF2BA4
:1019500089F48114910471F0F201E00FF11F2EE27D
:10196000208331E0231A31080F5F1F4FE1E0F0E0E0
:10197000FF83EE83F201E00FF11F95012115310580
:1019800029F0A0E3A19321503109F8CFF801EA0D25
:10199000FB1DFF87EE872A183B084A3051051CF4CF
:1019A000605D7F4F02C0695A7F4F2A8D3B8D2A317F
:1019B000310550F4CB018062815691094A9720F499
:1019C000CB010E94DF22BC010E851F850F5F1F4FD8
:1019D000EE85FF85E40DF51D608331E0231A3108A3
:1019E000A12CB12C2F8D398148A15A816A857B8524
:1019F0008C859D850E9452239B01AC01C701B601D5
:101A00000E9413236B017C0120E030E040E85DE39D
:101A10006F8D798188A19A810E9452236F8F79837B
:101A200088A39A8341E0841A910888899989881546
:101A3000990509F069CF2E813F81232B51F5F201E1
:101A4000E00FF11FA114B104E9F04A895B89141673
:101A50001506C4F45D8150FD15C08EE28083F80147
:101A60003196E40DF51DC50120E321930197E9F7B7
:101A70000A0D1B1D0F5F1F4FC50180959095280E05
:101A8000391E07C08D8184FF04C08EE280830F5F02
:101A90001F4FF201E00FF11FFF83EE831082E88DEC
:101AA000F98DE40DF51D3197108277FE07C0719412
:101AB00061947108EE24E394F12C02C0E12CF12C26
:101AC000E88DF98D3197E40DF51D21E030E08AE0D5
:101AD000C82ED12CCF01841995096114710469F0C5
:101AE000C301B6010E94A421805D82933B01215075
:101AF000310941E0241A3108EDCF2130310581F35D
:101B0000FC013197E40DF51DEF2811F42BE201C023
:101B10002DE220830297F201E80FF91F2A8D3B8DF9
:101B20002A31310510F020E701C020E52083081795
:101B3000190734F4AF0160E88E819F810E94592219
:101B4000320130E8832E4D8141FF28C040FD26C080
:101B500052E0251A31081214130404F5882DB3013C
:101B60000E941722840D951D9C01241935094B8173
:101B70005C81241735073CF0FC012081E20DF31D48
:101B800020830197F1CFA10160E370E08B819C81FC
:101B9000840D951D0E94D62219861886882DB301C2
:101BA0000E941722ED80FE8C088519859C01682D06
:101BB000A3018C8D9D8D0E945615A096E2E10C9498
:0C1BC00027215D8153FF15CD80E206CD8A
:101BCC006F927F928F92CF92DF92EF92FF920F9350
:101BDC001F93CF93DF936B01E82E2DE132E040E0B1
:101BEC000E945220892B29F40E940B1F0E94F11C89
:101BFC000FC226E232E040E08E2DB6010E94522048
:101C0C00892B19F40E94311E03C225E332E040E017
:101C1C008E2DB6010E945220892B99F581E090E01F
:101C2C0090932512809324120E940B1F0E94971FE1
:101C3C00C0E0D0E021C0FE01E15EF54F80811F9233
:101C4C008F93DF93CF9384E492E0A0E0AF939F93C4
:101C5C008F9300E01AE01F930F930E94DF21B801CD
:101C6C0080E80E94E61F21968DB79EB709960FB6A5
:101C7C00F8949EBF0FBE8DBFCF3FD105E1F2DCF2D1
:101C8C00C7C120E632E040E08E2DB6010E94522002
:101C9C00892B09F0B5C00E940B1F62E772E080E04F
:101CAC000E94E61F62E872E080E00E94E61F65E990
:101CBC0072E080E00E94E61F61EA72E080E00E9420
:101CCC00E61F80E00E94161980E092E06C0120E88B
:101CDC00E22E21EB32E040E08E2DB6010E94522024
:101CEC00892B09F053C00E940B1F6CEB72E080E053
:101CFC000E94E61F66EC72E080E00E94E61F62ED37
:101D0C0072E080E00E94E61F6CED72E080E00E94C1
:101D1C00E61F80E00E9416192BEE32E040E08E2D7B
:101D2C00B6010E945220892B21F481E00E946B1E87
:101D3C006FC120EF32E040E08E2DB6010E945220A0
:101D4C00892B21F480E00E946B1E62C127EF32E0E8
:101D5C0040E08E2DB6010E945220892B21F480E0A8
:101D6C000E94221A55C12CEF32E040E08E2DB601B4
:101D7C000E945220892B21F481E00E94221A48C132
:101D8C0060E672E080E00E94E60D42C126E033E09E
:101D9C0040E08E2DB6010E945220892B51F40E94F6
:101DAC000B1F0E94F41D60E672E080E00E94E60DBD
:101DBC002FC124E133E040E08E2DB6010E94522069
:101DCC00892B51F40E940B1F0E94771D60E672E074
:101DDC0080E00E94E60D1CC12BE133E040E08E2D2B
:101DEC00B6010E945220892B09F012C10E940B1FD0
:101DFC000E94B71D60E672E080E00E94E60D08C10B
:101E0C0026E233E040E08E2DB6010E945220892B51
:101E1C0009F0D2C00E940B1F63E373E080E00E94C4
:101E2C00E61F63E473E080E00E94E61F62E573E066
:101E3C0080E00E94E61F62E673E080E00E94E61FED
:101E4C0065E773E080E00E94E61F80E00E941619AF
:101E5C0080E092E03C0120E8822E27E833E040E06D
:101E6C00882DB3010E945220892BA9F510922512BE
:101E7C00109224120E940B1F80E00E94161962ED32
:101E8C0071E080E00E94E61F80E00E94D2126AEFAF
:101E9C0071E080E00E94E61F81E00E94D21286E28F
:101EAC0092E17C0120E8022F0F2EF0E0CF2EFAE019
:101EBC00DF2EF02D2EEA31E040E060E070E085E0AE
:101ECC0090E00E94CC190E94361D66E273E080E01F
:101EDC000E94E60D9DC022E933E040E0882DB3015D
:101EEC000E945220892BB1F41092251210922412C8
:101EFC000E940B1F0E94D4206FE17AE080E80E94C0
:101F0C00E61F8AE00E94F02266E273E080E00E9405
:101F1C00E60D7EC02CE933E040E0882DB3010E9431
:101F2C005220892B71F410922512109224120E94C7
:101F3C000B1F0E94422166E273E080E00E94E60DD6
:101F4C0067C027EA33E040E0882DB3010E9452209D
:101F5C00892BE9F410922512109224120E940B1F67
:101F6C000E94D42080911F128F3F31F065EB73E0FB
:101F7C0080E00E94E61F05C06AEC73E080E00E94DE
:101F8C00E61F66E273E080E00E94E60D41C02FED93
:101F9C0033E040E08E2DB6010E945220892BC1F512
:101FAC0010922512109224120E94581866E273E0C7
:101FBC0080E00E94E60D2CC02CEE33E040E08E2D2C
:101FCC00B6010E945220892B29F40E940B1F0E94FB
:101FDC004A221EC062EF73E080E00E94E61F60E0C0
:101FEC0074E080E00E94E61F64E174E080E00E94EF
:101FFC00E61F68E274E080E00E94E61F6FE374E085
:10200C0080E00E94E61F61E574E080E00E94E61F1C
:10201C00DF91CF911F910F91FF90EF90DF90CF90B8
:08202C008F907F906F900895E2
:10203400A4E1B0E0E0E2F0E10C94F02098878F8313
:102044007A8369835C8B4B8B122FDB011296ED91A3
:10205400FC91139714962D913C9115973E832D83F3
:10206400ED90FC90119716962D903C901797F7FDE4
:1020740003C0E894E1F802C0E1E0F0E0C701807138
:1020840099279A878987E4FE1FC0AB89BC892C9164
:1020940011963C91119712964C91129713965C915C
:1020A400139714966C91149715967C911597169620
:1020B4008C91169717969C91A0E00E94A82221F07B
:1020C4008D819E81029702C08D819E819701287027
:1020D40033273C872B87E3FC0197AB89BC894C9061
:1020E40011965C90119712966C90129713967C90AF
:1020F400139714968C90149715969C901597169692
:10210400AC9016971796BC90A981BA811896CD9079
:10211400DC901997B1E0CB1AD108D101AC0DBD1DEB
:102124001C929C838B839F01281B390B3E872D8730
:10213400C70182709927988B8F87812F012E000CFD
:10214400990BDC01A154B109BA8BA98B32E0C316F7
:10215400D10434F489859A85892B09F04CC073C065
:102164009201A301B401C501A0E00E94A82281F15B
:10217400B1E0CB1AD108C2018F7099278A3091053A
:1021840014F4C09602C0895A9F4FE989FA897A9754
:1021940048F49C012062215631092A31310510F49A
:1021A4000E94DF22F101EC0DFD1D80832B813C8117
:1021B400215031093C832B839201A301B401C50151
:1021C40004E00E94B82029013A014B015C01BECF12
:1021D4008D859E85AB81BC818A0F9B1F18161906BD
:1021E4003CF21A161B060CF0B5CFEF85F889EF2BDD
:1021F40009F0BECFAFCFAB89BC892C9111963C912D
:10220400119712964C91129713965C91139714960A
:102214006C91149715967C91159716968C91169738
:1022240017969C91A0E00E94A82269F0F101EC0DA0
:10223400FD1D31971083B2E0CB1AD108F101EC0DEA
:10224400FD1D80E38083EB85FC85EF2B41F0F1E0FD
:10225400CF1AD108F101EC0DFD1D80E28083A98124
:10226400BA8118962D913C911997215031092C1956
:102274003D09C20CD31CA60160E80D811E818F812B
:1022840098850E9456159C01EF81F8858081918183
:1022940090FF09C0A981BA8112968D919C911397E0
:1022A400821793070CF4C9016496E2E10C94272188
:1022B400ADE0B0E0E0E6F1E10C94F0209A87898784
:1022C4007C836B83FA01DB011296CD90DC9013972B
:1022D40014968D919C9115979E838D83ED90FC901F
:1022E4001197FA82E98216960D90BC91A02DB887B9
:1022F400AF832080318042805380648075808680E3
:1023040097808101B42DF52DE62D7B868C869D86E4
:102314009101A201B301C401A0E00E94A8224CF4DF
:102324000E943A228901B42FF52FE62F7B878C87F0
:102334009D87D7FC04C0E894E1F8FA82E982910110
:10234400A201B301C401A0E0ED80FE800E94A82296
:102354001CF0898182FF04C081E0E81AF10805C0FD
:1023640083FF03C091E0E91AF108CE0101965C01F4
:102374008AE0C82ED12C2B2F3F2F4E2F5B856C85E6
:102384007D858B819C810E947A13FC019101A201BD
:10239400B301C401A0E00E94A8221CF0898182FF3D
:1023A40012C031970F8118850E0F1F1F9101A201D2
:1023B400B301C401A0E00E94A82214F08BE201C082
:1023C4008DE2D80108C083FF07C03197AF81B8857B
:1023D400AE0FBF1F80E28C93E980FA80AB81BC8191
:1023E40018962D913C911997215031092E1B3F0BC2
:1023F4008F819885E80FF91FAF0160E80D811E8178
:1024040089859A850E9456159C01A985BA858D9166
:102414009C9190FF07C0EB81FC818281938182179C
:0E24240093070CF4C9012D96E2E10C942721D8
:102432000F931F93CF93DF93FC01D9016838710585
:1024420031F194F461387105B1F12CF46038710501
:1024520009F478C09FC06238710509F459C0643824
:10246200710509F46FC096C0603A710509F448C05D
:102472002CF46039710509F44BC08CC0603C7105C5
:1024820009F476C0603F710509F472C083C0CD9132
:10249200DC911197CE0102968D939C93452B39F0D6
:1024A2009881892F880F880B908381835BC08881F4
:1024B2008083118268C0CD91DC911197CE01049680
:1024C2008D939C93452B99F088819981AA81BB8138
:1024D200AC01BD01770F440B542FBA018083918365
:1024E200A283B383448345834683478328C00881FC
:1024F20019812A813B81008311832283338345C062
:10250200CD91DC911197CE0102968D939C9323C0BD
:10251200CD91DC911197CE0108968D939C93788191
:1025220069815A814B813C812D819E818F8170838B
:10253200618352834383348325839683878381E037
:1025420090E02AC0CD91DC911197CE0102968D9335
:102552009C93452BA1F099812881892F880F880BA4
:102562002083918382838383848385838683E6CFDA
:10257200CD91DC911197CE0102968D939C930881A7
:1025820019810083118312821382148215821682AA
:102592001782D5CF80E090E0DF91CF911F910F910C
:0225A20008959A
:1025A400CF92DF92EF92FF920F93CF93C82F80E0E8
:1025B4000E941619C1114BC080912E1290912F12B6
:1025C400049741F06BE674E080E00E94E61F80E02F
:1025D4000E9416190E94B81881111BC034C09C01B6
:1025E400992314F42F5F3F4F35952795FC01E05054
:1025F400FE4F408160E1469FA0011124FC01EF5F82
:10260400FD4F5081F901EA5DFD4E452B4083029652
:1026140002C080E090E0833091050CF386E292E101
:102624007C0120E8022F0F2EF0E0CF2EFAE0DF2EFF
:10263400F02D26E834E040E060E070E082E090E0D5
:102644000E94CC194EC08C2F0E94D2124AC0809195
:102654002E1290912F12069741F061EA74E080E007
:102664000E94E61F80E00E9416190E94B81881118A
:102674001BC034C09C01992314F42F5F3F4F359540
:102684002795FC01E050FE4F408160E1469FA00188
:102694001124FC01EF5FFD4F5081F901E85DFD4E0F
:1026A400452B4083029602C080E090E0853091057E
:1026B4000CF386E292E17C0120E8022F0F2EF0E079
:1026C400CF2EFAE0DF2EF02D2CEB34E040E062E078
:1026D40070E083E090E00E94CC1903C08C2F0E942C
:1026E400D212CF910F91FF90EF90DF90CF90089589
:1026F400A2E1B0E0E0E8F3E10C94F020FC010A8BE5
:102704001B832C83732E642E552E462E7D83CC86FC
:10271400D886BF82AE82868197819B878A87D501BE
:102724004D915C91228133818085918501971C01B3
:1027340037FF02C021E030E0EA85FB85E80FF91F8E
:1027440010824701E1E0F0E0FA83E983C9018E19C0
:102754009F099E878D87DA01A270BB27B88BAF874C
:10276400B885BB0FBB0BB98B1214130474F0A98189
:10277400BA81AB2B09F05CC0AE81BF818D919C9175
:1027840011978F7E8D939C9353C02A893B814C81F2
:10279400572D662D752D842D9D81A0E00E94A822C1
:1027A400B1F1E1E02E1A3108FC85F987AF2EB88427
:1027B400C988DC2CEC2CFC2C0C2D1C2D2A893B818B
:1027C4004C81572D662D752D842D9D810E94672285
:1027D400C90129839A83EA85FB85E20DF31D805D97
:1027E400808381E0881A91082A893B814C81572D86
:1027F400662D752D842D9D810E9469222A8B3B8331
:102804004C83752E662E572E482E9D83ADCF8D8515
:102814009E85880D991D181619061CF218141904A2
:102824000CF0A5CFEF85F889EF2B09F0BACF9FCF35
:0A283400C1016296E2E10C94272135
:10283E00A5E1B0E0E5E2F4E10C94F0204701580187
:10284E000E9452232B013C01A80197010E941423E0
:10285E00162FC72ED82EF92E862F9C2DAD2DBF2DBF
:10286E0089839A83AB83BC83AA81FB81EC81ED8043
:10287E003E802F8008850D8B5E2F5F71212F3A2FA2
:10288E004F2F60E070E080E090E0211531054105AA
:10289E0000E15007610571058105910509F05EC0E3
:1028AE005E2F6E2D732D822D9D8904E30E94B8201C
:1028BE002D873E874F87588B698B7A8B8B8B9C8BA2
:1028CE008D859E8597708F3F974009F447C0A30171
:1028DE009201612F7C2D8D2D9F2D0E9413239B0124
:1028EE00AC01C501B4010E943C238823B9F149868D
:1028FE005A866B867C8629853A854B855C85C50113
:10290E00B4010E941423B62E872E982EA92E262FA0
:10291E00372F482F592F612F7C2D8D2D9F2D0E94E3
:10292E003C23811118C02B2D8B2D982DA92DBA2D3E
:10293E0089839A83AB83BC833A814B815C816E2DF4
:10294E00732D822D9D89A1E00E94B422122FC32ED9
:10295E00D42EF52E03C01B2D6401FA2C612F7C2D75
:0C296E008D2D9F2D6596E2E10C94272131
:10297A004F925F926F927F928F929F92AF92BF9285
:10298A00CF92DF92EF92FF92CF93DF93CDB7DEB76C
:10299A0028970FB6F894DEBF0FBECDBF6B017C013E
:1029AA00DC01CB0147E1B695A795979587954A959E
:1029BA00D1F799278F579109873191059CF597FD92
:1029CA0036C088248A94982C3FE7A32EB12C04C0E1
:1029DA00B594A794979487948A95D2F7D501C401A0
:1029EA008C219D21AE21BF21892B8A2B8B2BD1F0E3
:1029FA0020E030E040E85BE7C701B6010E941423FB
:102A0A006D837E838F839887F7FE04C0C80CD91C18
:102A1A00EA1CFB1C80949094A094B094C820D920FE
:102A2A00EA20FB205C2D4D2D3E2D2F2D21C020E0CC
:102A3A0030E040E85BE7C701B6010E9414236983CE
:102A4A007A838B839C83F7FE0FC0D701C601880F58
:102A5A00991FAA1FBB1F892B8A2B8B2B19F350E0B6
:102A6A0040E030E82FEB04C050E040E030E020E0E6
:102A7A00652F742F832F922F28960FB6F894DEBFF6
:102A8A000FBECDBFDF91CF91FF90EF90DF90CF9037
:102A9A00BF90AF909F908F907F906F905F904F9074
:022AAA0008958D
:102AAC002F923F924F926F927F928F92AF92BF92E2
:102ABC00CF92DF92EF92FF920F931F93CF93DF93FE
:102ACC00CDB7DEB766970FB6F894DEBF0FBECDBF9D
:102ADC005C013A01862E6901C701817099279C8B94
:102AEC008B8BE0FC1DC020173107D4F47801EC1857
:102AFC00FD08FE8AED8AA70191E1E916F10410F0B8
:102B0C0040E150E060E270E0CE0101969A8B898B37
:102B1C000E94D62289899A891C0120E8422E0BC07A
:102B2C009601682DA301C5010E94A51EC016D106F1
:102B3C00ECF2C60125C090E1E916F10458F020E151
:102B4C0030E0642DA101C5010E94A51E80E1E81AA8
:102B5C00F108F1CF2D893E892F70332789899A8905
:102B6C00AC0160E8C5010E94A51E8B899C89892B4C
:102B7C0031F49601682DA301C5010E94A51EC80160
:102B8C0066960FB6F894DEBF0FBECDBFDF91CF9126
:102B9C001F910F91FF90EF90DF90CF90BF90AF906F
:0E2BAC008F907F906F904F903F902F900895E4
:102BBA0010C00E94282358F00E94212340F029F4D3
:102BCA005F3F29F00C94362351110C9430230C9456
:102BDA0056230E94742068F39923B1F3552391F385
:102BEA00951B550BBB27AA2762177307840738F072
:102BFA009F5F5F4F220F331F441FAA1FA9F335D0CF
:102C0A000E2E3AF0E0E832D091505040E695001C82
:102C1A00CAF72BD0FE2F29D0660F771F881FBB1F3C
:102C2A00261737074807AB07B0E809F0BB0B802D1A
:102C3A00BF01FF2793585F4F3AF09E3F510578F046
:102C4A000C9436230C9430235F3FE4F3983ED4F37C
:102C5A00869577956795B795F7959F5FC9F7880F1A
:102C6A00911D9695879597F90895E1E0660F771F6C
:102C7A00881FBB1F621773078407BA0720F0621BFD
:0E2C8A00730B840BBA0BEE1F88F7E0950895CC
:102C9800CF93DF93DC01F90164387105D9F164F44D
:102CA8006138710521F16238710509F440C0603856
:102CB800710509F054C02EC060397105C1F184F462
:102CC8006838710509F04BC0C081D181CE010296E8
:102CD80091838083E881F981ED93FC9340833CC024
:102CE800603A7105B9F0603C7105A1F038C0C08147
:102CF800D181CE01029691838083E881F981ED9399
:102D0800FC93052E000C660B770B4083518362837E
:102D1800738322C0C081D181CE01029691838083C2
:102D2800E881F981ED93FC935183408315C0C081FC
:102D3800D181CE01029691838083E881F981ED9358
:102D4800FC9351834083852F880F880B828383836C
:102D5800848385838683878381E090E002C080E056
:082D680090E0DF91CF91089586
:102D7000A2E0B0E0EEEBF6E10C94F0201C014B0178
:102D8000FA01DB0112962D913C91139714964D9008
:102D90005C9015978D919C9111979A8389831696D3
:102DA0006D907C90179737FD03C08D7F9A83898340
:102DB000008111812281338144815581668177812F
:102DC000FE0131965F0188E0C82ED12C7201C4014A
:102DD0000E947A13298124FF06C00197F301E80FAE
:102DE000F91F20E32083298123FF06C00197F30107
:102DF000E80FF91F20E22083E980FA80D4011896B9
:102E00002D913C91199721503109281B390B860DC2
:102E1000971DAC0160E88201C1010E9456159C011A
:102E2000F1018081918190FF08C0D40112968D91AB
:102E30009C911397821793070CF4C9012296E2E143
:042E40000C942721A6
:102E44000FC00E94212338F00E94282320F09523EC
:102E540011F00C9436230C94562311240C94302333
:102E64000E94742070F3959FC1F3950F50E0551F95
:102E7400629FF001729FBB27F00DB11D639FAA27CB
:102E8400F00DB11DAA1F649F6627B00DA11D661F1A
:102E9400829F2227B00DA11D621F739FB00DA11D3B
:102EA400621F839FA00D611D221F749F3327A00DF5
:102EB400611D231F849F600D211D822F762F6A2F91
:102EC40011249F5750409AF0F1F088234AF0EE0FF6
:102ED400FF1FBB1F661F771F881F91505040A9F723
:102EE4009E3F510580F00C9436230C9430235F3FB1
:102EF400E4F3983ED4F3869577956795B795F7955F
:102F0400E7959F5FC1F7FE2B880F911D96958795D6
:042F140097F908958C
:102F180011C00E94212338F00E94282320F039F4A0
:102F28009F3F19F426F40C9456230EF4E095E7FB22
:102F38000C943623E92F0E94742058F3BA176207BD
:102F480073078407950720F079F4A6F50C942F23CE
:102F58000EF4E0950B2EBA2FA02D0B01B9019001AC
:102F68000C01CA01A0011124FF27591B99F0593FF0
:102F780050F4503E68F11A16F040A22F232F342F38
:102F88004427585FF3CF469537952795A795F04086
:102F98005395C9F77EF41F16BA0B620B730B840B9B
:102FA800BAF09150A1F0FF0FBB1F661F771F881F53
:102FB800C2F70EC0BA0F621F731F841F48F48795AB
:102FC80077956795B795F7959E3F08F0B0CF93959D
:0E2FD800880F08F09927EE0F979587950895BA
:102FE6002F923F924F926F927F928F92AF92BF92A3
:102FF600CF92DF92EF92FF920F931F93CF93DF93BF
:10300600CDB7DEB727970FB6F894DEBF0FBECDBF9C
:103016006C017B013901842E980187E7282E86E012
:10302600382E80E0482E87E0F101AE014F5F5F4FFA
:10303600DA01742D0E947522F70102811381A480A2
:10304600B580E080F18061147104810419F43A01BD
:10305600F0E88F2E2115310529F4882DB3010E9441
:1030660017229C0117FD04C00217130708F49801E4
:103076008501682DA301C6010E94561527960FB635
:10308600F894DEBF0FBECDBFDF91CF911F910F9198
:10309600FF90EF90DF90CF90BF90AF908F907F9092
:0A30A6006F904F903F902F90089517
:1030B000CF92DF92EF92FF920F93CF93DF936FEA5D
:1030C00075E080E00E94E61F80E00E94D2126EEC64
:1030D00075E080E00E94E61F81E00E94D212C0E00D
:1030E000D0E03BC00E940B1F0E94D42080912A1286
:1030F0008034B1F180911F0A8F3FA9F086E292E1FE
:103100007C0120E8022F0F2EF0E0CF2EFAE0DF2E18
:10311000F02D21EF35E040E064E070E081E090E0E8
:103120000E94CC1914C086E292E17C0120E8022FB3
:103130000F2EF0E0CF2EFAE0DF2EF02D22E136E068
:1031400040E064E070E081E090E00E94CC19E6E2AB
:10315000F2E184818F5F84832196C034D10514F21B
:10316000DF91CF910F91FF90EF90DF90CF90089576
:10317000CF92DF92EF92FF920F9380E090E045C0F4
:10318000FC01E050FE4F208130ED320F3A3028F440
:10319000FC01E050FE4F308337C03FEB320F36303A
:1031A00030F4FC01E050FE4F275320832DC03FE94F
:1031B000320F363030F4FC01E050FE4F27552083AB
:1031C00023C02D3041F12A3041F1222341F16AE739
:1031D00071E080E00E94E61F80E092E07C0120E840
:1031E000022F0F2EF0E0CF2EFAE0DF2EF02D2EEA88
:1031F00031E040E060E070E081E090E00E94CC19B6
:103200000E940B1F80E00CC00196863091050CF4E3
:10321000B7CF81E005C081E003C081E001C081E05B
:0C3220000F91FF90EF90DF90CF90089589
:10322C00CF92DF92EF92CF93C82F6CE574E080E0E1
:10323C000E94E61F10922F1210922E120E94F7225B
:10324C0080931E0A25C080912E1290912F12019608
:10325C0090932F1280932E128091301290913112F4
:10326C00FC01E050FE4F20838115984020F0109215
:10327C0031121092301280913012909131120196CD
:10328C0090933112809330120E94F72280931E0A81
:10329C0020911E0A2D30B9F6E0913012F0913112C6
:1032AC00E050FE4F1082109231121092301280E0DA
:1032BC0092E06C0120E8E22E8E2DB6010E94E61FF2
:1032CC008AE00E94F022CC2321F08E2DB6010E94C0
:0C32DC00E60DCF91EF90DF90CF900895A9
:1032E800A2E0B0E0EAE7F9E10C94F0203C014B01E0
:1032F800FA01DB0112962D913C91139714964D908B
:103308005C9015978D919C9111979A838983169655
:103318002D903C90179737FD03C08D7F9A83898342
:1033280000811181228133814481558166817781B1
:10333800FE0131965F018AE0C82ED12C7201C401CA
:103348000E947A13E980FA80D40118962D913C9155
:10335800199721503109281B390B820D931DAC0197
:1033680060E88201C3010E9456159C01F301808127
:10337800918190FF08C0D40112968D919C9113976A
:10338800821793070CF4C9012296E2E10C942721D5
:103398003F924F925F926F927F928F929F92AF92DD
:1033A800BF92CF92DF92EF92FF920F931F93CF932A
:1033B800DF935C014B01722E132F342E2701602EF0
:1033C800C0E0D0E026C0CE01880D991D462D92019F
:1033D800280F391F411D97FD4A95A42FC901F901EE
:1033E8005A2F0E940C231F926F933F921F937F9234
:1033F800DF92CF920E94F221B60180E80E94E61F78
:1034080021968DB79EB707960FB6F8949EBF0FBE4C
:103418008DBFCA15DB05BCF2DF91CF911F910F91CB
:10342800FF90EF90DF90CF90BF90AF909F908F90DC
:0C3438007F906F905F904F903F90089540
:10344400CF92DF92EF92FF920F93082F0E944623B0
:103454000023C1F08FE18EBD0DB407FEFDCF8EB504
:1034640080932B1280EA8EBD0DB407FEFDCF8EB57E
:1034740080932B121EBC0DB407FEFDCF8EB5809336
:103484001F0A17C08FE08EBD0DB407FEFDCF8EB5A9
:1034940080932B1280EA8EBD0DB407FEFDCF8EB54E
:1034A40080932B121EBC0DB407FEFDCF8EB5809306
:1034B4001F0A0E944A238FE19AE07C0120E8022F30
:1034C4000F2EF0E0CF2EFAE0DF2EF02D25E535E0CB
:1034D40040E060E070E081E090E00E94CC190F9140
:0A34E400FF90EF90DF90CF90089565
:1034EE00CF92DF92EF929A01462F009781F56901F4
:1034FE00E42E52E0C50ED11CE11CF6015E2D0E9499
:10350E000C236EBD0DB407FEFDCF5EB550932B128E
:10351E006901E42E53E0C50ED11CE11CF6015E2DAF
:10352E000E940C236EBD0DB407FEFDCF5EB5509309
:10353E002B122C5F3F4F4F4FF901542F0E940C233B
:10354E006EBD0DB407FEFDCF2EB520932B12019745
:10355E00B1F41EBC0DB407FEFDCF8EB580932B12B9
:10356E001EBC0DB407FEFDCF8EB580932B1281E0ED
:10357E008EBD0DB407FEFDCF8EB580932B12EF904E
:06358E00DF90CF900895CC
:10359400CF92DF92EF92DC0190E0292F30E0220FEE
:1035A400331F6901032E000CEE086E2DA601425D47
:1035B400594F6F4F6A01E62EFA015E2D0E940C23CB
:1035C400862F61110EC02F5F3F4F032E000C440B5A
:1035D400225D394F4F4FF901542F0E940C23862F3F
:1035E40025C0CD90DD90EC901297F6015E2D0E94DF
:1035F4000C23861316C02F5F3F4F032E000C440B81
:10360400225D394F4F4FF901542F0E940C23962FFE
:103614005FEFC51AD50AE50ACD92DD92EC921297B6
:1036240001C09F5F9B3008F4B8CF892FEF90DF90E3
:04363400CF90089596
:103638006F927F928F92EF92FF920F931F93CF9387
:10364800DF93CDB7DEB761970FB6F894DEBF0FBE34
:10365800CDBFFE01319651E1DF011D925A95E9F780
:10366800A2E0B1E0BA83A9839C838B8377FF09C06A
:103678008FE490E090932D1280932C128FEF9FEFA0
:1036880019C03901842E7C01615071097F836E83D2
:103698009801682DA301CF010E948C214885598586
:1036A8002E813F814217530708F49A01F701E20F70
:1036B800F31F108261960FB6F894DEBF0FBECDBF20
:1036C800DF91CF911F910F91FF90EF908F907F9096
:0436D8006F90089552
:1036DC006F927F928F92EF92FF920F931F93CF93E3
:1036EC00DF93CDB7DEB761970FB6F894DEBF0FBE90
:1036FC00CDBFFE01319651E1DF011D925A95E9F7DC
:10370C00A2E0B1E0BA83A9839C838B8377FF09C0C5
:10371C008FE490E090932D1280932C128FEF9FEFFB
:10372C0019C03901842E7C01615071097F836E832D
:10373C009801682DA301CF010E94742148855985F9
:10374C002E813F814217530708F49A01F701E20FCB
:10375C00F31F108261960FB6F894DEBF0FBECDBF7B
:10376C00DF91CF911F910F91FF90EF908F907F90F1
:04377C006F900895AD
:10378000CF92DF92EF92FF920F931F93CF93DF932D
:10379000EC01892B19F128C01EBC0DB407FEFDCF2A
:1037A0002EB5FC01E15EF54F20832EB52D30A1F43E
:1037B0007C01990F000B110B0F2EF0E0CF2EFAE0D9
:1037C000DF2EF02D24E835E040E060E070E081E09D
:1037D00090E00E94CC1908C0019602C080E090E001
:1037E000811528E09207C0F2219791F40BC01EBC0E
:1037F0000DB407FEFDCF2EB5FC01E15EF54F208331
:10380000019602C080E090E0811528E0920778F3ED
:10381000DF91CF911F910F91FF90EF90DF90CF90AC
:02382000089509
:1038220088249924F401E401B0E49F93AA279A150D
:103832008B049C04ED05FE05CF05D007A10798F483
:10384200AD2FDC2FCF2FFE2FE92D982C892E982F0C
:10385200872F762F652F542F432F322F2227B850D0
:1038620031F7BF9127C01B2EBF91BB27220F331FF9
:10387200441F551F661F771F881F991F881C991C9C
:10388200EE1FFF1FCC1FDD1FAA1FBB1F8A149B0444
:10389200EC05FD05CE05DF05A007B10748F08A1843
:1038A2009B08EC09FD09CE09DF09A00BB10B2160D1
:1038B2001A94E1F62EF49401AF01BE01CD01000C81
:0238C200089567
:1038C4000F931F93CF93DF93DB012D913C911197BD
:1038D40030FF25C017964D915C91189715962D9140
:1038E4003C9116974217530778F41296ED91FC9188
:1038F4001397808312962D913C9113972F5F3F4F1E
:1039040013963C932E93129717962D913C911897EA
:103914002F5F3F4F18963C932E93179715C01D9613
:10392400ED91FC911E97309719F48FEF9FEF0CC027
:103934008B01EC011995892BC1F7F80187819085DA
:10394400019690878783CE01DF91CF911F910F91CC
:023954000895D4
:10395600CF939B01482FF901542F0E940C2360320C
:10396600B9F1862F062E000C990B0997059780F161
:103976006B3249F5A0E0B0E02F5F3F4F4F4F02C0DA
:10398600A0E0B0E080E090E0CAE0F901542F0E9488
:103996000C23062E000C770B605371096A307105F3
:1039A60060F4C89FF001C99FF00D11242F5F3F4FAF
:1039B6004F4FCF01861B970BE8CFAB2B69F4919540
:1039C6008195910909C06D32D9F6A1E0B0E0D4CF56
:0C39D6002F5F3F4F4F4FBFCFCF910895A0
:1039E200CF93DF930E9446238FE98EBD0DB407FE6D
:1039F200FDCF8EB580932B121EBC0DB407FEFDCFFA
:103A02008EB580932B121EBC0DB407FEFDCF8EB572
:103A120080931F121EBC0DB407FEFDCF8EB5CFE101
:103A2200D2E189830E944A23998188811F929F93C0
:103A32001F928F938BED94E0A0E0AF939F938F93AF
:103A4200C0E0DAE0DF93CF930E94DF21BE0180E87D
:103A52000E94E61F8DB79EB709960FB6F8949EBFD7
:0A3A62000FBE8DBFDF91CF910895D4
:103A6C00CF93DF930E9483220E94462382E08EBD77
:103A7C000DB407FEFDCF8EB580932B128AE18A958B
:103A8C00F1F700C046E252E160E880912412909177
:103A9C0025120E94691FC0E0D0E00CC0FE01E0506E
:103AAC00FE4F80818EBD0DB407FEFDCF8EB5809389
:103ABC002B12219660E072E080E80E941722C81752
:103ACC00D90760F38DE08EBD0DB407FEFDCF8EB52A
:103ADC0080932B120E944A230E945C21DF91CF918C
:023AEC0008953B
:103AEE00CF92DF92EF92FF920F93CF93DF930E94CC
:103AFE0046238FE08EBD0DB407FEFDCF8EB58093AD
:103B0E002B1280EC8EBD0DB407FEFDCF8EB58093CB
:103B1E002B121EBC0DB407FEFDCF8EB5CFE1D2E148
:103B2E0088837E0180E8082F0F2EF0E0CF2EFAE07A
:103B3E00DF2EF02D2EE935E040E060E070E081E010
:103B4E0090E00E94CC19888180FDE3CF0E944A2329
:103B5E00DF91CF910F91FF90EF90DF90CF9008956E
:103B6E00CF92DF92EF92FF920F93CF93DF930E944B
:103B7E0046238FE08EBD0DB407FEFDCF8EB580932C
:103B8E001F0A80ED8EBD0DB407FEFDCF8EB580935E
:103B9E001F0A1EBC0DB407FEFDCF8EB5CFE1DAE0D5
:103BAE0088830E944A237E0180E8082F0F2EF0E0C2
:103BBE00CF2EFAE0DF2EF02D23E135E040E060E07D
:103BCE0070E081E090E00E94CC19DF91CF910F91CF
:0A3BDE00FF90EF90DF90CF90089564
:103BE800CF92DF92EF92FF920F93CF93DF930E94D1
:103BF80046238FE08EBD0DB407FEFDCF8EB58093B2
:103C08001F0A80EB8EBD0DB407FEFDCF8EB58093E5
:103C18001F0A1EBC0DB407FEFDCF8EB5CFE1DAE05A
:103C280088830E944A237E0180E8082F0F2EF0E047
:103C3800CF2EFAE0DF2EF02D24E335E040E060E0FF
:103C480070E081E090E00E94CC19DF91CF910F9154
:0A3C5800FF90EF90DF90CF900895E9
:103C62006F927F928F92CF92DF92EF92FF920F9399
:103C720062ED71E080E00E94E61F86E292E13C0183
:103C820020E8822E0F2EF0E0CF2EFAE0DF2EF02D6C
:103C9200082D730121EF31E040E060E070E082E046
:103CA20090E00E94CC196AEF71E080E00E94E61F6A
:103CB20021EF31E040E062E070E083E090E00E94BA
:103CC200CC190F91FF90EF90DF90CF908F907F9063
:043CD2006F90089552
:103CD600CF93C82F0E944623CC23C9F08FE18EBD17
:103CE6000DB407FEFDCF8EB580932B1280EA8EBDF4
:103CF6000DB407FEFDCF8EB580932B128CE78EBDDB
:103D06000DB407FEFDCF8EB580931F0A17C08FE155
:103D16008EBD0DB407FEFDCF8EB580932B1280EAC3
:103D26008EBD0DB407FEFDCF8EB580932B121EBC43
:103D36000DB407FEFDCF8EB580931F0A0E944A235D
:043D4600CF9108957C
:103D4A006F927F928F92CF92DF92EF920F931F938F
:103D5A00CF93DF938C016A01E62EE9013A01862EA0
:103D6A00620E731E811C37FD8A94C614D704E804B8
:103D7A0081F0F6015E2D0E940C23862FB801082ED1
:103D8A00000C990B0E94621C8FEFC81AD80AE80A25
:103D9A00ECCFCE01DF91CF911F910F91EF90DF9081
:0A3DAA00CF908F907F906F900895E6
:103DB40081B1886081B982B1886082B981B1806142
:103DC40081B982B1806182B981B1806281B982B1E5
:103DD400806282B981B1806481B982B1806482B920
:103DE40081B1806881B982B1806882B981B1826011
:103DF40081B982B1826082B981B1846081B982B1B2
:103E0400846082B981B1886081B982B1886082B9E5
:023E140008950F
:103E160080E090E005C0FC01E15EFD4E1082019657
:103E260085309105C0F380E090E005C0FC01E15EBD
:103E3600F54F10820196811528E09207B8F380E0CD
:103E460090E005C0FC01E050FE4F108201968115FE
:103E560028E09207B8F380E090E005C0FC01E0504E
:0E3E6600F64F108201968E319105C0F308953B
:103E74000E947C2088F09F5798F0B92F9927B7515A
:103E8400B0F0E1F0660F771F881F991F1AF0BA95FA
:103E9400C9F714C0B13091F00E942F23B1E0089506
:103EA4000C942F23672F782F8827B85F39F0B93FF8
:103EB400CCF3869577956795B395D9F73EF49095AD
:0E3EC4008095709561957F4F8F4F9F4F0895A9
:103ED2009A01462F0097C9F4F901542F0E940C232E
:103EE2006EBD0DB407FEFDCF5EB550932B122F5F52
:103EF2003F4F4F4FF901542F0E940C236EBD0DB45A
:103F020007FEFDCF2EB520932B12019771F41EBC34
:103F12000DB407FEFDCF8EB580931F121EBC0DB4EB
:0C3F220007FEFDCF8EB58093201208959D
:103F2E000E9446238FE18EBD0DB407FEFDCF80EBC0
:103F3E008EBD0DB407FEFDCF80E48EBD0DB407FE21
:103F4E00FDCF0E944A230E94D4200E9446238FE177
:103F5E008EBD0DB407FEFDCF80EB8EBD0DB407FEFA
:103F6E00FDCF1EBC0DB407FEFDCF0E944A2308955F
:103F7E000E94462383E08EBD0DB407FEFDCF8EB5A5
:103F8E0080932B128AE18A95F1F700C046E252E146
:103F9E0060E880912412909125120E94691F1EBC28
:103FAE000DB407FEFDCF8EB580932B128091241297
:0E3FBE00909125120E94C01B0E944A23089574
:103FCC00CF92DF92EF92CF93DF936B01E82EC0E09C
:103FDC00D0E00FC0AE2DC6018C0F9D1FA11DD7FDCB
:103FEC00AA95FC015A2F0E940C23862F0E94F022C6
:103FFC0021968E2DB6010E941722C817D90750F3AF
:0C400C00DF91CF91EF90DF90CF900895EE
:10401800990F0008550FAA0BE0E8FEEF16161706D1
:10402800E807F907C0F012161306E407F50798F039
:10403800621B730B840B950B39F40A2661F0232B52
:10404800242B252B21F408950A2609F4A140A695CE
:084058008FEF811D811D089509
:104060000E94C0220E94CC210E940C210E94DA1ED4
:104070000E9405220E9405230E940B1F64E476E043
:1040800080E00E94E61F81E00E9416190E94FE2235
:104090002FEF81EE94E0215080409040E1F700C086
:0440A0000000EACF63
:1040A400CF92DF92EF926B01E82EF6015E2D0E9413
:1040B4000C23862FF901542F0E940C2386130BC066
:1040C400882341F08FEFC81AD80AE80A2F5F3F4FC0
:1040D4004F4FEBCF682F90E0861B9109EF90DF9054
:0440E400CF900895DC
:1040E80057FD9058440F551F59F05F3F71F04795A1
:1040F800880F97FB991F61F09F3F79F08795089586
:10410800121613061406551FF2CF4695F1DF08C0A4
:10411800161617061806991FF1CF869571056105C1
:04412800089408955A
:10412C00FA0160387105CCF0623871051CF0633807
:10413C00710599F4A081B1819D012C5F3F4F3183B2
:10414C0020834D915D916D917C91FC014083518355
:10415C006283738381E090E0089580E090E008959D
:10416C0097FB10F8169400080F93083098F008503D
:10417C00232F342F452F562F672F782F892F902DD3
:10418C00F4CF0594979587957795679557954795AF
:0C419C00379527950A95AAF70F91089512
:1041A8000E94462383E18EBD0DB407FEFDCF8EB578
:1041B80080932B1246E252E160E88091241290919C
:1041C80025120E94771A00C000C00E944A230E944C
:0841D800771D0E94BF1F08952E
:1041E0002F923F924F925F926F927F928F929F9207
:1041F000AF92BF92CF92DF92EF92FF920F931F93F5
:10420000CF93DF93CDB7DEB7CA1BDB0B0FB6F894A5
:08421000DEBF0FBECDBF199403
:1042180087E690E09093C5008093C4008DB18260DA
:104228008DB9E1ECF0E08081886080838DB18E7F6C
:104238008DB980818061808381B1846081B982B1C8
:06424800846082B90895B4
:10424E002A88398848885F846E847D848C849B8418
:10425E00AA84B984C884DF80EE80FD800C811B8126
:10426E00AA81B981CE0FD11D0FB6F894DEBF0FBE55
:06427E00CDBFED01089523
:104284000E9483220E94462388ED8EBD0DB407FE52
:10429400FDCF8EB580932B1246E252E160E8809107
:1042A4002412909125120E94771A0E944A230E9498
:0442B400771D0895D5
:1042B8000E94462380E18EBD0DB407FEFDCF8EB56A
:1042C80080932B1246E252E160E88091241290918B
:1042D80025120E94771A0E944A230E94771D08958A
:1042E800A2E0B0E0EAE7F1E20C94FE208C013A8308
:1042F80029839E012F5F3F4F0E944203F8012081CE
:1043080024FF02C08FEF9FEF2296E4E00C94352142
:10431800A2E0B0E0E2E9F1E20C94FE208C013A83DD
:1043280029839E012F5F3F4F0E944203F80120819D
:1043380024FF02C08FEF9FEF2296E4E00C94352112
:1043480097FB072E16F4009407D077FD09D00E943A
:10435800B82107FC05D03EF4909581959F4F0895AC
:08436800709561957F4F0895E7
:10437000AA1BBB1B51E107C0AA1FBB1FA617B7078B
:1043800010F0A61BB70B881F991F5A95A9F78095A7
:084390009095BC01CD010895D8
:1043980087B1806487B988B1806488B983B3816044
:1043A80083BB84B3816084BB83B3826083BB84B3E3
:0643B800826084BB089541
:1043BE00A0E0B0E0E5EEF1E20C9400219E01255F55
:1043CE003F4F488559856A858E819F810E949C2228
:0643DE00E2E00C9437211F
:1043E400A0E0B0E0E8EFF1E20C9400219E01255F2B
:1043F4003F4F488559856A858E819F810E9490220E
:06440400E2E00C943721F8
:10440A0084B1866084B984B1877F84B984B18160BC
:10441A0084B985B1816085B98CB581658CBD8CB54F
:04442A008CBD0895A8
:10442E009B01482FA82FCB01FC015A2F0E940C2371
:10443E00662319F00196A11DF7CF642FA901841BE5
:04444E00950B08952D
:10445200092E0394000C11F4882352F0BB0F40F490
:10446200BF2B11F460FF04C06F5F7F4F8F4F9F4FD0
:024472000895AB
:1044740060957095809590953095409550952195CF
:104484003F4F4F4F5F4F6F4F7F4F8F4F9F4F089559
:104494000E9446238FEF8EBD0DB407FEFDCF0E9410
:0E44A4004A2363E775E080E00E94E61F08955A
:1044B2009A01462FDC01F901542F0E940C236D93BF
:0C44C2002F5F3F4F4F4F6111F6CF089560
:1044CE00689401C0E8948F929F92CF93DF930E94DD
:0C44DE00111CDF91CF919F908F900895EA
:1044EA00992777FD06C07BBF07900D920197E1F7E8
:0C44FA00089501900D920197E1F70895DC
:104506000E94462386E08EBD0DB407FEFDCF8EB514
:0A45160080932B120E944A2308959F
:104520000F931F9389019A01462F6FEF7FE70E9437
:084530006E1B1F910F9108950D
:104538000F931F9389019A01462F6FEF7FE70E941F
:084548001C1B1F910F91089547
:104550000024A7FD00942A1730054005500560058A
:08456000700580059005089527
:104568000024A7FD00942A0F301D401D501D601D1A
:08457800701D801D901D0895C7
:10458000E1E0F1E0808180668083E2E0F1E080811B
:064590008066808308959F
:10459600EC010E945E230E945D23CE010E945F23F0
:0645A600CE010E945B2320
:1045AC00FC01480F591FE417F50711F06193FBCF7D
:0245BC00089560
:1045BE009C01215631092A31310510F48F75992746
:0245CE0008954E
:1045D0009C01215431092A31310508F48062089583
:0E45E0009091C00095FFFCCF8093C600089517
:0E45EE008091C0008823E4F78091C6000895F4
:0E45FC00E2E0F1E0908180E489278083089559
:0E460A00E2E0F1E0908180E28927808308954C
:0E46180057FD03C05BBF679108956081089550
:0E4626005058BB27AA270E948C170C942922FB
:0E4634000E943A1F6894B1110C94302308952F
:0E46420000240A941616170618060906089595
:0E46500000240A941216130614060506089597
:0E465E00E894BB2766277727CB0197F90895CC
:0C466C0097F99F6780E870E060E0089517
:0A4678000E940C2008F481E0089570
:0A4682000E940C2008F48FEF089549
:08468C0082B1877F82B9089515
:0846940082B1886082B908952B
:08469C000E94DD150C94292297
:0846A4000E9422170C94292248
:0646AC009FEF80EC089571
:0446B2000C94000064
:0446B6000E94BB00A3
:0246BA00089561
:0246BC0008955F
:0246BE0008955D
:00000001FF
