:100000000C948F000C944F220C944F220C944F228E
:100010000C944F220C944F220C944F220C944F229C
:100020000C944F220C944F220C944F220C944F228C
:100030000C944F220C944F220C944F220C944F227C
:100040000C944F220C944F220C944F220C944F226C
:100050000C944F220C944F220C944F220C944F225C
:100060000C944F220C944F220C944F220C944F224C
:100070000C944F220C944F220C944F220C944F223C
:100080000C944F220C944F220C944F220C944F222C
:100090000C944F220C944F220C944F220C944F221C
:1000A0000C944F220C944F220C944F220C944F220C
:1000B0000C944F220C944F220C944F220C944F22FC
:1000C0000C944F220C944F220C944F220C944F22EC
:1000D0000C944F220C944F220C944F220C944F22DC
:1000E0000C944F220200123280000C94F3150C94F1
:1000F00004030C941D070C94550F0C947A0A0C946D
:100100007B200C945A130C9463200C9495100C943F
:10011000CE200C94E1200C94B5120C9407191124F4
:100120001FBECFEFD1E2DEBFCDBF00E00CBFE4EEDB
:10013000F0E040E019C0B791A7913791279107915E
:1001400007FD0EC097918791EF01F92FE82F0BBFA4
:1001500007900D92A217B307D9F7FE011BBE04C08A
:100160001D92A217B307E1F7E93EF40721F70E94B9
:0A0170000E1F0C94C121F894FFCF7C
:10017A0057726F6E6720496E707574200A4D616BF5
:10018A0065207375726520696E70757420697320B5
:10019A004845582076616C6964205B30202D2046E2
:1001AA005D200A004865726520697320776861746A
:1001BA002077617320696E7075747465643A2030B3
:1001CA007825303258200A002D2D2D436F6C756D1D
:1001DA006E20416464726573732D2D2D2032206266
:1001EA0079746573200A00307825303258200A0065
:1001FA002D2D2D426C6F636B2F5061676520416412
:10020A0064726573732D2D2D2033206279746573A2
:10021A00200A00466C617368204944004572617384
:10022A0065204D656D6F7279004E414E44204164E0
:10023A0064726573736573005772697465205465D7
:10024A0073740052656164204D656D6F7279005058
:10025A006172616D65746572205061676500256918
:10026A002D3E446174612052656365697665643A1E
:10027A0020307825303258200A00466C6173682095
:10028A0053746174757300466C61736820426C6FB5
:10029A00636B204C6F636B003129204C6F636B20BA
:1002AA000A00322920556E6C6F636B200A003329CD
:1002BA002052656164200A00342920436F6E666902
:1002CA0067757265200A004C6F636B00556E6C6F20
:1002DA00636B005265616400436F6E66696775728D
:1002EA006500426C6F636B20436865636B657200DF
:1002FA00426C6F636B206973206D61726B65642059
:10030A006261640A00426C6F636B206170706561A0
:10031A00727320636C65616E0A00506167652043E1
:10032A006865636B657200526573657400312920D4
:10033A00466C617368204944200A003229204572BC
:10034A00617365204D656D6F7279200A003329202B
:10035A0057726974652054657374200A0034292021
:10036A0052656164204D656D6F7279200A003529E6
:10037A0020506172616D65746572205061676520F5
:10038A000A00362920466C617368205374617475BB
:10039A0073200A00372920466C61736820426C6F0B
:1003AA00636B204C6F636B200A00382920426C6F04
:1003BA00636B20436865636B6572200A00392920E4
:1003CA005061676520436865636B6572200A003176
:1003DA003029204E414E442041646472657373652E
:1003EA0073200A00313129205265736574200A008E
:1003FA002D3E5573657220496E7075743A0A004D28
:10040A00616B652073757265206F6E6C792034207C
:10041A00696E707574732E200A00436F6C756D6E69
:10042A002041646472657373202D3E203078253034
:10043A003258200A004D616B652073757265206F12
:10044A006E6C79203620696E707574732E200A00DE
:10045A00426C6F636B2F50616765204164647265FB
:0F046A007373202D3E20307825303258200A0041
:1004790052656164204465766963652049443A2080
:100489004D6963726F6E20494420283078253032D7
:1004990058292044657669636520494420283078C5
:1004A9002530325829200A00426C6F636B204C6F4B
:1004B900636B2052656769737465723A20307825D9
:1004C900303258200A0044657669636520526573A5
:1004D90065746564200A004461746120526563652E
:1004E900697665643A20696E646578202569200A11
:1004F900004765742046656174757265733A2053C7
:1005090074617475732028307825303258290A00AF
:0E051900426C6F636B204572617365200A00AF
:100527002D2D2D436F6C756D6E204164647265735C
:10053700732D2D2D2032206279746573200A002DCA
:100547002D2D426C6F636B2F50616765204164648A
:10055700726573732D2D2D20332062797465732096
:100567000A0030782530325820546869732050616A
:100577006765206973206D61726B656420626164D1
:10058700200A00307825303258205468697320508B
:0F05970061676520697320636C65616E200A00DF
:1005A60068076C094C836A9074A07AC000806888DA
:0605B60000846C8200814C
:1005BC002D3E41727261797320436C656172656482
:0305CC00200A0002
:1005CF00494E4600696E66004E414E006E616E00E8
:1005DF00494E4600696E66004E414E006E616E00D8
:0705EF00286E756C6C2900F9
:0605F600286E696C29006B
:1005FC00A3EAB0E0E4E0F3E00C94F11F4C015901E4
:10060C00C756DF4F488359836A83C959D040212C80
:10061C00312C6E012BE8C20ED11C85E2782E2601FE
:10062C0030E8632ECE018D569F4FC456DF4F998311
:10063C008883CC59D0409C0140E8CF55DF4F2883AC
:10064C0039834A83C15AD040C756DF4F4881C959B4
:10065C00D040C656DF4FB881CA59D040C556DF4F7F
:10066C007881CB59D040E42FFB2F572F0E940222C8
:10067C00662309F4D0C3CF57DF4F19821882C158B3
:10068C00D0408FEF9FEFCD57DF4F99838883C358AE
:10069C00D040CB57DF4F19821882C558D040E1E0CB
:1006AC00F0E0EC0FFD1FC957DF4FF983E883C75803
:1006BC00D04020E830E0C757DF4F39832883C95832
:1006CC00D040842F9B2FA72FE12CF12CFC015A2F0B
:1006DC000E94022261111DC0E114F10411F1970175
:1006EC005B2F672FC4010E94821DC756DF4F888184
:1006FC009981AA81C959D0408E0D9F1DA11DF7FC6F
:10070C00AA95C756DF4F88839983AA83C959D040CD
:10071C0008C00196A11D6532F9F23FEFE31AF30A06
:10072C00D5CFC756DF4F88819981AA81C959D0404E
:10073C00FC015A2F0E940222653209F05AC39C0117
:10074C004A2F2F5F3F4F4F4FC256DF4F28833983BD
:10075C004A83CE59D040C756DF4F288339834A830A
:10076C00C959D040C756DF4F88819981AA81C95990
:10077C00D040FC015A2F0E9402226B3241F4CF5719
:10078C00DF4F28813981C158D04024600BC06C32B6
:10079C00CCF06D3259F5CF57DF4F28813981C158D4
:1007AC00D0402160CF57DF4F39832883C158D040C8
:1007BC000196A11DC756DF4F88839983AA83C95917
:1007CC00D040D0CF603241F4CF57DF4F28813981F0
:1007DC00C158D0402860E6CF633291F4CF57DF4F39
:1007EC0028813981C158D0402061DCCF603341F47D
:1007FC00CF57DF4F28813981C158D0402260D2CFEA
:10080C006A3299F50196A11DC756DF4F88839983EB
:10081C00AA83C959D040D501ED91FC911197CF0114
:10082C0002968D939C9380819181CB57DF4F998356
:10083C008883C558D04097FF3FC0CF57DF4F2881E2
:10084C003981C158D040B1E02B27CF57DF4F3983C6
:10085C002883C158D040919581959109CB57DF4F92
:10086C0099838883C558D04027C0BC018A2F0E9429
:10087C00821CCB57DF4F99838883C558D040C7560D
:10088C00DF4F88819981AA81C959D040FC015A2F28
:10089C000E940222062E000C770B605371096A30FD
:1008AC00710550F40196A11DC756DF4F88839983BB
:1008BC00AA83C959D040E3CFCF57DF4F88819981A4
:1008CC00C158D04080FF07C08D7FCF57DF4F998331
:1008DC008883C158D040C756DF4F88819981AA813F
:1008EC00C959D040FC015A2F0E9402226E3209F0E5
:1008FC0059C0CD57DF4F19821882C358D0409C0184
:10090C004A2F2F5F3F4F4F4FC756DF4F28833983F6
:10091C004A83C959D040F901542F0E9402226A32ED
:10092C00D1F40296A11DC756DF4F88839983AA8301
:10093C00C959D040D501ED91FC911197CF01029688
:10094C008D939C9380819181CD57DF4F99838883C0
:10095C00C358D04027C0842FB9010E94821CCD57A8
:10096C00DF4F99838883C358D040C756DF4F8881A7
:10097C009981AA81C959D040FC015A2F0E940222A8
:10098C00062E000C770B605371096A30710550F418
:10099C000196A11DC756DF4F88839983AA83C95935
:1009AC00D040E3CFCE0187569F4F0E94591A182F83
:1009BC00C756DF4F9881C959D040C656DF4F888142
:1009CC00CA59D040C556DF4F5881CB59D040E92F7A
:1009DC00F82F0E940222862F660F990B0E94DE21AF
:1009EC008936910509F45BC0B4F48336910509F49A
:1009FC0069C144F48532910509F4A4C1813691058D
:100A0C0029F1B6C18436910509F449C0883691059F
:100A1C000CF42FC1ADC18037910509F4CDC04CF455
:100A2C008E36910509F41BC18F36910509F47DC0F2
:100A3C009FC18537910509F455C08837910509F494
:100A4C0097C08337910509F093C15BC1612F70E0AA
:100A5C00A501C6010E94951F892B09F4BAC1C7567E
:100A6C00DF4F88819981AA81C959D0409C014A2FB6
:100A7C002F5F3F4F4F4FC756DF4F288339834A8331
:100A8C00C959D040FC015A2F0E940222262FA601E0
:100A9C00BE016F577F4FC4010E94740A97C1612F2A
:100AAC0070E0950141E050E0C6010E944E11892B87
:100ABC0009F48FC1C756DF4F88819981AA81C95922
:100ACC00D0400196A11DC756DF4F88839983AA8316
:100ADC00C959D040A601BE016F577F4FC4010E9477
:100AEC008F1074C1612F70E0950140E050E0C60199
:100AFC000E944E11892B09F46CC1C756DF4F8881B7
:100B0C009981AA81C959D0400196A11DC756DF4FC2
:100B1C0088839983AA83C959D040A601BE016F5717
:100B2C007F4FC4010E94011951C1612F70E09501E2
:100B3C0040E050E0C6010E944E11892B09F449C1D6
:100B4C00C756DF4F88819981AA81C959D040019637
:100B5C00A11DC756DF4F88839983AA83C959D040FA
:100B6C00A601BE016F577F4FC4010E94ED152EC127
:100B7C00612F70E0950140E050E0C6010E944E11DB
:100B8C00892B09F426C1C756DF4F88819981AA8128
:100B9C00C959D0409C014A2F2F5F3F4F4F4FC7562A
:100BAC00DF4F288339834A83C959D040FC015A2F1F
:100BBC000E940222262F4BC0950140E050E060EFCE
:100BCC0070E0C6010E944E11892B09F402C1C75670
:100BDC00DF4F88819981AA81C959D0400196A11D06
:100BEC00C756DF4F88839983AA83C959D04086E0C2
:100BFC0026EF35E040E0F901DE01AD56BF4F742F12
:100C0C000E945E21D6012C9111963C91119712965F
:100C1C004C91129713965C91139714966C911497B0
:100C2C0015967C91159716968C91169717969C9104
:100C3C00A0E00E949E2151F400E010E0CF55DF4F60
:100C4C00288139814A81C15AD040BAC028E7A6010F
:100C5C00BE016F577F4FC4010E944F0FB7C0612F69
:100C6C0070E09501A1014E0D5F1DC6010E9481151A
:100C7C00B0C0612F70E0A501C6010E94951F892BA1
:100C8C0009F4A7C0C756DF4F88819981AA81C95939
:100C9C00D0409C014A2F2F5F3F4F4F4FC756DF4F1D
:100CAC00288339834A83C959D040FC015A2F0E94AA
:100CBC000222262FA601BE016F577F4FC4010E944E
:100CCC00170784C0103809F084C0C756DF4F8881DD
:100CDC009981AA81C959D0400196A11DC756DF4FF1
:100CEC0088839983AA83C959D040D501ED91FC9191
:100CFC001197CF0102968D939C938081F60180838E
:100D0C005BC0103809F065C0C756DF4F88819981E8
:100D1C00AA81C959D0400196A11DC756DF4F8883BF
:100D2C009983AA83C959D040D501ED91FC911197B3
:100D3C00CF0103968D939C9320813181428100E0F9
:100D4C0010E03EC0103809F044C0C756DF4F888110
:100D5C009981AA81C959D0400196A11DC756DF4F70
:100D6C0088839983AA83C959D040F601708224C024
:100D7C00D6017C92C256DF4F288139814A81CE59E7
:100D8C00D040C756DF4F288339834A83C959D04096
:100D9C00CF57DF4F19821882C158D040CB57DF4F45
:100DAC0019821882C558D0408FEF9FEFCD57DF4F77
:100DBC0099838883C358D04001E010E0462D9201FE
:100DCC00BE016F577F4FC4010E9428178E0D9F1DC7
:100DDC0011C0C756DF4F88819981AA81C959D0406B
:100DEC000196A11DC756DF4F88839983AA83C959E1
:100DFC00D040C7017101E80EF91EE214F3044CF463
:100E0C008FE490E090932D1280932C128FEF9FEF34
:100E1C0003C0170119CCC101CD55DF4FE2E10C9491
:020E2C0028207C
:100E2E00A6E2B0E0EDE1F7E00C94F11F9F8F8E8FFC
:100E3E00798F688F122FFB010190F081E02DFA87D8
:100E4E00E987FB01C280D380248135813C8B2B8BBB
:100E5E008085918599A388A30680F781E02DFA837A
:100E6E00E983FA0180809180A280B38020E030E097
:100E7E00A901C501B4010E94322287FF06C0B7FA4C
:100E8E00B094B7F8B0948DE204C0F985F2FF0CC3AC
:100E9E008BE2E981FA8180832B893C8921503109CB
:100EAE0038872F8341E050E05A8B498B06C08B89DF
:100EBE009C8998878F831A8A198AD501C401BF77B6
:100ECE000097E0E8AE07EFE7BE07D9F4212F110F28
:100EDE00330B2154310989819A8149895A89840FAA
:100EEE00951F2A31310520F44FEC55E060E003C028
:100EFE0043ED55E060E00E94422163ED75E080E035
:100F0E001EC00197A048BF4730F1212F110F330BA0
:100F1E002154310989819A8149895A89840F951FF3
:100F2E002A31310520F447ED55E060E003C04BED6A
:100F3E0055E060E00E9442216BED75E080E00E947A
:100F4E000021E981FA81AF0160E8E984FA840B8916
:100F5E001C899C01A1C220E030E0A901C501B401A9
:100F6E000E9432221B821C82882309F467C0F0E89B
:100F7E00FD832FE32E83212C312C20E030E040E244
:100F8E0051E46B817C818D819E810E944822F62ED8
:100F9E00072F8D879B87A50194010E943722181673
:100FAE0054F03FEF231A330AFB820C834D854D8399
:100FBE005B855E83E2CF1C861B862B813C814D8137
:100FCE005E81C501B4010E94322287FF3DC084EDCF
:100FDE0028168EEF380604F5EB85FC85EF2BE1F431
:100FEE0020E030E040E85AE5C501B4010E944822F5
:100FFE004B015C0120E030E040E85AE56B817C81DA
:10100E008D819E810E9448226B837C838D839E837B
:10101E0021E030E03C872B8720E030E040E251E4D5
:10102E006B817C818D819E810E9444226B837C83A7
:10103E008D839E8331E0231A3108BFCF40E84D8364
:10104E005FE35E83212C312C812F110F990B9BA313
:10105E008AA30E94DE218B8FD7FC03C0DEA2CDA215
:10106E0004C0E6E0F0E0FEA3EDA3FB8DF73641F4FD
:10107E00CD2809F01EC221E030E03EA32DA319C2F7
:10108E008B8D8D8B04C037FE25C296E69D8BEDA110
:10109E00FEA13196FEA3EDA3FD89F63699F437FE37
:1010AE0008C01B821C8220E82D833FE33E83212C47
:1010BE00312C4B8D473631F08DA19EA1820D931DA3
:1010CE009EA38DA39B819B87EC81ED87FD81FE8B7B
:1010DE002E812A8F750164011D8E1C8E8C8D9D8D27
:1010EE00EDA1FEA18E179F07C1F12B853D854E897F
:1010FE005A8DC701B6010E9444220E94F2132B01A1
:10110E003C010E9410226CA38701760117FB1095FB
:10111E0017F910952B853D854E895A8DC301B20165
:10112E000E9454136B017C01F7FAF094F7F8F094D7
:10113E0020E030E040E251E46B857D858E899A8D0A
:10114E000E9444226B877D878E8B9A8F4C8D5D8D8E
:10115E004F5F5F4F5D8F4C8FC1CF20E030E040EA94
:10116E0050E46B857D858E899A8D0E9448222B01D5
:10117E003C019B01AC01C701B6010E94322287FDE2
:10118E000BC0A3019201C701B6010E943222811148
:10119E0006C0FCA1F0FD03C0412C512C3201A3016D
:1011AE009201C501B4010E940A224B015C012D89F6
:1011BE00253611F0310102C0612C712C23014DA195
:1011CE005EA1441A550AC988DA8800E010E01C8630
:1011DE001B8689859A85807199279F8B8E8B6414C7
:1011EE00750431F48B859C85892B09F49AC0A6C0B1
:1011FE00DD8ECC8EE88DF98D808591850597C8168C
:10120E00D90680F72B813C814D815E81C501B401E9
:10121E000E9444220E94F2136D877E878F87988BDF
:10122E000E941022CB01EE89FF89EF2B69F4892BE6
:10123E0059F4FB8DF73641F477FE06C098012F5F07
:10124E003F4F3D8F2C8F43C04B855C85452BB1F4B2
:10125E0077FE14C05FEFC51AD50AE981FA818C8D2D
:10126E009D8DE80FF91F9EE29083EF81F8853197EF
:10127E00F887EF8321E030E03C872B87E981FA8104
:10128E00EC0DFD1D1D8F0C8F8C8D9D8D892B49F0C6
:10129E0030E331934C8D5D8D415051095D8F4C8FF4
:1012AE00F3CFC8018C0D9D1D2F813885201B310B6E
:1012BE006C01EFEFCE1ADE0AE981FA81E80FF91F11
:1012CE00605D6083A9014150510958874F838501A4
:1012DE00740117FB109517F910952B813C814D81E8
:1012EE005E816D857E858F8598890E9454134B0192
:1012FE005C01B7FAB094B7F8B09420E030E040E269
:10130E0051E46B817C818D819E810E9444226B838E
:10131E007C838D839E8351E0651A71080C8D1D8D23
:10132E005ECFF985F4FF0AC0E981FA81EC0DFD1D4F
:10133E008EE2808396012F5F3F4F690149815A816A
:10134E004C0D5D1D5C874B87FA011082FD89F536C9
:10135E0009F061C0E981FA8128A139A1E20FF31FDA
:10136E003197108237FE06C031942194310801E086
:10137E0010E002C000E010E0E8A1F9A13197498128
:10138E005A81E40FF51F22E030E08AE0E82EF12CBE
:10139E00CF0149815A81841B950B2114310479F0B8
:1013AE00C101B7010E948D20805D82931B012150E7
:1013BE0031098F819885019798878F83E9CF12160F
:1013CE00130674F3FC013197E40FF51F012B11F492
:1013DE002BE201C02DE220830297E981FA81E80F0A
:1013EE00F91F2AA13BA1215431092A31310510F0F0
:1013FE0025E601C025E420832F813885225031094E
:10140E0038872F83C816D90634F4AF0160E88B8570
:10141E009C850E94422149815A813A0180E8882E9A
:10142E00998591FF2EC090FD2CC0EF81F8851E1678
:10143E001F063CF5882DB3010E94002129813A81B7
:10144E00820F931F9C0149815A81241B350BE98918
:10145E00FA892E173F074CF0FC012081EF81F885A9
:10146E00E80FF91F20830197EDCF4F81588560E378
:10147E0070E089819A818E0F9F1F0E94CC211C8A59
:10148E001B8A882DB3010E940021E984FA840B89FE
:10149E001C899C01682DA3018E8D9F8D0E948B143B
:1014AE00A696E2E10C942820598553FF00CD80E2E8
:1014BE00F0CC2CEF22162FEF32064CF04DA15EA190
:1014CE00241635060CF4DFCD55E65D8BFBCD35E6E7
:0A14DE003D8BF8CD46E64D8BF5CDB1
:1014E800A0E2B0E0EAE7FAE00C94F11F9D8F8C8F40
:1014F800FB01298320812D8331813E8F8281938155
:101508009B8B8A8B248135813987288780859185B3
:10151800998F888F46805780FA01C080D180E280F9
:10152800F38020E030E0A901C701B6010E94322211
:1015380087FF06C0F7FAF094F7F8F0948DE204C03C
:101548005D8152FFF6C28BE2F201808328853985DE
:10155800215031093F872E8741E050E05C834B835F
:1015680006C0888599859F878E871C821B82B70154
:10157800A6017F77E9810E2E000CFF0BF98BE88B13
:1015880041155105F0E86F07FFE77F07C1F4288987
:101598003989215431098B819C81840D951D2A310B
:1015A800310520F44FED55E060E003C043EE55E00F
:1015B80060E00E94422163EE75E080E01CC08B81F0
:1015C8009C81840D951D4130510560487F47E8F0A6
:1015D80028893989215431092A31310520F447EE07
:1015E80055E060E003C04BEE55E060E00E94422108
:1015F8006BEE75E080E00E940021A20160E8ED80BA
:10160800FE8C088519859C018CC220E3FC0120838F
:10161800EB81FC813196E40DF51D2B813C812E5F19
:101628003F4F3C832B8348895989415451095B8F2B
:101638004A8F4A31510510F088E701C088E5808358
:1016480020E030E0A901C701B6010E943222612CD6
:10165800712C1F8E1982882309F464C050E858A39E
:101668008FE38A832F8D398148A15A816F8D7981C3
:1016780088A19A810E940A225B018C01A701960128
:101688000E94372218160CF442C09FEF691A790A93
:10169800AF8EB98208A31A83E5CF20E030E040E09E
:1016A8005FE36F8D798188A19A810E94482220E0AA
:1016B80030E0A9010E943222811118C020E030E0F8
:1016C80040E85AE56F8D798188A19A810E94482265
:1016D8006F8F798388A39A8320E030E040E85AE549
:1016E800C701B6010E9448226B017C0120E030E06E
:1016F80040E05FE36F8D798188A19A810E9448223A
:101708006F8F798388A39A83A1E06A1A71082F8D55
:10171800398148A15A81C701B6010E94322287FD4A
:10172800BCCF04C0E0E8E8A3FFE3FA832A893B8939
:1017380037FD02C0C90102C088E190E0AC014F5FEB
:101748005F4F5B874A878F8C9980A8A0BA80160163
:1017580087011F821E829401A501B101C8010E9460
:1017680044220E94F2136C8B7D8B8E8B9F8B94018D
:10177800A5010E9448229B01AC01B101C8010E9449
:1017880009221B018C0120E030E040E85DE3B40150
:10179800C5010E9448224B015C018E819F81019600
:1017A8009F838E83EA89FB89F7FF09C020E030E038
:1017B800A901B101C8010E943222882341F02A857B
:1017C8003B854E815F81421753072CF204C08E81FE
:1017D8009F819B878A8720E030E040E051E4B40194
:1017E800C5010E9448224B015C019B01AC01B1017B
:1017F800C8010E94322287FD12C0A5019401B101DF
:10180800C8010E94322281110DC06C897D898E89A0
:101818009F890E94102261707727672B19F4812C09
:10182800912C5401A5019401C701B6010E940A2216
:101838006B017C01DC01CB01BF770097A048BF4753
:1018480009F4A5CE2E843F84F2E02F1A31082A85A8
:101858003B85319521953109398B288B0B811C816A
:10186800A12CB12C1F821E82812C912C488D598D60
:10187800455051095D8B4C8BEC89FD890E171F076C
:101888000CF091C02F8D398148A15A81C701B6014A
:101898000E9444220E94F2136A877B878C879D8767
:1018A8000E941022AB016115710539F4811491046D
:1018B80021F05FEFA51AB50A4DC0EE81FF81EF2B2D
:1018C80089F48114910471F0F201E00FF11F2EE206
:1018D800208331E0231A31080F5F1F4FE1E0F0E069
:1018E800FF83EE83F201E00FF11F95012115310509
:1018F80029F0A0E3A19321503109F8CFF801EA0DAE
:10190800FB1DFF87EE872A183B084A3051051CF457
:10191800605D7F4F02C0695A7F4F2A8D3B8D2A3107
:10192800310550F4CB018062815691094A9720F421
:10193800CB010E94D521BC010E851F850F5F1F4F6B
:10194800EE85FF85E40DF51D608331E0231A31082B
:10195800A12CB12C2F8D398148A15A816A857B85AC
:101968008C859D850E9448229B01AC01C701B60168
:101978000E9409226B017C0120E030E040E85DE331
:101988006F8D798188A19A810E9448226F8F79830F
:1019980088A39A8341E0841A9108888999898815CF
:1019A800990509F069CF2E813F81232B51F5F2016A
:1019B800E00FF11FA114B104E9F04A895B891416FC
:1019C8001506C4F45D8150FD15C08EE28083F801D0
:1019D8003196E40DF51DC50120E321930197E9F740
:1019E8000A0D1B1D0F5F1F4FC50180959095280E8E
:1019F800391E07C08D8184FF04C08EE280830F5F8B
:101A08001F4FF201E00FF11FFF83EE831082E88D74
:101A1800F98DE40DF51D3197108277FE07C071949A
:101A280061947108EE24E394F12C02C0E12CF12CAE
:101A3800E88DF98D3197E40DF51D21E030E08AE05D
:101A4800C82ED12CCF01841995096114710469F04D
:101A5800C301B6010E948D20805D82933B01215015
:101A6800310941E0241A3108EDCF2130310581F3E5
:101A7800FC013197E40DF51DEF2811F42BE201C0AC
:101A88002DE220830297F201E80FF91F2A8D3B8D82
:101A98002A31310510F020E701C020E5208308171E
:101AA800190734F4AF0160E88E819F810E944221BA
:101AB800320130E8832E4D8141FF28C040FD26C009
:101AC80052E0251A31081214130404F5882DB301C5
:101AD8000E940021840D951D9C01241935094B8114
:101AE8005C81241735073CF0FC012081E20DF31DD1
:101AF80020830197F1CFA10160E370E08B819C8185
:101B0800840D951D0E94CC2119861886882DB30155
:101B18000E940021ED80FE8C088519859C01682DA6
:101B2800A3018C8D9D8D0E948B14A096E2E10C94EC
:0C1B380028205D8153FF15CD80E206CD12
:101B4400CF92DF92EF92FF920F931F93CF93DF9385
:101B54006B01E82E2DE132E040E00E94301F892B1A
:101B640029F40E94E81D0E94C81C8EC126E232E0BE
:101B740040E08E2DB6010E94301F892B49F410924B
:101B84002512109224120E94E81D0E94741F7CC129
:101B940023E332E040E08E2DB6010E94301F892BF2
:101BA40019F40E94481D70C122E432E040E08E2DF9
:101BB400B6010E94301F892B81F5109225121092D4
:101BC40024120E94E81D80E00E944B1862ED71E02F
:101BD40080E00E94C41E80E00E9407126AEF71E058
:101BE40080E00E94C41E81E00E94071286E292E116
:101BF4007C0120E8022F0F2EF0E0CF2EFAE0DF2E3A
:101C0400F02D2EEA31E040E060E070E085E090E005
:101C14000E94B0190E940D1D37C12DE432E040E04E
:101C24008E2DB6010E94301F892B89F41092251243
:101C3400109224120E94E81D0E94B51F6FE17AE001
:101C440080E80E94C41E8AE00E94E6211DC129E5A5
:101C540032E040E08E2DB6010E94301F892B99F5A9
:101C640081E090E090932512809324120E94E81D55
:101C74000E949C1EC0E0D0E021C0FE01E15EF54F51
:101C840080811F928F93DF93CF9388E692E0A0E048
:101C9400AF939F938F9300E01AE01F930F930E94DA
:101CA400C820B80180E80E94C41E21968DB79EB753
:101CB40009960FB6F8949EBF0FBE8DBFCF3FD105D6
:101CC400E1F2DCF2E1C024E832E040E08E2DB6011E
:101CD4000E94301F892B29F40E94E81D0E94F01BEA
:101CE400D3C021E932E040E08E2DB6010E94301FBE
:101CF400892B09F053C00E94E81D62EA72E080E07B
:101D04000E94C41E6CEA72E080E00E94C41E68EB6C
:101D140072E080E00E94C41E62EC72E080E00E94E7
:101D2400C41E80E00E944B1880E092E06C0120E821
:101D3400E22E21ED32E040E08E2DB6010E94301FEC
:101D4400892B21F481E00E94A9189EC026ED32E07F
:101D540040E08E2DB6010E94301F892B21F480E0D3
:101D64000E94A91891C02DED32E040E08E2DB601FD
:101D74000E94301F892B21F480E00E94591984C0ED
:101D840022EE32E040E08E2DB6010E94301F892BF6
:101D940009F07AC081E00E94591976C02CEE32E035
:101DA40040E08E2DB6010E94301F892BC1F41092A1
:101DB4002512109224120E94E81D0E94B51F8091E2
:101DC4001F128F3F31F06AEF72E080E00E94C41E60
:101DD4005BC06FE073E080E00E94C41E55C024E243
:101DE40033E040E08E2DB6010E94301F892B39F478
:101DF40010922512109224120E948D1745C021E3DF
:101E040033E040E08E2DB6010E94301F892B29F467
:101E14000E94E81D0E94332137C067E373E080E02D
:101E24000E94C41E65E473E080E00E94C41E67E55E
:101E340073E080E00E94C41E67E673E080E00E94C5
:101E4400C41E68E773E080E00E94C41E6CE873E07F
:101E540080E00E94C41E6EE973E080E00E94C41E0C
:101E640064EB73E080E00E94C41E67EC73E080E0E2
:101E74000E94C41E69ED73E080E00E94C41E6EEEF1
:101E840073E080E00E94C41EDF91CF911F910F91F7
:0A1E9400FF90EF90DF90CF900895CB
:101E9E00A4E1B0E0E5E5FFE00C94F11F98878F8395
:101EAE007A8369835C8B4B8B122FDB011296ED913B
:101EBE00FC91139714962D913C9115973E832D838B
:101ECE00ED90FC90119716962D903C901797F7FD7C
:101EDE0003C0E894E1F802C0E1E0F0E0C7018071D0
:101EEE0099279A878987E4FE1FC0AB89BC892C91FC
:101EFE0011963C91119712964C91129713965C91F4
:101F0E00139714966C91149715967C9115971696B7
:101F1E008C91169717969C91A0E00E949E2121F01D
:101F2E008D819E81029702C08D819E8197012870BE
:101F3E0033273C872B87E3FC0197AB89BC894C90F8
:101F4E0011965C90119712966C90129713967C9046
:101F5E00139714968C90149715969C901597169629
:101F6E00AC9016971796BC90A981BA811896CD9011
:101F7E00DC901997B1E0CB1AD108D101AC0DBD1D83
:101F8E001C929C838B839F01281B390B3E872D87C8
:101F9E00C70182709927988B8F87812F012E000C95
:101FAE00990BDC01A154B109BA8BA98B32E0C3168F
:101FBE00D10434F489859A85892B09F04CC073C0FD
:101FCE009201A301B401C501A0E00E949E2181F1FE
:101FDE00B1E0CB1AD108C2018F7099278A309105D2
:101FEE0014F4C09602C0895A9F4FE989FA897A97EC
:101FFE0048F49C012062215631092A31310510F432
:10200E000E94D521F101EC0DFD1D80832B813C81B9
:10201E00215031093C832B839201A301B401C501E8
:10202E0004E00E94D51F29013A014B015C01BECF8D
:10203E008D859E85AB81BC818A0F9B1F1816190654
:10204E003CF21A161B060CF0B5CFEF85F889EF2B74
:10205E0009F0BECFAFCFAB89BC892C9111963C91C4
:10206E00119712964C91129713965C9113971496A2
:10207E006C91149715967C91159716968C911697D0
:10208E0017969C91A0E00E949E2169F0F101EC0D43
:10209E00FD1D31971083B2E0CB1AD108F101EC0D82
:1020AE00FD1D80E38083EB85FC85EF2B41F0F1E095
:1020BE00CF1AD108F101EC0DFD1D80E28083A981BC
:1020CE00BA8118962D913C911997215031092C19EE
:1020DE003D09C20CD31CA60160E80D811E818F81C3
:1020EE0098850E948B149C01EF81F88580819181E7
:1020FE0090FF09C0A981BA8112968D919C91139778
:10210E00821793070CF4C9016496E2E10C9428201F
:10211E00ADE0B0E0E5E9F0E10C94F11F9A87898714
:10212E007C836B83FA01DB011296CD90DC901397C2
:10213E0014968D919C9115979E838D83ED90FC90B6
:10214E001197FA82E98216960D90BC91A02DB88750
:10215E00AF8320803180428053806480758086807A
:10216E0097808101B42DF52DE62D7B868C869D867C
:10217E009101A201B301C401A0E00E949E214CF482
:10218E000E9423218901B42FF52FE62F7B878C87A0
:10219E009D87D7FC04C0E894E1F8FA82E9829101A8
:1021AE00A201B301C401A0E0ED80FE800E949E2139
:1021BE001CF0898182FF04C081E0E81AF10805C095
:1021CE0083FF03C091E0E91AF108CE0101965C018C
:1021DE008AE0C82ED12C2B2F3F2F4E2F5B856C857E
:1021EE007D858B819C810E94AF12FC019101A20121
:1021FE00B301C401A0E00E949E211CF0898182FFE0
:10220E0012C031970F8118850E0F1F1F9101A20169
:10221E00B301C401A0E00E949E2114F08BE201C024
:10222E008DE2D80108C083FF07C03197AF81B88512
:10223E00AE0FBF1F80E28C93E980FA80AB81BC8128
:10224E0018962D913C911997215031092E1B3F0B59
:10225E008F819885E80FF91FAF0160E80D811E810F
:10226E0089859A850E948B149C01A985BA858D91CA
:10227E009C9190FF07C0EB81FC8182819381821734
:0E228E0093070CF4C9012D96E2E10C94282070
:10229C000F931F93CF93DF93FC01D901683871051D
:1022AC0031F194F461387105B1F12CF46038710599
:1022BC0009F478C09FC06238710509F459C06438BC
:1022CC00710509F46FC096C0603A710509F448C0F5
:1022DC002CF46039710509F44BC08CC0603C71055D
:1022EC0009F476C0603F710509F472C083C0CD91CA
:1022FC00DC911197CE0102968D939C93452B39F06E
:10230C009881892F880F880B908381835BC088818B
:10231C008083118268C0CD91DC911197CE01049617
:10232C008D939C93452B99F088819981AA81BB81CF
:10233C00AC01BD01770F440B542FBA0180839183FC
:10234C00A283B383448345834683478328C0088193
:10235C0019812A813B81008311832283338345C0F9
:10236C00CD91DC911197CE0102968D939C9323C055
:10237C00CD91DC911197CE0108968D939C93788129
:10238C0069815A814B813C812D819E818F81708323
:10239C00618352834383348325839683878381E0CF
:1023AC0090E02AC0CD91DC911197CE0102968D93CD
:1023BC009C93452BA1F099812881892F880F880B3C
:1023CC002083918382838383848385838683E6CF72
:1023DC00CD91DC911197CE0102968D939C9308813F
:1023EC001981008311831282138214821582168242
:1023FC001782D5CF80E090E0DF91CF911F910F91A4
:02240C00089531
:10240E00CF92DF92EF92FF920F93CF93C82F80E07F
:10241E000E944B18C1114BC080912E1290912F1219
:10242E00049741F069E074E080E00E94C41E80E0F1
:10243E000E944B180E94ED1781111BC034C09C01E5
:10244E00992314F42F5F3F4F35952795FC01E050EB
:10245E00FE4F408160E1469FA0011124FC01EF5F19
:10246E00FD4F5081F901EA5DFD4E452B40830296EA
:10247E0002C080E090E0833091050CF386E292E199
:10248E007C0120E8022F0F2EF0E0CF2EFAE0DF2E97
:10249E00F02D24E234E040E060E070E082E090E075
:1024AE000E94B0194EC08C2F0E9407124AC0809114
:1024BE002E1290912F12069741F06FE374E080E098
:1024CE000E94C41E80E00E944B180E94ED178111DD
:1024DE001BC034C09C01992314F42F5F3F4F3595D8
:1024EE002795FC01E050FE4F408160E1469FA00120
:1024FE001124FC01EF5FFD4F5081F901E85DFD4EA7
:10250E00452B4083029602C080E090E08530910515
:10251E000CF386E292E17C0120E8022F0F2EF0E010
:10252E00CF2EFAE0DF2EF02D2AE534E040E062E017
:10253E0070E083E090E00E94B01903C08C2F0E94DF
:10254E000712CF910F91FF90EF90DF90CF900895EB
:10255E00A2E1B0E0E5EBF2E10C94F11FFC010A8B75
:10256E001B832C83732E642E552E462E7D83CC8694
:10257E00D886BF82AE82868197819B878A87D50156
:10258E004D915C91228133818085918501971C014B
:10259E0037FF02C021E030E0EA85FB85E80FF91F26
:1025AE0010824701E1E0F0E0FA83E983C9018E1958
:1025BE009F099E878D87DA01A270BB27B88BAF87E4
:1025CE00B885BB0FBB0BB98B1214130474F0A98121
:1025DE00BA81AB2B09F05CC0AE81BF818D919C910D
:1025EE0011978F7E8D939C9353C02A893B814C818A
:1025FE00572D662D752D842D9D81A0E00E949E2164
:10260E00B1F1E1E02E1A3108FC85F987AF2EB884BE
:10261E00C988DC2CEC2CFC2C0C2D1C2D2A893B8122
:10262E004C81572D662D752D842D9D810E94502134
:10263E00C90129839A83EA85FB85E20DF31D805D2E
:10264E00808381E0881A91082A893B814C81572D1D
:10265E00662D752D842D9D810E9452212A8B3B83E0
:10266E004C83752E662E572E482E9D83ADCF8D85AD
:10267E009E85880D991D181619061CF2181419043A
:10268E000CF0A5CFEF85F889EF2B09F0BACF9FCFCD
:0A269E00C1016296E2E10C942820CD
:1026A800A5E1B0E0EAE5F3E10C94F11F4701580118
:1026B8000E9448222B013C01A80197010E940A228E
:1026C800162FC72ED82EF92E862F9C2DAD2DBF2D57
:1026D80089839A83AB83BC83AA81FB81EC81ED80DB
:1026E8003E802F8008850D8B5E2F5F71212F3A2F3A
:1026F8004F2F60E070E080E090E021153105410542
:1027080000E15007610571058105910509F05EC07A
:102718005E2F6E2D732D822D9D8904E30E94D51F97
:102728002D873E874F87588B698B7A8B8B8B9C8B39
:102738008D859E8597708F3F974009F447C0A30108
:102748009201612F7C2D8D2D9F2D0E9409229B01C6
:10275800AC01C501B4010E9432228823B9F149862F
:102768005A866B867C8629853A854B855C85C501AA
:10277800B4010E940A22B62E872E982EA92E262F43
:10278800372F482F592F612F7C2D8D2D9F2D0E947B
:102798003222811118C02B2D8B2D982DA92DBA2DE1
:1027A80089839A83AB83BC833A814B815C816E2D8C
:1027B800732D822D9D89A1E00E94AA21122FC32E7C
:1027C800D42EF52E03C01B2D6401FA2C612F7C2D0D
:0C27D8008D2D9F2D6596E2E10C942820C9
:1027E4004F925F926F927F928F929F92AF92BF921D
:1027F400CF92DF92EF92FF92CF93DF93CDB7DEB704
:1028040028970FB6F894DEBF0FBECDBF6B017C01D5
:10281400DC01CB0147E1B695A795979587954A9535
:10282400D1F799278F579109873191059CF597FD29
:1028340036C088248A94982C3FE7A32EB12C04C078
:10284400B594A794979487948A95D2F7D501C40137
:102854008C219D21AE21BF21892B8A2B8B2BD1F07A
:1028640020E030E040E85BE7C701B6010E940A229D
:102874006D837E838F839887F7FE04C0C80CD91CB0
:10288400EA1CFB1C80949094A094B094C820D92096
:10289400EA20FB205C2D4D2D3E2D2F2D21C020E064
:1028A40030E040E85BE7C701B6010E940A22698371
:1028B4007A838B839C83F7FE0FC0D701C601880FF0
:1028C400991FAA1FBB1F892B8A2B8B2B19F350E04E
:1028D40040E030E82FEB04C050E040E030E020E07E
:1028E400652F742F832F922F28960FB6F894DEBF8E
:1028F4000FBECDBFDF91CF91FF90EF90DF90CF90CF
:10290400BF90AF909F908F907F906F905F904F900B
:02291400089524
:102916002F923F924F926F927F928F92AF92BF9279
:10292600CF92DF92EF92FF920F931F93CF93DF9395
:10293600CDB7DEB766970FB6F894DEBF0FBECDBF34
:102946005C013A01862E6901C701817099279C8B2B
:102956008B8BE0FC1DC020173107D4F47801EC18EE
:10296600FD08FE8AED8AA70191E1E916F10410F04F
:1029760040E150E060E270E0CE0101969A8B898BCF
:102986000E94CC2189899A891C0120E8422E0BC01D
:102996009601682DA301C5010E94821DC016D106AD
:1029A600ECF2C60125C090E1E916F10458F020E1E9
:1029B60030E0642DA101C5010E94821D80E1E81A64
:1029C600F108F1CF2D893E892F70332789899A899D
:1029D600AC0160E8C5010E94821D8B899C89892B08
:1029E60031F49601682DA301C5010E94821DC8011C
:1029F60066960FB6F894DEBF0FBECDBFDF91CF91BE
:102A06001F910F91FF90EF90DF90CF90BF90AF9006
:0E2A16008F907F906F904F903F902F9008957B
:102A240010C00E941E2258F00E94172240F029F480
:102A34005F3F29F00C942C2251110C9426220C9403
:102A44004C220E94521F68F39923B1F3552391F34A
:102A5400951B550BBB27AA2762177307840738F009
:102A64009F5F5F4F220F331F441FAA1FA9F335D066
:102A74000E2E3AF0E0E832D091505040E695001C1A
:102A8400CAF72BD0FE2F29D0660F771F881FBB1FD4
:102A9400261737074807AB07B0E809F0BB0B802DB2
:102AA400BF01FF2793585F4F3AF09E3F510578F0DE
:102AB4000C942C220C9426225F3FE4F3983ED4F32A
:102AC400869577956795B795F7959F5FC9F7880FB2
:102AD400911D9695879597F90895E1E0660F771F04
:102AE400881FBB1F621773078407BA0720F0621B95
:0E2AF400730B840BBA0BEE1F88F7E095089564
:102B0200CF93DF93DC01F90164387105D9F164F4E4
:102B12006138710521F16238710509F440C06038ED
:102B2200710509F054C02EC060397105C1F184F4F9
:102B32006838710509F04BC0C081D181CE0102967F
:102B420091838083E881F981ED93FC9340833CC0BB
:102B5200603A7105B9F0603C7105A1F038C0C081DE
:102B6200D181CE01029691838083E881F981ED9330
:102B7200FC93052E000C660B770B40835183628316
:102B8200738322C0C081D181CE010296918380835A
:102B9200E881F981ED93FC935183408315C0C08194
:102BA200D181CE01029691838083E881F981ED93F0
:102BB200FC9351834083852F880F880B8283838304
:102BC200848385838683878381E090E002C080E0EE
:082BD20090E0DF91CF9108951E
:102BDA00A2E0B0E0E3EFF5E10C94F11F1C014B0118
:102BEA00FA01DB0112962D913C91139714964D90A0
:102BFA005C9015978D919C9111979A83898316966B
:102C0A006D907C90179737FD03C08D7F9A838983D7
:102C1A0000811181228133814481558166817781C6
:102C2A00FE0131965F0188E0C82ED12C7201C401E1
:102C3A000E94AF12298124FF06C00197F301E80F11
:102C4A00F91F20E32083298123FF06C00197F3019E
:102C5A00E80FF91F20E22083E980FA80D401189650
:102C6A002D913C91199721503109281B390B860D5A
:102C7A00971DAC0160E88201C1010E948B149C017E
:102C8A00F1018081918190FF08C0D40112968D9143
:102C9A009C911397821793070CF4C9012296E2E1DB
:042CAA000C9428203E
:102CAE000FC00E94172238F00E941E2220F095239A
:102CBE0011F00C942C220C944C2211240C942622EC
:102CCE000E94521F70F3959FC1F3950F50E0551F50
:102CDE00629FF001729FBB27F00DB11D639FAA2763
:102CEE00F00DB11DAA1F649F6627B00DA11D661FB2
:102CFE00829F2227B00DA11D621F739FB00DA11DD3
:102D0E00621F839FA00D611D221F749F3327A00D8C
:102D1E00611D231F849F600D211D822F762F6A2F28
:102D2E0011249F5750409AF0F1F088234AF0EE0F8D
:102D3E00FF1FBB1F661F771F881F91505040A9F7BA
:102D4E009E3F510580F00C942C220C9426225F3F5E
:102D5E00E4F3983ED4F3869577956795B795F795F6
:102D6E00E7959F5FC1F7FE2B880F911D969587956E
:042D7E0097F9089524
:102D820011C00E94172238F00E941E2220F039F44E
:102D92009F3F19F426F40C944C220EF4E095E7FBC5
:102DA2000C942C22E92F0E94521F58F3BA17620783
:102DB20073078407950720F079F4A6F50C94252271
:102DC2000EF4E0950B2EBA2FA02D0B01B901900144
:102DD2000C01CA01A0011124FF27591B99F0593F88
:102DE20050F4503E68F11A16F040A22F232F342FD0
:102DF2004427585FF3CF469537952795A795F0401E
:102E02005395C9F77EF41F16BA0B620B730B840B32
:102E1200BAF09150A1F0FF0FBB1F661F771F881FEA
:102E2200C2F70EC0BA0F621F731F841F48F4879542
:102E320077956795B795F7959E3F08F0B0CF939534
:0E2E4200880F08F09927EE0F97958795089551
:102E50002F923F924F926F927F928F92AF92BF923A
:102E6000CF92DF92EF92FF920F931F93CF93DF9356
:102E7000CDB7DEB727970FB6F894DEBF0FBECDBF34
:102E80006C017B013901842E98018FEE282E85E09C
:102E9000382E80E0482E87E0F101AE014F5F5F4F92
:102EA000DA01742D0E945E21F70102811381A48052
:102EB000B580E080F18061147104810419F43A0155
:102EC000F0E88F2E2115310529F4882DB3010E94D9
:102ED00000219C0117FD04C00217130708F4980194
:102EE0008501682DA301C6010E948B1427960FB699
:102EF000F894DEBF0FBECDBFDF91CF911F910F9130
:102F0000FF90EF90DF90CF90BF90AF908F907F9029
:0A2F10006F904F903F902F900895AE
:102F1A00CF92DF92EF92FF920F93CF93DF9367E204
:102F2A0075E080E00E94C41E80E00E94071266E4F9
:102F3A0075E080E00E94C41E81E00E940712C0E092
:102F4A00D0E03BC00E94E81D0E94B51F80912A1262
:102F5A008034B1F180911F0A8F3FA9F086E292E195
:102F6A007C0120E8022F0F2EF0E0CF2EFAE0DF2EB0
:102F7A00F02D29E635E040E064E070E081E090E081
:102F8A000E94B01914C086E292E17C0120E8022F67
:102F9A000F2EF0E0CF2EFAE0DF2EF02D2AE835E0F2
:102FAA0040E064E070E081E090E00E94B019E6E25F
:102FBA00F2E184818F5F84832196C034D10514F2B3
:102FCA00DF91CF910F91FF90EF90DF90CF9008950E
:102FDA00CF92DF92EF92FF920F9380E090E045C08C
:102FEA00FC01E050FE4F208130ED320F3A3028F4D8
:102FFA00FC01E050FE4F308337C03FEB320F3630D2
:10300A0030F4FC01E050FE4F275320832DC03FE9E6
:10301A00320F363030F4FC01E050FE4F2755208342
:10302A0023C02D3041F12A3041F1222341F16AE7D0
:10303A0071E080E00E94C41E80E092E07C0120E8FA
:10304A00022F0F2EF0E0CF2EFAE0DF2EF02D2EEA1F
:10305A0031E040E060E070E081E090E00E94B01969
:10306A000E94E81D80E00CC00196863091050CF4A0
:10307A00B7CF81E005C081E003C081E001C081E0F3
:0C308A000F91FF90EF90DF90CF90089521
:10309600CF92DF92EF92CF93C82F6AEF73E080E072
:1030A6000E94C41E10922F1210922E120E94ED2121
:1030B60080931E0A25C080912E1290912F120196A0
:1030C60090932F1280932E1280913012909131128C
:1030D600FC01E050FE4F20838115984020F01092AD
:1030E6003112109230128091301290913112019665
:1030F60090933112809330120E94ED2180931E0A24
:1031060020911E0A2D30B9F6E0913012F09131125D
:10311600E050FE4F1082109231121092301280E071
:1031260092E06C0120E8E22E8E2DB6010E94C41EAC
:103136008AE00E94E621CC2321F08E2DB6010E9462
:0C314600A20DCF91EF90DF90CF90089584
:10315200CF93DF93C82F0E943C22CC23C9F08FE18A
:103162008EBD0DB407FEFDCF8EB580932B1280EA83
:103172008EBD0DB407FEFDCF8EB580932B128CE76A
:103182008EBD0DB407FEFDCF8EB580931F0A17C00A
:103192008FE18EBD0DB407FEFDCF8EB580932B124D
:1031A20080EA8EBD0DB407FEFDCF8EB580932B1243
:1031B2001EBC0DB407FEFDCF8EB580931F0A0E9480
:1031C200402280911F0A1F928F9381EB94E0A0E02E
:1031D200AF939F938F93C0E0DAE0DF93CF930E9487
:1031E200C820BE0180E80E94C41E8DB79EB7079614
:1031F2000FB6F8949EBF0FBE8DBFDF91CF91089599
:10320200A2E0B0E0E7E0F9E10C94F11F3C014B01D0
:10321200FA01DB0112962D913C91139714964D9071
:103222005C9015978D919C9111979A83898316963C
:103232002D903C90179737FD03C08D7F9A83898329
:103242000081118122813381448155816681778198
:10325200FE0131965F018AE0C82ED12C7201C401B1
:103262000E94AF12E980FA80D40118962D913C9108
:10327200199721503109281B390B820D931DAC017E
:1032820060E88201C3010E948B149C01F3018081DA
:10329200918190FF08C0D40112968D919C91139751
:1032A200821793070CF4C9012296E2E10C942820BC
:1032B200CF93DF93C82F0E943C22CC23C1F08FE131
:1032C2008EBD0DB407FEFDCF8EB580932B1280EA22
:1032D2008EBD0DB407FEFDCF8EB580932B121EBCA2
:1032E2000DB407FEFDCF8EB580931F0A17C08FE085
:1032F2008EBD0DB407FEFDCF8EB580932B1280EAF2
:103302008EBD0DB407FEFDCF8EB580932B121EBC71
:103312000DB407FEFDCF8EB580931F0A0E94402296
:1033220080911F0A1F928F9381EB94E0A0E0AF93EC
:103332009F938F93C0E0DAE0DF93CF930E94C8207F
:10334200BE0180E80E94C41E8DB79EB707960FB6D5
:0E335200F8949EBF0FBE8DBFDF91CF910895FE
:103360003F924F925F926F927F928F929F92AF9215
:10337000BF92CF92DF92EF92FF920F931F93CF9362
:10338000DF935C014B01722E132F342E2701602E28
:10339000C0E0D0E026C0CE01880D991D462D9201D7
:1033A000280F391F411D97FD4A95A42FC901F90126
:1033B0005A2F0E9402221F926F933F921F937F9277
:1033C000DF92CF920E94DB20B60180E80E94C41EEB
:1033D00021968DB79EB707960FB6F8949EBF0FBE85
:1033E0008DBFCA15DB05BCF2DF91CF911F910F9104
:1033F000FF90EF90DF90CF90BF90AF909F908F9015
:0C3400007F906F905F904F903F90089578
:10340C00CF92DF92EF929A01462F009781F56901D6
:10341C00E42E52E0C50ED11CE11CF6015E2D0E947B
:10342C0002226EBD0DB407FEFDCF5EB550932B127C
:10343C006901E42E53E0C50ED11CE11CF6015E2D92
:10344C000E9402226EBD0DB407FEFDCF5EB55093F7
:10345C002B122C5F3F4F4F4FF901542F0E94022229
:10346C006EBD0DB407FEFDCF2EB520932B12019728
:10347C00B1F41EBC0DB407FEFDCF8EB580932B129C
:10348C001EBC0DB407FEFDCF8EB580932B1281E0D0
:10349C008EBD0DB407FEFDCF8EB580932B12EF9031
:0634AC00DF90CF900895AF
:1034B200CF92DF92EF92DC0190E0292F30E0220FD1
:1034C200331F6901032E000CEE086E2DA6014A552A
:1034D2005A4F6F4F6A01E62EFA015E2D0E940222B8
:1034E200862F61110EC02F5F3F4F032E000C440B3D
:1034F2002A553A4F4F4FF901542F0E940222862F2C
:1035020025C0CD90DD90EC901297F6015E2D0E94C1
:103512000222861316C02F5F3F4F032E000C440B6E
:103522002A553A4F4F4FF901542F0E940222962FEB
:103532005FEFC51AD50AE50ACD92DD92EC92129799
:1035420001C09F5F9B3008F4B8CF892FEF90DF90C6
:04355200CF90089579
:103556006F927F928F92EF92FF920F931F93CF936A
:10356600DF93CDB7DEB761970FB6F894DEBF0FBE17
:10357600CDBFFE01319651E1DF011D925A95E9F763
:10358600A2E0B1E0BA83A9839C838B8377FF09C04D
:103596008FE490E090932D1280932C128FEF9FEF83
:1035A60019C03901842E7C01615071097F836E83B5
:1035B6009801682DA301CF010E9475204885598581
:1035C6002E813F814217530708F49A01F701E20F53
:1035D600F31F108261960FB6F894DEBF0FBECDBF03
:1035E600DF91CF911F910F91FF90EF908F907F9079
:0435F6006F90089535
:1035FA006F927F928F92EF92FF920F931F93CF93C6
:10360A00DF93CDB7DEB761970FB6F894DEBF0FBE72
:10361A00CDBFFE01319651E1DF011D925A95E9F7BE
:10362A00A2E0B1E0BA83A9839C838B8377FF09C0A8
:10363A008FE490E090932D1280932C128FEF9FEFDE
:10364A0019C03901842E7C01615071097F836E8310
:10365A009801682DA301CF010E945D2048855985F4
:10366A002E813F814217530708F49A01F701E20FAE
:10367A00F31F108261960FB6F894DEBF0FBECDBF5E
:10368A00DF91CF911F910F91FF90EF908F907F90D4
:04369A006F90089590
:10369E0088249924F401E401B0E49F93AA279A1593
:1036AE008B049C04ED05FE05CF05D007A10798F409
:1036BE00AD2FDC2FCF2FFE2FE92D982C892E982F92
:1036CE00872F762F652F542F432F322F2227B85056
:1036DE0031F7BF9127C01B2EBF91BB27220F331F7F
:1036EE00441F551F661F771F881F991F881C991C22
:1036FE00EE1FFF1FCC1FDD1FAA1FBB1F8A149B04CA
:10370E00EC05FD05CE05DF05A007B10748F08A18C8
:10371E009B08EC09FD09CE09DF09A00BB10B216056
:10372E001A94E1F62EF49401AF01BE01CD01000C06
:02373E000895EC
:103740000F931F93CF93DF93EC01892B51F12FC07F
:103750001EBC0DB407FEFDCF2EB5FC01E15EF54F9A
:1037600020832EB52D30D9F49F938F9380EE94E073
:10377000A0E0AF939F938F9300E01AE01F930F9305
:103780000E94C820B80180E80E94C41E8DB79EB771
:1037900007960FB6F8949EBF0FBE8DBF08C0019666
:1037A00002C080E090E0811528E0920788F221971E
:1037B00091F40BC01EBC0DB407FEFDCF2EB5FC016D
:1037C000E15EF54F2083019602C080E090E0811514
:1037D00028E0920778F3DF91CF911F910F91089520
:1037E0000F931F93CF93DF930E943C228FE08EBDF7
:1037F0000DB407FEFDCF8EB580932B1280EC8EBDED
:103800000DB407FEFDCF8EB580932B121EBC0DB4F8
:1038100007FEFDCF8EB50FE112E1F80180831F9204
:103820008F938AEF94E0A0E0AF939F938F93C0E0D3
:10383000DAE0DF93CF930E94C820BE0180E80E94A7
:10384000C41E3AE13A95F1F700C0F80180812DB726
:103850003EB7295F3F4F0FB6F8943EBF0FBE2DBF56
:1038600080FDD4CF0E944022DF91CF911F910F9114
:023870000895B9
:103872000F931F93CF93DF93DB012D913C9111970F
:1038820030FF25C017964D915C91189715962D9192
:103892003C9116974217530778F41296ED91FC91DA
:1038A2001397808312962D913C9113972F5F3F4F70
:1038B20013963C932E93129717962D913C9118973D
:1038C2002F5F3F4F18963C932E93179715C01D9666
:1038D200ED91FC911E97309719F48FEF9FEF0CC07A
:1038E2008B01EC011995892BC1F7F801878190852D
:1038F200019690878783CE01DF91CF911F910F911F
:02390200089526
:10390400CF939B01482FF901542F0E940222603269
:10391400B9F1862F062E000C990B0997059780F1B3
:103924006B3249F5A0E0B0E02F5F3F4F4F4F02C02C
:10393400A0E0B0E080E090E0CAE0F901542F0E94DA
:103944000222062E000C770B605371096A30710550
:1039540060F4C89FF001C99FF00D11242F5F3F4F01
:103964004F4FCF01861B970BE8CFAB2B69F4919592
:103974008195910909C06D32D9F6A1E0B0E0D4CFA8
:0C3984002F5F3F4F4F4FBFCFCF910895F2
:10399000CF93DF930E943C228FE98EBD0DB407FECA
:1039A000FDCF8EB580932B121EBC0DB407FEFDCF4C
:1039B0008EB580932B121EBC0DB407FEFDCF8EB5C5
:1039C00080931F121EBC0DB407FEFDCF8EB5CFE154
:1039D000D2E189830E944022998188811F929F931E
:1039E0001F928F9389E794E0A0E0AF939F938F930A
:1039F000C0E0DAE0DF93CF930E94C820BE0180E8E8
:103A00000E94C41E8DB79EB709960FB6F8949EBF4C
:0A3A10000FBE8DBFDF91CF91089526
:103A1A00CF93DF930E94741F0E946C210E943C2264
:103A2A0082E08EBD0DB407FEFDCF8EB580932B12BA
:103A3A008AE18A95F1F700C046E252E160E8809196
:103A4A002412909125120E94461EC0E0D0E00CC0BC
:103A5A00FE01E050FE4F80818EBD0DB407FEFDCF02
:103A6A008EB580932B12219660E072E080E80E9466
:103A7A000021C817D90760F30E9440220E94432000
:063A8A00DF91CF910895C9
:103A90006F927F928F92CF92DF92EF92FF920F936D
:103AA00062ED71E080E00E94C41E86E292E13C017A
:103AB00020E8822E0F2EF0E0CF2EFAE0DF2EF02D40
:103AC000082D730121EF31E040E060E070E082E01A
:103AD00090E00E94B0196AEF71E080E00E94C41E7D
:103AE00021EF31E040E062E070E083E090E00E948E
:103AF000B0190F91FF90EF90DF90CF908F907F9053
:043B00006F90089525
:103B04006F927F928F92CF92DF92EF920F931F93D7
:103B1400CF93DF938C016A01E62EE9013A01862EE8
:103B2400620E731E811C37FD8A94C614D704E80400
:103B340081F0F6015E2D0E940222862FB801082E24
:103B4400000C990B0E94391C8FEFC81AD80AE80A96
:103B5400ECCFCE01DF91CF911F910F91EF90DF90C9
:0A3B6400CF908F907F906F9008952E
:103B6E0081B1886081B982B1886082B981B180618A
:103B7E0081B982B1806182B981B1806281B982B12D
:103B8E00806282B981B1806481B982B1806482B968
:103B9E0081B1806881B982B1806882B981B1826059
:103BAE0081B982B1826082B981B1846081B982B1FA
:103BBE00846082B981B1886081B982B1886082B92E
:023BCE00089558
:103BD00080E090E005C0FC01E15EFD4E10820196A0
:103BE00085309105C0F380E090E005C0FC01E15E06
:103BF000F54F10820196811528E09207B8F380E016
:103C000090E005C0FC01E050FE4F10820196811546
:103C100028E09207B8F380E090E005C0FC01E05096
:0E3C2000F64F108201968E319105C0F3089583
:103C2E000E945A1F88F09F5798F0B92F9927B751C5
:103C3E00B0F0E1F0660F771F881F991F1AF0BA9542
:103C4E00C9F714C0B13091F00E942522B1E0089559
:103C5E000C942522672F782F8827B85F39F0B93F4B
:103C6E00CCF3869577956795B395D9F73EF49095F5
:0E3C7E008095709561957F4F8F4F9F4F0895F1
:103C8C009A01462F0097C9F4F901542F0E94022281
:103C9C006EBD0DB407FEFDCF5EB550932B122F5F9A
:103CAC003F4F4F4FF901542F0E9402226EBD0DB4AD
:103CBC0007FEFDCF2EB520932B12019771F41EBC7D
:103CCC000DB407FEFDCF8EB580931F121EBC0DB434
:0C3CDC0007FEFDCF8EB5809320120895E6
:103CE8000E943C228BE08EBD0DB407FEFDCF8EB541
:103CF80080932B128AE18A95F1F700C046E252E1DF
:103D080060E880912412909125120E94461E8FEF40
:103D18008EBD0DB407FEFDCF8EB580932B1280911A
:103D28002412909125120E94A01B0E9440220895FF
:103D38000E943C228FE18EBD0DB407FEFDCF80EBC3
:103D48008EBD0DB407FEFDCF80E48EBD0DB407FE19
:103D5800FDCF0E9440220E94B51F0E943C228FE1A5
:103D68008EBD0DB407FEFDCF80EB8EBD0DB407FEF2
:103D7800FDCF1EBC0DB407FEFDCF0E944022089562
:103D8800CF92DF92EF92CF93DF936B01E82EC0E0E2
:103D9800D0E00FC0AE2DC6018C0F9D1FA11DD7FD11
:103DA800AA95FC015A2F0E940222862F0E94E62122
:103DB80021968E2DB6010E940021C817D90750F30D
:0C3DC800DF91CF91EF90DF90CF90089535
:103DD400990F0008550FAA0BE0E8FEEF1616170618
:103DE400E807F907C0F012161306E407F50798F080
:103DF400621B730B840B950B39F40A2661F0232B99
:103E0400242B252B21F408950A2609F4A140A69514
:083E14008FEF811D811D08954F
:103E1C000E94B6210E94B5200E940D200E94B71D61
:103E2C000E94EE200E94FB210E94E81D6CEB75E0C5
:103E3C0080E00E94C41E81E00E944B180E94F42175
:103E4C002FEF81EE94E0215080409040E1F700C0CC
:043E5C000000EACFA9
:103E6000CF92DF92EF926B01E82EF6015E2D0E9459
:103E70000222862FF901542F0E94022286130BC0C2
:103E8000882341F08FEFC81AD80AE80A2F5F3F4F06
:103E90004F4FEBCF682F90E0861B9109EF90DF909A
:043EA000CF90089522
:103EA40057FD9058440F551F59F05F3F71F04795E7
:103EB400880F97FB991F61F09F3F79F087950895CC
:103EC400121613061406551FF2CF4695F1DF08C0EB
:103ED400161617061806991FF1CF86957105610508
:043EE40008940895A1
:103EE8000E946C210E943C2288ED8EBD0DB407FE15
:103EF800FDCF8EB580932B1246E252E160E88091A7
:103F08002412909125120E94061A0E94402269E10B
:103F180075E080E00E94C41E0E94F01B0E94792177
:023F28000895FA
:103F2A00FA0160387105CCF0623871051CF063380B
:103F3A00710599F4A081B1819D012C5F3F4F3183B6
:103F4A0020834D915D916D917C91FC014083518359
:103F5A006283738381E090E0089580E090E00895A1
:103F6A000E943C2283E18EBD0DB407FEFDCF8EB5C3
:103F7A0080932B128AE18A95F1F700C046E252E15A
:103F8A0060E880912412909125120E94061A0E94DC
:0C3F9A0040220E94F01B0E94741E08953B
:103FA60097FB10F8169400080F93083098F0085005
:103FB600232F342F452F562F672F782F892F902D9B
:103FC600F4CF059497958795779567955795479577
:0C3FD600379527950A95AAF70F910895DA
:103FE2002F923F924F925F926F927F928F929F9207
:103FF200AF92BF92CF92DF92EF92FF920F931F93F5
:10400200CF93DF93CDB7DEB7CA1BDB0B0FB6F894A5
:08401200DEBF0FBECDBF199403
:10401A0087E690E09093C5008093C4008DB18260DA
:10402A008DB9E1ECF0E08081886080838DB18E7F6C
:10403A008DB980818061808381B1846081B982B1C8
:06404A00846082B90895B4
:104050002A88398848885F846E847D848C849B8418
:10406000AA84B984C884DF80EE80FD800C811B8126
:10407000AA81B981CE0FD11D0FB6F894DEBF0FBE55
:06408000CDBFED01089523
:104086000E943C2280E18EBD0DB407FEFDCF8EB5A9
:1040960080932B1246E252E160E8809124129091BF
:1040A60025120E94061A0E9440220E94F01B0E94BE
:0440B60079210895CF
:1040BA00A2E0B0E0E3E6F0E20C94FF1F8C013A8341
:1040CA0029839E012F5F3F4F0E94FE02F801208143
:1040DA0024FF02C08FEF9FEF2296E4E00C94362073
:1040EA00A2E0B0E0EBE7F0E20C94FF1F8C013A8308
:1040FA0029839E012F5F3F4F0E94FE02F801208113
:10410A0024FF02C08FEF9FEF2296E4E00C94362042
:10411A0097FB072E16F4009407D077FD09D00E946A
:10412A00A12007FC05D03EF4909581959F4F0895F4
:08413A00709561957F4F089517
:10414200AA1BBB1B51E107C0AA1FBB1FA617B707BB
:1041520010F0A61BB70B881F991F5A95A9F78095D7
:084162009095BC01CD01089508
:10416A0087B1806487B988B1806488B983B3816074
:10417A0083BB84B3816084BB83B3826083BB84B313
:06418A00826084BB089571
:10419000A0E0B0E0EEECF0E20C9401209E01255F7F
:1041A0003F4F488559856A858E819F810E94922163
:0641B000E2E00C9438204F
:1041B600A0E0B0E0E1EEF0E20C9401209E01255F64
:1041C6003F4F488559856A858E819F810E94862149
:0641D600E2E00C94382029
:1041DC0084B1866084B984B1877F84B984B18160ED
:1041EC0084B985B1816085B98CB581658CBD8CB580
:0441FC008CBD0895D9
:104200009B01482FA82FCB01FC015A2F0E940222AC
:10421000662319F00196A11DF7CF642FA901841B15
:04422000950B08955D
:10422400092E0394000C11F4882352F0BB0F40F4C0
:10423400BF2B11F460FF04C06F5F7F4F8F4F9F4F00
:024244000895DB
:1042460060957095809590953095409550952195FF
:104256003F4F4F4F5F4F6F4F7F4F8F4F9F4F089589
:104266000E943C228FEF8EBD0DB407FEFDCF0E944B
:0E42760040226FEC74E080E00E94C41E0895A8
:104284009A01462FDC01F901542F0E9402226D93FA
:0C4294002F5F3F4F4F4F6111F6CF089590
:1042A000689401C0E8948F929F92CF93DF930E940D
:0C42B0004F1BDF91CF919F908F900895DD
:1042BC00992777FD06C07BBF07900D920197E1F718
:0C42CC00089501900D920197E1F708950C
:1042D8000E943C2286E08EBD0DB407FEFDCF8EB550
:0A42E80080932B120E9440220895DB
:1042F2000E943C2284E08EBD0DB407FEFDCF8EB538
:0A43020080932B120E9440220895C0
:10430C000F931F9389019A01462F6FEF7FE70E944D
:08431C00FD1A1F910F91089595
:104324000F931F9389019A01462F6FEF7FE70E9435
:08433400AB1A1F910F910895CF
:10433C000024A7FD00942A173005400550056005A0
:08434C0070058005900508953D
:104354000024A7FD00942A0F301D401D501D601D30
:08436400701D801D901D0895DD
:10436C00E1E0F1E0808180668083E2E0F1E0808131
:06437C00806680830895B5
:10438200EC010E9454220E945322CE010E94552227
:06439200CE010E94512241
:10439800FC01480F591FE417F50711F06193FBCF93
:0243A800089576
:1043AA009C01215631092A31310510F48F7599275C
:0243BA00089564
:1043BC009C01215431092A31310508F48062089599
:0E43CC009091C00095FFFCCF8093C60008952D
:0E43DA008091C0008823E4F78091C60008950A
:0E43E800E2E0F1E0908180E48927808308956F
:0E43F600E2E0F1E0908180E289278083089563
:0E44040057FD03C05BBF679108956081089566
:0E4412005058BB27AA270E94C1160C941221F5
:0E4420000E94171E6894B1110C942622089574
:0E442E0000240A9416161706180609060895AB
:0E443C0000240A9412161306140605060895AD
:0E444A00E894BB2766277727CB0197F90895E2
:0C44580097F99F6780E870E060E008952D
:0A4464000E94EA1E08F481E00895AA
:0A446E000E94EA1E08F48FEF089583
:0844780082B1877F82B908952B
:0844800082B1886082B9089541
:084488000E9412150C94122190
:084490000E9457160C94122142
:064498009FEF80EC089587
:04449E000C9400007A
:0444A2000E94BB00B9
:0244A600089577
:0244A800089575
:0244AA00089573
:00000001FF
